:020000040000fa
:080000000013040000000000e1
:020000040000fa
:1000080002100000061000000a1000000e10000088
:1000180012100000161000001a1000001e10000038
:1000280022100000261000002a1000002e100000e8
:1000380032100000361000003a1000003e10000098
:1000480042100000461000004a1000004e10000048
:1000580052100000561000005a1000005e100000f8
:1000680062100000661000006a1000006e100000a8
:1000780072100000761000007a1000007e10000058
:1000880082100000861000008a1000008e10000008
:1000980092100000961000009a1000009e100000b8
:1000a800a2100000a6100000aa100000ae10000068
:1000b800b2100000b6100000ba100000be10000018
:1000c800c2100000c6100000ca100000ce100000c8
:1000d800d2100000d6100000da100000de10000078
:1000e800e2100000e6100000ea100000ee10000028
:1000f800f2100000f6100000fa100000fe100000d8
:1001080002110000061100000a1100000e11000083
:1001180012110000161100001a1100001e11000033
:1001280022110000261100002a1100002e110000e3
:1001380032110000361100003a1100003e11000093
:1001480042110000461100004a1100004e11000043
:1001580052110000561100005a1100005e110000f3
:1001680062110000661100006a1100006e110000a3
:1001780072110000761100007a1100007e11000053
:1001880082110000861100008a1100008e11000003
:1001980092110000961100009a1100009e110000b3
:1001a800a2110000a6110000aa110000ae11000063
:1001b800b2110000b6110000ba110000be11000013
:1001c800c2110000c6110000ca110000ce110000c3
:1001d800d2110000d6110000da110000de11000073
:1001e800e2110000e6110000ea110000ee11000023
:1001f800f2110000f6110000fa110000fe110000d3
:1002080002120000061200000a1200000e1200007e
:1002180012120000161200001a1200001e1200002e
:1002280022120000261200002a1200002e120000de
:1002380032120000361200003a1200003e1200008e
:1002480042120000461200004a1200004e1200003e
:1002580052120000561200005a1200005e120000ee
:020000040000fa
:1020000002000000a414040000000000a414040056
:1020100000000000a414040000000000a414040048
:1020200000000000a414040000000000a414040038
:1020300000000000a414040000000000a414040028
:1020400000000000a414040000000000a414040018
:1020500000000000a414040000000000d2ba040034
:1020600000000000a414040000000000a4140400f8
:1020700000000000a4140400000000002ca50400cf
:10208000000000002ea6040000000000a4140400bc
:1020900000000000a414040000000000a6b8040022
:1020a000000000007ab8040000000000a41404003e
:1020b00000000000a414040000000000a4140400a8
:1020c00000000000a414040000000000a414040098
:1020d00000000000a414040000000000a414040088
:1020e00000000000a414040000000000a414040078
:1020f00000000000a414040000000000a414040068
:1021000000000000a414040000000000a414040057
:1021100000000000a414040000000000a414040047
:1021200000000000a414040000000000a414040037
:1021300000000000a414040000000000a414040027
:1021400000000000a414040000000000a414040017
:1021500000000000a414040000000000a414040007
:1021600000000000a414040000000000a4140400f7
:1021700000000000a414040000000000a4140400e7
:1021800000000000a414040000000000a4140400d7
:1021900000000000a414040000000000a4140400c7
:1021a00000000000a414040000000000a4140400b7
:1021b00000000000a414040000000000a4140400a7
:1021c00000000000a414040000000000a414040097
:1021d00000000000a414040000000000a414040087
:1021e00000000000a414040000000000a414040077
:1021f00000000000a414040000000000a414040067
:1022000000000000a414040000000000a414040056
:1022100000000000a414040000000000a414040046
:1022200000000000a414040000000000a414040036
:1022300000000000a414040000000000a414040026
:1022400000000000a414040000000000a414040016
:1022500000000000a414040000000000a414040006
:1022600000000000a414040000000000a4140400f6
:1022700000000000a414040000000000a4140400e6
:1022800000000000a414040000000000a4140400d6
:1022900000000000a414040000000000a4140400c6
:1022a00000000000a414040000000000a4140400b6
:1022b00000000000a414040000000000a4140400a6
:1022c00000000000a414040000000000a414040096
:1022d00000000000a414040000000000a414040086
:1022e00000000000a414040000000000a414040076
:1022f00000000000a414040000000000a414040066
:1023000000000000a414040000000000a414040055
:1023100000000000a414040000000000a414040045
:1023200000000000a414040000000000a414040035
:1023300000000000a414040000000000a414040025
:1023400000000000a414040000000000a414040015
:1023500000000000a414040000000000a414040005
:1023600000000000a414040000000000a4140400f5
:1023700000000000a414040000000000a4140400e5
:1023800000000000a414040000000000a4140400d5
:1023900000000000a414040000000000a4140400c5
:1023a00000000000a414040000000000a4140400b5
:1023b00000000000a414040000000000a4140400a5
:1023c00000000000a414040000000000a414040095
:1023d00000000000a414040000000000a414040085
:1023e00000000000a414040000000000a414040075
:1023f00000000000a414040000000000a414040065
:1024000000000000a414040000000000a414040054
:1024100000000000a414040000000000a414040044
:1024200000000000a414040000000000a414040034
:1024300000000000a414040000000000a414040024
:1024400000000000a414040000000000a414040014
:1024500000000000a414040000000000a414040004
:1024600000000000a414040000000000a4140400f4
:1024700000000000a414040000000000a4140400e4
:1024800000000000a414040000000000a4140400d4
:1024900000000000a414040000000000a4140400c4
:1024a00000000000a414040000000000a4140400b4
:1024b00000000000a414040000000000a4140400a4
:0424c0000000000018
:020000040000fa
:10260000af7722000eff27000e01880000000000b7
:10261000000020000000e000020032000001200065
:10262000200288000c00070000732a00010020002f
:102630000f000700000020000000e0000200320050
:102640000000020000000000f0a1020000000000f5
:102650000040da000000fe00c01820000000e0008a
:1026600002003200002020009001880000000600d7
:10267000a1028800800078000000eb001a003700fb
:10268000e280400054a0b4009101ba00e280400012
:1026900054a0b4009102ba00e280400054a0b400fb
:1026a0000002eb00472bde00f507b200a601880010
:1026b000602ce10008003a000049eb000201e8004c
:1026c000020039003420ec0002f0a0008301e90090
:1026d000f9ff3e00040037006128e10001003200ec
:1026e0000082eb000b00070011c3ba001101ba0011
:1026f0000604e00003003a000200e000e0ff3a00b8
:1027000000000600f607b200a602880082007800ea
:10271000f5ff370004d0a300e20f49001c00390088
:10272000810278003549ba000201e8000200390050
:102730003420ec0002f0a0008301e9000f00320019
:102740002549ba000201e800020039003420ec00fb
:1027500002f0a0008301e900080032000400e0005c
:102760000600320015c9ba000201e8000200390073
:102770003420ec0002f0a0008301e9008180e80031
:1027800054a0b4000300e000e2ff3a00000006009d
:102790009102ba00055978008301e900f7ff320081
:1027a000c82ade00055978008301e900f3ff3200f2
:1027b0000400e000f1ff320011d9ba00eeff37004b
:1027c00028ae0400000000003a6f04000000000082
:1027d0007e73040000000000ee6c040000000000a6
:1027e000ec6f040000000000bc6d0400000000005d
:1027f0001a630400000000009a6404000000000056
:10280000586c040000000000967c040000000000ea
:10281000c03c04000000000098810400000000009b
:10282000787c040000000000687d040000000000c7
:10283000aa7f0400000000005a7f0400000000008e
:10284000127e040000000000688104000000000007
:1028500020810400000000006480040000000000eb
:10286000227f040000000000d67e0400000000006b
:10287000ee7d040000000000487d04000000000020
:102880004e7d040000000000a09a0400000000003b
:10289000c497040000000000ca58040000000000b3
:1028a000888b0400000000009e8b040000000000e4
:1028b000b48b040000000000008c04000000000045
:1028c0000491040000000000d48b0400000000000c
:1028d000c88b040000000000d88b0400000000003a
:1028e000cc8b040000000000dc8b04000000000022
:1028f000d08b040000000000b4b40400000000000d
:10290000acb4040000000000a4b404000000000007
:102910009cb404000000000096b404000000000015
:102920001c840400000000002a18040000000000bd
:102930004a2b04000000000000000400000000001a
:10294000b42d0400000000000040da000000fe008a
:102950000a00fa0011002000b1bf9f00c0bf9f0015
:102960006a805700441007004fb897000080fa00b3
:10297000000006000a00fa00e20f500020003e00ae
:1029800090388100e10f50000600320080232000c3
:102990004523200023232000042320000000e00022
:1029a00004003a008022200045222000232220003b
:1029b00004222000060028001403630003003a00ec
:1029c0000608780000002800140a700013a8a3006d
:1029d00001003a0013a0a0000200780005003700b3
:1029e0001388a300feff32003102fb00840a780046
:1029f0000000e9000000e000f9ff3a00080037009d
:102a000033002000b3bf9f00c0bf9f00d1bf9f0015
:102a1000e2bf9f006a805700191007006fb9970046
:102a2000020078000080fa00000006000a00fa00a8
:102a300051002000b1bf9f00c0bf9f006a805700b7
:102a4000111007005fb897000080fa000000060030
:102a5000889fbe0080047800a03881000000e0005c
:102a600004003a000e0007000084eb000000e000c4
:102a700008003500a83881000900e0000500320098
:102a800009004400060007000000e00001003d00ce
:102a90000084eb00080078004f04be000000060030
:102aa000800078000100e00003003a00607122001d
:102ab000a0388900000005000080eb00a27722000a
:102ac000828f500002003e00a13889000000eb0018
:102ad000000006006022b800060220000000d000be
:102ae0008180d2000482d2008582d2000000a00042
:102af0000202520083825a000300310002024200a7
:102b000083824a000000a1000603e900f3ff3a00b7
:102b100000000600efff07000400be0000000600f2
:102b2000889fbe008a9fbe0030044200b0844a00e5
:102b300030054b0090854b006000b1000898be0046
:102b40000a90be000440e10005c8e10006d0e100a3
:102b500007d8e10002003100680040001008e800da
:102b60004f05be004f04be0000000600889fbe0057
:102b70008a9fbe003004be002005be000418540029
:102b800005985c0006185d0007985d0011002000a4
:102b90000440e10005c8e10006d0e10007d8e100eb
:102ba000010039008000eb00108810004f05be00c6
:102bb0004f04be00000006001200fa00889fbe000d
:102bc0008a9fbe008c9fbe00e0b79f00f1b79f00b8
:102bd00082bf9f0093bf9f000605be000404be0095
:102be0000000eb00d0b79f00c0b79f00b0b79f00b8
:102bf000a0b79f0090b79f000006eb005fb1970061
:102c0000cfb09700820141003fb097000200e00082
:102c100004003d00370007007e805700c0ff07001a
:102c200003003700330007007e805700cfff070006
:102c3000dfb697000d00e0000c0035006fb2970082
:102c4000ffb297000fbb97009fbb970010002000ba
:102c5000010020006011b800000272008182720041
:102c600002037300838373001b0007000c06e80057
:102c700001042000810f5600e0ff3a000d00e00043
:102c800004003d000802be000a03be007e8057001b
:102c9000a3ff07005fa897000000e00005003a00ce
:102ca0001fb29700afb297003fb39700cfb3970022
:102cb000090007006fb09700ffb097000fb99700a9
:102cc0009fb997004f06be004f05be004f04be00df
:102cd0000080fa0000000600010007000000060066
:102ce000a4b79f00b5b79f00c6b79f00d7b79f0096
:102cf000000006004f09de0082817100b3b79f001b
:102d00004f01de008180400082807000a1b79f00eb
:102d10008fb097004f09de000000400002007000f5
:102d200090b79f007fa897004f01de008180400090
:102d30008280700081b79f000d0007004f3ade00cf
:102d40000000400004007000f0af9f000800070082
:102d50000402420085824a0006034b0087834b0031
:102d6000dfff07000802be000a03be0000000600e5
:102d70002fb29700bfb297004fb39700dfb3970011
:102d800000000600881f780018002000881f7800c7
:102d900089ff07008f87e9004f04780000000600d4
:102da000801feb0084ff07008f87e900000006000a
:102db000889fbe008a9fbe00e00f5000e08f580041
:102dc000e00f5900e08f59000c003d006044b8004e
:102dd0006055b8000000540081805c0002015d0075
:102de00083815d00180020001500070008003d00e9
:102df000180007000004eb00050037000004eb009a
:102e00000f00070002003d0012000700180020001c
:102e1000dcff07000800e000060032006022b80076
:102e20006033b8000000520081805a0002015b004c
:102e300083815b004f05be004f04be00000006000a
:102e4000e00f5200e08f5a00e00f5b00e08f5b0064
:102e5000000006006044b8006055b8000402540049
:102e600085825c0006035d0087835d00000006002c
:102e7000889fbe008a9fbe008c1f7800e00f500024
:102e8000e08f5800e00f5900e08f59000d003d0021
:102e90006044b8006055b8000000540081805c00b8
:102ea00002015d0083815d001c0020000820e1001c
:102eb00009a8e1000ab0e1000bb8e1000d003d00f7
:102ec000080037000006eb00e00f5200e08f5a00c8
:102ed000e00f5b00e08f5b0006003d006044b8003f
:102ee0006055b8000402540085825c0006035d0052
:102ef00087835d00aaff07000c00e0000600320097
:102f00006022b8006033b8000000520081805a008f
:102f100002015b0083815b004f0678004f05be0015
:102f20004f04be0000000600889fbe008a9fbe00be
:102f30008c1f78000006eb00e00f5000e08f580077
:102f4000e00f5900e08f590007003d006044b800d1
:102f50006055b8000000540081805c0002015d00f3
:102f600083815d001c002000e00f5200e08f5a00ba
:102f7000e00f5b00e08f5b0007003d006044b8009d
:102f80006055b8000402540085825c0006035d00b1
:102f900087835d000c00a2000c0007000c00e0001d
:102fa000060032006022b8006033b8000000520012
:102fb00081805a0002015b0083815b004f0678002c
:102fc0004f05be004f04be0000000600889fbe00f3
:102fd0008a9fbe008c9fbe000404b8000506b8009e
:102fe0008904460060854e000606b8000a054600c2
:102ff000e0854e000706b8008b054600040eb800b9
:10300000890446000a854e00e0854d00050eb80093
:103010000a0546008b854e00060eb8008b0546005b
:103020000416b8000a0546008b854e000516b80048
:103030008b054600041eb8008b0546000800be0044
:103040000a01be004f06be004f05be004f04be0081
:1030500000000600889fbe00000478000100780090
:1030600082047800880178000901780011002000ae
:103070002f020700890f5000010032000004eb000e
:10308000080078004f04be00000006000000fa00af
:10309000e88157004fb99700c1432200a082210068
:1030a000020007000080fa00000006006200fa003b
:1030b000889fbe008a1f7800000578008104780090
:1030c000020478008300780080f92f000f00400090
:1030d0001b0907009a979f00a9979f000000eb002b
:1030e000b09f9f001885fb008a04fb000a05ea00d8
:1030f0004f55de0050022000808f54000d0032003a
:10310000e10f55000b003a000a01780088007800b2
:103110002f9097009f91970003000100a0979f00b8
:103120000000e0008e0032003f9897000000e800a9
:10313000b09f9f000a04440050022000808f54007a
:10314000040032000900e000e6ff3a003f989700d3
:10315000840037000000eb00909f9f00809f9f003d
:10316000f0979f00e0979f00d0979f00c0979f0027
:1031700007003700816e220001005000000040006f
:10318000c16d2200808040005f98970011007000a0
:10319000d09f9f00880478000904780038457800a3
:1031a0008a00fb00806e2200610407000000e0003e
:1031b000f0ff3a00a1c2b300814f55000e003a0063
:1031c000cf8897000180e900c08f9f001000780031
:1031d000c09f9f000000e00005003d000000ea00e5
:1031e000c09f9f005f9897000020a000d09f9f0085
:1031f0000904e8000f003700c09f9f000000eb00ab
:1032000005003700f2ff2700820f50000200320055
:10321000ea00b900008040000904780088047800c2
:10322000b900fb000103b100e98f5000f5ff360043
:10323000c09f9f00e0c2b300984f10000200320010
:103240000080eb0019003700a0c2b300d84f100077
:1032500007003a00cf8897000180e900c08f9f00e7
:1032600010007800a09f9f000804e80010003700bd
:103270000000eb00a09f9f00880078000500370049
:10328000f3ff2700830f500002003200ea00b9006c
:103290000000410001047800880078003101fb0043
:1032a0000203b100e90f5100f5ff3600a09f9f0017
:1032b000984478008900fb00406d22001c04070040
:1032c0000000e000020032000804e80001003700be
:1032d0008044eb00c97f9f0080c6b30080cf5400bc
:1032e00004003a0098cf14000a003a0066405000eb
:1032f00006003700c0c6b30080cf540005003a0076
:1033000098cf140003003a0065404000c07f9f0042
:103310000804e800e3fb2f008f814100184178008a
:1033200081f92f008f804000a0f92f000f0040008e
:10333000100007000000e00009003a00e1fb2f0048
:103340008f804000a0f92f000f004000c007070049
:103350000000e000020035000804e80061ff3700cb
:103360000080eb004f0578004f04be000080fa009b
:1033700000000600889fbe008a1f780000047800c5
:10338000824478000305780070c6b30080cf5400f3
:1033900021003c0000c0e90080cf5400d4003d0073
:1033a0007240500080cf54003e0132000d003c00be
:1033b0006c40500080cf540051013c0000c0e90037
:1033c00080cf5400ca003d0050c2b30080cf5400eb
:1033d000480132007c40400080cf540048013a0050
:1033e000c300370010c6b30080cf5400c0003200c5
:1033f00004003c006940500080cf540040013a0076
:103400006b00370030c6b30080cf54001800320084
:103410000040e8000900370000c7b30080cf540027
:103420001201320008003c0000c0e90080cf5400c7
:10343000db0032005e003c006540500080cf54004d
:103440002f013a001000370050c7b30080cf54005e
:10345000570032006340400080cf540054003200d7
:103460006540500080cf540025013a000d0137001f
:103470001181e9008208780078009000000545007d
:10348000124d78002401370028609000c2c6b300b6
:10349000824f500007003a0011017800640051008b
:1034a000800878001000be004f89de00820178009d
:1034b0001100370012c7b300824f500003003200e2
:1034c000a2c6b300824f500006003a0011017800f6
:1034d00068005100800878005001be004000be0026
:1034e000050037001180e90080087800100078009e
:1034f000cf80de006109b900009cbe000294be00ce
:103500002862900085c6b300854f52000d0032003e
:1035100025c6b300854f520004003a000000fb00ae
:10352000cf80de006109b9000800370045c7b3004d
:10353000854f520003003200e6c24200854f520020
:1035400004003a00cf80de006109b900009cbe0093
:103550000294be003802be002803be00780090002e
:10356000e00f5200e08f5a00e00f5b00e08f5b003d
:1035700003003d0080004500d2c2b3000a003700be
:10358000881090000118a30003003200800045005d
:10359000b2c2b300040037000108a3004f0032009c
:1035a0008000450002c2b30082487800490037001d
:1035b00028609000c2c6b300824f500006003a0057
:1035c0001101780064005100800878001000be00ee
:1035d0006011b8001100370012c7b300824f5000cd
:1035e00003003200a2c6b300824f500006003a002a
:1035f0001101780068005100800878005001be0079
:103600004000be00050037001180e9008008780006
:10361000100078008000eb006011b800009cbe0034
:103620000294be002862900085c6b300854f520008
:103630000d00320025c6b300854f520004003a0049
:103640000080fb008000eb006011b800080037002c
:1036500045c7b300854f520003003200e6c2420066
:10366000854f520004003a008000eb006011b80062
:10367000009cbe000294be00081090000038a30019
:10368000160032003800be002801be00e00f5000d6
:10369000e08f5800e00f5900e08f59000f00320012
:1036a00080c7b30080cf54000300320080c5b30050
:1036b00080cf540009003a00780090008000450057
:1036c00002c3b300824878000000e8008000450093
:1036d000894878000000e8007004980078009000a5
:1036e000000545006a049800894078006a003700a8
:1036f00028619000c0c4b300804f510006003a001a
:103700001101780068005100800878005001be0067
:103710004000be0005003700110178006400510030
:10372000800878001000be00910d0700009cbe00cc
:103730000294be00b8009000780090000100e00004
:1037400003003d0080004500d2c2b3000a003700ec
:10375000881090000118a30003003200800045008b
:10376000b2c2b300040037000108a3000500320014
:103770008000450002c2b300824878000000e800e3
:103780007004980078009000000545006a049800d5
:103790008940780008007800530307006000370074
:1037a00028619000c3c6b3001180e900834f510027
:1037b000220032000a003c00e4c15100834f510056
:1037c0002500320083c1e800834f5100130032000e
:1037d000e8c15100834f51001e003a000a00370033
:1037e00043c7b300834f51001b003200e6c14100c4
:1037f000834f510018003200e9c15100834f51003e
:1038000014003a00050037008008780010007800a6
:10381000485c900008487800410037008008780034
:1038200010007800680a9000cfa2de00612bb9007a
:103830000498be000690be0039003700800878006a
:103840001000780068099000cf91de000288be0069
:10385000330037001180e9008008780010007800fc
:10386000680c9000080878002d0037001180e900ee
:103870008008780010007800cf80de006109b90070
:10388000009cbe000294be00780090000005450038
:103890006a04980081c7b300080078003505070066
:1038a0001f0037001180e9008008780010057800bb
:1038b0006a049800d80c90000900e00004003d0064
:1038c0000a007800ac020700800478000700370087
:1038d000090178008000eb000a007800680007000a
:1038e0000000e000010032008a045000190c98002a
:1038f0000b003700780090000005450005003700f8
:1039000078009000000545000904e00001003a003d
:1039100059c2b300094d78000000e8007004980017
:103920000000eb004f0578004f04be0000000600c9
:10393000889fbe008a9fbe008c9fbe008e1f7800ad
:103940000006780001047800020078008304780003
:103950008881b900020778000e00e00042003200c2
:103960000800e000410032008e057800c900900098
:1039700069009000808f5000040039000900780031
:10398000920207000000e0002900350000402000fe
:10399000190060000a0032000b017800a10020002d
:1039a0000c00780036000700800678000d00e0006b
:1039b00006003200610516000a8546000400370043
:1039c0000b0578008006eb00010037000b0578003e
:1039d00049009000e9009000808050008a8f5000dc
:1039e00002003100010578008006eb000a01780032
:1039f0008c0078002c0007008a8555004900900053
:103a00000a004000c00498000d00e00004003200ed
:103a100009007800300707000000e00004003a00c9
:103a20000b00e000020032000a064600cfff37001c
:103a300000802000190060000200320009007800b8
:103a40002507070000c020001900600002003200b6
:103a500049009000e00498008b0557001100090010
:103a60008885d800010037000000eb004f07780080
:103a70004f06be004f05be004f04be00000006000a
:103a800003003700b0cf1000050032000201e9004a
:103a9000800178000200e000faff3a000000050013
:103aa0000300780000000600800178000200370063
:103ab000b15978000201e9000200e000fcff3a0081
:103ac000000006000001fa00889fbe008a9fbe0029
:103ad0008c1f78000004be0002057800f00320006f
:103ae000808f51000a003e000000eb000500370007
:103af000984078001a5c7800195d7800815c780045
:103b00000000e800830f5000f9ff3a001e00370064
:103b1000030678008c05780000102000800f560006
:103b200001003600800578000b01780088007800dd
:103b300060ef2f000f004000dbff07000b01780053
:103b40008a00780008007800d7ff07000b01780092
:103b5000890078000a007800d3ff07000b01780085
:103b600061ef2f008f80400009007800ceff070032
:103b70000b0656000b0444008b8444000b054500e3
:103b80000c00e000e3ff3a004f0678004f05be004e
:103b90004f04be000080fa00000006000001fa0099
:103ba000889fbe008a9fbe000005be00f003200073
:103bb000800f510009003e000000eb0004003700b8
:103bc0009a4078001b5d7800815d78000000e80075
:103bd000820f5000faff3a00180037008204780084
:103be0000904780000102000808f54000100360086
:103bf00000047800080178008a00780080ef2f0028
:103c00000f004000a8ff0700080178000a00be006e
:103c1000a5ff07000801780081ef2f008f8040008a
:103c20000b007800a0ff07008884540008054500b9
:103c3000888545000900e000e9ff3a004f05be0015
:103c40004f04be000080fa0000000600889fbe00fe
:103c50008a9fbe008c1f78008004780001047800e1
:103c60000205be00040678000800be000c0001003a
:103c70000000e00004003d000b017800880078009f
:103c800009007800c5ff0700880078000a00780066
:103c90000c0001000000e00004003d000b01780072
:103ca0008a00780008007800bcff07000800be000a
:103cb0000c0001000000e00004003d000b01780052
:103cc0008800780009007800b4ff07004f067800ec
:103cd0004f05be004f04be0000000600889fbe00d6
:103ce0008a9fbe008c9fbe008e1f780080027800e5
:103cf00081047800820578000304780004067800c7
:103d000005855500820220008299b9008a0f510072
:103d100022003100110009000385d8000005780059
:103d20004355de000a05e80083d5b9000a87420042
:103d30000a014500028142008e00780005007800eb
:103d4000c2ff07008a06ea000a8144000d80440091
:103d50000c0278008801780089007800bbff07001a
:103d60008d864500e0ff2f0080d5b9000a80450010
:103d70000c027800880178000b0178008d00780033
:103d8000b2ff07000c027800880178000d0178006e
:103d9000890078000e007800030037000b017800de
:103da0008900780005007800a8ff07004f07780019
:103db0004f06be004f05be004f04be0000000600c7
:103dc000e4874700889fbe008a9fbe008c9fbe008c
:103dd0008e1f78000004be000205be0084bf9f0055
:103de0000906e8000c06460089d8b900000744001f
:103df0008cd8b9008006440009007800150037000f
:103e00008a0f5600060032008b8056000d007800a5
:103e10000fb99700020001000000e00002003d0021
:103e20000c06e9008b8656000b0178008d007800a7
:103e30000e00780059ff07008c00e80081804000e8
:103e40008b89b9000c0078000d07780082064400c9
:103e5000010678008a0f5600e9ff3600100037008f
:103e60000006e9000c06d1008be5b9000a05440004
:103e70008a0078000e0078000fb997000200010058
:103e80000000e000080034000b0178008e0078008c
:103e90000a00780041ff07000c0078000a0778004c
:103ea000808f5400eeff39004f0778004f06be00a8
:103eb0004f05be004f04be004f00b10000000600d9
:103ec0000001fa00889fbe008a9fbe008c9fbe0042
:103ed0000005780001067800820578008a06560001
:103ee0008b8646008b0478001500370009047800a3
:103ef00000102000808f540001003600000478007c
:103f000088805500810046000801780040ef2f00ae
:103f10000f004000e4fe070008815600080045003d
:103f20008a007800750907000801780041ef2f002a
:103f30008f8040000a007800dbfe07008884540070
:103f40000900e000e9ff3a004f06be004f05be0041
:103f50004f04be000080fa0000000600ea87470018
:103f6000889fbe008a9fbe008c9fbe008e1f780077
:103f70000005780081067800e2b79f00030478000e
:103f8000840578009b0037000d06d10088e6b90053
:103f90000c06450088e8b90000004500d0b79f0036
:103fa000880446000800ea00f0b79f00dfb09700e1
:103fb000008140000b027800880178008c007800b6
:103fc0000a00780045ff0700010037000d06780061
:103fd0008c0f5500090031007fb197008206460022
:103fe0008c0078000d0078000b0001000000e0005c
:103ff000f6ff320001003700888444005fb097006c
:10400000808f5400030039000c077800890678007f
:10401000110037008c007800090078000b000100c7
:104020000000e000f4ff3200f7ff37000c00be0094
:104030000b0001000000e000060035001c003a0003
:10404000080178008d00780009007800d3fe070091
:104050008884440088864600dfb09700818f560030
:1040600013003100f1ff37007fb197008201470054
:104070008c0078000300780083bf9f000b000100d4
:104080008fb997000000e000080035000a003a00f0
:104090007fb0970000064600080178008300780092
:1040a0000c007800bdfe07008fb997000307780069
:1040b0008e0f5500ecff39008a0f570014003a00ac
:1040c000dfb09700818f56002b0032008d8f540097
:1040d00005003a00080178008c007800090078009b
:1040e000aefe07000500370088017800090178005e
:1040f0008c0078000d00780072fe0700888646006c
:1041000008064600888444000a077800d2ff37007a
:104110007fb19700020747005fb09700808f56007d
:1041200010003a0082844400020646008c0f5700bb
:1041300006003a0008017800890078000e00780037
:1041400096fe07000e067800c3ff3700880178004e
:104150000c017800890078000e00780059fe0700f5
:10416000bdff3700080178008e0078000d00780050
:104170008afe0700b7ff3700efb097000100d100bb
:1041800001017800c210de0080804000e1b79f008e
:104190000a065600110009000886d80000067800bb
:1041a00089865600110009008886d80080067800ac
:1041b0008d0f560008003e000b0278008801780041
:1041c0006fb197008c0078000a00780063ff070049
:1041d00009057800070037000b0278008801780095
:1041e0006fb197008d007800090078005bff070031
:1041f0008c067800efb097000100e0000400320068
:1042000000022000808f56005fff3e001e00370036
:1042100000022000808f56001b0036008d04d10064
:104220008904e9000b027800880178000d0178000c
:10423000890078000a007800e1fe07000900e0002c
:10424000f7ff3a0088e8b9008004450088845400ec
:1042500008017800890078000a0078004ffe070006
:104260008d06e9000b027800880178000d017800c6
:104270008000eb000a007800d1fe0700e18f5600b5
:10428000f2ff3e001f003700e18f56001d00360090
:104290008a04780019003700888444008a00780076
:1042a000090078000b0001000000e00004003d0060
:1042b00008017800890078000a0078000e003700b5
:1042c00009067800010037000e067800080756003e
:1042d0008e007800090078000b0001000000e0006b
:1042e000f9ff3500890f56000400320008017800fc
:1042f000890078000c007800f1fe07008d06e900c7
:10430000e5ff3a004f0778004f06be004f05be009c
:104310004f04be00af00b1000000060003027800a9
:104320008201780001017800820078000bff3700dd
:10433000020037000304e0000600320000017800ac
:1043400002007800b041780081cf5100f9ff3a00b7
:10435000010037000001eb000200780000000600b9
:1043600000017800b1417800035978000304e000af
:10437000fcff3a0000000600800078000101780090
:104380003104e000fdff3a0000005100000006008b
:104390008001780002003700845978000201e900aa
:1043a0000200e00006003200314278000404e00020
:1043b000f9ff3a00020037008059eb000201e900e2
:1043c0000200e000fcff3a0000000600889fbe00eb
:1043d0008a1f780000047800c800900068019000ef
:1043e0000000eb00828f50003c003900180078007c
:1043f0002200290002016000e20f51000700320094
:10440000012024000000e00001003d000120200008
:10441000008c70000080eb003000370002002600a6
:1044200002006000820f500009003a00380090003e
:10443000808f50000600390008007800a6040700ad
:10444000800078000080eb000100e00023003a00cb
:104450001805780000c020000000650018003a0030
:10446000a80490006002200008004000808f5400e3
:1044700013003a0000202000f607070020049800ef
:104480000000e00005003a00290498004904980063
:104490008904e80039049800080037000a60a00089
:1044a0000a0c780040049800012020008080400021
:1044b00031049800400c9800500c98002404070028
:1044c0002800900050049800380090006004980084
:1044d00000002600180c70000000eb004f0578006b
:1044e0004f04be0000000600cf04b000889fbe004d
:1044f0008a9fbe008c9fbe008e1f78000006780049
:10450000814678003c00be002c01be00d0979f0081
:10451000e1979f00f2979f00839f9f0010c6b30012
:1045200080cf56001200320010c4b30080cf560076
:104530000f0032005c0890000000e00002003d0027
:1045400060002000090037000000e00008003a0089
:1045500070c6b30080cf56000300320070c4b300b1
:1045600080cf560002003a0010002000500e980044
:104570008c00780080fa2f000f004000d301070064
:10458000e20f50000f003a0030002000100e98009b
:10459000c051220011c6b30081cf5600190032006d
:1045a000e4c0400081cf56001600320000522200c5
:1045b0008140e80081cf560012003a00c05122002d
:1045c000100037000000e00014003400300020002c
:1045d000100e98004052220011c6b30081cf560041
:1045e00008003200e4c0400081cf560005003200d0
:1045f000805222008140e80081cf560001003a003d
:1046000040522200ec009000b0487800b06878007a
:104610001040780090409800a601370011c6b30002
:1046200081cf56000300320011c4b30081cf560081
:104630000e003a00ec00900002c3b30082587800ec
:104640006106980082c5b30013c6b30083cf56003d
:1046500001003a0082c7b3008258780061069800d2
:10466000fc0090008180e800710698000000e000e6
:1046700005003a00c0979f008001eb0022fb2f004d
:104680000f0141008701370010c6b30080cf5600ec
:104690000600320010c4b30080cf56009a003a00e2
:1046a000d1532200d1b79f0002003700c25222002e
:1046b000d2b79f005c0890001b0220000000e000c1
:1046c000010035008005e8000b05e8006022b80015
:1046d0006033b8005f909700ef9097007f9197004c
:1046e0008f999700ea080700000278003c00be009e
:1046f0002c01be000400e00001003d0003f0a20018
:10470000d0979f00e1979f00f2979f00839f9f00a3
:10471000cf919700e4815100c3979f000040eb00c8
:10472000a0779f003efb2f000f07470031003700a6
:10473000c201200003002000a0fa2f000f0040005b
:104740008e0407005f909700ef9097007f9197008d
:104750008f99970090b79f00a1b79f00b2b79f00b5
:10476000c3b79f00a10907000004be0067055500fc
:104770004240a9000c003400c80907000002be0036
:104780000203be001fb09700afb097003fb1970083
:10479000cfb197004e0a0700d0979f00e1979f0086
:1047a000f2979f00839f9f006707470070002000db
:1047b000050037006f676400cc48dd004444de002c
:1047c00008847000c4ccde00e00f5400e08f5c0071
:1047d000050034000000e900e10f4000f5ff3a0059
:1047e000010037000067eb000000e900fdff3b001f
:1047f000670747000a00e000090034006022b800a3
:104800006033b8005f909700ef9097007f9197001a
:104810008f999700a30807000000e000c4ff3c0048
:1048200032fb2f000f014100020757008e01780074
:104830008b0f5700010034008b0178000300e0006b
:104840002b0035000040eb008e8f51000a003d0028
:1048500082fa2f000f01410003004100b048900090
:10486000f0c0b300e7cf500003003c000040eb0075
:1048700001003700810178008300e90034fb2f003c
:104880000f0242000101420012427800804f5200a4
:10489000f8ff3200ef4f500001003a000449e800f1
:1048a0000100e00007003d008301e800cf9297007f
:1048b000e4824200c5979f0022fb2f000f014100b8
:1048c0000200370032fb2f000f014100830041003e
:1048d00003007800040037004102fb00dfb29700bc
:1048e00004824200944878000000e900faff3b008f
:1048f0005c0890000000e000ea003d000300e900d1
:10490000500e9800e70037005f949700ef949700ef
:104910007f9597008f9d97006022b8006033b800a4
:104920000800be000a01be00590807000000e000b0
:1049300005003d000bf0a200d8979f00e9979f006b
:10494000fa979f008b9f9f0070592700cf90970088
:104950000088b900026a280013002000b008070090
:1049600064045000c8979f0015003b0063041400c6
:10497000c0ff2f00000464000800ea00c0979f00f9
:104980005f909700ef9097007f9197008f99970025
:10499000ea542200070037000808a3000300320091
:1049a0003a02be002a03be00540907000884d10061
:1049b000680545000800e000f7ff3c001a003700da
:1049c0000800e0001c003200c0ff2f00000464005b
:1049d000c8979f00ea5422006000b800020020003f
:1049e00003ff2300070037000808a300030032007c
:1049f0003a02be002a03be00400907000884d10025
:104a0000680545000800e000f7ff3c000002be001a
:104a10000203be005f909700ef9097007f91970090
:104a20008f99970024080700d0979f00e1979f0077
:104a3000f2979f00839f9f005c0f900060c6b300b9
:104a400080cf5600040032006000200061c4b30033
:104a500081cf560002003a00cf9097006a80400054
:104a60000e074000f30f5700010034003e01200004
:104a700000c3b300a0779f003bfb2f008f8545004c
:104a8000350037005fb09700efb097007fb1970017
:104a90008fb99700d50807000004be0068075700cb
:104aa0004240a90010003400fc0807000002be00cc
:104ab0000203be005fb09700efb097007fb1970090
:104ac0008fb99700820907006022b80046782d0050
:104ad0007719240009090700d0979f00e1979f00ec
:104ae000f2979f00839f9f00e88545008a00200081
:104af0000801be000c003700a400200005002000c3
:104b0000a0fd2f000f0040002e0307005fa89700b4
:104b1000efa897007fa997008fb1970004c3b30057
:104b2000846541000001be00e00f5100e08f590094
:104b3000060034000a05e900e10f4500eeff3a00e7
:104b40000200370000c3b300806578000a05e90061
:104b5000fcff3b00e88545000e00e0000d0034003e
:104b60005f909700ef9097007f9197008f99970043
:104b7000d0b79f00e1b79f00f2b79f0083bf9f00af
:104b80006022b8006033b800c60707000000e000ec
:104b9000bcff3c0031fb2f008f8040008185550019
:104ba0004f91970067004100c0979f0002003700b7
:104bb0008b05e9000000e90001017800820078001f
:104bc00003c3b300b1cf1100f9ff3200c0979f00bb
:104bd000dc09900061c6b30081cf560003003200ab
:104be00061c4b30081cf560002003a000000e80023
:104bf000090037001000200051c6b30081cf5600d5
:104c0000050032000d40780050c4b2000080fb0067
:104c10000000e9004f00de00830140008b8f51004f
:104c2000010034008b0178000300e0001d00350016
:104c300000c3b3008b8f510006003d00030241000a
:104c40006940400041c3b30094cf100001003c0014
:104c5000694050008300e9008100410001003700f5
:104c6000840178000302e90001037800a142780082
:104c700080cf5200faff320091c3b300814f500041
:104c800001003a00054be8000400e00005003d008b
:104c90000201e9008301e8004f9297000402e80056
:104ca000c4979f004f9297008d4078000c007800c9
:104cb000240607004f0778004f06be004f05be00d0
:104cc0004f04be00cf04b10000000600889fbe0064
:104cd00000047800e68440001900d0004500de00a2
:104ce000f27f2000820f500010003a00000ceb0011
:104cf000990478006f816400200020001b003a00b6
:104d0000210190000200e00018003a00110190001b
:104d10000200e00015003a00100020001100e00041
:104d20001200320020002000100037000000e000d8
:104d300004003a0001007800c40207000000e0000f
:104d400008003c00f20028001901610001fe230068
:104d5000810c710021c02f00010c40000080eb008d
:104d600002003700000ceb000000eb004f04be0017
:104d700000000600fc874700889fbe008a9fbe0097
:104d80008c9fbe008e1f78000006780080c5b3009f
:104d900080cf50000a0032007740400080cf5000a2
:104da0000a0032006940400080cf50000b00320002
:104db000306c220080bf9f00ae0020000a00370048
:104dc000226b220082bf9f0006003700336c220056
:104dd00083bf9f008e00200003003700346c220048
:104de00084bf9f000e0120003c02be002c03be00c9
:104df0000605be000404be0040c6b30080cf5000cc
:104e0000030032006540400080cf50000b003a00a4
:104e1000e00f5200e08f5a00e00f5b00e08f5b0074
:104e200006003d006000b8006011b80004045000a6
:104e3000858458000605590087855900e80f5700fa
:104e40000400320040002000f00f57003a003a0002
:104e50000100370030002000e00f5400e08f5c00bc
:104e6000e00f5d00e08f5d0004003a00dc08900078
:104e70008d0120000100e000070032008e00e900f3
:104e8000888060008fba970081804200914078004e
:104e9000f1ef9f007d012000800078008100e90093
:104ea000050033008b05d1000a85d3008984d30027
:104eb0000884d300f9ff3700089ebe000a96be00a2
:104ec000130037008d06e9008e00e9008480600041
:104ed0000fb99700810041001141780083fd2f0038
:104ee0008d81410082f77900800178008301e9001b
:104ef000050033008783d1000683d3008582d30069
:104f00000482d300f9ff3700049ebe000696be005f
:104f10003c02be002c03be00e00f5200e08f5a009e
:104f2000e00f5b00e08f5b00910034000d00e000bb
:104f3000e4ff3c008e0037002c60900081c6b30077
:104f4000814f50000b00320006003c000004e000de
:104f500008003200e6c05000814f500052003a0075
:104f600004003700c1c6b300814f50004e003a0024
:104f7000230037000800e00004003a005c089000bd
:104f80008d0120000000e000070032001100090040
:104f90000e84d8000fba970001004200104078003c
:104fa000f0ef9f007d012000110009000e84d80061
:104fb0000b003700110009000e04d8008d06e9002f
:104fc0008e81b900020454008fb897000884400015
:104fd0009841780082fd2f000d0141008377790010
:104fe000000478000800e000020032000d00e0003c
:104ff000f0ff3c00cfc4de00614db9002700370050
:10500000e00f5400e08f5c0004003a005c08900060
:105010008d0120000000e000080032006171b9003d
:105020000800be00bbf607000fba970080004200e0
:1050300091407800f1ef9f007d0120006171b9007f
:105040000800be00a3f607000c0037006171b9002c
:105050000800be00f20607008d06e90080f1b900e5
:10506000020454008fba97000884420098417800e7
:1050700082fd2f000d014100837779000004be00fe
:10508000e00f5000e08f5800020032000d00e000f9
:10509000eeff3c004fcdde008a057800089ebe0082
:1050a0000a96be0032003700e00f5400e08f5c002b
:1050b000e00f5d00e08f5d0004003a005c089000a6
:1050c0008d0120000000e0000a0032006172b9008a
:1050d000612bb9000800be000a01be0030f70700ce
:1050e0000fba97008000420091407800f1ef9f00d6
:1050f0007d0120006172b900612bb9000800be007b
:105100000a01be001ff707000e0037006172b900e8
:10511000612bb9000800be000a01be0024f7070099
:105120008d06e90080f2b900040454008fba97009c
:10513000088442009842780084fd2f000d0242004e
:1051400085777a00009ebe000296be003c04be0039
:105150002c05be00e00f5400e08f5c00e00f5d0006
:10516000e08f5d00020034000d00e000e7ff3c002e
:10517000e80f570010003a000c1090000038a30010
:105180000d003200f78f560006003e0080fd2f0014
:105190000d004000ef40780000c3b30080cf500006
:1051a0000500320002c3b30071fd2f008d80400066
:1051b0008d06e90082f7780078811600120e9800bb
:1051c0006c00900083fd2f008f8141008d80410095
:1051d00035fa07001c089000dc089000810f500091
:1051e00006003d0000805000000e98000c1090005a
:1051f0000040a100001698000f0037000100e000f9
:105200000d003d008c109000f4806000f08f500085
:1052100009003a007c099000fc00900081005100d8
:105220000c09900082805000008050004240a9008c
:1052300001003400000e98004f0778004f06be00b2
:105240004f05be004f04be00cf01b10000000600b4
:105250000400fa00889fbe008a9fbe008c1f780061
:105260000004780001067800f80d900078009000a6
:10527000808555000808900080855500180890002a
:1052800080855500280890008085550038089000da
:105290008085550048089000808555000002220056
:1052a00090bf9f0000032300a0bf9f000810900044
:1052b0000028a30015003a000b00e00013003400a2
:1052c0000b0578008a047800e20f550001003600d3
:1052d00029002000c801900009017800ee805700e5
:1052e0005800900003000100500498000000e00006
:1052f0008c0032006808900009004000600c9800a3
:10530000090555004240a900eeff3c0078019000dd
:105310000200e0000c003400c80190008c0078000e
:105320005800900003000100500498008080eb00ba
:105330000000e0007c003200e80890007800900057
:1053400000804000600c9800880c90000900e0008c
:105350001100340009057800e28f54000100360086
:105360002a002000c80190000a017800ec80570054
:105370005800900003000100500498000000e00075
:1053800068003200680890000a004000600c980035
:105390008a845400edff3700180990000200e000f5
:1053a0000c003400c8019000e80090005800900004
:1053b00003000100500498008080eb000000e00032
:1053c00059003200e8089000180890000080400062
:1053d000600c9800a80c90000900e0001100340057
:1053e00009057800e28f5400010036002a002000f1
:1053f000c80190000a017800ec8057005800900026
:1054000003000100500498000000e0004500320055
:10541000680890000a004000600c98008a845400dc
:10542000edff3700380990000200e0000e00340064
:10543000e80090001808900080804000c8019000ab
:105440005800900003000100500498008080eb0099
:105450000000e00034003200e808900038089000b6
:1054600000804000600c9800c80c90000900e0002b
:105470001100340009057800e28f54000100360065
:105480002a002000c80190000a017800ec80570033
:105490005800900003000100500498000000e00054
:1054a00020003200680890000a004000600c98005c
:1054b0008a845400edff3700081090008000eb0054
:1054c0000028a300180032000b00e0001600340092
:1054d0008b04780009057800e28f54000100360043
:1054e0002a002000c80190000a017800ee805700d1
:1054f0005800900003000100500498000000e000f4
:1055000008003200680890000a004000600c980013
:105510008a8454004240a900eeff3c008000eb006a
:10552000010037008080eb00010078004f06780012
:105530004f05be004f04be000080fa0000000600c8
:105540000108780000000600a0b42200b200370075
:10555000881f7800c87022001804e00003003a0099
:10556000f9ff070020c0b300004c78004f0478001a
:1055700000000600889fbe00000478000800780044
:105580005500070080047800000420001800600027
:105590000200320028009000490307000000eb00e1
:1055a00020049800384090000004e0000500350019
:1055b0000000fb00e6f407000000e00001003200fc
:1055c0008084eb00181090000000e000080032001a
:1055d00016f507000000e000010032008084eb00b7
:1055e00018109000360307000000eb00101498001c
:1055f0000008200018006000150032000001eb00d8
:105600006000b8000202d000c3482200030242003a
:10561000940f140005003a0000004000818048000b
:10562000008041000008eb000600370061004000e8
:10563000e08048000201e800e80f5000e08f5800c9
:10564000f0ff3a00080078001d0307000e00370045
:10565000000c780000c0eb0030449800600220008d
:10566000080040002004980040049800500498006e
:10567000400c980060049800500c9800700498004a
:1056800076004400000c9800090078004f04be002a
:1056900000000600881f78000004eb006140b8009d
:1056a000e2ff2f00f3ff2f008b060700a249220024
:1056b00080004100110078000000e000010032008d
:1056c000acff07000804e800e80f5400f3ff3a00bd
:1056d0004f04780000000600889fbe000004780098
:1056e0000800e0000f003a008004eb008800d000c2
:1056f000c048220000804000100078000000e00058
:1057000004003200f4ff07000000e00001003d004b
:105710008084eb000804e800e80f5400f3ff3a002f
:105720002500370000002200180060008004eb0014
:1057300021003200a80490000f0037000901510039
:10574000384090000000fb008900780089f40700d1
:105750000000e00007003c00280090004004980092
:1057600060049800500c98001890a0008084eb0012
:10577000110037008084440048019000828f54005b
:10578000eeff39002800900040049800980078004f
:1057900002c020000281600001003a003800900041
:1057a00001e8a30002003200600498000100370005
:1057b000500c98008004eb00090078004f04be00f4
:1057c00000000600881f78008a9fbe008c9fbe00e4
:1057d000000478000205be000406be000401be00fd
:1057e0000a00be000e050700008cbe000c01be00c2
:1057f000390607000005550081855d002a049800e0
:105800003b049800080078004f06be004f05be001c
:105810004f04780000000600010020000100e000b5
:1058200009003200010080000100e00006003200a3
:105830008100e900010088008100d00002008000a2
:10584000828040008008780000000600e6004000ea
:105850001101780005002800850261006f016100d8
:105860008208780002003200120020001100370088
:10587000a0019000120020000300e0000d003a009b
:10588000900190000300e0000a003a001000e000e0
:1058900008003a003600370064034000960878009c
:1058a00080017800530b7800900978000408780094
:1058b00070015100110278000400e000f6ff320090
:1058c0001300370064024000140378004f33de00f9
:1058d000838141008308730080017800d30378003e
:1058e000cf3bde001403780006034300068a7300f2
:1058f0001302780004024200100378004f33de00e8
:105900008609720090017800038841000201e900d5
:1059100091017800ef8f5100eaff36001000370048
:1059200080017800530378004f33dd001002d1006e
:10593000040873006402400094037800cf3bdd004c
:105940001303d10086897300110378004f33dd0003
:105950009401d100030a73009108d1000201e8000c
:1059600091017800ff8f5100edff3e00ef8861004c
:105970009188720002007800000006000400fa001e
:10598000889fbe0000047800e604440019007800f7
:105990008000d000c508de00f47f2000848f500016
:1059a0000e003a00ef006000200020006b003a007b
:1059b000a80090000100e00068003a009800900004
:1059c0000100e00065003a00100020001800e0002f
:1059d0006200320020002000600037000100e0007b
:1059e0000a003a0008007800c2bf9f00d3bf9f00a2
:1059f00096ff0700800078000000eb004fb9970089
:105a0000dfb997000100e00054003c004f88de0041
:105a10000281400083014800e07f2000800f510098
:105a2000e08f59000d0034001900e00004003d0033
:105a30006000b8000200200003ff2f0003003700c1
:105a40006000b8000200200003ff2700009cbe0099
:105a50000294be001000200040003700e00f51000b
:105a6000e08f5900050034004411dd00f0002800eb
:105a700019006000800c71003700370019007800b1
:105a800004002800040260006f0060000040a000d5
:105a9000800c7800d0fc2f00f1ff2f00800f510008
:105aa000818f590006003d00840c78000000eb0057
:105ab0002004980010049800000ceb002700370029
:105ac0006f0141000600370008007800500c780094
:105ad000e40044001108780099087800800ceb007d
:105ae000700051007001410001fe2f0082804000d3
:105af000ef8f4000f4ff35000000ea00150032008f
:105b00008800780070011000d1027800822add0040
:105b1000980178008019de00038c72006404440050
:105b200098027800822add00910178008019de0059
:105b300083887200990078000209dd0098007800df
:105b40008008de00010c7100990078000008de007a
:105b5000800c7800990c72000080eb004f04be00ae
:105b60000080fa0000000600889fbe000004780054
:105b7000010078008204780088017800090178002b
:105b8000110020006af70700890f50000100320061
:105b90000004eb00080078004f04be00000006007f
:105ba0000000fa00e88157004fb99700c143220076
:105bb00040db2200020007000080fa00000006001f
:105bc0006200fa00889fbe008a1f780000057800f6
:105bd00081047800020478008300780080f92f00a7
:105be0000f00400056fe07009a979f00a9979f005c
:105bf0000000eb00b09f9f001885fb008a04fb00ab
:105c00000a05ea004f55de0050022000808f540044
:105c10000d003200e10f55000b003a000a01780038
:105c2000880078002f9097009f9197000300010053
:105c3000a0979f000000e0008e0032003f98970080
:105c40000000e800b09f9f000a04440050022000ba
:105c5000808f5400040032000900e000e6ff3a00a3
:105c60003f989700840037000000eb00909f9f0052
:105c7000809f9f00f0979f00e0979f00d0979f0024
:105c8000c0979f00070037002170220001005000dc
:105c900000004000616f2200808040005f98970004
:105ca00011007000d09f9f008804780009047800dc
:105cb000384578008a00fb00207022009cf907001c
:105cc0000000e000f0ff3a00a1c2b300814f550090
:105cd0000e003a00cf8897000180e900c08f9f0036
:105ce00010007800c09f9f000000e00005003d000c
:105cf0000000ea00c09f9f005f9897000020a0006e
:105d0000d09f9f000904e8000f003700c09f9f004c
:105d10000000eb0005003700f2ff2700820f500063
:105d200002003200ea00b900008040000904780057
:105d300088047800b900fb000103b100e98f50002e
:105d4000f5ff3600c09f9f00e0c2b300984f1000df
:105d5000020032000080eb0019003700a0c2b3003f
:105d6000d84f100007003a00cf8897000180e90063
:105d7000c08f9f0010007800a09f9f000804e800db
:105d8000100037000000eb00a09f9f008800780003
:105d900005003700f3ff2700830f50000200320098
:105da000ea00b90000004100010478008800780092
:105db0003101fb000203b100e90f5100f5ff36008d
:105dc000a09f9f00984478008900fb00e06e2200ad
:105dd00057f907000000e000020032000804e80064
:105de000010037008044eb00c97f9f0080c6b300ec
:105df00080cf540004003a0098cf14000a003a0003
:105e00006640500006003700c0c6b30080cf540083
:105e100005003a0098cf140003003a0065404000a6
:105e2000c07f9f000804e8001801fb00e3fb2f007f
:105e30008f81410081f92f008f804000a0f92f0051
:105e40000f004000100007000000e00009003a00c9
:105e5000e1fb2f008f804000a0f92f000f004000d1
:105e6000fbfc07000000e000020035000804e80029
:105e700061ff37000080eb004f0578004f04be0043
:105e80000080fa0000000600881f7800e4c6b30016
:105e9000844f5100bc00320010003c006b425200a5
:105ea000844f51001800320005003c0054c2b3007a
:105eb000844f5100f400320084c5b3000f00370056
:105ec00044c6b300844f51001500320065424200c1
:105ed000844f5100ef003a001100370004c7b300af
:105ee000844f5100db00320057003500654242000c
:105ef000844f51005400320063424200844f5100ed
:105f0000e4003a00500037001181e900820878006f
:105f1000f00090008181410092497800e300370051
:105f200020629000c5c6b300854f520007003a00ba
:105f30009102780064825200840878001402be0046
:105f40004fabde00860378001100370015c7b300a1
:105f5000854f520003003200a5c6b300854f5200a2
:105f600006003a00910278006882520084087800a6
:105f70005403be004402be00050037001182e90050
:105f80008408780014027800cfa2de00612bb900eb
:105f90000498be000690be00a060900088c6b300c2
:105fa00088cf50000d00320028c6b30088cf5000c3
:105fb00004003a000402fb00cfa2de00612bb9000e
:105fc0000800370048c7b30088cf500003003200f4
:105fd0006644440088cf500004003a00cfa2de009f
:105fe000612bb9000498be000690be003002be00ce
:105ff0002003be00f0009000e00f5200e08f5a0036
:10600000e00f5b00e08f5b0003003d000182410078
:10601000d5c2b3000a003700001290000418a30094
:106020000300320001824100b5c2b3000400370012
:106030000408a3004f0032000182410005c2b300f2
:10604000054a78004900370020629000c5c6b300b9
:10605000854f520006003a00910278006482520097
:10606000840878001402be006033b80011003700c5
:1060700015c7b300854f520003003200a5c6b30018
:10608000854f520006003a00910278006882520063
:10609000840878005403be004402be0005003700a7
:1060a0001182e90084087800140278008002eb0075
:1060b0006033b8000498be000690be00a060900057
:1060c00088c6b30088cf50000d00320028c6b30048
:1060d00088cf500004003a000482fb008002eb00ed
:1060e0006033b8000800370048c7b30088cf5000bd
:1060f000030032006644440088cf500004003a0098
:106100008002eb006033b8000498be000690be0029
:10611000801090000138a300160032003002be004b
:106120002003be00e00f5200e08f5a00e00f5b003a
:10613000e08f5b000f00320081c7b300814f510038
:106140000300320081c5b300814f510009003a00bd
:10615000f00090000182410005c3b300054a7800b9
:106160008100e80001824100024a78008100e800d5
:1061700071009800f0009000818141006300980058
:10618000824078003e003700a0619000c4c6b30092
:106190001181e90084cf5100220032000a003c0046
:1061a0006442520084cf51002500320004c2e8004e
:1061b00084cf5100130032006842520084cf510056
:1061c0001e003a000a00370044c7b30084cf5100d4
:1061d0001b0032006642420084cf5100180032009a
:1061e0006942520084cf510014003a000500370084
:1061f000820878009200780040589000804878002b
:106200002c0037008208780092007800600a900025
:10621000cfa2de00612bb9008498be008690be003c
:10622000240037008208780092007800600990000e
:10623000cf91de008288be001e0037001181e90088
:10624000820878009200780060089000800878004a
:10625000180037001181e9008208780012027800e6
:10626000cfa2de00612bb9000498be000690be00ec
:10627000f0009000818141006300980081c7b30065
:10628000bcfa07000b003700f0009000818141004c
:1062900005003700f0009000818141000204e00019
:1062a00001003a0052c2b300824978008100e80040
:1062b000710098000000eb004f0478000000060019
:1062c0000000e0002f003200c0017800e38f510091
:1062d0002c0036000308a3002a003a005138810040
:1062e0000100e00002003200810f50000400310084
:1062f000110098005038890016003700820078009d
:10630000110190000200e00002003200800f5100f5
:10631000faff39001102780084824000850f500096
:1063200018003900808f520003003a0083084200b1
:1063300001007800070037000200e000030032008f
:1063400083014000830f51000e00390012009800b5
:1063500090009800900090000100e00009003200d9
:1063600010014000828f500006003a008270220027
:106370000009eb0010017800110841009100900025
:106380001100980000000600889fbe0000047800fd
:10639000413881000100e000020032000100780075
:1063a0000d00370051388100a07022000400370032
:1063b000910f5400250036000180e8009100900004
:1063c0000100e000faff3a0010003700920f54007d
:1063d0001e0036000280e800100178000200e00094
:1063e000faff3a001101780051388100a0702200b4
:1063f00004003700910f5400140036000180e800bb
:1064000091009000828f5000faff3a0079388100a5
:10641000888f54000100310088047800090078005a
:10642000800107000000e00004003a00888f54005b
:10643000050032008904d100f5ff37000918780003
:106440009fff0700d2ff37000000eb004f04be00a3
:1064500000000600881f7800630440000800a100c7
:106460008000eb00800f540021003600e30f540041
:1064700001003e004800200008007800c2ff07002d
:106480008000eb000000e00019003200900078006e
:106490009101780064815100880f510003003100a0
:1064a00011019000020878000700370008814000c1
:1064b0000208780091019000130198001001780003
:1064c0001109140088087800100178000000eb0022
:1064d0000200e00004003200920190000300e0009e
:1064e000010032000280e800403889008180e80025
:1064f000010078004f0478000000060000027800d8
:10650000808f50000c00310082814000830f5000ca
:10651000090031008200400002003700c3607800ab
:106520000201e9000200e000fcff3a000000060062
:10653000315a78000201e9000200e000fcff3a0055
:1065400000000600f0874700889fbe008a9fbe00bb
:106550008c9fbe008e1f7800000478008144780074
:106560000205be00040678000b00e00002003c00bb
:106570001b0020000a71220060c6b30080cf5400c7
:106580000e00320060c4b30080cf54000b00320014
:1065900070c6b30080cf54000300320070c4b30053
:1065a00080cf54009d003a00e40f46008300350080
:1065b00058089000800f560080003d000c06e8004f
:1065c00060c6b30080cf54001000320060c4b30036
:1065d00080cf54000d003200081090000038a30056
:1065e00004003a0058089000808f550001003d00db
:1065f0005b0c9800580890000c005000500c98005c
:1066000002003b000000eb00500c9800980890003e
:10661000680090000c00e00028003c0001004000f1
:1066200002c3b300024878008100e800110c980012
:10663000580890000000e00003003c0008109000a3
:106640000038a300060032006800900001004000fe
:10665000e2c2b300024878008100e800110c980003
:10666000580890008c00ea00810f500001003d00a6
:106670000006ea008c00ea00210c980000064600a3
:106680005c0c98008b0f5600010034000b0678005c
:106690003c0c9800e8009000180890000080400032
:1066a0000c0178008a007800fff407005808900079
:1066b0000c0650004c0c9800c20037008c8f55001f
:1066c00019003d00010040000b0178008a007800ad
:1066d000f5f407001808900000804500100c9800a1
:1066e0008b0556002b0c9800d80890000100e000a4
:1066f00003003c00881090000138a300070032001e
:10670000e800900000804000e1c2b300014878003a
:10671000380890000000e800300c980058089000fd
:10672000400c9800a7003700010040000c017800e1
:106730008a007800dcf4070018089000000046008a
:10674000100c98008c855500d80890000100e000de
:1067500003003c00881090000138a30006003200be
:10676000e800900080804000e2c2b30082487800d8
:106770000000e800100c980058089000808f550029
:106780000100340080057800e800900018089000af
:10679000008040008c0045000b017800c2f4070027
:1067a000180890000b004000100c9800580890004a
:1067b0008b0550002b0c98008200370070c6b30088
:1067c00080cf54000300320070c4b30080cf540067
:1067d00012003a0058089000808f550004003d00d8
:1067e000081090000038a30001003a005b0c9800ec
:1067f000580890000000e900500c980002003b008f
:106800000000eb00500c980070c6b30080cf54001d
:1068100009003a0059c6b3000c00370010c6b30097
:1068200080cf54000600320010c4b30080cf540063
:1068300006003a000400370059c4b30003003700d3
:1068400009c7b3000100370009c5b300180890005c
:10685000e8009000808040009a4878000000e8003e
:10686000100c9800d80890000100e00003003c00e4
:10687000881090000138a30006003200e800900064
:1068800080804000e2c2b300824878000000e80047
:10689000100c9800580890000000e0001000340030
:1068a0008b05e900808f55000100340080057800d9
:1068b000e800900018089000008040008a00e8007e
:1068c0000b01780078f40700180890000b004000d6
:1068d000100c9800580890008b0550002b0c980065
:1068e000e8009000180890000080400009587800e7
:1068f0000005e8000c00e00004003500b1c2b30060
:10690000014878008a06780004003700d1c2b3003d
:10691000014878008a0678000c06ea00fd855700d9
:106920000007eb0009003700a20020008c0078006f
:1069300072805700450007007fb097008fb897001e
:10694000816d7800000678000e07e8000c00e0007a
:10695000f5ff3c00e10f570013003c0050c6b300a8
:1069600080cf54000300320050c4b30080cf5400e5
:1069700003003a008a06780000c3b300805e780006
:106980000e00e00008003a0000c3b300805e78000b
:10699000050037000e07e900fc8057000e8040001c
:1069a00001c3b30090de40000e00e000f9ff3c00a0
:1069b000e800900018089000008040008086560093
:1069c0003d0c98000810900074006000f00f50001b
:1069d0000e003a0098089000780090000080400077
:1069e000a808900001004000b80890000100400095
:1069f000c808900001004000f8089000810f500086
:106a000002003d0000805000000c98004f07780005
:106a10004f06be004f05be004f04be000f01b1007f
:106a200000000600800078000000eb000100e0009c
:106a3000050034000100780005f00700e10f400078
:106a400001003a000000eb00000006008002780020
:106a500001037800110009000203d80080017800ca
:106a6000830a78008299b90082005300910298004d
:106a7000050078000000060000c0da0000000600f3
:106a800000c0da000000060000c0da0000000600c6
:106a90008f1fd100130207008f87e9000000e0007c
:106aa00000000600809feb000e0207008f87e900c0
:106ab0000000e000000006002800fa00889fbe00e9
:106ac0008a9fbe008c9fbe0003866b008f0007006c
:106ad0006400e100440032006408e1004a00320032
:106ae0006100e100460032006108e1004900320027
:106af000ec0647006000b8003d02be003d03be004a
:106b0000f48657006011b8003d04be003d05be008c
:106b10007d0320000b0037000000a0008d06e90077
:106b2000130032000402420085824a0006034b0033
:106b300087834b000000400081804800020149002b
:106b4000838149000802520089825a000a035b00cf
:106b50008b835b00f0ff3b000802420089824a0001
:106b60000a034b008b834b008d06e900edff3a00d2
:106b70008482720086827200f707b20087827200f8
:106b800001003200150020001e0490003e0b900012
:106b900006035400e63fb0000368a300070032007c
:106ba0000000a7000500a0008301d1000281d300ee
:106bb0008180d3000080d3000603e8008301d10068
:106bc0000281d3008180d3000080d3000002eb005b
:106bd0000482d2002100070003f0a1000cf0a700fe
:106be00003f0a0005d003700640247006408e10084
:106bf000570032003400be003401be00f6ff3700fb
:106c00006108e100520032006011b8006000b80075
:106c1000f1ff370003ff270002002000fbff3700d1
:106c2000839f68000100e00002003d00600010004a
:106c3000e08018000300e00002003d006001110048
:106c4000e0811900a3ef07004f00e00002003b00c5
:106c500060001000e080180000000600180020000e
:106c600057002000080453000d003d0006002000de
:106c700097fc2f000740e1001e0034008482720060
:106c8000610260008301d1000281d3008180d300c2
:106c90000080d3000804e800f8ff3a004700200015
:106ca0006104600005047400040464000d003200f7
:106cb00061004000e080480060014900e081490037
:106cc00003b8a500070032000603e8006538e100bc
:106cd00004003a008301d1000281d3008180d300f7
:106ce0000080d300f87f20000830e1000300350069
:106cf000080378006000b8006011b8004433dd007c
:106d0000f300b2008301730000000600680447002e
:106d10000294be000094be00fc0447008694be00ae
:106d20008494be0009007800b701070008007800cd
:106d3000b501070099007800814f70000b003b00ff
:106d40000800be00900107004f00b10003003700ab
:106d5000f3ff2700f2ff2f006110b9004f06be00bd
:106d60004f05be004f04be000080fa000000060080
:106d7000810378004c0007000001be006000b800ed
:106d80000478a30013003a006220e10015003e00e1
:106d90000d0039008301d1000281d3008180d3002e
:106da0008301d1000281d3008180d3008301d1000f
:106db0000281d3008180d3000538b000c42add00f1
:106dc000f300b2008381720007f0a70003f0a00077
:106dd00000000600f3ff2700f2ff2f006110b9004a
:106de000fbff370003ff2700f7ff37001400fa000e
:106df000889fbe008a9fbe008c9fbe000004be001c
:106e00000205be00680047000a90be000890be0060
:106e10007d0107000070a7000bf0a10030432000a7
:106e20009e02900080825200b0fe2f000028e100f8
:106e300011003d00b0fc2f000028e10015003400d7
:106e40001e0990008e0890007e0090000501b000a1
:106e50000201d1008180d3000080d3008502e800c8
:106e6000fbff3a000b00e000bcff3b00600010009d
:106e7000e0801800b9ff3700f0ff2f00f1ff270076
:106e80000b00e000b5ff3b000100280000002000df
:106e9000b2ff37006000b800b0ff37004f89de0056
:106ea000820178007f013700c70ade00f107b200d7
:106eb000f50fb20008003200e1cf420002003200bc
:106ec0000170a00024000500810f70000100320055
:106ed0000408050044000500810f700002003a001c
:106ee000140005008502e9000000400081c0480050
:106ef000fcff3b000170a000240005002800fa0000
:106f0000889fbe008a9fbe008c9fbe0003866b00d8
:106f10007eff07000028a30064003a000128a300b8
:106f200067003a000008a30062003a000108a300cd
:106f300065003a001e009000be08900081064000e7
:106f4000ed3fb100f4805700ee019000111ab80037
:106f50008e099000311bb8009e099000311cb800ca
:106f6000511db800f485570046000700fe0190004f
:106f70003a0007008b85e8003e0007008e0990006c
:106f800040000700ee019000340007008b85e80008
:106f9000380007008e099000400007009e0990000d
:106fa0001b18b800890440000a854800fe019000c3
:106fb000340007008b85e80038000700ee019000e0
:106fc000300007008e0990001b18b80089044000ab
:106fd0000a8548000a98a30008003a00040242000b
:106fe00085824a0006034b0087834b0008044c004f
:106ff00089844c000a054d008d06e90084827200e8
:10700000850273004c3add008502720001003200f7
:1070100015002000443ade001400b2004538de00be
:10702000cb45dd000b007000c540de00cb4ddd0020
:107030008b8070004549de00cb55dd000b017100ef
:10704000c551de000d03780004ff070003f0a10026
:107050000cf0a70003f0a00040ff37001b18b80099
:107060008502400006834800e0834b0060044c002a
:10707000070037001b18b80006034000878348004c
:10708000faff37001b18b800870340000884480047
:10709000e0844c0060054d00000006001b18b8009d
:1070a0000804400089844800faff37000108a30063
:1070b00027ff3a005800be005801be00e3ff37002a
:1070c0000008a30022ff3a0009047800f9ff370006
:1070d00007f0a20006003700020ab900001bb90041
:1070e0000200b80081004200810043000000060059
:1070f0002800fa00889fbe008a9fbe008c9fbe00b9
:1071000007067800878669000c003b0003047800be
:107110008704780008f0a10009f0a100840f500056
:10712000858f5800860f5900890f5c0003003300db
:107130000cf0a20001003a000cf0a100f3fe0700e1
:107140006400e1005f003200780147006408e1005c
:10715000610032006c014700748557003200be00a8
:107160001201be003a04be001a05be001e039000c4
:10717000be0a90008503530006003d000004fd0098
:107180008104fd000205fd008305fd008703ea0080
:10719000050378000df8a300040032006004140019
:1071a000e0841c0060051d00e0851d006022b80021
:1071b0007d0320000d38e1008006eb000b00390054
:1071c0004433dd00f300b20083017300390037005f
:1071d000848272000d027800e10664008b85d10084
:1071e0000a85d3008984d3000884d3008703e9008b
:1071f000f7ff3b0008004000898048000a01490071
:107200008b81490004003b0060001000e080180002
:1072100060011900e08119000358a3000900320041
:107220008d82720084827200610260008301d1004d
:107230000281d3008180d3000080d3000603e800e0
:107240001b0037000348a30017003a000600e000c7
:10725000170034000603e9000d00a30000004800f9
:107260008180480002014900838149000348a3004e
:107270000f003a000600e000090034000603e900b0
:1072800000004000818048000201490083814900dc
:1072900001003a000003eb000348a300f5ff3200b1
:1072a0006022b800020037008482720061826600aa
:1072b0006afe070003f0a1000cf0a70003f0a00095
:1072c000a6fe3700640147006408e10002003a00ae
:1072d0000df8a3009efe3a003200be001201be006f
:1072e0009efe3700889fbe008a9fbe008c9fbe0016
:1072f0000404be000605be00809fbe00829fbe0043
:107300002f000700040678000800be000a01be0036
:107310002b000700840678004f03be004f02be001a
:107320008d4f76007fb0970013003300f0ff2f00e1
:107330008b8f6b0006003b000d0666000c00a7005b
:107340000a00370007f0a600100020000a003700ee
:10735000880f5200898f5a008a0f5b008b8f5b0069
:10736000030039001000200001003e000000200052
:1073700007f0a7000000ea004f06be004f05be0060
:107380004f04be0000000600e48240001078a30015
:1073900007003200640240001178a3003400be00f0
:1073a0001401be00040032000330a70000000600f4
:1073b0003500be001501be000330a000000006002d
:1073c00005ff270005826100070032000428e10064
:1073d00001003200240005000600070001003a0009
:1073e000440005000408050002000700f9ff3a0008
:1073f000140005006f826100810270008502710037
:107400008502720000000600800078005002be0075
:107410005003be004439de00f700b200f37f2000c5
:1074200003016100090032000218e10016003a0071
:1074300085017200830173008381730000082000be
:1074400015003a004000200013003700850172004b
:10745000830173008381730005003a0004a8be0015
:1074600006a8be00100020000b0037000201e90052
:107470000402420085824a0006034b0087834b00ca
:107480000748a300f9ff32000740a00004a8be008f
:1074900006a8be00200020008000980092009800fe
:1074a00000000600881f7800030478000300e00055
:1074b00007003d0060001000e08018006001190026
:1074c000e081190002003b0001f02d0003003700ad
:1074d0000400070008f0a70003f0a0004f047800a4
:1074e00000000600889fbe00008270000402710048
:1074f000048271002400320036432000c5002000c1
:107500008383cf000a0039000541b1008283cf0098
:10751000070039000541b1008183cf000400390024
:107520000541b1008083cf00010039000541b10061
:1075300085c353006022b800120032000a003b00ed
:1075400084827200610260008301d1000281d30055
:107550008180d3000080d3000603e8008743e80061
:10756000f7ff3a0007003700000040008180480024
:1075700002014900838149000603e9008743e900cd
:10758000f9ff3a00b5fd07004f04be0000000600f9
:020000040000fa
:107590004a5400002046000072650000656d00003e
:1075a000616e0000006a0000746600003137000060
:1075b00037000000544a000020470000696c0000ba
:1075c0006d6f000072650000007400006a670000c3
:1075d0003132000030000000454500002047000027
:1075e0006f7200006d6100006e00000065650000b4
:1075f00067380000370000005742000020470000b5
:107600007261000079000000776200006a360000b5
:1076100033000000434e000020480000616d000070
:10762000696c00006c000000636e000068310000af
:1076300039300000004100004a2000004865000089
:107640006174000068000000616a00006835000095
:107650003234000000420000432000004a6f000066
:10766000796e00006572000000620000636a00002d
:107670003136000032000000434d0000205400006d
:10768000687200006173000068000000637400000d
:107690003434000036000000524100002054000045
:1076a000617900006c6f00007200000072610000e0
:1076b00074350000360000004a57000020420000e8
:1076c0007275000063650000006a000077620000c8
:1076d000727500006365000000000000c8ba000079
:1076e000d3ba000001010000daba0000e5ba0000d8
:1076f00002010000ecba0000f6ba0000020200002d
:10770000fcba000004bb0000010200000abb00003c
:1077100014bb0000010300001bbb000024bb0000e1
:10772000020300002bbb000035bb00000104000079
:107730003cbb000046bb0000020400004cbb000044
:1077400056bb0000070100005cbb000065bb0000e9
:1077500007070000616d0000703a0000202500005e
:10776000640a000000000000f401000000000000b6
:1077700000000000000000001f00000000000000ea
:1077800000000000001f00001f00000000000000bb
:10779000000000001f1f00001f000000000000008c
:1077a000001f00001f1f00001f000000000000005d
:1077b0001f1f00001f1f00001f000000001f00000f
:1077c0001f1f00001f1f00001f0000007472000038
:1077d00069000000736900006e650000007300001e
:1077e000717500006172000065000000300000004b
:1077f00031000000320000003300000034000000bf
:107800003500000036000000370000006c65000005
:1078100064200000667200006f6d000020630000ad
:10782000616e00003a200000256400000a0000009c
:107830006c65000064200000766100006c7500003b
:10784000653a0000202500006400000000010000ef
:10785000030700000301000000000000040e000008
:107860001f000000000000000000000000000000f9
:10787000000000001f0e00000400000000000000d7
:1078800064000000870100004c0300008705000031
:1078900000080000ab090000b30c0000780e0000e7
:0878a0009b0f0000ff0f000028
:020000040000fa
:1078a80061006000000006001041780001cdb300bf
:1078b80081404100e9cf50000200360091ccb3006e
:1078c800814041001041900000cdb30000404100cc
:1078d800e94f50000200360090ccb3000040410050
:1078e800420020008208dd00014040000000060040
:1078f8002041900001cdb30081404100e9cf500004
:107908000200360091ccb300814041003041900024
:1079180000cdb30000404100e94f5000020036009e
:1079280090ccb30000404100420020008208dd00f6
:1079380001404000000006000081fb004411de0009
:107948006f406000e94f5100020036007243b000fa
:10795800010037000243b00082587800e94f500018
:10796800020036007043b000010037000043b00049
:107978008048780000000600889fbe000004780058
