:020000040000fa
:080000000013040000000000e1
:020000040000fa
:1000080002100000061000000a1000000e10000088
:1000180012100000161000001a1000001e10000038
:1000280022100000261000002a1000002e100000e8
:1000380032100000361000003a1000003e10000098
:1000480042100000461000004a1000004e10000048
:1000580052100000561000005a1000005e100000f8
:1000680062100000661000006a1000006e100000a8
:1000780072100000761000007a1000007e10000058
:1000880082100000861000008a1000008e10000008
:1000980092100000961000009a1000009e100000b8
:1000a800a2100000a6100000aa100000ae10000068
:1000b800b2100000b6100000ba100000be10000018
:1000c800c2100000c6100000ca100000ce100000c8
:1000d800d2100000d6100000da100000de10000078
:1000e800e2100000e6100000ea100000ee10000028
:1000f800f2100000f6100000fa100000fe100000d8
:1001080002110000061100000a1100000e11000083
:1001180012110000161100001a1100001e11000033
:1001280022110000261100002a1100002e110000e3
:1001380032110000361100003a1100003e11000093
:1001480042110000461100004a1100004e11000043
:1001580052110000561100005a1100005e110000f3
:1001680062110000661100006a1100006e110000a3
:1001780072110000761100007a1100007e11000053
:1001880082110000861100008a1100008e11000003
:1001980092110000961100009a1100009e110000b3
:1001a800a2110000a6110000aa110000ae11000063
:1001b800b2110000b6110000ba110000be11000013
:1001c800c2110000c6110000ca110000ce110000c3
:1001d800d2110000d6110000da110000de11000073
:1001e800e2110000e6110000ea110000ee11000023
:1001f800f2110000f6110000fa110000fe110000d3
:1002080002120000061200000a1200000e1200007e
:1002180012120000161200001a1200001e1200002e
:1002280022120000261200002a1200002e120000de
:1002380032120000361200003a1200003e1200008e
:1002480042120000461200004a1200004e1200003e
:1002580052120000561200005a1200005e120000ee
:020000040000fa
:1020000002000000a014040000000000a01404005e
:1020100000000000a014040000000000a014040050
:1020200000000000a014040000000000a014040040
:1020300000000000a014040000000000a014040030
:1020400000000000a014040000000000a014040020
:1020500000000000a01404000000000022aa0400f8
:1020600000000000a014040000000000a014040000
:1020700000000000a014040000000000f49404001c
:1020800000000000f695040000000000a014040009
:1020900000000000a014040000000000f6a70400e7
:1020a00000000000caa7040000000000a014040003
:1020b00000000000a014040000000000a0140400b0
:1020c00000000000a014040000000000a0140400a0
:1020d00000000000a014040000000000a014040090
:1020e00000000000a014040000000000a014040080
:1020f00000000000a014040000000000a014040070
:1021000000000000a014040000000000a01404005f
:1021100000000000a014040000000000a01404004f
:1021200000000000a014040000000000a01404003f
:1021300000000000a014040000000000a01404002f
:1021400000000000a014040000000000a01404001f
:1021500000000000a014040000000000a01404000f
:1021600000000000a014040000000000a0140400ff
:1021700000000000a014040000000000a0140400ef
:1021800000000000a014040000000000a0140400df
:1021900000000000a014040000000000a0140400cf
:1021a00000000000a014040000000000a0140400bf
:1021b00000000000a014040000000000a0140400af
:1021c00000000000a014040000000000a01404009f
:1021d00000000000a014040000000000a01404008f
:1021e00000000000a014040000000000a01404007f
:1021f00000000000a014040000000000a01404006f
:1022000000000000a014040000000000a01404005e
:1022100000000000a014040000000000a01404004e
:1022200000000000a014040000000000a01404003e
:1022300000000000a014040000000000a01404002e
:1022400000000000a014040000000000a01404001e
:1022500000000000a014040000000000a01404000e
:1022600000000000a014040000000000a0140400fe
:1022700000000000a014040000000000a0140400ee
:1022800000000000a014040000000000a0140400de
:1022900000000000a014040000000000a0140400ce
:1022a00000000000a014040000000000a0140400be
:1022b00000000000a014040000000000a0140400ae
:1022c00000000000a014040000000000a01404009e
:1022d00000000000a014040000000000a01404008e
:1022e00000000000a014040000000000a01404007e
:1022f00000000000a014040000000000a01404006e
:1023000000000000a014040000000000a01404005d
:1023100000000000a014040000000000a01404004d
:1023200000000000a014040000000000a01404003d
:1023300000000000a014040000000000a01404002d
:1023400000000000a014040000000000a01404001d
:1023500000000000a014040000000000a01404000d
:1023600000000000a014040000000000a0140400fd
:1023700000000000a014040000000000a0140400ed
:1023800000000000a014040000000000a0140400dd
:1023900000000000a014040000000000a0140400cd
:1023a00000000000a014040000000000a0140400bd
:1023b00000000000a014040000000000a0140400ad
:1023c00000000000a014040000000000a01404009d
:1023d00000000000a014040000000000a01404008d
:1023e00000000000a014040000000000a01404007d
:1023f00000000000a014040000000000a01404006d
:1024000000000000a014040000000000a01404005c
:1024100000000000a014040000000000a01404004c
:1024200000000000a014040000000000a01404003c
:1024300000000000a014040000000000a01404002c
:1024400000000000a014040000000000a01404001c
:1024500000000000a014040000000000a01404000c
:1024600000000000a014040000000000a0140400fc
:1024700000000000a014040000000000a0140400ec
:1024800000000000a014040000000000a0140400dc
:1024900000000000a014040000000000a0140400cc
:1024a00000000000a014040000000000a0140400bc
:1024b00000000000a014040000000000a0140400ac
:0424c0000000000018
:020000040000fa
:10260000af6e22000eff27000e01880000000000c0
:10261000000020000000e000020032000001200065
:10262000200288000c00070020a5290001002000de
:102630000f000700000020000000e0000200320050
:102640000000020000000000b8910200000000003d
:102650000040da000000fe00e01920000000e00069
:1026600002003200002020009001880000000600d7
:10267000a1028800800078000000eb001a003700fb
:10268000e280400054a0b4009101ba00e280400012
:1026900054a0b4009102ba00e280400054a0b400fb
:1026a0000002eb00472bde00f507b200a601880010
:1026b000602ce10008003a000049eb000201e8004c
:1026c000020039003420ec0002f0a0008301e90090
:1026d000f9ff3e00040037006128e10001003200ec
:1026e0000082eb000b00070011c3ba001101ba0011
:1026f0000604e00003003a000200e000e0ff3a00b8
:1027000000000600f607b200a602880082007800ea
:10271000f5ff370004d0a300e20f49001c00390088
:10272000810278003549ba000201e8000200390050
:102730003420ec0002f0a0008301e9000f00320019
:102740002549ba000201e800020039003420ec00fb
:1027500002f0a0008301e900080032000400e0005c
:102760000600320015c9ba000201e8000200390073
:102770003420ec0002f0a0008301e9008180e80031
:1027800054a0b4000300e000e2ff3a00000006009d
:102790009102ba00055978008301e900f7ff320081
:1027a000c82ade00055978008301e900f3ff3200f2
:1027b0000400e000f1ff320011d9ba00eeff37004b
:1027c000789d040000000000005d0400000000008f
:1027d000a663040000000000b45a040000000000da
:1027e000b25d040000000000825b040000000000f5
:1027f000e0500400000000006052040000000000ef
:102800001e5a0400000000002a74040000000000aa
:10281000862a0400000000000c790400000000007b
:102820000c74040000000000487504000000000063
:102830003477040000000000e4760400000000008b
:10284000b275040000000000dc7804000000000005
:102850009478040000000000ee77040000000000ff
:10286000ac76040000000000607604000000000068
:10287000a475040000000000dc74040000000000e7
:10288000e274040000000000688a040000000000f8
:102890008c87040000000000904604000000000047
:1028a000507b040000000000667b04000000000074
:1028b0007c7b040000000000c87b040000000000d6
:1028c000cc800400000000009c7b0400000000009d
:1028d000907b040000000000a07b040000000000ca
:1028e000947b040000000000a47b040000000000b2
:1028f000987b04000000000004a404000000000015
:10290000fca3040000000000f4a304000000000089
:10291000eca3040000000000e6a304000000000097
:10292000a06c040000000000a01c040000000000d7
:102930006226040000000000000004000000000007
:102940000040da000000fe000a00fa00110020003a
:10295000b1bf9f00c0bf9f006a805700cb0907002e
:102960004fb897000080fa00000006000a00fa0045
:10297000e20f500020003e0010348100e10f5000b3
:10298000060032008023200045232000232320005e
:10299000042320000000e00004003a008022200010
:1029a00045222000232220000422200006002800c7
:1029b0001403630003003a000608780000002800b2
:1029c000140a700013a8a30001003a0013a0a0008d
:1029d00002007800050037001388a300feff3200d4
:1029e0003102fb00840a78000000e9000000e000ea
:1029f000f9ff3a000800370033002000b3bf9f0002
:102a0000c0bf9f00d1bf9f00e2bf9f006a805700f8
:102a1000a00907006fb99700020078000080fa0053
:102a2000000006000a00fa0051002000b1bf9f001c
:102a3000c0bf9f006a805700980907005fb89700e1
:102a40000080fa0000000600889fbe008004780025
:102a5000203481000000e00004003a000e0007006e
:102a60000084eb000000e0000800350028348100fd
:102a70000900e000050032000900440006000700dc
:102a80000000e00001003d000084eb000800780039
:102a90004f04be0000000600800078000100e00046
:102aa00003003a006068220020348900000005001d
:102ab0000080eb00a26e2200828f500002003e00d8
:102ac000213489000000eb00000006006022b800fd
:102ad000060220000000d0008180d2000482d200d3
:102ae0008582d2000000a0000202520083825a00b8
:102af000030031000202420083824a000000a1006c
:102b00000603e900f3ff3a0000000600efff0700ac
:102b10000400be0000000600889fbe008a9fbe0021
:102b200030044200b0844a0030054b0090854b00d1
:102b30006000b1000898be000a90be000440e100a9
:102b400005c8e10006d0e10007d8e100020031002d
:102b5000680040001008e8004f05be004f04be00aa
:102b600000000600889fbe008a9fbe003004be00a1
:102b70002005be000418540005985c0006185d008e
:102b800007985d00110020000440e10005c8e10045
:102b900006d0e10007d8e100010039008000eb0019
:102ba000108810004f05be004f04be000000060054
:102bb0001200fa00889fbe008a9fbe008c9fbe0054
:102bc000e0b79f00f1b79f0082bf9f0093bf9f00b7
:102bd0000605be000404be000000eb00d0b79f0055
:102be000c0b79f00b0b79f00a0b79f0090b79f00ed
:102bf0000006eb005fb19700cfb097008201410063
:102c00003fb097000200e00004003d0037000700dd
:102c10007e805700c0ff0700030037003300070025
:102c20007e805700cfff0700dfb697000d00e00061
:102c30000c0035006fb29700ffb297000fbb9700f2
:102c40009fbb970010002000010020006011b80019
:102c5000000272008182720002037300838373009a
:102c60001b0007000c06e80001042000810f56003d
:102c7000e0ff3a000d00e00004003d000802be0045
:102c80000a03be007e805700a3ff07005fa89700dd
:102c90000000e00005003a001fb29700afb29700b5
:102ca0003fb39700cfb39700090007006fb09700bc
:102cb000ffb097000fb997009fb997004f06be006d
:102cc0004f05be004f04be000080fa000000060061
:102cd0000100070000000600a4b79f00b5b79f00e1
:102ce000c6b79f00d7b79f00000006004f09de005f
:102cf00082817100b3b79f004f01de0081804000e8
:102d000082807000a1b79f008fb097004f09de004e
:102d1000000040000200700090b79f007fa897005d
:102d20004f01de00818040008280700081b79f00eb
:102d30000d0007004f3ade00000040000400700064
:102d4000f0af9f00080007000402420085824a009d
:102d500006034b0087834b00dfff07000802be001d
:102d60000a03be00000006002fb29700bfb2970012
:102d70004fb39700dfb3970000000600881f78006c
:102d800018002000881f780089ff07008f87e9005e
:102d90004f04780000000600801feb0084ff07004e
:102da0008f87e90000000600889fbe008a9fbe0052
:102db000e00f5000e08f5800e00f5900e08f5900fd
:102dc0000c003d006044b8006055b800000054009d
:102dd00081805c0002015d0083815d00180020009d
:102de0001500070008003d00180007000004eb0074
:102df000050037000004eb000f00070002003d0053
:102e00001200070018002000dcff07000800e000a7
:102e1000060032006022b8006033b80000005200a3
:102e200081805a0002015b0083815b004f05be0078
:102e30004f04be0000000600e00f5200e08f5a0071
:102e4000e00f5b00e08f5b00000006006044b8000c
:102e50006055b8000402540085825c0006035d00e2
:102e600087835d0000000600889fbe008a9fbe0029
:102e70008c1f7800e00f5000e08f5800e00f5900e1
:102e8000e08f59000d003d006044b8006055b80067
:102e90000000540081805c0002015d0083815d00c0
:102ea0001c0020000820e10009a8e1000ab0e100b0
:102eb0000bb8e1000d003d00080037000006eb00f4
:102ec000e00f5200e08f5a00e00f5b00e08f5b00e4
:102ed00006003d006044b8006055b800040254008c
:102ee00085825c0006035d0087835d00aaff070002
:102ef0000c00e000060032006022b8006033b80029
:102f00000000520081805a0002015b0083815b0057
:102f10004f0678004f05be004f04be0000000600bb
:102f2000889fbe008a9fbe008c1f78000006eb00c1
:102f3000e00f5000e08f5800e00f5900e08f59007b
:102f400007003d006044b8006055b8000000540020
:102f500081805c0002015d0083815d001c00200017
:102f6000e00f5200e08f5a00e00f5b00e08f5b0043
:102f700007003d006044b8006055b80004025400ea
:102f800085825c0006035d0087835d000c00a20063
:102f90000c0007000c00e000060032006022b800c0
:102fa0006033b8000000520081805a0002015b00cb
:102fb00083815b004f0678004f05be004f04be00c2
:102fc00000000600889fbe008a9fbe008c9fbe0046
:102fd0000404b8000506b8008904460060854e0068
:102fe0000606b8000a054600e0854e000706b80050
:102ff0008b054600040eb800890446000a854e0081
:10300000e0854d00050eb8000a0546008b854e0090
:10301000060eb8008b0546000416b8000a054600e7
:103020008b854e000516b8008b054600041eb800bf
:103030008b0546000800be000a01be004f06be0018
:103040004f05be004f04be0000000600800178005e
:1030500002003700b15978000201e9000200e000e7
:10306000fcff3a00000006000001fa00889fbe0045
:103070008a9fbe008c1f78000004be000205780005
:10308000f0032000808f51000a003e000000eb009a
:1030900005003700984078001a5c7800195d7800c8
:1030a000815c78000000e800830f5000f9ff3a00cf
:1030b0001e003700030678008c0578000010200001
:1030c000800f560001003600800578000b01780063
:1030d0008800780060ef2f000f004000dbff070042
:1030e0000b0178008a00780008007800d7ff0700fd
:1030f0000b017800890078000a007800d3ff0700f0
:103100000b01780061ef2f008f80400009007800ec
:10311000ceff07000b0656000b0444008b844400ce
:103120000b0545000c00e000e3ff3a004f06780075
:103130004f05be004f04be000080fa0000000600ec
:103140000001fa00889fbe008a9fbe000005be00f5
:10315000f0032000800f510009003e000000eb004a
:10316000040037009a4078001b5d7800815d78008c
:103170000000e800820f5000faff3a001800370004
:10318000820478000904780000102000808f540029
:103190000100360000047800080178008a007800f9
:1031a00080ef2f000f004000a8ff07000801780003
:1031b0000a00be00a5ff07000801780081ef2f007c
:1031c0008f8040000b007800a0ff07008884540027
:1031d00008054500888545000900e000e9ff3a0040
:1031e0004f05be004f04be000080fa00000006003c
:1031f000889fbe008a9fbe008c1f780080047800e4
:10320000010478000205be00040678000800be0034
:103210000c0001000000e00004003d000b017800fc
:103220008800780009007800c5ff07008800780052
:103230000a0078000c0001000000e00004003d00de
:103240000b0178008a00780008007800bcff0700b6
:103250000800be000c0001000000e00004003d007a
:103260000b0178008800780009007800b4ff07009f
:103270004f0678004f05be004f04be000000060058
:10328000889fbe008a9fbe008c9fbe008e1f780064
:1032900080027800810478008205780003047800b9
:1032a0000406780005855500820220008299b90045
:1032b0008a0f510022003100110009000385d80057
:1032c000000578004355de000a05e80083d5b90003
:1032d0000a8742000a014500028142008e00780000
:1032e00005007800c2ff07008a06ea000a81440050
:1032f0000d8044000c027800880178008900780075
:10330000bbff07008d864500e0ff2f0080d5b90088
:103310000a8045000c027800880178000b017800d3
:103320008d007800b2ff07000c0278008801780059
:103330000d017800890078000e0078000300370046
:103340000b0178008900780005007800a8ff0700cd
:103350004f0778004f06be004f05be004f04be0069
:1033600000000600e4874700889fbe008a9fbe00d9
:103370008c9fbe008e1f78000004be000205be00b8
:1033800084bf9f000906e8000c06460089d8b900f2
:10339000000744008cd8b90080064400090078007a
:1033a000150037008a0f5600060032008b80560049
:1033b0000d0078000fb99700020001000000e00046
:1033c00002003d000c06e9008b8656000b017800d8
:1033d0008d0078000e00780059ff07008c00e8008f
:1033e000818040008b89b9000c0078000d077800bf
:1033f00082064400010678008a0f5600e9ff360075
:10340000100037000006e9000c06d1008be5b9007a
:103410000a0544008a0078000e0078000fb9970072
:10342000020001000000e000080034000b017800f9
:103430008e0078000a00780041ff07000c00780039
:103440000a077800808f5400eeff39004f0778009c
:103450004f06be004f05be004f04be004f00b10036
:10346000000006000001fa00889fbe008a9fbe008f
:103470008c9fbe0000057800010678008205780068
:103480008a0656008b8646008b04780015003700ac
:103490000904780000102000808f540001003600dd
:1034a00000047800888055008100460008017800fb
:1034b00040ef2f000f004000e4fe07000881560097
:1034c000080045008a0078005103070008017800d1
:1034d00041ef2f008f8040000a007800dbfe0700dc
:1034e000888454000900e000e9ff3a004f06be005e
:1034f0004f05be004f04be000080fa000000060029
:10350000ea874700889fbe008a9fbe008c9fbe004e
:103510008e1f78000005780081067800e2b79f00d2
:1035200003047800840578009b0037000d06d10065
:1035300088e6b9000c06450088e8b900000045009f
:10354000d0b79f00880446000800ea00f0b79f004b
:10355000dfb09700008140000b02780088017800fe
:103560008c0078000a00780045ff07000100370052
:103570000d0678008c0f5500090031007fb19700cf
:10358000820646008c0078000d0078000b000100d8
:103590000000e000f6ff320001003700888444009c
:1035a0005fb09700808f5400030039000c0778004b
:1035b00089067800110037008c0078000900780037
:1035c0000b0001000000e000f4ff3200f7ff3700bd
:1035d0000c00be000b0001000000e00006003500fa
:1035e0001c003a00080178008d007800090078007e
:1035f000d3fe07008884440088864600dfb0970029
:10360000818f560013003100f1ff37007fb1970022
:10361000820147008c0078000300780083bf9f0080
:103620000b0001008fb997000000e0000800350092
:103630000a003a007fb097000006460008017800b3
:10364000830078000c007800bdfe07008fb997005a
:10365000030778008e0f5500ecff39008a0f5700e2
:1036600014003a00dfb09700818f56002b00320023
:103670008d8f540005003a00080178008c00780016
:1036800009007800aefe07000500370088017800c9
:10369000090178008c0078000d00780072fe0700a8
:1036a0008886460008064600888444000a07780099
:1036b000d2ff37007fb19700020747005fb0970045
:1036c000808f560010003a008284440002064600b3
:1036d0008c0f570006003a00080178008900780036
:1036e0000e00780096fe07000e067800c3ff370034
:1036f000880178000c017800890078000e007800bd
:1037000059fe0700bdff3700080178008e007800e1
:103710000d0078008afe0700b7ff3700efb0970072
:103720000100d10001017800c210de00808040005d
:10373000e1b79f000a065600110009000886d8006c
:103740000006780089865600110009008886d80096
:10375000800678008d0f560008003e000b027800ae
:10376000880178006fb197008c0078000a0078001b
:1037700063ff070009057800070037000b02780097
:10378000880178006fb197008d00780009007800fb
:103790005bff07008c067800efb097000100e000a7
:1037a0000400320000022000808f56005fff3e00c0
:1037b0001e00370000022000808f56001b003600dc
:1037c0008d04d1008904e9000b027800880178009b
:1037d0000d017800890078000a007800e1fe0700fa
:1037e0000900e000f7ff3a0088e8b90080044500ce
:1037f0008884540008017800890078000a00780065
:103800004ffe07008d06e9000b0278008801780062
:103810000d0178008000eb000a007800d1fe07005f
:10382000e18f5600f2ff3e001f003700e18f560087
:103830001d0036008a04780019003700888444008f
:103840008a007800090078000b0001000000e00009
:1038500004003d0008017800890078000a00780023
:103860000e00370009067800010037000e067800c8
:10387000080756008e007800090078000b00010050
:103880000000e000f9ff3500890f56000400320007
:1038900008017800890078000c007800f1fe07002c
:1038a0008d06e900e5ff3a004f0778004f06be009d
:1038b0004f05be004f04be00af00b100000006007f
:1038c000030278008201780001017800820078000c
:1038d0000bff370000017800b141780003597800f0
:1038e0000304e000fcff3a000000060080007800be
:1038f000010178003104e000fdff3a0000005100b2
:10390000000006008001780002003700845978002a
:103910000201e9000200e0000600320031427800b6
:103920000404e000f9ff3a00020037008059eb0080
:103930000201e9000200e000fcff3a00000006007e
:10394000889fbe000004780001007800820478009f
:10395000880178000901780011002000ce010700dd
:10396000890f5000010032000004eb0008007800cd
:103970004f04be00000006000000fa00e881570076
:103980004fb997002144220000ca2100020007001d
:103990000080fa00000006006200fa00889fbe0066
:1039a0008a1f7800000578008104780002047800fe
:1039b0008300780080f92f000f0040006c0407009e
:1039c0009a979f00a9979f000000eb00b09f9f006f
:1039d0001885fb008a04fb000a05ea004f55de004b
:1039e00050022000808f54000d003200e10f55007e
:1039f0000b003a000a017800880078002f909700a9
:103a00009f91970003000100a0979f000000e00035
:103a10008e0032003f9897000000e800b09f9f00a2
:103a20000a04440050022000808f54000400320039
:103a30000900e000e6ff3a003f9897008400370055
:103a40000000eb00909f9f00809f9f00f0979f00d9
:103a5000e0979f00d0979f00c0979f000700370016
:103a600041672200010050000000400081662200f2
:103a7000808040005f98970011007000d09f9f00e9
:103a80008804780009047800384578008a00fb0033
:103a900040672200f00107000000e000f0ff3a005c
:103aa000a1c2b300814f55000e003a00cf889700a5
:103ab0000180e900c08f9f0010007800c09f9f0028
:103ac0000000e00005003d000000ea00c09f9f00ec
:103ad0005f9897000020a000d09f9f000904e80095
:103ae0000f003700c09f9f000000eb00050037006b
:103af000f2ff2700820f500002003200ea00b900f6
:103b0000008040000904780088047800b900fb00b8
:103b10000103b100e98f5000f5ff3600c09f9f0000
:103b2000e0c2b300984f1000020032000080eb00aa
:103b300019003700a0c2b300d84f100007003a00a8
:103b4000cf8897000180e900c08f9f0010007800a7
:103b5000a09f9f000804e800100037000000eb0061
:103b6000a09f9f008800780005003700f3ff270022
:103b7000830f500002003200ea00b900000041004b
:103b800001047800880078003101fb000203b100d5
:103b9000e90f5100f5ff3600a09f9f009844780080
:103ba0008900fb0000662200ab0107000000e00076
:103bb000020032000804e800010037008044eb00f6
:103bc000c97f9f0080c6b30080cf540004003a0034
:103bd00098cf14000a003a006640500006003700f3
:103be000c0c6b30080cf540005003a0098cf14003f
:103bf00003003a0065404000c07f9f000804e800d1
:103c00001801fb00e3fb2f008f81410081f92f0099
:103c10008f804000a0f92f000f0040001000070027
:103c20000000e00009003a00e1fb2f008f80400017
:103c3000a0f92f000f004000110307000000e00072
:103c4000020035000804e80061ff37000080eb0047
:103c50004f0578004f04be000080fa000000060007
:103c6000881f7800e4c6b300844f5100bc003200c6
:103c700010003c006b425200844f5100180032008b
:103c800005003c0054c2b300844f5100f4003200e0
:103c900084c5b3000f00370044c6b300844f510001
:103ca0001500320065424200844f5100ef003a0097
:103cb0001100370004c7b300844f5100db0032000d
:103cc0005700350065424200844f510054003200d5
:103cd00063424200844f5100e4003a005000370034
:103ce0001181e90082087800f00090008181410094
:103cf00092497800e300370020629000c5c6b30007
:103d0000854f520007003a00910278006482520009
:103d1000840878001402be004fabde0086037800f2
:103d20001100370015c7b300854f52000300320061
:103d3000a5c6b300854f520006003a0091027800f4
:103d400068825200840878005403be004402be001a
:103d5000050037001182e900840878001402780019
:103d6000cfa2de00612bb9000498be000690be0011
:103d7000a060900088c6b30088cf50000d003200cc
:103d800028c6b30088cf500004003a000402fb00ac
:103d9000cfa2de00612bb9000800370048c7b3008e
:103da00088cf5000030032006644440088cf5000a2
:103db00004003a00cfa2de00612bb9000498be00d7
:103dc0000690be003002be002003be00f00090004e
:103dd000e00f5200e08f5a00e00f5b00e08f5b00c5
:103de00003003d0001824100d5c2b3000a00370044
:103df000001290000418a300030032000182410069
:103e0000b5c2b300040037000408a3004f0032001d
:103e10000182410005c2b300054a7800490037001d
:103e200020629000c5c6b300854f520006003a00dc
:103e30009102780064825200840878001402be0067
:103e40006033b8001100370015c7b300854f52002a
:103e500003003200a5c6b300854f520006003a00a9
:103e60009102780068825200840878005403be00f2
:103e70004402be00050037001182e9008408780082
:103e8000140278008002eb006033b8000498be0092
:103e90000690be00a060900088c6b30088cf500096
:103ea0000d00320028c6b30088cf500004003a004d
:103eb0000482fb008002eb006033b800080037008a
:103ec00048c7b30088cf5000030032006644440066
:103ed00088cf500004003a008002eb006033b80045
:103ee0000498be000690be00801090000138a30028
:103ef000160032003002be002003be00e00f520068
:103f0000e08f5a00e00f5b00e08f5b000f00320093
:103f100081c7b300814f51000300320081c5b30057
:103f2000814f510009003a00f000900001824100e9
:103f300005c3b300054a78008100e8000182410012
:103f4000024a78008100e80071009800f0009000bb
:103f50008181410063009800824078003e00370074
:103f6000a0619000c4c6b3001181e90084cf510064
:103f7000220032000a003c006442520084cf51000b
:103f80002500320004c2e80084cf51001300320043
:103f90006842520084cf51001e003a000a003700e8
:103fa00044c7b30084cf51001b0032006642420078
:103fb00084cf5100180032006942520084cf510072
:103fc00014003a000500370082087800920078005b
:103fd00040589000804878002c0037008208780014
:103fe00092007800600a9000cfa2de00612bb90039
:103ff0008498be008690be002400370082087800b6
:104000009200780060099000cf91de008288be00a7
:104010001e0037001181e9008208780092007800c4
:104020006008900080087800180037001181e900ce
:104030008208780012027800cfa2de00612bb9005e
:104040000498be000690be00f000900081814100ff
:104050006300980081c7b300d20007000b0037004f
:10406000f00090008181410005003700f0009000d1
:10407000818141000204e00001003a0052c2b30015
:10408000824978008100e800710098000000eb0090
:104090004f04780000000600889fbe008a9fbe0083
:1040a0008c9fbe008e1f7800000678000104780007
:1040b00002007800830478008881b9000207780044
:1040c0000e00e000420032000800e0004100320033
:1040d0008e057800c900900069009000808f500024
:1040e0000400390009007800670007000000e000c4
:1040f0002900350000402000190060000a0032004d
:104100000b017800a10020000c00780036000700a9
:10411000800678000d00e000060032006105160000
:104120000a854600040037000b0578008006eb0086
:10413000010037000b05780049009000e90090006d
:10414000808050008a8f5000020031000105780005
:104150008006eb000a0178008c007800bbfb0700aa
:104160008a855500490090000a004000c00498006c
:104170000d00e0000400320009007800e2020700b0
:104180000000e00004003a000b00e00002003200f2
:104190000a064600cfff37000080200019006000ab
:1041a0000200320009007800d702070000c020009a
:1041b000190060000200320049009000e0049800fd
:1041c0008b055700110009008885d80001003700d1
:1041d0000000eb004f0778004f06be004f05be0001
:1041e0004f04be000000060003003700b0cf1000ef
:1041f000050032000201e900800178000200e000c1
:10420000faff3a00000005000300780000000600f5
:1042100000027800808f50000c0031008281400045
:10422000830f500009003100820040000200370077
:10423000c36078000201e9000200e000fcff3a00e0
:1042400000000600315a78000201e9000200e00097
:10425000fcff3a0000000600020037000304e00003
:10426000060032000001780002007800b0417800ba
:1042700081cf5100f9ff3a00010037000001eb0047
:104280000200780000000600889fbe008a1f7800a8
:1042900000047800c8009000680190000000eb0066
:1042a000828f50003c00390018007800220029005d
:1042b00002016000e20f51000700320001202400db
:1042c0000000e00001003d0001202000008c700093
:1042d0000080eb0030003700020026000200600082
:1042e000820f500009003a0038009000808f500083
:1042f000060039000800780083020700800078007b
:104300000080eb000100e00023003a00180578006f
:1043100000c020000000650018003a00a8049000ca
:104320006002200008004000808f540013003a0013
:104330000020200021030700200498000000e00076
:1043400005003a0029049800490498008904e8000f
:1043500039049800080037000a60a0000a0c7800b1
:104360004004980001202000808040003104980023
:10437000400c9800500c98000102070028009000a3
:104380005004980038009000600498000000260057
:10439000180c70000000eb004f0578004f04be00c1
:1043a00000000600fc874700889fbe008a9fbe0071
:1043b0008c9fbe008e1f78000006780080c5b30079
:1043c00080cf50000a0032007740400080cf50007c
:1043d0000a0032006940400080cf50000b003200dc
:1043e000f064220080bf9f00ae0020000a0037006a
:1043f000e263220082bf9f0006003700f3642200c0
:1044000083bf9f008e00200003003700f464220069
:1044100084bf9f000e0120003c02be002c03be00a2
:104420000605be000404be0040c6b30080cf5000a5
:10443000030032006540400080cf50000b003a007e
:10444000e00f5200e08f5a00e00f5b00e08f5b004e
:1044500006003d006000b8006011b8000404500080
:10446000858458000605590087855900e80f5700d4
:104470000400320040002000f00f57003a003a00dc
:104480000100370030002000e00f5400e08f5c0096
:10449000e00f5d00e08f5d0004003a00dc08900052
:1044a0008d0120000100e000070032008e00e900cd
:1044b000888060008fba9700818042009140780028
:1044c000f1ef9f007d012000800078008100e9006d
:1044d000050033008b05d1000a85d3008984d30001
:1044e0000884d300f9ff3700089ebe000a96be007c
:1044f000130037008d06e9008e00e900848060001b
:104500000fb99700810041001141780083fd2f0011
:104510008d81410082f77900800178008301e900f4
:10452000050033008783d1000683d3008582d30042
:104530000482d300f9ff3700049ebe000696be0039
:104540003c02be002c03be00e00f5200e08f5a0078
:10455000e00f5b00e08f5b00910034000d00e00095
:10456000e4ff3c008e0037002c60900081c6b30051
:10457000814f50000b00320006003c000004e000b8
:1045800008003200e6c05000814f500052003a004f
:1045900004003700c1c6b300814f50004e003a00fe
:1045a000230037000800e00004003a005c08900097
:1045b0008d0120000000e00007003200110009001a
:1045c0000e84d8000fba9700010042001040780016
:1045d000f0ef9f007d012000110009000e84d8003b
:1045e0000b003700110009000e04d8008d06e90009
:1045f0008e81b900020454008fb8970008844000ef
:104600009841780082fd2f000d01410083777900e9
:10461000000478000800e000020032000d00e00015
:10462000f0ff3c00cfc4de00614db9002700370029
:10463000e00f5400e08f5c0004003a005c0890003a
:104640008d0120000000e000080032006171b90017
:104650000800be002df907000fba97008000420045
:1046600091407800f1ef9f007d0120006171b90059
:104670000800be0015f907000c0037006171b90091
:104680000800be00870207008d06e90080f1b9002e
:10469000020454008fba97000884420098417800c1
:1046a00082fd2f000d014100837779000004be00d8
:1046b000e00f5000e08f5800020032000d00e000d3
:1046c000eeff3c004fcdde008a057800089ebe005c
:1046d0000a96be0032003700e00f5400e08f5c0005
:1046e000e00f5d00e08f5d0004003a005c08900080
:1046f0008d0120000000e0000a0032006172b90064
:10470000612bb9000800be000a01be00a2f9070033
:104710000fba97008000420091407800f1ef9f00af
:104720007d0120006172b900612bb9000800be0054
:104730000a01be0091f907000e0037006172b9004e
:10474000612bb9000800be000a01be0096f90700ff
:104750008d06e90080f2b900040454008fba970076
:10476000088442009842780084fd2f000d02420028
:1047700085777a00009ebe000296be003c04be0013
:104780002c05be00e00f5400e08f5c00e00f5d00e0
:10479000e08f5d00020034000d00e000e7ff3c0008
:1047a000e80f570010003a000c1090000038a300ea
:1047b0000d003200f78f560006003e0080fd2f00ee
:1047c0000d004000ef40780000c3b30080cf5000e0
:1047d0000500320002c3b30071fd2f008d80400040
:1047e0008d06e90082f7780078811600120e980095
:1047f0006c00900083fd2f008f8141008d8041006f
:1048000012fa07001c089000dc089000810f50008d
:1048100006003d0000805000000e98000c10900033
:104820000040a100001698000f0037000100e000d2
:104830000d003d008c109000f4806000f08f50005f
:1048400009003a007c099000fc00900081005100b2
:104850000c09900082805000008050004240a90066
:1048600001003400000e98004f0778004f06be008c
:104870004f05be004f04be00cf01b100000006008e
:104880000400fa00889fbe008a9fbe008c1f78003b
:104890000004780001067800f80d90007800900080
:1048a0008085550008089000808555001808900004
:1048b00080855500280890008085550038089000b4
:1048c0008085550048089000808555000002220030
:1048d00090bf9f0000032300a0bf9f00081090001e
:1048e0000028a30015003a000b00e000130034007c
:1048f0000b0578008a047800e20f550001003600ad
:1049000029002000c801900009017800ee805700be
:104910005800900003000100500498000000e000df
:104920008c0032006808900009004000600c98007c
:10493000090555004240a900eeff3c0078019000b7
:104940000200e0000c003400c80190008c007800e8
:104950005800900003000100500498008080eb0094
:104960000000e0007c003200e80890007800900031
:1049700000804000600c9800880c90000900e00066
:104980001100340009057800e28f54000100360060
:104990002a002000c80190000a017800ec8057002e
:1049a0005800900003000100500498000000e0004f
:1049b00068003200680890000a004000600c98000f
:1049c0008a845400edff3700180990000200e000cf
:1049d0000c003400c8019000e800900058009000de
:1049e00003000100500498008080eb000000e0000c
:1049f00059003200e808900018089000008040003c
:104a0000600c9800a80c90000900e0001100340030
:104a100009057800e28f5400010036002a002000ca
:104a2000c80190000a017800ec80570058009000ff
:104a300003000100500498000000e000450032002f
:104a4000680890000a004000600c98008a845400b6
:104a5000edff3700380990000200e0000e0034003e
:104a6000e80090001808900080804000c801900085
:104a70005800900003000100500498008080eb0073
:104a80000000e00034003200e80890003808900090
:104a900000804000600c9800c80c90000900e00005
:104aa0001100340009057800e28f5400010036003f
:104ab0002a002000c80190000a017800ec8057000d
:104ac0005800900003000100500498000000e0002e
:104ad00020003200680890000a004000600c980036
:104ae0008a845400edff3700081090008000eb002e
:104af0000028a300180032000b00e000160034006c
:104b00008b04780009057800e28f5400010036001c
:104b10002a002000c80190000a017800ee805700aa
:104b20005800900003000100500498000000e000cd
:104b300008003200680890000a004000600c9800ed
:104b40008a8454004240a900eeff3c008000eb0044
:104b5000010037008080eb00010078004f067800ec
:104b60004f05be004f04be000080fa0000000600a2
:104b70000108780000000600206622009d00370032
:104b8000881f7800e86722001804e00003003a005c
:104b9000f9ff070020c0b300004c78004f047800f4
:104ba00000000600889fbe0000047800080078001e
:104bb0005500070080047800000420001800600001
:104bc0000200320028009000970007000000eb0070
:104bd00020049800384090000004e00005003500f3
:104be0000000fb0058f707000000e0000100320061
:104bf0008084eb00181090000000e00008003200f4
:104c000088f707000000e000010032008084eb001c
:104c100018109000840007000000eb0010149800aa
:104c20000008200018006000150032000001eb00b1
:104c30006000b8000202d0002349220003024200b3
:104c4000940f140005003a000000400081804800e5
:104c5000008041000008eb000600370061004000c2
:104c6000e08048000201e800e80f5000e08f5800a3
:104c7000f0ff3a00080078006b0007000e003700d4
:104c8000000c780000c0eb00304498006002200067
:104c90000800400020049800400498005004980048
:104ca000400c980060049800500c98007004980024
:104cb00076004400000c9800090078004f04be0004
:104cc00000000600881f78000004eb006140b80077
:104cd000e2ff2f00f3ff2f0001010700024a22002c
:104ce00080004100110078000000e0000100320067
:104cf000acff07000804e800e80f5400f3ff3a0097
:104d00004f04780000000600889fbe000004780071
:104d10000800e0000f003a008004eb008800d0009b
:104d20002049220000804000100078000000e000d0
:104d300004003200f4ff07000000e00001003d0025
:104d40008084eb000804e800e80f5400f3ff3a0009
:104d50002500370000002200180060008004eb00ee
:104d600021003200a80490000f0037000901510013
:104d7000384090000000fb0089007800fbf6070037
:104d80000000e00007003c0028009000400498006c
:104d900060049800500c98001890a0008084eb00ec
:104da000110037008084440048019000828f540035
:104db000eeff390028009000400498009800780029
:104dc00002c020000281600001003a00380090001b
:104dd00001e8a300020032006004980001003700df
:104de000500c98008004eb00090078004f04be00ce
:104df00000000600010020000100e0000900320070
:104e0000010080000100e000060032008100e9009e
:104e1000010088008100d0000200800082804000f4
:104e200080087800000006000000e0002f0032003b
:104e3000c0017800e38f51002c0036000308a30066
:104e40002a003a00e13381000100e0000200320054
:104e5000810f50000400310011009800e0338900f8
:104e60001600370082007800110190000200e00077
:104e700002003200800f5100faff39001102780061
:104e800084824000850f500018003900808f520046
:104e900003003a0083084200010078000700370051
:104ea0000200e0000300320083014000830f510044
:104eb0000e003900120098009000980090009000b9
:104ec0000100e0000900320010014000828f500014
:104ed00006003a00a26722000009eb0010017800ea
:104ee0001108410091009000110098000000060098
:104ef000889fbe0000047800d13381000100e000eb
:104f000002003200010078000d003700e13381001b
:104f1000c067220004003700910f540025003600be
:104f20000180e800910090000100e000faff3a00e3
:104f300010003700920f54001e0036000280e80077
:104f4000100178000200e000faff3a001101780039
:104f5000e1338100c067220004003700910f540044
:104f6000140036000180e80091009000828f50000c
:104f7000faff3a0009348100888f540001003100a3
:104f80008804780009007800360007000000e0007f
:104f900004003a00888f5400050032008904d100d3
:104fa000f5ff3700091878009fff0700d2ff370090
:104fb0000000eb004f04be0000000600881f7800d0
:104fc000630440000800a1008000eb00800f540043
:104fd00021003600e30f540001003e00480020008d
:104fe00008007800c2ff07008000eb000000e0002e
:104ff000190032009000780091017800648151001e
:10500000880f510003003100110190000208780060
:1050100007003700088140000208780091019000e5
:105020001301980010017800110914008808780015
:10503000100178000000eb000200e00004003200e4
:10504000920190000300e000010032000280e800bd
:10505000d03389008180e800010078004f04780097
:1050600000000600800078000000eb000100e00076
:10507000050034000100780073f60700e10f4000de
:1050800001003a000000eb000000060000c0da005a
:105090000000060000c0da000000060000c0da00d0
:1050a00000000600839f68000100e00002003d0050
:1050b00060001000e08018000300e00002003d00e6
:1050c00060011100e081190080f607004f00e00048
:1050d00002003b0060001000e080180000000600a5
:1050e000020ab900001bb9000200b80081004200aa
:0850f0008100430000000600ee
:020000040000fa
:1050f8004a5400002046000072650000656d0000fb
:10510800616e0000006a000074660000313700001c
:1051180037000000544a000020470000696c000076
:105128006d6f000072650000007400006a6700007f
:1051380031320000300000004545000020470000e3
:105148006f7200006d6100006e0000006565000070
:105158006738000037000000574200002047000071
:105168007261000079000000776200006a36000072
:1051780033000000434e000020480000616d00002d
:10518800696c00006c000000636e0000683100006c
:1051980039300000004100004a2000004865000046
:1051a8006174000068000000616a00006835000052
:1051b8003234000000420000432000004a6f000023
:1051c800796e00006572000000620000636a0000ea
:1051d8003136000032000000434d0000205400002a
:1051e80068720000617300006800000063740000ca
:1051f8003434000036000000524100002054000002
:10520800617900006c6f000072000000726100009c
:1052180074350000360000004a57000020420000a4
:105228007275000063650000006a00007762000084
:105238007275000063650000000000007ca8000093
:1052480087a80000010100008ea8000099a80000ae
:1052580002010000a0a80000aaa8000002020000a5
:10526800b0a80000b8a8000001020000bea8000015
:10527800c8a8000001030000cfa80000d8a80000bb
:1052880002030000dfa80000e9a8000001040000f4
:10529800f0a80000faa800000204000000a900001d
:1052a8000aa900000701000010a9000019a90000c0
:1052b80007070000f40100000000000000000000e3
:1052c800000000001f0000000000000000000000b7
:1052d800001f00001f000000000000000000000088
:1052e8001f1f00001f00000000000000001f00003a
:1052f8001f1f00001f000000000000001f1f00000b
:105308001f1f00001f000000001f00001f1f0000db
:105318001f1f00001f0000007472000069000000d9
:10532800736900006e65000000730000717500006d
:1053380061720000650000003000000031000000cc
:105348003200000033000000340000003500000087
:1053580036000000370000006c6500006420000083
:10536800667200006f6d000020630000616e00002f
:105378003a200000256400000a0000006c65000067
:1053880064200000766100006c750000653a00003a
:105398002025000064000000746500006d700000a6
:1053a8003a200000256400000a2c00002074000048
:1053b800656d00007020000068650000783a000004
:1053c800203000007825000030340000780000000c
:1053d80000010000030700000301000000000000b6
:1053e800040e00001f000000000000000000000084
:1053f80000000000000000001f0e00000400000074
:105408000000000064000000870100004c03000059
:105418008705000000080000ab090000b30c00007d
:0c542800780e00009b0f0000ff0f00003a
:020000040000fa
:1054340061006000000006001041780001cdb30057
:1054440081404100e9cf50000200360091ccb30006
:10545400814041001041900000cdb3000040410064
:10546400e94f50000200360090ccb30000404100e8
:10547400420020008208dd000140400000000600d8
:105484002041900001cdb30081404100e9cf50009c
:105494000200360091ccb3008140410030419000bd
:1054a40000cdb30000404100e94f50000200360037
:1054b40090ccb30000404100420020008208dd008f
:1054c40001404000000006000081fb004411de00a2
:1054d4006f406000e94f5100020036007243b00093
:1054e400010037000243b00082587800e94f5000b1
:1054f400020036007043b000010037000043b000e2
:105504008048780000000600889fbe0000047800f0
:10551400284090000074a0002044980018007800ef
:1055240031262000810f5000b206320075003e0083
:10553400a1172000810f5000c103320038003e0043
:10554400e10e2000810f50002202320017003e00bd
:1055540041092000810f50003b01320009003e0048
:10556400e7805000810f5000fe0032008100e80007
:10557400810f5000140132000000e000130a3200d1
:10558400e50b3700410c2000810f5000a0013200d0
:10559400d10e2000810f5000f5013200310c2000a3
:1055a400810f5000dc0b3a0080013700011320000a
:1055b400810f5000bb0232000a003e00b10f2000f0
:1055c400810f500041023200f1122000810f50007f
:1055d4009b023200410f2000810f5000ce0b3a0095
:1055e4001c023700f1142000810f50002103320007
:1055f40004003e00e4805000810f5000c60b3a00c6
:105604000903370031172000810f50005303320083
:105614008100e800810f5000bf0b3a006803370097
:10562400c11f2000810f5000fc04320018003e000e
:10563400d11b2000810f5000320432000a003e00ca
:1056440081182000810f5000b80332008100e80067
:10565400810f5000cd033200e8805000810f5000cc
:10566400ad0b3a0094033700511d2000810f500008
:1056740092043200b11f2000810f5000ce0432008a
:10568400e11b2000810f5000a30b3a0036043700c1
:1056940011212000810f5000520532000a003e0003
:1056a400e8805000810f50001a053200e780400066
:1056b400810f500034053200ee805000810f5000fd
:1056c400950b3a00f504370061242000810f500047
:1056d400bb05320004003e008100e900810f500048
:1056e4008d0b3a009d05370001262000810f5000e4
:1056f4000a0632008100e800810f5000860b3a0050
:1057040020063700f1302000810f5000d708320006
:1057140039003e0001292000810f50003e0732006d
:1057240018003e00a1262000810f5000a906320077
:105734000a003e00e3805000810f50006f063200e3
:105744008100e800810f500086063200e48050009a
:10575400810f5000700b3a0042063700a128200048
:10576400810f5000f30632008100e800810f5000e1
:1057740009073200b1262000810f5000660b3a0061
:10578400b0063700612a2000810f500092073200d2
:105794000a003e00e8805000810f50005907320093
:1057a4008100e800810f50006d073200e88050004e
:1057b400810f5000580b3a0035073700512d200057
:1057c400810f5000f107320004003e00712a2000ce
:1057d400810f5000500b3a0097073700612d2000cd
:1057e400810f500002083200fb804000810f5000fe
:1057f400490b3a0061083700c1352000810f500081
:10580400cd0932001d003e0041322000810f5000be
:105814000a0932000a003e00ee805000810f500059
:10582400cb083200e7804000810f5000e6083200c8
:10583400ed805000810f5000370b3a00a408370068
:10584400c1322000810f50003109320004003e00b3
:10585400e7805000810f50002f0b3a000e093700eb
:10586400d1322000810f500041093200b1352000af
:10587400810f5000280b3a0096093700a138200008
:10588400810f5000610a32000a003e00f58050008a
:10589400810f5000170a32008100e800810f500088
:1058a400300a32008180e900810f50001a0b3a005f
:1058b400f7093700213b2000810f5000b30a320062
:1058c40004003e00b1382000810f5000120b3a0052
:1058d400670a3700313b2000810f5000c40a3200b0
:1058e400e9804000810f50000b0b3a00ec0a3700ae
:1058f4000200be000000e00005013a00e0848800d8
:10590400d18488009770ef009670ef009570ef00d7
:105914009470ef0092d0bf003109210091407800cb
:10592400814f50000d0031000081fb0063392200db
:105934000281410012427800630921008449780001
:105944000040e80092f0b70080cf500037003e00de
:105954009270ef009370ef0034003700d0082000fd
:10596400000c7800284090000028a30004003200b6
:1059740040c0b3002044980030c0b300ea0a3700a6
:10598400018580000138a30003003a000004a1004f
:1059940020449800020037000004a000204498002e
:1059a400284190000040eb000208a300de0a3a0000
:1059b4000130a00001858800202222000008eb00ad
:1059c400e0082000000c7800284090000028a30084
:1059d4000400320040c0b3002044980030c0b3003b
:1059e400d10a370012c0b30061092100202222002d
:1059f4004b2c0700e24f5000040036002840900072
:105a04000004a100204498000300370028409000bf
:105a14000004a00020449800a84090000040eb003f
:105a24000108a300c00a3a00a070a90096d0bf00e4
:105a340031c5b300814f50001a003a000602a80095
:105a440040092000000c7800284090000028a300a2
:105a54000400320040c0b3002044980030c0b300ba
:105a6400b10a37000602ab0003003a000004a100ab
:105a740020449800020037000004a000204498004d
:105a8400a84090000040eb000108a300a60a3a00d9
:105a94009c10f8009a10f90010002000e08488009f
:105aa400ca083700a1c3b300814f500005003a0073
:105ab4009c10f8009a10f90060002000e08488002f
:105ac400c208370041c5b300814f500005003a00b9
:105ad4009c10f8009a10f90050002000e08488001f
:105ae400ba083700c1c4b300814f500005003a0022
:105af4009c10f8009a10f90040002000e08488000f
:105b0400b208370071c4b300814f500005003a0059
:105b14009c10f8009a10f90070002000e0848800be
:105b2400aa083700e1c4b300814f500002003a00d4
:105b340006a2a800a5083700a1c4b300814f5000f5
:105b44006f003a000040eb000139220080487800e1
:105b54008100e800804878006000370092d0bf00e0
:105b64003109210091407800814f50000d0031002f
:105b74000081fb0063392200028141001242780057
:105b840063092100844978000040e80092f0b700de
:105b940080cf500037003e009270ef009370ef000a
:105ba40034003700300c2000000c780028409000ae
:105bb4000028a3000400320040c0b3002044980031
:105bc40030c0b300580a3700018580000138a300b3
:105bd40003003a000004a1002044980002003700aa
:105be4000004a00020449800284190000040eb00ed
:105bf4000208a3004c0a3a000130a0000185880085
:105c0400202222000008eb00400c2000000c780049
:105c1400284090000028a3000400320040c0b300d4
:105c24002044980030c0b3003f0a370012c0b300cc
:105c34006109210020222200b92b0700e24f500005
:105c440004003600284090000004a100204498007d
:105c540003003700284090000004a000204498006e
:105c6400a84090000040eb000108a3002e0a3a006f
:105c7400a070a9008cd0bf000081fb000139220074
:105c840002814000630921009341780003497800b0
:105c94000040e8008cf0b70012c3b300914f11002c
:105ca4000a003a0041c3b3001239220092cf100017
:105cb40006003a008c70ef009c10f8009a10f9006e
:105cc40080002000e084880004003700e14f500089
:105cd400020036008c70ef003c08370010c3b3009c
:105ce40001392200914f10009cff3a0063404000ac
:105cf4008100e800914f100098ff3a003308370004
:105d04009c10f8009a10f9009c30ef002f0837001f
:105d1400e10f50006f013a00e0848800d1848800cc
:105d240092d0bf003109210091407800814f50008a
:105d34000d0031000081fb00633922000281410023
:105d44009241780074092100034a78000040e80079
:105d540092f0b70080cf500037003e009270ef0001
:105d64009370ef0034003700d00e2000000c780050
:105d7400284090000028a3000400320040c0b30073
:105d84002044980030c0b300e70937000185800043
:105d94000138a30003003a000004a1002044980045
:105da400020037000004a00020449800284190001d
:105db4000040eb000208a300db093a000130a00018
:105dc40001858800202222000008eb00e00e20005c
:105dd400000c7800284090000028a3000400320042
:105de40040c0b3002044980030c0b300ce0937004f
:105df40012c0b3007109210020222200482b0700a1
:105e0400e24f500004003600284090000004a10036
:105e14002044980003003700284090000004a000ac
:105e240020449800a84090000040eb000108a30023
:105e3400bd093a00a070a90097d0bf0031c5b300d6
:105e4400814f50001b003a000622a800400f20009a
:105e5400000c7800284090000028a30004003200c1
:105e640040c0b3002044980030c0b300ae093700ee
:105e74000622ab0003003a000004a100204498006d
:105e8400020037000004a00020449800a8409000bd
:105e94000040eb000108a300a3093a009870ef004a
:105ea4009c10f8009a10f90010002000e08488008b
:105eb400c607370001c5b300814f50001a003a00ed
:105ec4000642a800b00f2000000c78002840900083
:105ed4000028a3000400320040c0b300204498000e
:105ee40030c0b300900937000642ab0003003a000b
:105ef4000004a10020449800020037000004a00020
:105f040020449800a84090000040eb000108a30042
:105f140085093a009870ef009c10f8009a10f90077
:105f24009c30ef00a9073700a1c3b300814f500094
:105f340006003a009c10f8009a10f9006000200056
:105f4400e08488009870ef00a007370041c5b300d3
:105f5400814f500006003a009c10f8009a10f90096
:105f640050002000e08488009870ef009707370005
:105f7400c1c4b300814f500006003a009c10f800e1
:105f84009a10f90040002000e08488009870ef0027
:105f94008e07370071c4b300814f500006003a00e9
:105fa4009c10f8009a10f90070002000e08488002a
:105fb4009870ef0085073700e1c4b300814f5000ab
:105fc40002003a0006a2a80080073700a1c4b3006b
:105fd400814f50006f003a000040eb00013922006d
:105fe400804878008100e80080487800600037002d
:105ff40092d0bf003109210091407800814f5000b8
:106004000d0031000081fb00633922000281410050
:106014009241780074092100034a78000040e800a6
:1060240092f0b70080cf500037003e009270ef002e
:106034009370ef0034003700f0122000000c780059
:10604400284090000028a3000400320040c0b300a0
:106054002044980030c0b300330937000185800024
:106064000138a30003003a000004a1002044980072
:10607400020037000004a00020449800284190004a
:106084000040eb000208a30027093a000130a000f9
:1060940001858800202222000008eb000013200064
:1060a400000c7800284090000028a300040032006f
:1060b40040c0b3002044980030c0b3001a09370030
:1060c40012c0b3007109210020222200942a070083
:1060d400e24f500004003600284090000004a10064
:1060e4002044980003003700284090000004a000da
:1060f40020449800a84090000040eb000108a30051
:1061040009093a00a070a9008cd0bf000081fb00ef
:1061140001392200028140007409210014427800f0
:10612400044978000040e8008cf0b70012c3b300c3
:10613400914f11000a003a0041c3b3001239220002
:1061440092cf100006003a008c70ef009c10f8000b
:106154009a10f90080002000e084880004003700d1
:10616400e14f5000020036008c70ef001707370033
:1061740010c3b30001392200914f10009cff3a0074
:10618400634040008100e800914f100098ff3a00fe
:106194000e07370001cdb30081404000e9cf500025
:1061a40004003600f1cbb30081404000e5cf50003d
:1061b40006073e0081092100914078000181fb001f
:1061c4006341220002814100004978000140e80057
:1061d40098f0b700e24f500039003a00030078000d
:1061e40095fc070080447800700921000948780074
:1061f4009870ef00094078008dfc07000000e00073
:10620400cb08320030002000e08488000940780088
:106214000004a0000080fb0010108800f01420008f
:10622400000c780013003700284090000028a300d9
:106234000400320040c0b3002044980030c0b300d2
:10624400b908370009c2ab0003003a000004a100fa
:1062540020449800020037000004a0002044980065
:10626400a84090000040eb000108a300d7063200cc
:10627400ad083700284090000028a3000400320035
:1062840040c0b3002044980030c0b300a6083700d3
:1062940009c2ab0003003a000004a10020449800a6
:1062a400020037000004a00020449800a840900099
:1062b4000040eb000108a300c40632009a0837002e
:1062c4009c10f8009a10f90010002000e084880067
:1062d400be063700e20f500095013a00e0848800c2
:1062e400d184880079092100994478000940780014
:1062f4004ffc07000000e000040032008944e9007c
:1063040089417800720921000349780092d0bf00c6
:106314003109210091407800814f50000d00310077
:106324000081fb0063392200028141009241780020
:1063340064092100034a78000040e80092f0b700a5
:1063440080cf500037003e009270ef009370ef0052
:106354003400370030172000000c780028409000eb
:106364000028a3000400320040c0b3002044980079
:1063740030c0b3006c083700018580000138a300e9
:1063840003003a000004a1002044980002003700f2
:106394000004a00020449800284190000040eb0035
:1063a4000208a30060083a000130a00001858800bb
:1063b400202222000008eb0040172000000c780087
:1063c400284090000028a3000400320040c0b3001d
:1063d4002044980030c0b3005308370012c0b30003
:1063e4006109210020222200cd290700e24f50003c
:1063f40004003600284090000004a10020449800c6
:1064040003003700284090000004a00020449800b6
:10641400a84090000040eb000108a30042083a00a5
:10642400a070a90096d0bf0031c5b300814f5000c1
:106434001b003a000622a800a0172000000c7800d8
:10644400284090000028a3000400320040c0b3009c
:106454002044980030c0b300330837000622ab0054
:1064640003003a000004a100204498000200370011
:106474000004a00020449800a84090000040eb00d5
:106484000108a30028083a009870ef009c10f80057
:106494009a10f90010002000e08488004b063700b1
:1064a40001c5b300814f50001a003a000642a8000b
:1064b40010182000000c7800284090000028a30049
:1064c4000400320040c0b3002044980030c0b30040
:1064d400150837000642ab0003003a000004a1008f
:1064e40020449800020037000004a00020449800d3
:1064f400a84090000040eb000108a3000a083a00fd
:106504009c10f8009a10f9009c30ef009870ef008e
:106514002e06370021c5b300814f500033003a00e6
:106524000622a80080182000000c78002840900063
:106534000028a3000400320040c0b30020449800a7
:1065440030c0b300f80737000622ab0003003a005e
:106554000004a10020449800020037000004a000b9
:1065640020449800a84090000040eb000108a300dc
:10657400ed073a0097d0bf000004a0000080fb00a4
:106584001010880090182000000c7800284090001b
:106594000028a3000400320040c0b3002044980047
:1065a40030c0b300e007370009c2ab0003003a0073
:1065b4000004a10020449800020037000004a00059
:1065c40020449800a84090000040eb000108a3007c
:1065d400d5073a009870ef009c10f8009a10f90063
:1065e40030002000e0848800f8053700a1c3b30020
:1065f400814f500006003a009c10f8009a10f900f0
:1066040060002000e08488009870ef00ef053700f8
:10661400c1c4b300814f500006003a009c10f8003a
:106624009a10f90040002000e08488009870ef0080
:10663400e605370041c5b300814f500006003a001b
:106644009c10f8009a10f90050002000e0848800a3
:106654009870ef00dd05370071c4b300814f50001e
:1066640006003a009c10f8009a10f900700020000f
:10667400e08488009870ef00d4053700e1c4b300cb
:10668400814f500002003a0006a2a800cf0537004f
:10669400a1c4b300814f50006f003a000040eb00ea
:1066a40001392200804878008100e80080487800a1
:1066b4006000370092d0bf0031092100914078007a
:1066c400814f50000d0031000081fb00633922002e
:1066d400028141009241780064092100034a780054
:1066e4000040e80092f0b70080cf500037003e0031
:1066f4009270ef009370ef0034003700d01b20003d
:10670400000c7800284090000028a3000400320008
:1067140040c0b3002044980030c0b3008207370063
:10672400018580000138a30003003a000004a100a1
:1067340020449800020037000004a0002044980080
:10674400284190000040eb000208a30076073a00bd
:106754000130a00001858800202222000008eb00ff
:10676400e01b2000000c7800284090000028a300c3
:106774000400320040c0b3002044980030c0b3008d
:106784006907370012c0b3006109210020222200ea
:10679400e3280700e24f5000040036002840900030
:1067a4000004a10020449800030037002840900012
:1067b4000004a00020449800a84090000040eb0092
:1067c4000108a30058073a00a070a9008cd0bf00ac
:1067d4000081fb000139220002814000640921008c
:1067e40014427800044978000040e8008cf0b700b7
:1067f40012c3b300914f11000a003a0041c3b30021
:106804001239220092cf100006003a008c70ef007b
:106814009c10f8009a10f90080002000e0848800a1
:1068240004003700e14f5000020036008c70ef0086
:106834006605370010c3b30001392200914f1000e0
:106844009cff3a00634040008100e800914f100033
:1068540098ff3a005d05370001cdb3008140400048
:10686400e9cf500004003600f1cbb3008140400072
:10687400e5cf500055053e00810921009140780084
:106884000181fb006341220002814100004978003c
:106894000140e80098f0b700e24f50001f003a00b2
:1068a40003007800e4fa070096f0b7000080fb00cc
:1068b40010108800501d2000000c78002840900023
:1068c4000028a3000400320040c0b3002044980014
:1068d40030c0b3001407370009c2ab0003003a000c
:1068e4000004a10020449800020037000004a00026
:1068f40020449800a84090000040eb000108a30049
:1069040009073a009870ef009c10f8009a10f900fb
:1069140020002000e08488002c0537009c10f8003b
:106924009a10f90020002000e08488002705370031
:10693400e30f500067023a00e0848800d1848800a5
:10694400790921009944780009407800b8fa0700d1
:106954000000e00004003a008944e800894078001f
:10696400700921000148780092d0bf00310921004c
:1069740091407800814f50000d0031000081fb00f0
:106984006339220002814100124278006309210028
:10699400844978000040e80092f0b70080cf5000ae
:1069a40037003e009270ef009370ef003400370020
:1069b400b01f2000000c7800284090000028a3009d
:1069c4000400320040c0b3002044980030c0b3003b
:1069d400d5063700018580000138a30003003a0082
:1069e4000004a10020449800020037000004a00025
:1069f40020449800284190000040eb000208a300c6
:106a0400c9063a000130a000018588002022220036
:106a14000008eb00c01f2000000c78002840900004
:106a24000028a3000400320040c0b30020449800b2
:106a340030c0b300bc06370012c0b30061092100a6
:106a44002022220036280700e24f500004003600be
:106a5400284090000004a10020449800030037005f
:106a6400284090000004a00020449800a840900012
:106a74000040eb000108a300ab063a00a070a90097
:106a840096d0bf0031c5b300814f50001b003a00bf
:106a94000622a80020202000000c78002840900046
:106aa4000028a3000400320040c0b3002044980032
:106ab40030c0b3009c0637000622ab0003003a0046
:106ac4000004a10020449800020037000004a00044
:106ad40020449800a84090000040eb000108a30067
:106ae40091063a009870ef009c10f8009a10f90093
:106af40010002000e0848800b404370001c5b3000e
:106b0400814f50001a003a000642a800902020004d
:106b1400000c7800284090000028a30004003200f4
:106b240040c0b3002044980030c0b3007e06370054
:106b34000642ab0003003a000004a1002044980080
:106b4400020037000004a00020449800a8409000f0
:106b54000040eb000108a30073063a009c10f80003
:106b64009a10f9009c30ef009870ef0097043700fa
:106b740071c5b300814f500032003a000622a800cc
:106b840000212000000c7800284090000028a30079
:106b94000400320040c0b3002044980030c0b30069
:106ba400610637000622ab0003003a000004a1008e
:106bb40020449800020037000004a00020449800fc
:106bc400a84090000040eb000108a30056063a00dc
:106bd40097d0bf00e00fb2001010880010212000f1
:106be400000c7800284090000028a3000400320024
:106bf40040c0b3002044980030c0b3004a063700b8
:106c040009c2ab0003003a000004a100204498002c
:106c1400020037000004a00020449800a84090001f
:106c24000040eb000108a3003f063a009870ef0013
:106c34009c10f8009a10f90020002000e0848800dd
:106c440062043700a1c3b300814f500006003a002c
:106c54009c10f8009a10f90060002000e08488007d
:106c64009870ef0059043700c1c4b300814f50003d
:106c740006003a009c10f8009a10f9004000200029
:106c8400e08488009870ef005004370071c4b300aa
:106c9400814f500006003a009c10f8009a10f90049
:106ca40070002000e08488009870ef0047043700eb
:106cb40041c5b300814f500006003a009c10f80013
:106cc4009a10f90050002000e08488009870ef00ca
:106cd4003e043700e1c4b300814f500002003a0083
:106ce40006a2a80039043700a1c4b300814f5000a4
:106cf4006f003a000040eb00013922008048780020
:106d04008100e800804878006000370092d0bf001e
:106d14003109210091407800814f50000d0031006d
:106d24000081fb0063392200028141001242780095
:106d340063092100844978000040e80092f0b7001c
:106d440080cf500037003e009270ef009370ef0048
:106d54003400370050242000000c780028409000b4
:106d64000028a3000400320040c0b300204498006f
:106d740030c0b300ec053700018580000138a30062
:106d840003003a000004a1002044980002003700e8
:106d94000004a00020449800284190000040eb002b
:106da4000208a300e0053a000130a0000185880034
:106db400202222000008eb0060242000000c780050
:106dc400284090000028a3000400320040c0b30013
:106dd4002044980030c0b300d305370012c0b3007c
:106de40061092100202222004d270700e24f5000b4
:106df40004003600284090000004a10020449800bc
:106e040003003700284090000004a00020449800ac
:106e1400a84090000040eb000108a300c2053a001e
:106e2400a070a9008cd0bf000081fb0001392200b2
:106e340002814000630921009341780003497800ee
:106e44000040e8008cf0b70012c3b300914f11006a
:106e54000a003a0041c3b3001239220092cf100055
:106e640006003a008c70ef009c10f8009a10f900ac
:106e740080002000e084880004003700e14f5000c7
:106e8400020036008c70ef00d003370010c3b3004b
:106e940001392200914f10009cff3a0063404000ea
:106ea4008100e800914f100098ff3a00c7033700b3
:106eb40001cdb30081404000e9cf5000040036000a
:106ec400f1cbb30081404000e5cf5000bf033e004a
:106ed40081092100914078000181fb006341220077
:106ee40002814100004978000140e80098f0b700b1
:106ef400e24f5000f2003a00030078004ef9070018
:106f040096f0b7008870ef0070003700a06222008e
:106f14000008eb0000262000000c780028409000b8
:106f24000028a3000400320040c0b30020449800ad
:106f340030c0b3007c0537000041eb00410921005b
:106f4400a0622200b32f0700e24f50000400360075
:106f5400284090000004a10020449800030037005a
:106f6400284090000004a00020449800a84090000d
:106f74000040eb000108a3006b053a001026200036
:106f8400000c7800284090000028a3000400320080
:106f940040c0b3002044980030c0b30062053700fd
:106fa400018580000128a30003003a000004a10029
:106fb40020449800020037000004a00020449800f8
:106fc400284190000040eb000208a30056053a0057
:106fd4000120a000018588002139220094d0bf003f
:106fe40039f90700002122000008eb0030262000b8
:106ff400000c7800284090000028a3000400320010
:1070040040c0b3002044980030c0b30046053700a8
:107014002039220090407800002122000925070031
:10702400e24f500004003600284090000004a10004
:107034002044980003003700284090000004a0007a
:1070440020449800a84090000040eb000108a300f1
:1070540035053a00002122000008eb0040262000fc
:10706400000c7800284090000028a300040032009f
:1070740040c0b3002044980030c0b3002a05370054
:10708400303922009040780000212200ed240700ce
:10709400e24f500004003600284090000004a10094
:1070a4002044980003003700284090000004a0000a
:1070b40020449800a84090000040eb000108a30081
:1070c40019053a00a050a9008870ec00810821003d
:1070d400914078008180fb0096d0bf000080fb00c7
:1070e4000000e900808f500088ff3500a062220074
:1070f4000008eb0070262000000c78002840900067
:107104000028a3000400320040c0b30020449800cb
:1071140030c0b3000405370012c0b3004109210098
:10712400a06222003b2f0700e24f5000040036000b
:10713400284090000004a100204498000300370078
:10714400284090000004a00020449800a84090002b
:107154000040eb000108a300f3043a00802620005d
:10716400000c7800284090000028a300040032009e
:1071740040c0b3002044980030c0b300ea04370094
:10718400018580000128a30003003a000004a10047
:1071940020449800020037000004a0002044980016
:1071a400284190000040eb000208a300de043a00ee
:1071b4000120a000018588002139220094d0bf005d
:1071c400c1f80700002122000008eb00a0262000df
:1071d400000c7800284090000028a300040032002e
:1071e40040c0b3002044980030c0b300ce04370040
:1071f40020392200904078000021220091240700c9
:10720400e24f500004003600284090000004a10022
:107214002044980003003700284090000004a00098
:1072240020449800a84090000040eb000108a3000f
:10723400bd043a00002122000008eb00b026200023
:10724400000c7800284090000028a30004003200bd
:1072540040c0b3002044980030c0b300b2043700eb
:107264003039220090407800002122007524070064
:10727400e24f500004003600284090000004a100b2
:107284002044980003003700284090000004a00028
:1072940020449800a84090000040eb000108a3009f
:1072a400a1043a00a050a9009870ef009c10f800c7
:1072b4009a10f90030002000e0848800c3023700ef
:1072c4009c10f8009a10f90030002000e084880037
:1072d400be023700e40f5000cc013a00e08488007d
:1072e400d184880092d0bf003109210091407800f8
:1072f400814f50000d0031000081fb0063392200f2
:10730400028141009241780064092100034a780017
:107314000040e80092f0b70080cf500037003e00f4
:107324009270ef009370ef0034003700a028200023
:10733400000c7800284090000028a30004003200cc
:1073440040c0b3002044980030c0b3007604370036
:10735400018580000138a30003003a000004a10065
:1073640020449800020037000004a0002044980044
:10737400284190000040eb000208a3006a043a0090
:107384000130a00001858800202222000008eb00c3
:10739400b0282000000c7800284090000028a300aa
:1073a4000400320040c0b3002044980030c0b30051
:1073b4005d04370012c0b3006109210020222200bd
:1073c400d7250700e24f5000040036002840900003
:1073d4000004a100204498000300370028409000d6
:1073e4000004a00020449800a84090000040eb0056
:1073f4000108a3004c043a00a070a90096d0bf0075
:1074040031c5b300814f50001b003a000622a8008a
:1074140000292000000c7800284090000028a300d8
:107424000400320040c0b3002044980030c0b300d0
:107434003d0437000622ab0003003a000004a1001b
:1074440020449800020037000004a0002044980063
:10745400a84090000040eb000108a30032043a0069
:107464009c10f8009a10f90010002000e0848800b5
:107474009870ef005502370001c5b300814f5000ea
:107484001a003a000642a80070292000000c780077
:10749400284090000028a3000400320040c0b3003c
:1074a4002044980030c0b3001f0437000642ab00ec
:1074b40003003a000004a1002044980002003700b1
:1074c4000004a00020449800a84090000040eb0075
:1074d4000108a30014043a009c10f8009a10f90063
:1074e4009c30ef009870ef003802370071c5b3008c
:1074f400814f500032003a000622a800e029200003
:10750400000c7800284090000028a30004003200fa
:1075140040c0b3002044980030c0b30002043700d8
:107524000622ab0003003a000004a10020449800a6
:10753400020037000004a00020449800a8409000f6
:107544000040eb000108a300f7033a0097d0bf0006
:10755400e00fb20010108800f0292000000c780021
:10756400284090000028a3000400320040c0b3006b
:107574002044980030c0b300eb03370009c2ab00cd
:1075840003003a000004a1002044980002003700e0
:107594000004a00020449800a84090000040eb00a4
:1075a4000108a300e0033a009870ef009c10f80073
:1075b4009a10f90020002000e084880003023700bc
:1075c40021c5b300814f500033003a000622a800c1
:1075d400602a2000000c7800284090000028a300b6
:1075e4000400320040c0b3002044980030c0b3000f
:1075f400cd0337000622ab0003003a000004a100cb
:1076040020449800020037000004a00020449800a1
:10761400a84090000040eb000108a300c2033a0018
:1076240097d0bf000004a0000080fb001010880069
:10763400702a2000000c7800284090000028a30045
:107644000400320040c0b3002044980030c0b300ae
:10765400b503370009c2ab0003003a000004a100df
:1076640020449800020037000004a0002044980041
:10767400a84090000040eb000108a300aa033a00d0
:107684009870ef009c10f8009a10f9003000200068
:10769400e0848800cd013700a1c3b300814f5000be
:1076a40006003a009c10f8009a10f90060002000cf
:1076b400e08488009870ef00c401370041c5b3002e
:1076c400814f500006003a009c10f8009a10f9000f
:1076d40050002000e08488009870ef00bb01370060
:1076e40071c4b300814f500006003a009c10f800aa
:1076f4009a10f90070002000e08488009870ef0070
:10770400b2013700e1c4b300814f500002003a00d7
:1077140006a2a800ad013700a1c4b300814f5000f8
:107724006f003a000040eb000139220080487800e5
:107734008100e800804878006000370092d0bf00e4
:107744003109210091407800814f50000d00310033
:107754000081fb00633922000281410092417800dc
:1077640064092100034a78000040e80092f0b70061
:1077740080cf500037003e009270ef009370ef000e
:1077840034003700502d2000000c78002840900071
:107794000028a3000400320040c0b3002044980035
:1077a40030c0b30060033700018580000138a300b6
:1077b40003003a000004a1002044980002003700ae
:1077c4000004a00020449800284190000040eb00f1
:1077d4000208a30054033a000130a0000185880088
:1077e400202222000008eb00602d2000000c78000d
:1077f400284090000028a3000400320040c0b300d9
:107804002044980030c0b3004703370012c0b300cf
:107814006109210020222200c1240700e24f500008
:1078240004003600284090000004a1002044980081
:1078340003003700284090000004a0002044980072
:10784400a84090000040eb000108a30036033a0072
:10785400a070a9008cd0bf000081fb000139220078
:107864000281400064092100144278000449780030
:107874000040e8008cf0b70012c3b300914f110030
:107884000a003a0041c3b3001239220092cf10001b
:1078940006003a008c70ef009c10f8009a10f90072
:1078a40080002000e084880004003700e14f50008d
:1078b400020036008c70ef004401370010c3b3009f
:1078c40001392200914f10009cff3a0063404000b0
:1078d4008100e800914f100098ff3a003b01370007
:1078e40001cdb30081404000e9cf500004003600d0
:1078f400f1cbb30081404000e5cf500033013e009e
:1079040081092100914078000181fb00634122003c
:1079140002814100004978000140e80098f0b70076
:10792400e44f500034003a0003007800c2f6070028
:107934008044780010092100094878006041220041
:10794400cff6070090f0b700c84cdd000080fb00c4
:107954000080440070848800db36070030049800ff
:1079640041049800708480008000eb00500498006b
:1079740061049800102f2000000c7800284090002b
