:020000040000fa
:080000000013040000000000e1
:020000040000fa
:1000080002100000061000000a1000000e10000088
:1000180012100000161000001a1000001e10000038
:1000280022100000261000002a1000002e100000e8
:1000380032100000361000003a1000003e10000098
:1000480042100000461000004a1000004e10000048
:1000580052100000561000005a1000005e100000f8
:1000680062100000661000006a1000006e100000a8
:1000780072100000761000007a1000007e10000058
:1000880082100000861000008a1000008e10000008
:1000980092100000961000009a1000009e100000b8
:1000a800a2100000a6100000aa100000ae10000068
:1000b800b2100000b6100000ba100000be10000018
:1000c800c2100000c6100000ca100000ce100000c8
:1000d800d2100000d6100000da100000de10000078
:1000e800e2100000e6100000ea100000ee10000028
:1000f800f2100000f6100000fa100000fe100000d8
:1001080002110000061100000a1100000e11000083
:1001180012110000161100001a1100001e11000033
:1001280022110000261100002a1100002e110000e3
:1001380032110000361100003a1100003e11000093
:1001480042110000461100004a1100004e11000043
:1001580052110000561100005a1100005e110000f3
:1001680062110000661100006a1100006e110000a3
:1001780072110000761100007a1100007e11000053
:1001880082110000861100008a1100008e11000003
:1001980092110000961100009a1100009e110000b3
:1001a800a2110000a6110000aa110000ae11000063
:1001b800b2110000b6110000ba110000be11000013
:1001c800c2110000c6110000ca110000ce110000c3
:1001d800d2110000d6110000da110000de11000073
:1001e800e2110000e6110000ea110000ee11000023
:1001f800f2110000f6110000fa110000fe110000d3
:1002080002120000061200000a1200000e1200007e
:1002180012120000161200001a1200001e1200002e
:1002280022120000261200002a1200002e120000de
:1002380032120000361200003a1200003e1200008e
:1002480042120000461200004a1200004e1200003e
:1002580052120000561200005a1200005e120000ee
:020000040000fa
:102000000200000046140400000000004614040012
:102010000000000046140400000000004614040004
:1020200000000000461404000000000046140400f4
:1020300000000000461404000000000046140400e4
:1020400000000000461404000000000046140400d4
:10205000000000004614040000000000e8470400ef
:1020600000000000461404000000000046140400b4
:1020700000000000461404000000000046140400a4
:102080000000000046140400000000004614040094
:10209000000000004614040000000000a8450400f1
:1020a000000000007c45040000000000461404000d
:1020b0000000000046140400000000004614040064
:1020c0000000000046140400000000004614040054
:1020d0000000000046140400000000004614040044
:1020e0000000000046140400000000004614040034
:1020f0000000000046140400000000004614040024
:102100000000000046140400000000004614040013
:102110000000000046140400000000004614040003
:1021200000000000461404000000000046140400f3
:1021300000000000461404000000000046140400e3
:1021400000000000461404000000000046140400d3
:1021500000000000461404000000000046140400c3
:1021600000000000461404000000000046140400b3
:1021700000000000461404000000000046140400a3
:102180000000000046140400000000004614040093
:102190000000000046140400000000004614040083
:1021a0000000000046140400000000004614040073
:1021b0000000000046140400000000004614040063
:1021c0000000000046140400000000004614040053
:1021d0000000000046140400000000004614040043
:1021e0000000000046140400000000004614040033
:1021f0000000000046140400000000004614040023
:102200000000000046140400000000004614040012
:102210000000000046140400000000004614040002
:1022200000000000461404000000000046140400f2
:1022300000000000461404000000000046140400e2
:1022400000000000461404000000000046140400d2
:1022500000000000461404000000000046140400c2
:1022600000000000461404000000000046140400b2
:1022700000000000461404000000000046140400a2
:102280000000000046140400000000004614040092
:102290000000000046140400000000004614040082
:1022a0000000000046140400000000004614040072
:1022b0000000000046140400000000004614040062
:1022c0000000000046140400000000004614040052
:1022d0000000000046140400000000004614040042
:1022e0000000000046140400000000004614040032
:1022f0000000000046140400000000004614040022
:102300000000000046140400000000004614040011
:102310000000000046140400000000004614040001
:1023200000000000461404000000000046140400f1
:1023300000000000461404000000000046140400e1
:1023400000000000461404000000000046140400d1
:1023500000000000461404000000000046140400c1
:1023600000000000461404000000000046140400b1
:1023700000000000461404000000000046140400a1
:102380000000000046140400000000004614040091
:102390000000000046140400000000004614040081
:1023a0000000000046140400000000004614040071
:1023b0000000000046140400000000004614040061
:1023c0000000000046140400000000004614040051
:1023d0000000000046140400000000004614040041
:1023e0000000000046140400000000004614040031
:1023f0000000000046140400000000004614040021
:102400000000000046140400000000004614040010
:102410000000000046140400000000004614040000
:1024200000000000461404000000000046140400f0
:1024300000000000461404000000000046140400e0
:1024400000000000461404000000000046140400d0
:1024500000000000461404000000000046140400c0
:1024600000000000461404000000000046140400b0
:1024700000000000461404000000000046140400a0
:102480000000000046140400000000004614040090
:102490000000000046140400000000004614040080
:1024a0000000000046140400000000004614040070
:1024b0000000000046140400000000004614040060
:0424c0000000000018
:020000040000fa
:102600008fe221000eff27000e018800000000006d
:10261000000020000000e000020032000001200065
:1026200020028800140007009a0007000000e00064
:1026300003003a002071240001002000020037004e
:102640000000200001002000810f70000100320016
:102650000f000700000020000000e0000200320030
:102660000000020000000000783b020000000000b3
:102670000040da000000fe00201020000000e00012
:1026800002003200002020009001880000000600b7
:10269000a1028800800478000000eb001f003700d2
:1026a000e284440054a0b4009905ba00e2844400d6
:1026b00054a0b4009906ba00e284440054a0b400c7
:1026c0000006eb00476fde00fd07b200ae01880098
:1026d000636ce10003003a000ad801000000eb003f
:1026e0000e003700606ce10008003a00004deb007e
:1026f0000a05e800020039003420ec000af0a000ce
:102700008b05e900f9ff3e00040037006168e10035
:10271000010032000086eb000b00070019c7ba0069
:102720001905ba000e04e00003003a000a00e000b8
:10273000dbff3a0000000600fe07b200ae02880090
:102740008a047800f5ff37000cd0a300e20f4d009b
:102750001c00390089027800354dba000a05e800ee
:10276000020039003420ec000af0a0008b05e900db
:102770000f003200254dba000a05e80002003900ba
:102780003420ec000af0a0008b05e90008003200bc
:102790000c00e0000600320015cdba000a05e80082
:1027a000020039003420ec000af0a0008b05e9009b
:1027b0008984e80054a0b4000b00e000e2ff3a0076
:1027c000000006009902ba00055d78008b05e9005b
:1027d000f7ff3200c82ade00055d78008b05e900ae
:1027e000f3ff32000c00e000f1ff320019ddba0007
:1027f000eeff3700201c040000000000d619040082
:1028000000000000ae2a040000000000c22a0400fc
:1028100000000000d62a040000000000222b040063
:10282000000000002630040000000000f62a04002a
:1028300000000000ea2a040000000000fa2a040058
:1028400000000000ee2a040000000000fe2a040040
:1028500000000000f22a040000000000064404000a
:1028600000000000fe43040000000000f6430400e6
:1028700000000000ee43040000000000e8430400f4
:102880000000000048230400000000000040da00bf
:102890000000fe00000005006022b80006022000d3
:1028a0000000d0008180d2000482d2008582d20054
:1028b0000000a0000202520083825a00030031008f
:1028c0000202420083824a000000a1000603e900e0
:1028d000f3ff3a00000006000001fa00889fbe00e6
:1028e0008a9fbe008c1f78000004be00020578009d
:1028f000f0032000808f51000a003e000000eb0032
:1029000005003700984078001a5c7800195d78005f
:10291000815c78000000e800830f5000f9ff3a0066
:102920001e003700030678008c0578000010200098
:10293000800f560001003600800578000b017800fa
:102940008800780060ef2f000f004000fd010700b5
:102950000b0178008a00780008007800f901070070
:102960000b017800890078000a007800f501070063
:102970000b01780061ef2f008f8040000900780084
:10298000f00107000b0656000b0444008b84440042
:102990000b0545000c00e000e3ff3a004f0678000d
:1029a0004f05be004f04be000080fa000000060084
:1029b0000001fa00889fbe008a9fbe000005be008d
:1029c000f0032000800f510009003e000000eb00e2
:1029d000040037009a4078001b5d7800815d780024
:1029e0000000e800820f5000faff3a00180037009c
:1029f000820478000904780000102000808f5400c1
:102a00000100360000047800080178008a00780090
:102a100080ef2f000f004000ca0107000801780076
:102a20000a00be00c70107000801780081ef2f00ef
:102a30008f8040000b007800c2010700888454009a
:102a400008054500888545000900e000e9ff3a00d7
:102a50004f05be004f04be000080fa0000000600d3
:102a6000889fbe008a9fbe008c1f7800800478007b
:102a7000010478000205be00040678000800be00cc
:102a80000c0001000000e00004003d000b01780094
:102a90008800780009007800c5ff070088007800ea
:102aa0000a0078000c0001000000e00004003d0076
:102ab0000b0178008a00780008007800bcff07004e
:102ac0000800be000c0001000000e00004003d0012
:102ad0000b0178008800780009007800b4ff070037
:102ae0004f0678004f05be004f04be0000000600f0
:102af000889fbe008a9fbe008c9fbe008e1f7800fc
:102b00008002780081047800820578000304780050
:102b10000406780005855500820220008299b900dc
:102b20008a0f510022003100110009000385d800ee
:102b3000000578004355de000a05e80083d5b9009a
:102b40000a8742000a014500028142008e00780097
:102b500005007800c2ff07008a06ea000a814400e7
:102b60000d8044000c02780088017800890078000c
:102b7000bbff07008d864500e0ff2f0080d5b90020
:102b80000a8045000c027800880178000b0178006b
:102b90008d007800b2ff07000c02780088017800f1
:102ba0000d017800890078000e00780003003700de
:102bb0000b0178008900780005007800a8ff070065
:102bc0004f0778004f06be004f05be004f04be0001
:102bd00000000600e4874700889fbe008a9fbe0071
:102be0008c9fbe008e1f78000004be000205be0050
:102bf00084bf9f000906e8000c06460089d8b9008a
:102c0000000744008cd8b900800644000900780011
:102c1000150037008a0f5600060032008b805600e0
:102c20000d0078000fb99700020001000000e000dd
:102c300002003d000c06e9008b8656000b0178006f
:102c40008d0078000e00780059ff07008c00e80026
:102c5000818040008b89b9000c0078000d07780056
:102c600082064400010678008a0f5600e9ff36000c
:102c7000100037000006e9000c06d1008be5b90012
:102c80000a0544008a0078000e0078000fb997000a
:102c9000020001000000e000080034000b01780091
:102ca0008e0078000a00780041ff07000c007800d1
:102cb0000a077800808f5400eeff39004f07780034
:102cc0004f06be004f05be004f04be004f00b100ce
:102cd000000006000001fa00889fbe008a9fbe0027
:102ce0008c9fbe0000057800010678008205780000
:102cf0008a0656008b8646008b0478001500370044
:102d00000904780000102000808f54000100360074
:102d10000004780088805500810046000801780092
:102d200040ef2f000f004000060107000881560009
:102d3000080045008a0078000901070008017800b2
:102d400041ef2f008f8040000a007800fd0007004f
:102d5000888454000900e000e9ff3a004f06be00f5
:102d60004f05be004f04be000080fa0000000600c0
:102d7000ea874700889fbe008a9fbe008c9fbe00e6
:102d80008e1f78000005780081067800e2b79f006a
:102d900003047800840578009b0037000d06d100fd
:102da00088e6b9000c06450088e8b9000000450037
:102db000d0b79f00880446000800ea00f0b79f00e3
:102dc000dfb09700008140000b0278008801780096
:102dd0008c0078000a00780045ff070001003700ea
:102de0000d0678008c0f5500090031007fb1970067
:102df000820646008c0078000d0078000b00010070
:102e00000000e000f6ff3200010037008884440033
:102e10005fb09700808f5400030039000c077800e2
:102e200089067800110037008c00780009007800ce
:102e30000b0001000000e000f4ff3200f7ff370054
:102e40000c00be000b0001000000e0000600350091
:102e50001c003a00080178008d0078000900780015
:102e6000d3fe07008884440088864600dfb09700c0
:102e7000818f560013003100f1ff37007fb19700ba
:102e8000820147008c0078000300780083bf9f0018
:102e90000b0001008fb997000000e000080035002a
:102ea0000a003a007fb0970000064600080178004b
:102eb000830078000c007800bdfe07008fb99700f2
:102ec000030778008e0f5500ecff39008a0f57007a
:102ed00014003a00dfb09700818f56002b003200bb
:102ee0008d8f540005003a00080178008c007800ae
:102ef00009007800aefe0700050037008801780061
:102f0000090178008c0078000d00780072fe07003f
:102f10008886460008064600888444000a07780030
:102f2000d2ff37007fb19700020747005fb09700dc
:102f3000808f560010003a0082844400020646004a
:102f40008c0f570006003a000801780089007800cd
:102f50000e00780096fe07000e067800c3ff3700cb
:102f6000880178000c017800890078000e00780054
:102f700059fe0700bdff3700080178008e00780079
:102f80000d0078008afe0700b7ff3700efb097000a
:102f90000100d10001017800c210de0080804000f5
:102fa000e1b79f000a065600110009000886d80004
:102fb0000006780089865600110009008886d8002e
:102fc000800678008d0f560008003e000b02780046
:102fd000880178006fb197008c0078000a007800b3
:102fe00063ff070009057800070037000b0278002f
:102ff000880178006fb197008d0078000900780093
:103000005bff07008c067800efb097000100e0003e
:103010000400320000022000808f56005fff3e0057
:103020001e00370000022000808f56001b00360073
:103030008d04d1008904e9000b0278008801780032
:103040000d017800890078000a007800e1fe070091
:103050000900e000f7ff3a0088e8b9008004450065
:103060008884540008017800890078000a007800fc
:103070004ffe07008d06e9000b02780088017800fa
:103080000d0178008000eb000a007800d1fe0700f7
:10309000e18f5600f2ff3e001f003700e18f56001f
:1030a0001d0036008a047800190037008884440027
:1030b0008a007800090078000b0001000000e000a1
:1030c00004003d0008017800890078000a007800bb
:1030d0000e00370009067800010037000e06780060
:1030e000080756008e007800090078000b000100e8
:1030f0000000e000f9ff3500890f5600040032009f
:1031000008017800890078000c007800f1fe0700c3
:103110008d06e900e5ff3a004f0778004f06be0034
:103120004f05be004f04be00af00b1000000060016
:1031300003027800820178000101780082007800a3
:103140000bff37008001780002003700b15978008a
:103150000201e9000200e000fcff3a000000060066
:1031600000027800808f50000c0031008281400006
:10317000830f500009003100820040000200370038
:10318000c36078000201e9000200e000fcff3a00a1
:1031900000000600315a78000201e9000200e00058
:0831a000fcff3a0000000600ec
:020000040000fa
:1031a8004f4e000045200000534800004f540000d7
:1031b8003a2000000041000056470000203200007d
:1031c8003a2000000041000056470000203400006b
:1031d8003a20000000410000564700002038000057
:1031e8003a2000000041000056470000203100004e
:1031f800363a000020000000415600004720000039
:10320800333200003a200000004100005647000019
:1032180020360000343a0000200000004d4900002c
:103228004e200000323a0000200000004d49000006
:103238004e200000343a0000200000004d490000f4
:103248004e200000383a0000200000004d490000e0
:103258004e200000313600003a200000004d0000ea
:10326800494e000020330000323a000020000000e0
:103278004d4900004e200000363400003a2000007e
:10328800004d000041580000203200003a200000a4
:10329800004d000041580000203400003a20000092
:1032a800004d000041580000203800003a2000007e
:1032b800004d00004158000020310000363a00005f
:1032c800200000004d41000058200000333200006b
:1032d8003a200000004d0000415800002036000050
:1032e800343a0000200000004d4500004449000029
:1032f800414e0000203200003a200000004d00003e
:1033080045440000494100004e200000343a0000c6
:10331800200000004d45000044490000414e0000d7
:10332800203800003a200000004d0000454400000d
:10333800494100004e200000313600003a200000cc
:10334800004d000045440000494100004e200000a7
:10335800333200003a200000004d000045440000d0
:10336800494100004e200000363400003a20000099
:10337800005500004e4b00004e4f0000574e000015
:103388003a20000000000000504f000054200000c8
:10339800766100006c750000653a000020000000ae
:0433a800fa00000027
:020000040000fa
:1033ac00881f780000047800284090000074a0006a
:1033bc002044980018007800c1072000810f5000ad
:1033cc00710032000e003e00e4805000810f50006e
:1033dc001f00320003003e000000e0001a00320023
:1033ec000e01370091072000810f50002f00320092
:1033fc008100e800810f500008013a0048003700b6
:10340c00f1072000810f5000ae00320007003e0093
:10341c008180e900810f5000740032008100e800c7
:10342c00810f5000fd003a008b003700010820008e
:10343c00810f5000be0032008180e800810f5000e7
:10344c00f6003a00db00370080072000000c780003
:10345c00284090000028a3000400320040c0b300b4
:10346c002044980030c0b300f00037006410e20034
:10347c00030032000004a100204498000200370031
:10348c000004a00020449800a84090000040eb00ed
:10349c000108a300e5003a00fb0e0700308388000a
:1034ac000008eb0090072000000c780028409000ea
:1034bc000028a3000400320040c0b3002044980050
:1034cc0030c0b300d900370042002000210020009a
:1034dc0030838000a1040700e24f50000400360046
:1034ec00284090000004a1002044980003003700fd
:1034fc00284090000004a00020449800a8409000b0
:10350c000040eb000108a300c8003a00de0e0700e3
:10351c00308388000008eb00a0072000000c780026
:10352c00284090000028a3000400320040c0b300e3
:10353c002044980030c0b300bc0037008106210045
:10354c0030838000b1040700e24f500004003600c5
:10355c00284090000004a10020449800030037008c
:10356c00284090000004a00020449800a84090003f
:10357c000040eb000108a300ac003a00f107070083
:10358c00c0072000000c7800284090000028a30001
:10359c000400320040c0b3002044980030c0b30097
:1035ac00a2003700418280000128a30003003a00ea
:1035bc000004a10020449800020037000004a00081
:1035cc0020449800284190000040eb000208a30022
:1035dc0096003a000120a0004182880080c321009f
:1035ec000008eb00d0072000000c78002840900069
:1035fc000028a3000400320040c0b300204498000f
:10360c0030c0b3008900370021d0210080c32100d5
:10361c007a0d0700e24f500004003600284090005d
:10362c000004a100204498000300370028409000bb
:10363c000004a00020449800a84090000040eb003b
:10364c000108a30079003a0080c321000008eb00b8
:10365c00e0072000000c7800284090000028a30010
:10366c000400320040c0b3002044980030c0b300c6
:10367c006e003700819c290080c321005f0d07007c
:10368c00e24f500004003600284090000004a100d6
:10369c002044980003003700284090000004a0004c
:1036ac0020449800a84090000040eb000108a300c3
:1036bc005e003a0080c321000008eb00f0072000f8
:1036cc00000c7800284090000028a3000400320071
:1036dc0040c0b3002044980030c0b3005300370002
:1036ec004183800080c321003e100700e24f500050
:1036fc0004003600284090000004a10020449800eb
:10370c0003003700284090000004a00020449800db
:10371c00a84090000040eb000108a30043003a00d1
:10372c0080c321000008eb0000082000000c78008a
:10373c00284090000028a3000400320040c0b300d1
:10374c002044980030c0b3003800370021d021004d
:10375c0080c32100290d0700e24f50000400360001
:10376c00284090000004a10020449800030037007a
:10377c00284090000004a00020449800a84090002d
:10378c000040eb000108a30028003a004850a900b3
:10379c002b1607003004980041049800803e20004e
:1037ac0001002000500498006104980020082000bb
:1037bc00000c7800284090000028a3000400320080
:1037cc0040c0b3002044980030c0b300170037004d
:1037dc0058019000e801900038009000c80090005b
:1037ec00e70e07000000e0000400320028409000c3
:1037fc000004a100204498000300370028409000ea
:10380c000004a00020449800a84090000040eb0069
:10381c000108a3000cff32000400370080c0b30085
:10382c0020449800000ceb0030c0b3004f0478002b
:10383c0000000600881f78000004780028419000e2
:10384c000274a00022449800180078008000eb005d
:10385c00c3062000830f5000e08f58007b033e000e
:10386c00000601006c00370078033700770337003f
:10387c007603370075033700740337007303370082
:10388c007203370071033700700337006f03370082
:10389c006e0337006d0337006c0337006b03370082
:1038ac006a03370069033700680337006703370082
:1038bc006603370065033700640337006303370082
:1038cc006203370061033700600337005f03370082
:1038dc005e0337005d0337005c0337005b03370082
:1038ec005a03370059033700580337005703370082
:1038fc005603370055033700540337005303370082
:10390c005203370051033700500337004f03370081
:10391c004e0337004d0337004c0337004b03370081
:10392c004a03370049033700480337004703370081
:10393c00460337003a003700510037006b00370060
:10394c00850037009f003700b90037003f03370070
:10395c003e0337003d0337003c0337003b03370081
:10396c003a0337003903370038033700d2003700e9
:10397c00ee00370035033700060137001e01370013
:10398c0038013700520137006c0137002f03370024
:10399c002e033700830137002c0337002b0337002d
:1039ac0097013700af013700c9013700e301370039
:1039bc00fd013700170237002403370023033700bb
:1039cc002203370021033700200337001f03370081
:1039dc00330237001d0337001c0337001b0337006d
:1039ec001a033700190337004c023700170337004e
:1039fc001603370060023700780237009202370056
:103a0c00ac023700c6023700e00237000f03370064
:103a1c000e033700fa02370040032000000c780038
:103a2c000228a3000400320040c0b30020449800d8
:103a3c0030c0b30009033700418280000128a30085
:103a4c0003003a000204a10022449800020037004f
:103a5c000204a00022449800284190000040eb0092
:103a6c000208a300fd023a000120a0004182880058
:103a7c0080c321000008eb0050032000000c7800ec
:103a8c00284090000028a3000400320040c0b3007e
:103a9c002044980030c0b300f002370021c7210049
:103aac0080c32100550c0700e24f50000400360083
:103abc00284090000004a100204498000300370027
:103acc00284090000004a00020449800a8409000da
:103adc000040eb000108a300e0023a0080c3210083
:103aec000008eb0060032000000c780028409000d8
:103afc000028a3000400320040c0b300204498000a
:103b0c0030c0b300d502370021d0210080c3210082
:103b1c003a0c0700e24f5000040036002840900099
:103b2c000004a100204498000300370028409000b6
:103b3c000004a00020449800a84090000040eb0036
:103b4c000108a300c5023a0080c321000008eb0065
:103b5c0070032000000c7800284090000028a3007f
:103b6c000400320040c0b3002044980030c0b300c1
:103b7c00ba02370041c9210080c321001f0c070085
:103b8c00e24f500004003600284090000004a100d1
:103b9c002044980003003700284090000004a00047
:103bac0020449800a84090000040eb000108a300be
:103bbc00aa023a0080c321000008eb008003200019
:103bcc00000c7800284090000028a300040032006c
:103bdc0040c0b3002044980030c0b3009f023700af
:103bec0021d0210080c32100040c0700e24f5000bb
:103bfc0004003600284090000004a10020449800e6
:103c0c0003003700284090000004a00020449800d6
:103c1c00a84090000040eb000108a3008f023a007e
:103c2c0080c321000008eb0090032000000c7800fa
:103c3c00284090000028a3000400320040c0b300cc
:103c4c002044980030c0b30084023700f1cd21002d
:103c5c0080c32100e90b0700e24f5000040036003e
:103c6c00284090000004a100204498000300370075
:103c7c00284090000004a00020449800a840900028
:103c8c000040eb000108a30074023a004850a90060
:103c9c00fc0607000000e000770132006430ef0002
:103cac006a30ef00f80c0700308388000008eb0046
:103cbc0020042000000c7800284090000028a3006d
:103ccc000400320040c0b3002044980030c0b30060
:103cdc006202370042002000210020003083800067
:103cec009e020700e24f500004003600284090006e
:103cfc000004a100204498000300370028409000e5
:103d0c000004a00020449800a84090000040eb0064
:103d1c000108a30051023a00db0c07003083880035
:103d2c000008eb0030042000000c780028409000c4
:103d3c000028a3000400320040c0b30020449800c7
:103d4c0030c0b30045023700c1062100308380002b
:103d5c00ae020700e24f50000400360028409000ed
:103d6c000004a10020449800030037002840900074
:103d7c000004a00020449800a84090000040eb00f4
:103d8c000108a30035023a00ee050700500420009c
:103d9c00000c7800284090000028a300040032009a
:103dac0040c0b3002044980030c0b3002b02370051
:103dbc00418280000128a30003003a000004a10006
:103dcc0020449800020037000004a0002044980012
:103ddc00284190000040eb000208a3001f023a00ab
:103dec000120a0004182880080c321000008eb0064
:103dfc0060042000000c7800284090000028a300ec
:103e0c000400320040c0b3002044980030c0b3001e
:103e1c001202370021d0210080c32100770b07004c
:103e2c00e24f500004003600284090000004a1002e
:103e3c002044980003003700284090000004a000a4
:103e4c0020449800a84090000040eb000108a3001b
:103e5c0002023a0080c321000008eb00700420002d
:103e6c00000c7800284090000028a30004003200c9
:103e7c0040c0b3002044980030c0b300f7013700b5
:103e8c00819c290080c321005c0b0700e24f50008d
:103e9c0004003600284090000004a1002044980043
:103eac0003003700284090000004a0002044980034
:103ebc00a84090000040eb000108a300e7013a0085
:103ecc0080c321000008eb0080042000000c780067
:103edc00284090000028a3000400320040c0b3002a
:103eec002044980030c0b300dc01370061838000af
:103efc0080c321003b0e0700e24f50000400360047
:103f0c00284090000004a1002044980003003700d2
:103f1c00284090000004a00020449800a840900085
:103f2c000040eb000108a300cc013a0080c3210043
:103f3c000008eb0090042000000c78002840900052
:103f4c000028a3000400320040c0b30020449800b5
:103f5c0030c0b300c101370021d0210080c3210043
:103f6c00260b0700e24f500004003600284090005a
:103f7c000004a10020449800030037002840900062
:103f8c000004a00020449800a84090000040eb00e2
:103f9c000108a300b1013a004850a900c004200058
:103fac00000c7800284090000028a3000400320088
:103fbc0040c0b3002044980030c0b300a7013700c4
:103fcc00380607000000e000040032002840900092
:103fdc000004a10020449800030037002840900002
:103fec000004a00020449800a84090000040eb0082
:103ffc000108a30099013a00f0042000000c78009d
:10400c00284090000028a3000400320040c0b300f8
:10401c002044980030c0b3009001370041828000ea
:10402c000128a30003003a000004a10020449800da
:10403c00020037000004a0002044980028419000a2
:10404c000040eb000208a30084013a000120a0000c
:10405c004182880080c321000008eb00000520008d
:10406c00000c7800284090000028a30004003200c7
:10407c0040c0b3002044980030c0b3007701370033
:10408c0021c7210080c32100dc0a0700e24f500049
:10409c0004003600284090000004a1002044980041
:1040ac0003003700284090000004a0002044980032
:1040bc00a84090000040eb000108a30067013a0003
:1040cc0080c321000008eb0010052000000c7800d4
:1040dc00284090000028a3000400320040c0b30028
:1040ec002044980030c0b3005c01370021d021007f
:1040fc0080c32100c10a0700e24f500004003600c3
:10410c00284090000004a1002044980003003700d0
:10411c00284090000004a00020449800a840900083
:10412c000040eb000108a3004c013a0080c32100c1
:10413c000008eb0020052000000c780028409000bf
:10414c000028a3000400320040c0b30020449800b3
:10415c0030c0b3004101370041c9210080c32100a8
:10416c00a60a0700e24f50000400360028409000d9
:10417c000004a10020449800030037002840900060
:10418c000004a00020449800a84090000040eb00e0
:10419c000108a30031013a0080c321000008eb00a4
:1041ac0030052000000c7800284090000028a30067
:1041bc000400320040c0b3002044980030c0b3006b
:1041cc002601370021d0210080c321008b0a070073
:1041dc00e24f500004003600284090000004a1007b
:1041ec002044980003003700284090000004a000f1
:1041fc0020449800a84090000040eb000108a30068
:10420c0016013a0080c321000008eb004005200095
:10421c00000c7800284090000028a3000400320015
:10422c0040c0b3002044980030c0b3000b013700ed
:10423c00f1cd210080c32100700a0700e24f50002d
:10424c0004003600284090000004a100204498008f
:10425c0003003700284090000004a0002044980080
:10426c00a84090000040eb000108a300fb003a00be
:10427c004850a900dd003700940507000000e0005d
:10428c001d0032006a10e2001b003a0010002000f2
:10429c002083880050838800b0052000000c780033
:1042ac00284090000028a3000400320040c0b30056
:1042bc002044980030c0b300e80037008b0507009d
:1042cc000000e00004003200284090000004a1002f
:1042dc002044980003003700284090000004a00000
:1042ec0020449800a84090000040eb000108a30077
:1042fc00be003200d9003700740507000000e00052
:10430c00ba0032006a10e200b80032006430ef00ec
:10431c006a30ef0010062000000c78002840900056
:10432c000028a3000400320040c0b30020449800d1
:10433c0030c0b300c90037006c0507000000e00076
:10434c0004003200284090000004a1002044980092
:10435c0003003700284090000004a000204498007f
:10436c00a84090000040eb000108a300bb003a00fd
:10437c0040062000000c7800284090000028a30084
:10438c000400320040c0b3002044980030c0b30099
:10439c00b2003700418280000128a30003003a00dc
:1043ac000004a10020449800020037000004a00083
:1043bc0020449800284190000040eb000208a30024
:1043cc00a6003a000120a0004182880080c3210091
:1043dc000008eb0050062000000c780028409000ec
:1043ec000028a3000400320040c0b3002044980011
:1043fc0030c0b3009900370021c7210080c32100d1
:10440c00fe090700e24f50000400360028409000df
:10441c000004a100204498000300370028409000bd
:10442c000004a00020449800a84090000040eb003d
:10443c000108a30089003a0080c321000008eb00aa
:10444c0060062000000c7800284090000028a30093
:10445c000400320040c0b3002044980030c0b300c8
:10446c007e00370021d0210080c32100e309070022
:10447c00e24f500004003600284090000004a100d8
:10448c002044980003003700284090000004a0004e
:10449c0020449800a84090000040eb000108a300c5
:1044ac006e003a0080c321000008eb00700620006b
:1044bc00000c7800284090000028a3000400320073
:1044cc0040c0b3002044980030c0b30063003700f4
:1044dc0041c9210080c32100c8090700e24f5000e8
:1044ec0004003600284090000004a10020449800ed
:1044fc0003003700284090000004a00020449800de
:10450c00a84090000040eb000108a30053003a00c3
:10451c0080c321000008eb0080062000000c78000e
:10452c00284090000028a3000400320040c0b300d3
:10453c002044980030c0b3004800370021d021003f
:10454c0080c32100ad090700e24f50000400360083
:10455c00284090000004a10020449800030037007c
:10456c00284090000004a00020449800a84090002f
:10457c000040eb000108a30038003a0080c3210082
:10458c000008eb0090062000000c780028409000fa
:10459c000028a3000400320040c0b300204498005f
:1045ac0030c0b3002d003700f1cd210080c32100b5
:1045bc0092090700e24f500004003600284090009a
:1045cc000004a1002044980003003700284090000c
:1045dc000004a00020449800a84090000040eb008c
:1045ec000108a3001d003a004850a9002840900083
:1045fc000074a10020449800c0062000000c780034
:10460c00284090000028a3000400320040c0b300f2
:10461c002044980030c0b300100037000004e000c4
:10462c0003003d000004a100204498000200370064
:10463c000004a00020449800a84090000040eb002b
:10464c000108a30092fd32000400370080c0b300c3
:10465c0020449800000ceb0030c0b3004f047800ed
:10466c0000000600e805070000c22100d40907007d
:10467c00609d2100d2090700a00f2000270507002c
:10468c000000060010007800110050000000060029
:10469c000002780021e3a90021a3a9002183a8002e
:1046ac002143a800f2cf2f00003220001008610037
:1046bc002063a9002043a9002003a900000e2000bc
:1046cc002023b700f3ff21001019800080816100c6
:1046dc0003d0a00013198800233220009309610035
:1046ec0032f82f0020322000100861002223a9008c
:1046fc002203a90025e3a80000f021002423b70021
:10470c003303a90028e3a9007f00620002fe2f00fa
:10471c0043198000030161000201700042198800f6
:10472c0001417800e00621000248780021e3a8004e
:10473c000000060000198000610060000000a2006b
:10474c00000006002023a8000000060000188000ce
:10475c000000060021e3a90000000600881f780075
:10476c000004780081017800284090000074a000bb
:10477c0020449800180278000400e0000400320085
:10478c0061092000810f52001a003a000200370024
:10479c0061092000010c78000028a30004003200fd
:1047ac0040c0b3002044980030c0b300150037005f
:1047bc00418280000168a30003003a000004a100bc
:1047cc0020449800020037000004a0002044980008
:1047dc00284290000040eb000408a30009003a00b6
:1047ec000160a000418288008200780003007800fc
:1047fc00a7ff070080c0b30020449800000ceb001a
:10480c0030c0b3004f04780000000600889fbe0043
:10481c000004be00284090000074a00020449800c2
:10482c00180078000000e00004003200a10a20000b
:10483c00810f50001b003a0003003700c1ff070036
:10484c00a00a2000000c7800284090000028a3004b
:10485c000400320040c0b3002044980030c0b300c4
:10486c0014003700b3ff07000000e00004003a001a
:10487c00284090000004a100204498000300370059
:10488c00284090000004a00020449800a84090000c
:10489c000040eb000108a30006003a00abff070044
:1048ac00800c780080c0b30020449800000ceb0012
:1048bc0030c0b3004f04be0000000600889fbe004d
:1048cc00800478000184fb00833422002200200045
:1048dc00880078000900780012fa07000804d1005b
:1048ec000800e90000004000008044000804440077
:1048fc008884440010007800190040000000d100aa
:10490c004f04be00000006008001eb000104e00033
:10491c000c003200000178000280e8008140e900c0
:10492c008180fb008180400001004000b2007800d3
:10493c00818f51000100310081017800800f5100fe
:10494c00faff3a000300780000000600889fbe00c2
:10495c008a9fbe000004780001057800820478006c
:10496c00284090000074a0002044980018007800a3
:10497c0001112000810f50008100320009003e001f
:10498c00f0805000810f500028003200e880400079
:10499c00810f50004f0032000000e0001000320088
:1049ac00e102370001122000810f5000ca003200d2
:1049bc0004003e00e8805000810f5000da023a00fb
:1049cc009a00370081122000810f5000ed00320058
:1049dc00ee804000810f5000d3023a0013013700e3
:1049ec007470ef007030ef007230ef0000cfb30046
:1049fc0080c1610083407800600721000148780085
:104a0c00e206210012417800530721008249780008
:104a1c006f806400e10f500028003a00230037003b
:104a2c0048ff070000102000000c78002840900080
:104a3c000028a3000400320040c0b30020449800ba
:104a4c0030c0b300bc0237003aff07000000e000a2
:104a5c0004003a00284090000004a1002044980073
:104a6c0003003700284090000004a0002044980068
:104a7c00a84090000040eb000108a300ae023a00f1
:104a8c004b0721009b45780030ff07008b80fb0013
:104a9c008180400062d021008100410080087800b4
:104aac008b45e8000b40780074f0b70074d0bf0061
:104abc00e14f5000d6003e00d9ff3700e20f500006
:104acc0029003a00240037001eff07008010200048
:104adc00000c7800284090000028a300040032004d
:104aec0040c0b3002044980030c0b300920237009d
:104afc0010ff07000000e00004003a00284090007e
:104b0c000004a100204498000300370028409000c6
:104b1c000004a00020449800a84090000040eb0046
:104b2c000108a30084023a004b0721009b45780042
:104b3c0006ff07008b80fb008180400062d02100c3
:104b4c0081004100800878008b45e8000b4178001b
:104b5c00410721008248780074d0bf00e34f500019
:104b6c00ab003e00d8ff3700e30f500029003a009d
:104b7c0024003700f3fe070000112000000c780021
:104b8c00284090000028a3000400320040c0b3006d
:104b9c002044980030c0b30067023700e5fe0700e0
:104bac000000e00004003a00284090000004a1003e
:104bbc002044980003003700284090000004a00017
:104bcc0020449800a84090000040eb000108a3008e
:104bdc0059023a004b0721009b457800dbfe070089
:104bec008b80fb008180400062d02100810041005d
:104bfc00800878008b45e8000b42780043072100c1
:104c0c008449780074d0bf00e74f500080003e000c
:104c1c00d8ff3700e40f500029003a002400370079
:104c2c00c8fe070080112000000c7800284090007e
:104c3c000028a3000400320040c0b30020449800b8
:104c4c0030c0b3003c023700bafe07000000e000a1
:104c5c0004003a00284090000004a1002044980071
:104c6c0003003700284090000004a0002044980066
:104c7c00a84090000040eb000108a3002e023a006f
:104c8c004b0721009b457800b0fe07008b80fb0092
:104c9c008180400062d021008100410080087800b2
:104cac008b45e8008b4078004007210001487800d4
:104cbc0074d0bf00ef4f500055003e00d8ff3700b6
:104ccc00e50f500029003a00240037009dfe070034
:104cdc0000122000000c7800284090000028a3004f
:104cec000400320040c0b3002044980030c0b30030
:104cfc00110237008ffe07000000e00004003a00ac
:104d0c00284090000004a1002044980003003700c4
:104d1c00284090000004a00020449800a840900077
:104d2c000040eb000108a30003023a004b072100ee
:104d3c009b45780085fe07008b80fb00818040003e
:104d4c0062d0210081004100800878008b45e8008a
:104d5c008b417800420721000349780074d0bf00d2
:104d6c00ff4f50002a003e00d8ff3700e60f5000de
:104d7c0027003a002300370072fe07008012200043
:104d8c00000c7800284090000028a300040032009a
:104d9c0040c0b3002044980030c0b300e601370097
:104dac0064fe07000000e00004003a002840900078
:104dbc000004a10020449800030037002840900014
:104dcc000004a00020449800a84090000040eb0094
:104ddc000108a300d8013a004b0721009b4578003d
:104dec005afe07008b80fb008180400062d02100be
:104dfc0081004100800878008b45e8000b4078006a
:104e0c0074f0b700f0c3b3007450e300daff36005f
:104e1c00000deb007470ef000900e0001b003a007d
:104e2c0048fe070060132000000c7800284090001a
:104e3c000028a3000400320040c0b30020449800b6
:104e4c0030c0b300bc0137003afe07000000e000a0
:104e5c0004003a00284090000004a100204498006f
:104e6c0003003700284090000004a0002044980064
:104e7c00a84090000040eb000108a300ae013a00ee
:104e8c0032fe0700000d780069013700e18f5400f5
:104e9c0011003a00808380009183800032e880000a
:104eac0000004100e080480042e880000000410022
:104ebc00e080480024c0b3004307210084497800f7
:104ecc008100d1000080d30080838800918388000a
:104edc00000d780056013700e28f540019003a009b
:104eec00808380009183800032e8800000004100c4
:104efc00e080480042e8800000004100e08048006b
:104f0c0052e8800000004100e080480062e8800028
:104f1c0000004100e080480044c0b300430721007a
:104f2c00844978004e09dd004200de00000071006b
:104f3c00c208de008083880091838800000d780011
:104f4c003b013700e38f540013003a00828380004a
:104f5c009383800040d0210070024000d000780084
:104f6c0002814000e0814900840f5000fbff3a00b1
:104f7c0080c0b30074f0b7004d1add004311de00a1
:104f8c0002017200c319de008283880093838800bb
:104f9c00020d780026013700e48f540014003a000b
:104fac00828380009383800040d021000402200083
:104fbc0000024200d000780002814000e0814900ec
:104fcc00840f5000fbff3a0000c1b30074f0b7002f
:104fdc004c18dd004411de0002017000c419de0023
:104fec008283880093838800020d780010013700bb
:104ffc00e58f540014003a00828380009383800074
:10500c0040d021000404200000024200d0007800af
:10501c0002814000e0814900840f5000fbff3a0000
:10502c0000c2b30074f0b700cb18dd004511de00f0
:10503c0002817000c519de0082838800938388008a
:10504c00020d7800fa003700e68f540014003a0085
:10505c00828380009383800040d0210004082000cc
:10506c0000024200d000780002814000e08149003b
:10507c00840f5000fbff3a0000c4b30074f0b7007b
:10508c004a1add004611de0002017200c619de006c
:10509c008283880093838800020d7800e400370037
:1050ac0010022000808f540013003a00008deb009a
:1050bc0041072100914078000040eb0062d02100b4
:1050cc0001003700804078000080fb0000004000a9
:1050dc0000004100100078009a0f500001003100d0
:1050ec00000d78000140e800e14f5000f5ff36005c
:1050fc0074f0b700ce00370020022000808f5400df
:10510c0013003a00008deb0041072100914078001c
:10511c000040eb0062d02100010037008040780095
:10512c000080fb00000040000000410010007800ef
:10513c009a0f500001003100000d78000140e8008a
:10514c00e34f5000f5ff360074f0b700b80037009d
:10515c0030022000808f540013003a00008deb00c9
:10516c0041072100914078000040eb0062d0210003
:10517c0001003700804078000080fb0000004000f8
:10518c0000004100100078009a0f5000010031001f
:10519c00000d78000140e800e74f5000f5ff3600a5
:1051ac0074f0b700a200370040022000808f54003a
:1051bc0013003a00008deb0041072100914078006c
:1051cc000040eb0062d021000100370080407800e5
:1051dc000080fb000000400000004100100078003f
:1051ec009a0f500001003100000d78000140e800da
:1051fc00ef4f5000f5ff360074f0b7008c0037000d
:10520c0050022000808f540013003a00008deb00f8
:10521c0041072100914078000040eb0062d0210052
:10522c0001003700804078000080fb000000400047
:10523c0000004100100078009a0f5000010031006e
:10524c00000d78000140e800ff4f5000f5ff3600dc
:10525c0074f0b7007600370060022000808f540095
:10526c0014003a00008deb004107210091407800ba
:10527c000040eb0063d02100f2c3b3000100370003
:10528c00804078000080fb0000004000008041005e
:10529c00100078009a0f500001003100000d7800ca
:1052ac000140e800824f5000f5ff360074f0b70063
:1052bc005f00370010042000808f540005003a0076
:1052cc0021c0b30060d021008ffd0700000d7800d5
:1052dc005700370020042000808f540005003a004e
:1052ec0041c0b30060d0210087fd0700000d78009d
:1052fc004f00370030042000808f540005003a0026
:10530c0081c0b30060d021007ffd0700000d780044
:10531c004700370040042000808f540005003a00fd
:10532c0001c1b30060d0210077fd0700000d7800ab
:10533c003f00370050042000808f540005003a00d5
:10534c0001c2b30060d021006ffd0700000d780092
:10535c003700370060042000808f540005003a00ad
:10536c0001c4b30060d0210067fd0700000d780078
:10537c002f00370010082000808f540005003a00e1
:10538c0021c0b30060d021004cfd0700000d780057
:10539c002700370020082000808f540005003a00b9
:1053ac0041c0b30060d0210044fd0700000d78001f
:1053bc001f00370030082000808f540005003a0091
:1053cc0081c0b30060d021003cfd0700000d7800c7
:1053dc001700370040082000808f540005003a0069
:1053ec0001c1b30060d0210034fd0700000d78002e
:1053fc000f00370050082000808f540005003a0041
:10540c0001c2b30060d021002cfd0700000d780014
:10541c000700370060082000808f540004003a0019
:10542c0001c4b30060d0210024fd0700000d7800fa
:10543c0076d0bf0032003b005207210012417800a9
:10544c0000712200010020000204e0002100320063
:10545c000080220001002000e14f51001d003200ad
:10546c0000e2240001002000e24f5100190032003c
:10547c000000250001002000e34f51001500320010
:10548c000053270001002000e44f510011003200ae
:10549c00800e280001002000e54f51000d00320065
:1054ac0000c4290001002000e64f51000900320021
:1054bc0000002a0001002000e74f510005003200d7
:1054cc006000b800e84f510002003a0000352c0093
:1054dc00010020001a0178008001eb00828ab900db
:1054ec000200b800810042004409dd004c00de00df
:1054fc0000007100cc08de00000d78000a003700b7
:10550c000068a300080032009a00780040062000d2
:10551c000008b800c409dd004c00de0000807100fa
:10552c00cc08de00000d780080c0b3002044980049
:10553c00000ceb0030c0b3004f05be004f04be00a2
:10554c000000060083fc070048d0a90000000600fc
:10555c00a0728000700060000000e9004f00de00c7
:10556c004400dd00a17280000140a10081007000a8
:10557c00a17288000000060000002400140eb60082
:10558c000000e9004f00de004e00dd00a17080003d
:10559c0001e0a10081007000a170880000000600ed
:1055ac00a07080000080ea004f00de004f00dd009c
:1055bc00f1ff2700a27080008280600081007000e3
:1055cc00a17088000000060040ec88000000060076
:1055dc0060ec88000000060080ec880000000600eb
:1055ec0090ec800000000600a0ec8000000006009b
:1055fc00b0ec80000000060070ed88000000060092
:10560c0070ed80000000060080ed880000000600b0
:10561c0080ed800000000600f0ec80000000060029
:10562c00f0ec88000000060000ed80000000060091
:10563c0000ed880000000600889fbe008a9fbe0017
:10564c00b40c07000000a20000f0a7000000ea0064
:10565c000000e9004f00de00f1ff0700aa0c070074
:10566c000000a20000f0a7000000ea000000e90022
:10567c004f00de00eeff07004010e2005200320047
:10568c00e5ff07000000e00027003a00e6ff0700f6
:10569c000000e00054003200108280002182800063
:1056ac00e00f5000e08f580004003a00640e070031
:1056bc00108288002182880019003700600e0700d4
:1056cc000004be001a8280002b8280000a05500064
:1056dc008b855800803e2000800f5500e08f5d00c8
:1056ec000300360018828800298288000c003700dd
:1056fc00c3ff0700c4ff0700c1ff07000000e8005c
:10570c00bdff07000a01be00803e20000100200002
:10571c005ef4070070818800188288002982880056
:10572c004030ef003a003700bfff07000000e000f8
:10573c002b003a001082800021828000e00f500084
:10574c00e08f580004003a003d0e070010828800dc
:10575c00218288001a003700390e07000004be00b1
:10576c001a8280002b8280000a0550008b8558001d
:10577c00823e2000820f5500e08f5d000300360052
:10578c0010828800218288000d0037009cff0700e2
:10579c009dff07009aff07000000e90096ff070035
:1057ac000a01be00803e20000100200037f40700f3
:1057bc000000ea0070818800188288002982880025
:1057cc004030ef001200370093ff07000000e000ac
:1057dc000500320094ff07000000e00002003200d8
:1057ec001000200000828800150e07001282800035
:1057fc00238280000200500083805800723e2000fb
:10580c00820f5000e08f5800010036002e30ef0060
:10581c004f05be004f04be000000060070818000e2
:10582c000000060030ec880000000600c0ec880088
:10583c000000060090ec88000000060050ec880088
:10584c0000000600d0ec880000000600a0ec8800e8
:10585c000000060070ec880000000600e0ec8800f8
:10586c0000000600b0ec880000000600c0ec8000d0
:10587c0000000600d0ec800000000600e0ec800088
:10588c000000060060d82100100078000000a20083
:10589c0000f0a7000000ea000000e9004f00de0065
:1058ac000000060030ec800000f0a7000000ea00c9
:1058bc000000e9004f00de000000060081d8210046
:1058cc00110078008008eb0000000600a0d8210031
:1058dc00100078000000a20000f0a7000000ea0011
:1058ec000000e9004f00de000000060050ec8000d4
:1058fc0000f0a7000000ea000000e9004f00de0005
:10590c0000000600c1d82100110078008008eb00cf
:10591c0000000600e0d82100100078000000a20072
:10592c0000f0a7000000ea000000e9004f00de00d4
:10593c000000060070ec800000f0a7000000ea00f8
:10594c000000e9004f00de000000060001d9210034
:10595c00110078008008eb000000060020da21001e
:10596c00100078000000a20000f0a7000000ea0080
:10597c000000e9004f00de000000060010ed800082
:10598c0000f0a7000000ea000000e9004f00de0074
:10599c000000060020ed80000000060000017800e9
:1059ac0022ed88000200e00007003a00e0aa220085
:1059bc00ef060700e14f40000800320031d0bf0075
:1059cc00da06070005003700548ea8008001eb00b2
:1059dc00e0aa2200a806070031f0b700000006007c
:1059ec0020da21001000a2000000eb00ebff070002
:1059fc000000060020da21000008eb000000eb009c
:105a0c00e6ff0700000006001000200010ed8800e3
:105a1c000000eb00e1ff07000000060060da210047
:105a2c00100078000000a20000f0a7000000ea00bf
:105a3c000000e9004f00de000000060030ed8000a1
:105a4c0000f0a7000000ea000000e9004f00de00b3
:105a5c000000060040ed8000000006000001780008
:105a6c0042ed88000200e00007003a0020ac220062
:105a7c00bf060700e14f40000800320032d0bf00e3
:105a8c00aa0607000500370015cea8008001eb0020
:105a9c0020ac22007806070032f0b70000000600a8
:105aac0060da21001000a2000000eb00ebff070001
:105abc000000060060da21000008eb000000eb009b
:105acc00e6ff0700000006001000200030ed880003
:105adc000000eb00e1ff070000000600a0da210047
:105aec00100078000000a20000f0a7000000ea00ff
:105afc000000e9004f00de000000060050ed8000c1
:105b0c0000f0a7000000ea000000e9004f00de00f2
:105b1c000000060060ed8000000006000001780027
:105b2c0062ed88000200e00007003a0060ad220040
:105b3c008f060700e14f40000800320033d0bf0051
:105b4c007a0607000500370015eea9008001eb006e
:105b5c0060ad22004806070033f0b70000000600d5
:105b6c00a0da21001000a2000000eb00ebff070000
:105b7c0000000600a0da21000008eb000000eb009a
:105b8c00e6ff0700000006001000200050ed880022
:105b9c000000eb00e1ff0700000006009aff070081
:105bac000000060093ff070000000600c6ff070078
:105bbc0000000600bfff070000000600f2ff070010
:105bcc0000000600ebff07000000060070ed8000ef
:105bdc000000060011ff070000f0a7000000ea001b
:105bec000000ea004f00de0000000600889fbe00a7
:105bfc000aff0700000478000800e0000f003d00d9
:105c0c00f4ff0700800078000000eb000100e000ca
:105c1c00170032000804ea00cfc4de0092ed8000c9
:105c2c008001eb0010002000820f5400838f5c0079
:105c3c000f0035000000eb000d003700e5ff0700fa
:105c4c00800078000000eb000100e000080032004a
:105c5c00cfc4de0092ed80008001eb00100020002c
:105c6c00820f5400838f5c00010035000000eb00b4
:105c7c004f04be0000000600889fbe00e7fe070030
:105c8c00000478000800e00014003d00d1ff07007c
:105c9c008000eb000000e0000e0032000804ea0077
:105cac00cfc4de0092ed80008001eb00820f540027
:105cbc00838f5c0007003500a2ed80008001eb00b3
:105ccc0011002000820f5400838f5c00010034000f
:105cdc008000eb000100780012003700bdff0700c8
:105cec008000eb000000e0000d003200cfc4de00ad
:105cfc0092ed80008001eb00820f5400838f5c00da
:105d0c0007003500a2ed80008001eb00110020009f
:105d1c00820f5400838f5c00010034008000eb0084
:105d2c00010078004f04be0000000600889fbe00f2
:105d3c00bafe0700000478000800e0000f003d00e8
:105d4c00a4ff0700800078000000eb000100e000d9
:105d5c00170032000804ea00cfc4de00a2ed800078
:105d6c008001eb0010002000820f5400838f5c0038
:105d7c000f003c000000eb000d00370095ff070002
:105d8c00800078000000eb000100e0000800320009
:105d9c00cfc4de00a2ed80008001eb0010002000db
:105dac00820f5400838f5c0001003c000000eb006c
:105dbc004f04be000000060098fe0700800078002b
:105dcc00100020000100e00001003c000000eb008e
:105ddc000000060091fe07004f00de0000000600e8
:105dec00708180000000060090ed8000000006002d
:105dfc0090ed880000000600a0ed80000000060079
:105e0c00a0ed880000000600508ea900568ea90057
:105e1c005a8ea9005c8ea9001fcea90011cea90034
:105e2c001bcea9001dcea9001feea90011eea900e2
:105e3c001beea9001deea900890a07007f0a0700c6
:105e4c00750a07008e0a0700960a07000000eb008f
:105e5c00e9fd07000000eb00ebfd07000000eb0084
:105e6c0072fe07000000eb0076fe07000000eb005e
:105e7c007afe0700dffe07000eff07003dff07005c
:105e8c00a70a070000f0a7000000ea000000e900e4
:105e9c004f00de0063fe0700a40a070000f0a70015
:105eac000000ea000000e9004f00de0063fe07007e
:105ebc00a10a070000f0a7000000ea000000e900ba
:105ecc004f00de0063fe07000000eb00befd070084
:105edc000000eb00befd07000000eb00befd07005c
:105eec00007d200053fe0700007d200057fe0700b8
:105efc00007d20005bfe070020002000bcff070097
:105f0c0080002000beff07003200200003002000ac
:105f1c0020b222005805070060022300a8030700e6
:105f2c0000000600889fbe008a9fbe008c1f780070
:105f3c000005be0002067800410c07000004be00fc
:105f4c000c000100000178000a0454008b845c00f2
:105f5c008001eb0010002000820f5400838f5c0046
:105f6c0001003e000000eb004f0678004f05be001c
:105f7c004f04be0000000600889fbe008a9fbe0032
:105f8c000004be000205be00040178001900be002a
:105f9c00e4ff0700e10f54000c003200050039004b
:105fac00e20f540010003200e30f54001f003a00bf
:105fbc00160037000a00e0001d003200200c07001c
:105fcc00808cbe0018002000190037000a00e00089
:105fdc0017003a00280020000000e00014003200f6
:105fec000004eb00120037000a00e0001000320041
:105ffc00380020000000e0000d003200100c0700fb
:10600c00808cbe0018002000090037000a00e00058
:10601c0007003a000004eb000000e00004003a0026
:10602c00100020000b000100010037000004eb0001
:10603c00080078004f05be004f04be0000000600ab
:10604c00889fbe008a9fbe008c1f780000047800d9
:10605c00284090000074a00020449800180078009c
:10606c000000e00004003200b1292000810f500034
:10607c0078003a005d003700290a070000f0a700fd
:10608c000000ea000000e9004f00de00e5fd07001b
:10609c00260a070000f0a7000000ea000000e90053
:1060ac004f00de00e5fd0700230a070000f0a70003
:1060bc000000ea000000e9004f00de00e5fd0700eb
:1060cc00eafd070080047800eafd0700000578006f
:1060dc00eafd070080057800eafd070064af2200a6
:1060ec00a3ae220000017800c10321000900780052
:1060fc00a1ff070000067800f4fd0700a4af220002
:10610c00e3ae220000017800810321000a00780030
:10611c0099ff070080047800fefd0700e4af220021
:10612c0023af220000017800410321000b0078000e
:10613c0091ff0700000578000c007800bbfd0700fc
:10614c0009007800bffd07000a007800c3fd0700b6
:10615c00e0aa220006050700e14f400006003a00c5
:10616c00fefd07000000e00002003200548ea80083
:10617c0001003700548ea90020ac2200fc0407005b
:10618c00e14f400006003a0024fe07000000e0004a
:10619c000200320015cea8000100370015cea90070
:1061ac0060ad2200f2040700e14f400006003a0007
:1061bc004afe07000000e0000200320015eea900c4
:1061cc000100370015eea8009d0b07003004980065
:1061dc0041049800a0002000010020005004980009
:1061ec0061049800b0292000000c78002840900031
:1061fc000028a3000400320040c0b30020449800e3
:10620c0030c0b3001700370058019000e80190002f
:10621c0038009000c8009000590407000000e0000e
:10622c0004003200284090000004a1002044980093
:10623c0003003700284090000004a0002044980080
:10624c00a84090000040eb000108a3008aff320038
:10625c000400370080c0b30020449800000ceb0011
:10626c0030c0b3004f0678004f05be004f04be008f
:10627c00000006000000210081bb2100010878000d
:10628c008000eb001100980021009800020420000f
:10629c00320098008000210083bf210003087800a1
:1062ac001100980021009800320098005b0a07004a
:1062bc00000006000080fb004400de00e94f5000a7
:1062cc00020036007043b000010037000043b000fc
:1062dc00000006006f406000e94f500002003600dd
:1062ec007043b000010037000043b000000006000e
:1062fc00881f780000047800284090000074a000eb
:10630c0020449800180178000200e00004003200dc
:10631c0031052000810f510027003a000c00370096
:10632c0081417800b202210003497800118080007d
:10633c008100e8006181880002042000828f5000f7
:10634c0001003a002c30ef0031052000010c7800e0
:10635c000028a3000400320040c0b3002044980081
:10636c0030c0b300180037006181800022808000ab
:10637c00810f5100030032000004a100204498005a
:10638c00020037000004a00020449800284190002f
:10639c000040eb000208a3000b003a0000002100b3
:1063ac0010814000b302210093417800034978002a
:1063bc0011009800c909070080c0b3002044980060
:1063cc00000ceb0030c0b3004f0478000000060056
:1063dc00889fbe000004780081447800284090001b
:1063ec000074a00020449800180078000000e00021
:1063fc0004003200a1062000810f50003f003a003b
:10640c001900370001c3b300c0c621000148780051
:10641c0081c7b3000000e80001487800094078000b
:10642c00a4ff0700e1c621008048780009407800ed
:10643c00a8ff0700f1c62100804878000100e800a1
:10644c000048eb002a70ef000210ec00408188003d
:10645c0001042000810f500001003a002830ef00a9
:10646c00a0062000000c7800284090000028a30013
:10647c000400320040c0b3002044980030c0b30088
:10648c00220037004181800022808000810f510062
:10649c00030032000004a1002044980002003700e1
:1064ac000004a00020449800284190000040eb001c
:1064bc000208a30015003a00000021009081400062
:1064cc00a2022100124178000282fb00c5c6210005
:1064dc0004824200944978000241e80002427800ac
:1064ec00a302210084497800110098007b09070061
:1064fc002ad0bf00e34f5000d3ff360080c0b3005a
:10650c0020449800000ceb0030c0b3004f04be00d8
:10651c0000000600881f7800000478008142780093
:10652c00284090000074a0002044980018007800c7
:10653c000000e0000400320041082000810f5000f0
:10654c0063003a003d0037002670ef0030c6b30000
:10655c0080cf5200090036000580fb004206200067
:10656c00110009000280d80073c6210002c3b300d9
:10657c008249400010c0b30026f0b700e9cf5200aa
:10658c001300360066022100164378000681fb00da
:10659c0074c62100020242008581fb0042062000e5
:1065ac00110009008281d800810178008381fb00f1
:1065bc00a2002000110009008281d800000178009f
:1065cc0003c3b300034a41000640e80026f0b700bd
:1065dc0062022100124178000282fb0076c6210083
:1065ec00040243008580fb00a30020001100090079
:1065fc008380d80003c3b30003ca40008240e80084
:10660c0064022100014a78008180fb0001004300f4
:10661c000048eb002770ef002a0037000210ec0056
:10662c002081880001042000810f500001003a00f5
:10663c002430ef0040082000000c78002840900027
:10664c000028a3000400320040c0b300204498008e
:10665c0030c0b300220037002181800022808000ee
:10666c00810f5100030032000004a1002044980067
:10667c00020037000004a00020449800284190003c
:10668c000040eb000208a30015003a0000002100b6
:10669c009081400072022100124178000282fb00be
:1066ac0075c6210004824200944978000241e8003a
:1066bc00024278007302210084497800110098008e
:1066cc000609070027d0bf002650e300d3ff3e0089
:1066dc0080c0b30020449800000ceb0030c0b30025
:1066ec004f04780000000600889fbe008a9fbe0001
:1066fc008c1f7800000678000204be002c4090002d
:10670c000074a000204698001c0078000000e000f7
:10671c0004003200410a2000810f50005f003a0053
:10672c003900370001c3b300c0c52100014878000f
:10673c0081c7b3000000e80001487800481dde0066
:10674c000b0020000a407800dafe0700e1c52100aa
:10675c00804878000a407800defe0700f1c5210071
:10676c0080487800404dde000b0020000a40780085
:10677c00d0fe070001c62100804878000a4078004e
:10678c00d4fe070011c6210080487800c84dde00f9
:10679c004848dd004845de000a0570000a407800d4
:1067ac00c4fe070021c62100804878000a4078000a
:1067bc00c8fe070031c621008048780008407800e8
:1067cc00bcfe070041c621008048780008407800d4
:1067dc00c0fe070051c62100804878000100e80087
:1067ec000048eb002270ef000210ec0000818800e2
:1067fc0001042000810f500001003a002030ef000e
:10680c00400a2000000e78002c4090000028a300c5
:10681c000400320040c0b3002046980030c0b300e2
:10682c00220037000181800022808000810f5100fe
:10683c00030032000004a10020469800020037003b
:10684c000004a000204698002c4190000040eb0072
:10685c000208a30015003a000000210090814000be
:10686c0022022100124178000282fb00c5c52100e2
:10687c0004824200944978000241e8000242780008
:10688c002302210084497800110098009308070026
:10689c0022d0bf00e94f5000d3ff360080c0b300b8
:1068ac0020469800000eeb0030c0b3004f06780075
:1068bc004f05be004f04be0000000600881f780084
:1068cc0000047800284090000074a0002044980038
:1068dc00180078000000e00004003200910b20004a
:1068ec00810f500033003a000e00370082417800cf
:1068fc00c001210003487800d18088001d70ef0092
:10690c002a0037000210ec00f080880001042000ff
:10691c00810f500001003a001e30ef00900b200058
:10692c00000c7800284090000028a30004003200de
:10693c0040c0b3002044980030c0b30021003700a1
:10694c00f180800024808000810f5200030032000f
:10695c000004a10020449800020037000004a000ad
:10696c0020449800284190000040eb000208a3004e
:10697c0014003a000200210012824000d3012100d1
:10698c00934178000380fb001a10b400104a780081
:10699c008341e80003427800d001210004487800cc
:1069ac00110198004d0807001c70ed001c50e2000e
:1069bc00d4ff3a0080c0b30020449800000ceb00d8
:1069cc0030c0b3004f04780000000600a0419000d6
:1069dc000374a00023409800900178000300e000ad
:1069ec0004003200d40c2000848f510034003a0093
:1069fc00070037005301210082497800b1808800dc
:106a0c001870ef002a003700d30c20000308780020
:106a1c00a04190000328a3000400320041c0b30041
:106a2c002140980033c0b3002900370084002100b6
:106a3c009402900024029000848f520003003200d4
:106a4c000304a10023409800020037000304a000b7
:106a5c0023409800204290008041eb000408a300e2
:106a6c001b003a000c30ec00030420006580800011
:106a7c00838f520001003a000c30ef00830121009b
:106a8c009341780084002100940278002402900045
:106a9c00848242000382fb0004824000154a780085
:106aac008341e8008342780084012100054a780084
:106abc00830121009341780082cf5100d2ff39002d
:106acc0081c0b300214098000008eb0033c0b30034
:106adc000340780000000600204190000274a000e2
:106aec0022409800100178000200e00004003200ff
:106afc00e30d2000830f51003a003a0003003700e9
:106b0c001470ef00e20d2000020878002041900084
:106b1c000228a3000400320041c0b30021409800b9
:106b2c0032c0b30033003700830021001302900001
:106b3c00a3019000830f5200030032000204a10055
:106b4c0022409800020037000204a0002240980066
:106b5c00a04190000041eb000308a30025003a007f
:106b6c000c30ec000204200063808000828f510006
:106b7c0001003a000c30ef004301210093417800f2
:106b8c0082002100120278002201900002014200d2
:106b9c00124178000382fb0004824000024a780014
:106bac00ea4f51000a003200ed4f5100080032004c
:106bbc000204e000060032008341e8004401210099
:106bcc00034a7800e2c3b30082cf5100cdff3600f8
:106bdc0042012100124178000281fb0082804000ba
:106bec008048eb0081c0b300214098000008eb0006
:106bfc0032c0b3000240780000000600881f780005
:106c0c0000047800284090000074a00020449800f4
:106c1c00180078000000e00004003200210f200072
:106c2c00810f500029003a000a003700818088004b
:106c3c00230037000210ec00908088000104200033
:106c4c00810f500001003a001230ef00200f20009d
:106c5c00000c7800284090000028a30004003200ab
:106c6c0040c0b3002044980030c0b3001b00370074
:106c7c009180800022808000810f5100030032003f
:106c8c000004a10020449800020037000004a0007a
:106c9c0020449800284190000040eb000208a3001b
:106cac000e003a000200210092814000808080009a
:106cbc00b049780080808800110198008707070090
:106ccc00808080001004e000daff3a0080c0b3003e
:106cdc0020449800000ceb0030c0b3004f04780047
:106cec0000000600804178000210ec000104200036
:106cfc00810f500001003a000000eb000410e3008b
:106d0c00feff320001002100110140000349780010
:106d1c00900098007107070000000600889fbe00d5
:106d2c008a1f7800904078000104e00011003200c6
:106d3c0000047800090420000005eb000210ec00b0
:106d4c00890f500001003a000a0078000410e3009b
:106d5c00feff3200020021009201400081497800c0
:106d6c00100198005d070700d84078000104e0008e
:106d7c00f2ff3a004f0578004f04be0000000600f9
:106d8c00800021009000900020009000808f500027
:106d9c00fbff32000c30ec00000420000c10e30070
:106dac0001003a000c30ef008000210090007800c8
:106dbc002000900000804000104078000000060089
:106dcc0080007800a3042100934178000000eb00c0
:106ddc00efcf510058003e0065c28000818f5200f9
:106dec0014003200e48521000043eb0006407800db
:106dfc000641780017c0b3000400370094027800f5
:106e0c0072024200818f52000c0032000604e00036
:106e1c0004003a000500e00002003a00024078004d
:106e2c00074378000241e800f04f5100f3ff3a00ad
:106e3c00420037000040eb00004178008280fb00ec
:106e4c0084842100f20bb900860342008002eb001f
:106e5c00850b78008483e80086834300854b78009b
:106e6c0006034200060b90001603780025039800d9
:106e7c008382fb008696210085024300824a7800bb
:106e8c008341e80083427800a20421000549780080
:106e9c000080fb00f201b900020242007401900074
:106eac000200e00007003a00628280000201e80064
:106ebc0062828800f200b900638521000300400063
:106ecc0002087800f208b90081842100010040001a
:106edc00190037008484210022c1b3000440bc0097
:106eec0082024200a10298008000eb00810a780027
:106efc000483e80002034300014b7800050990006d
:106f0c0012017800210198008380fb0082962100f9
:106f1c0081004100804878008341e800834078007c
:106f2c00a0042100014878004c10ec00608288001d
:106f3c00f002980005007800000006000604e0004e
:106f4c00e4ff3a000000eb00fbff37000003780081
:106f5c00a4042100144278000040eb000404e0007b
:106f6c0018003200739621008000eb00878421000a
:106f7c005340780000c1e800e14f51000d0036008d
:106f8c0022c1b3000440bc000280430020009000ea
:106f9c00860f500007003a008096210081024000c5
:106fac00e0cfb300804a78004810a80010c0b300ae
:106fbc00040037008100e800814f5200ecff3e00d6
:106fcc000040eb000000060000037800a50421003f
:106fdc00954278000000eb000504e000110032003f
:106fec00739621008040eb0084842100534078008c
:106ffc0000c1e800e14f51000600360022c1b30089
:10700c000440bc000400410020019000860f510098
:10701c00040032008140e80085cf5000f3ff3900b6
:10702c000000eb000000060000037800a50421001e
:10703c00954278000000eb000504e00011003200de
:10704c00739621008040eb0084842100534078002b
:10705c0000c1e800e14f51000600360022c1b30028
:10706c000440bc000400410070019000860f5100e8
:10707c00040032008140e80085cf5000f3ff390056
:10708c000000eb0000000600c0cb80000000e00018
:10709c0005003200a1982100100020001100e00032
:1070ac0006003a00010037000000eb00f200b900c6
:1070bc008197210001004000050037000000e80026
:1070cc00f2804000f00f5000f4ff3a000000eb009b
:1070dc000000060090828800a18288000000060053
:1070ec0090828000a182800092e52b00828ab900f8
:1070fc00661a24008683b900060242000201b80019
:10710c0083014200400ade0005002000711a2400b1
:10711c0081abb9000120b80081004300cf0ade002a
:10712c00410bdd004f02de0004027300040141003c
:10713c008581490000f0a1008000eb00c002dd0059
:10714c00040020000200420083804a0004003b003f
:10715c00120020000300280000004100818049003b
:10716c0090828800a182880000000600889fbe00e3
:10717c008100400052dc2900c3112800810f50000f
:10718c0020003100c812dd00040020000204410080
:10719c0083844900441bdd00cc13de00870373009d
:1071ac004413dd000804430089844b0008044100ab
:1071bc0089844900471bdd00c913de008703730077
:1071cc004713dd000804430089844b00481bdd0095
:1071dc00c813de00870373004813dd000801430069
:1071ec0089814b000201420083814a003082fb00fe
:1071fc008002eb000401690085816900808f5000da
:10720c00e0ff3e0002816900020078004f04be00de
:10721c000000060081004000810f50002600310064
:10722c00f2838000038480000203410083834900c1
:10723c00441add00cc12de00850272004412dd001f
:10724c000602420087824a000402410085824900fe
:10725c00471bdd00c913de00870373004713dd00f5
:10726c000402430085824b00481bdd00c813de007e
:10727c00870373004813dd000402430085824b0032
:10728c00c811dd0002002000040141008581490085
:10729c00f2838800038488003082fb008002eb00bc
:1072ac000401690085816900f283880003848800e9
:1072bc00808f5000daff3e00f08380000184800054
:1072cc00000006001004e00026003200f28380006b
:1072dc00038480000203410083834900441add00cb
:1072ec00cc12de00850272004412dd000602420060
:1072fc0087824a000402410085824900471bdd0059
:10730c00c913de00870373004713dd00040243003a
:10731c0085824b00481bdd00c813de008703730019
:10732c004813dd000402430085824b00c811dd00c8
:10733c00020020000401410085814900f28388008d
:10734c00038488001082fb008002eb0004016900ba
:10735c0085816900f2838800038488005004e00072
:10736c00daff3a00f0838000018480000000060000
:10737c00008068000000060000c1b3000000060099
:10738c00889fbe008a9fbe000004be000205be009e
:10739c002b0707000801500089815800880f500006
:1073ac00898f58000200310061015100e0815900c1
:1073bc00100020008a0f51008b8f590001003e00f5
:1073cc000000eb004f05be004f04be00000006009d
:1073dc00889fbe008a9fbe00e90421009944780072
:1073ec000904e000210032000044eb001b002000e7
:1073fc008aa921000880fb008058dd008282800071
:10740c008100610015003200ea02b900e60042007a
:10741c00810045000083eb008083eb0031014300c9
:10742c00a1814b00040245003202980043029800ef
:10743c00e00f5100e08f590007003a0084007800fb
:10744c0011019000a1019000b2009800c3009800b7
:10745c0011007800000001008944e9000904e000f3
:10746c00020032000844e800e2ff37004f05be007e
:10747c004f04be0000000600889fbe008a9fbe001d
:10748c000205be00e90421009944780080c2eb009b
:10749c00efcf540021003e00868280000608a30036
:1074ac00090032008000eb00170020008142e80048
:1074bc008100e800010478008139dd00068261005a
:1074cc0013003a0003003700130020000004eb0007
:1074dc008042eb00ea44b90081a9210008844000f5
:1074ec0088007800801878008a88be003a049800da
:1074fc004b0498008944e80089407800e00421009e
:10750c00014878000303730086828800030037006b
:10751c00ef8f5000e5ff3a0080c2eb000540780089
:10752c004f05be004f04be00000006008081fb002a
:10753c00120020000311dd00818280000102610035
:10754c000040eb0009003200ea18b90083a92100c1
:10755c00808141008009eb004e70ed000281ea0051
:10756c00010061008082880010c0b300000006009a
:10757c0000037800e30421009341780000c0eb0085
:10758c000304e00012003200858280000040eb0012
:10759c001400200087a921008080fb000121dd0060
:1075ac000501610005003200ea09b9008280430040
:1075bc00910f1300060032008341e9000304e00040
:1075cc00020032000040e800f3ff370000c0eb007f
:1075dc00000006000202be008080fb0013002000a9
:1075ec008119dd0080828000830160000040eb0087
:1075fc0005003200ea08b900a2a92100820040006f
:10760c008488be0010c0b30000000600889fbe0036
:10761c008a9fbe008c9fbe008e1f7800c9842100fb
:10762c007d962100ca9721008b0821008c0c21002b
:10763c000004eb000b0778000000eb00800c7800d6
:10764c0080eeeb00000d78004240dd000e004000a3
:10765c00e0049800c340dd0082b32100828d40001d
:10766c008c007800a90307000804e800f2844400a9
:10767c0072054500e48545008c07b000f00f5400fe
:10768c00edff3a005030ef0080a92100020a2000e3
:10769c00000141008000eb00010878006a00400006
:1076ac00820f5000fcff3a004a70ef004b70ef0065
:1076bc004e70ef0000012000908288005430ef00e3
:1076cc005306070061060700eafa0700e5f3070016
:1076dc004f0778004f06be004f05be004f04be009a
:1076ec0000000600889fbe008a9fbe008c9fbe00d3
:1076fc008e1f7800c5ff07004c30ef007e962100ee
:10770c00898421008e06e800ac0421001c46780018
:10771c000c04e000110032008e0578000044eb00f0
:10772c005b85fb00f250b9008080440001007800ba
:10773c00a100900001000100e34f500004003a004a
:10774c00f255b9000a8544002a009000fffd07009d
:10775c000844e800884f5600f1ff3e004382800049
:10776c000308a300e8ff3200a204210012417800b4
:10777c000280fb0000804600e1cfb30090cf1000e8
:10778c000f003a000240e800804f56000700360018
:10779c008080fb008180460011427800f4f89f0045
:1077ac000040e800804f5600f9ff3e000c80fb00c3
:1077bc000080460080c0eb0071f89f000c46e90089
:1077cc000204e000020032000241e900e8ff370049
:1077dc000c4078004af0b7000300a10043828800f7
:1077ec00c9ff3700889fbe000004be0028409000ef
:1077fc000074a00020449800180078000000e000fd
:10780c0003003200f50f500048003a002200370008
:10781c0001c3b300d0db21000148780081c7b3005d
:10782c000000e800014878004848de0062f0b7002c
:10783c00a0fa0700f1db21008048780062d0bf007d
:10784c00a4fa070001dc2100804878002006210002
:10785c00094878000940780096fa070011dc2100ed
:10786c008048780062d0bf009afa070021dc210022
:10787c00804878006270ef000210ec0000838800f2
:10788c0001042000810f500001003a006030ef002d
:10789c0050012000000c7800284090000028a30024
:1078ac000400320040c0b3002044980030c0b30044
:1078bc00220037000183800022808000810f51005c
:1078cc00030032000004a10020449800020037009d
:1078dc000004a00020449800284190000040eb00d8
:1078ec000208a30015003a0000002100908140001e
:1078fc0022062100124178000282fb00d5db210018
:10790c0004824200944978000241e8000242780067
:10791c002306210084497800110098006f040700a9
:10792c0062d0bf00e54f5000d3ff360080c0b300db
:10793c0020449800000ceb0030c0b3004f04be0094
:10794c0000000600889fbe000004780081037800c8
:10795c00284090000074a000204498001800780083
:10796c000000e0000400320051032000810f5000a1
:10797c008d003a00660037005c70ef00f07022005a
