:020000040000fa
:080000000013040000000000e1
:020000040000fa
:1000080002100000061000000a1000000e10000088
:1000180012100000161000001a1000001e10000038
:1000280022100000261000002a1000002e100000e8
:1000380032100000361000003a1000003e10000098
:1000480042100000461000004a1000004e10000048
:1000580052100000561000005a1000005e100000f8
:1000680062100000661000006a1000006e100000a8
:1000780072100000761000007a1000007e10000058
:1000880082100000861000008a1000008e10000008
:1000980092100000961000009a1000009e100000b8
:1000a800a2100000a6100000aa100000ae10000068
:1000b800b2100000b6100000ba100000be10000018
:1000c800c2100000c6100000ca100000ce100000c8
:1000d800d2100000d6100000da100000de10000078
:1000e800e2100000e6100000ea100000ee10000028
:1000f800f2100000f6100000fa100000fe100000d8
:1001080002110000061100000a1100000e11000083
:1001180012110000161100001a1100001e11000033
:1001280022110000261100002a1100002e110000e3
:1001380032110000361100003a1100003e11000093
:1001480042110000461100004a1100004e11000043
:1001580052110000561100005a1100005e110000f3
:1001680062110000661100006a1100006e110000a3
:1001780072110000761100007a1100007e11000053
:1001880082110000861100008a1100008e11000003
:1001980092110000961100009a1100009e110000b3
:1001a800a2110000a6110000aa110000ae11000063
:1001b800b2110000b6110000ba110000be11000013
:1001c800c2110000c6110000ca110000ce110000c3
:1001d800d2110000d6110000da110000de11000073
:1001e800e2110000e6110000ea110000ee11000023
:1001f800f2110000f6110000fa110000fe110000d3
:1002080002120000061200000a1200000e1200007e
:1002180012120000161200001a1200001e1200002e
:1002280022120000261200002a1200002e120000de
:1002380032120000361200003a1200003e1200008e
:1002480042120000461200004a1200004e1200003e
:1002580052120000561200005a1200005e120000ee
:020000040000fa
:1020000002000000f413040000000000f4130400b8
:1020100000000000f413040000000000f4130400aa
:1020200000000000f413040000000000f41304009a
:1020300000000000f413040000000000f41304008a
:1020400000000000f413040000000000f41304007a
:1020500000000000f4130400000000002837040012
:1020600000000000f413040000000000f41304005a
:1020700000000000f413040000000000f41304004a
:1020800000000000f413040000000000f41304003a
:1020900000000000f413040000000000ec34040011
:1020a00000000000c034040000000000f41304002d
:1020b00000000000f413040000000000f41304000a
:1020c00000000000f413040000000000f4130400fa
:1020d00000000000f413040000000000f4130400ea
:1020e00000000000f413040000000000f4130400da
:1020f00000000000f413040000000000f4130400ca
:1021000000000000f413040000000000f4130400b9
:1021100000000000f413040000000000f4130400a9
:1021200000000000f413040000000000f413040099
:1021300000000000f413040000000000f413040089
:1021400000000000f413040000000000f413040079
:1021500000000000f413040000000000f413040069
:1021600000000000f413040000000000f413040059
:1021700000000000f413040000000000f413040049
:1021800000000000f413040000000000f413040039
:1021900000000000f413040000000000f413040029
:1021a00000000000f413040000000000f413040019
:1021b00000000000f413040000000000f413040009
:1021c00000000000f413040000000000f4130400f9
:1021d00000000000f413040000000000f4130400e9
:1021e00000000000f413040000000000f4130400d9
:1021f00000000000f413040000000000f4130400c9
:1022000000000000f413040000000000f4130400b8
:1022100000000000f413040000000000f4130400a8
:1022200000000000f413040000000000f413040098
:1022300000000000f413040000000000f413040088
:1022400000000000f413040000000000f413040078
:1022500000000000f413040000000000f413040068
:1022600000000000f413040000000000f413040058
:1022700000000000f413040000000000f413040048
:1022800000000000f413040000000000f413040038
:1022900000000000f413040000000000f413040028
:1022a00000000000f413040000000000f413040018
:1022b00000000000f413040000000000f413040008
:1022c00000000000f413040000000000f4130400f8
:1022d00000000000f413040000000000f4130400e8
:1022e00000000000f413040000000000f4130400d8
:1022f00000000000f413040000000000f4130400c8
:1023000000000000f413040000000000f4130400b7
:1023100000000000f413040000000000f4130400a7
:1023200000000000f413040000000000f413040097
:1023300000000000f413040000000000f413040087
:1023400000000000f413040000000000f413040077
:1023500000000000f413040000000000f413040067
:1023600000000000f413040000000000f413040057
:1023700000000000f413040000000000f413040047
:1023800000000000f413040000000000f413040037
:1023900000000000f413040000000000f413040027
:1023a00000000000f413040000000000f413040017
:1023b00000000000f413040000000000f413040007
:1023c00000000000f413040000000000f4130400f7
:1023d00000000000f413040000000000f4130400e7
:1023e00000000000f413040000000000f4130400d7
:1023f00000000000f413040000000000f4130400c7
:1024000000000000f413040000000000f4130400b6
:1024100000000000f413040000000000f4130400a6
:1024200000000000f413040000000000f413040096
:1024300000000000f413040000000000f413040086
:1024400000000000f413040000000000f413040076
:1024500000000000f413040000000000f413040066
:1024600000000000f413040000000000f413040056
:1024700000000000f413040000000000f413040046
:1024800000000000f413040000000000f413040036
:1024900000000000f413040000000000f413040026
:1024a00000000000f413040000000000f413040016
:1024b00000000000f413040000000000f413040006
:0424c0000000000018
:020000040000fa
:10260000efe721000eff27000e0188000000000008
:10261000000020000000e000020032000001200065
:10262000200288000c0007006065230001002000e4
:102630000f000700000020000000e0000200320050
:102640000000020000000000902a020000000000cc
:102650000040da000000fe00c00320000000e0009f
:1026600002003200002020009001880000000600d7
:10267000a1028800800078000000eb001a003700fb
:10268000e280400054a0b4009101ba00e280400012
:1026900054a0b4009102ba00e280400054a0b400fb
:1026a0000002eb00472bde00f507b200a601880010
:1026b000602ce10008003a000049eb000201e8004c
:1026c000020039003420ec0002f0a0008301e90090
:1026d000f9ff3e00040037006128e10001003200ec
:1026e0000082eb000b00070011c3ba001101ba0011
:1026f0000604e00003003a000200e000e0ff3a00b8
:1027000000000600f607b200a602880082007800ea
:10271000f5ff370004d0a300e20f49001c00390088
:10272000810278003549ba000201e8000200390050
:102730003420ec0002f0a0008301e9000f00320019
:102740002549ba000201e800020039003420ec00fb
:1027500002f0a0008301e900080032000400e0005c
:102760000600320015c9ba000201e8000200390073
:102770003420ec0002f0a0008301e9008180e80031
:1027800054a0b4000300e000e2ff3a00000006009d
:102790009102ba00055978008301e900f7ff320081
:1027a000c82ade00055978008301e900f3ff3200f2
:1027b0000400e000f1ff320011d9ba00eeff37004b
:1027c000102b04000000000038310400000000005d
:1027d0003e30040000000000541604000000000019
:1027e00000000400000000000040da000000fe00cd
:1027f0000a00fa0011002000b1bf9f00c0bf9f0077
:102800006a8057002f0207004fb897000080fa0037
:10281000000006000a00fa00e20f500020003e000f
:10282000b0f08000e10f500006003200802320004d
:102830004523200023232000042320000000e00083
:1028400004003a008022200045222000232220009c
:1028500004222000060028001403630003003a004d
:102860000608780000002800140a700013a8a300ce
:1028700001003a0013a0a000020078000500370014
:102880001388a300feff32003102fb00840a7800a7
:102890000000e9000000e000f9ff3a0008003700fe
:1028a00033002000b3bf9f00c0bf9f00d1bf9f0077
:1028b000e2bf9f006a805700040207006fb99700cb
:1028c000020078000080fa00000006000a00fa000a
:1028d00051002000b1bf9f00c0bf9f006a80570019
:1028e000fc0107005fb897000080fa0000000600b6
:1028f000889fbe0080047800c0f080000000e000e7
:1029000004003a000e0007000084eb000000e00025
:1029100008003500c8f080000900e0000500320022
:1029200009004400060007000000e00001003d002f
:102930000084eb00080078004f04be000000060091
:10294000800078000100e00003003a00a0e12100cf
:10295000c0f08800000005000080eb00e2e72100e5
:10296000828f500002003e00c1f088000000eb00a2
:10297000000006006022b800060220000000d0001f
:102980008180d2000482d2008582d2000000a000a3
:102990000202520083825a00030031000202420008
:1029a00083824a000000a1000603e900f3ff3a0019
:1029b00000000600c1da210000003700889fbe0039
:1029c0008a1f78000004be00c900900069009000d2
:1029d000808f500005003900090078001d000700b5
:1029e0008080eb000000e00016003500084578000c
:1029f0004900900008587800c00498001900780039
:102a000000b8a30004003a0000a8a30007003200a9
:102a1000ea4f540005003a0009007800ad000700b5
:102a20008080eb000000e00006003a0000c02000bb
:102a3000190060000200320049009000e004980094
:102a40008a80fb00010078004f0578004f04be002b
:102a500000000600889fbe008a1f780000047800ee
:102a6000c8009000680190000000eb00828f5000c9
:102a70003d003900180078002200290002016000a2
:102a8000e20f510007003200012024000000e000a6
:102a900001003d0001202000008c70000080eb0050
:102aa000310037000200260002006000820f500053
:102ab00009003a0038009000808f5000060039006d
:102ac0000800780083000700800078000080eb0099
:102ad0000100e00024003a001805780000c0200042
:102ae0000000650019003a00a80490006002200070
:102af00008004000808f540014003a00002020009d
:102b0000010020002c010700200498000000e000d4
:102b100005003a0029049800490498008904e80057
:102b200039049800080037000a60a0000a0c7800f9
:102b3000400498000120200080804000310498006b
:102b4000400c9800500c98000c00070028009000e2
:102b5000500498003800900060049800000026009f
:102b6000180c70000000eb004f0578004f04be0009
:102b7000000006004065210091003700881f7800a2
:102b800048e121001804e00003003a00f9ff0700c3
:102b900020c0b300004c78004f047800000006000d
:102ba000889fbe00000478000800780049000700f4
:102bb0008004780000042000180060000200320049
:102bc000280090008b0007000000eb002004980014
:102bd000384090000004e000050035000000fb00d4
:102be00003ff07000000e000010032008084eb00da
:102bf000181090000000e0000800320033ff0700ca
:102c00000000e000010032008084eb00181090000a
:102c1000780007000000eb00101498000008200066
:102c2000180060000f003200a1df21000000eb005f
:102c3000d10f140005003a0000004000c1df210060
:102c4000008040000008eb00030037000000e800af
:102c5000e80f5000f6ff3a00080078006500070012
:102c60000e003700000c780000c0eb0030449800e4
:102c700060022000080040002004980040049800f2
:102c800050049800400c980060049800500c980084
:102c90007004980076004400000c98000900780049
:102ca0004f04be0000000600889fbe00c8e021005f
:102cb000f0045400480078000000e00001003200f9
:102cc000b7ff0700890f5400faff3a004f04be0017
:102cd00000000600889fbe008a1f7800000478006c
:102ce0000800e0000d003a00a8df21007005440054
:102cf0008004eb00580078000000e000040032007f
:102d0000f4ff07000000e00001003d008084eb00bc
:102d10008a0f5400f7ff3a00250037000000220018
:102d2000180060008004eb0021003200a80490002d
:102d30000f00370009015100384090000000fb00ef
:102d400089007800b3fe07000000e00007003c00a7
:102d5000280090004004980060049800500c9800ef
:102d60001890a0008084eb0011003700808444009c
:102d700048019000828f5400eeff39002800900037
:102d8000400498009800780002c020000281600092
:102d900001003a003800900001e8a3000200320070
:102da0006004980001003700500c98008004eb008c
:102db000090078004f0578004f04be0000000600af
:102dc000010020000100e000090032000100800045
:102dd0000100e000060032008100e90001008800e7
:102de000818040000200800081004100800878005e
:102df000000006000000e000320032004002be0089
:102e0000e50f5200e08f5a002e0036000408a300a0
:102e10002c003a0091f080000100e0000200320036
:102e2000810f5000040031002100980090f08800cc
:102e30001700370082007800210190000200e000b6
:102e400002003200800f5100faff39001103be006a
:102e500086814000830f50001a003900808f510096
:102e600004003a008418430085904b00010078006c
:102e7000070037000200e0000300320004024000b7
:102e8000840f51000f00390022009800a000980024
:102e9000a00090000100e0000a0032001001400094
:102ea000828f500007003a0002e121000009eb0088
:102eb0001001be003118410021904900a10090008e
:102ec0002100980000000600889fbe008a9fbe0077
:102ed0000004be0081f080000100e000020032002a
:102ee000010078000f00370091f0800020e1210000
:102ef00005003700b10f5400a18f5c002b00360095
:102f000064804000a10090000100e000f9ff3a0059
:102f100012003700b20f5400a28f5c00230036006d
:102f200064004100100178000200e000f9ff3a005f
:102f30001101780091f0800020e1210005003700a8
:102f4000b10f5400a18f5c0018003600648040006f
:102f5000a1009000828f5000f9ff3a006af08000d3
:102f60007bf08000880f5500898f5d0001003100e3
:102f70000805be000a00be00460007000000e00091
:102f800006003a00880f5500898f5d000600320068
:102f90008b05d1000a85d300f2ff37000a98be00e6
:102fa00094ff0700cbff37000000eb004f05be0089
:102fb0004f04be0000000600889fbe000002be0055
:102fc00065004000e0804800000378000600a10092
:102fd00081017800060178000204be008000eb0049
:102fe000840f5400858f5c0027003600e50f5400e5
:102ff000e08f5c0002003e00680020000900200015
:103000000800be00b0ff07008000eb000000e000f9
:103010001d00320090007800a4ff2f00f5ff2f0064
:1030200031014200a1814a00880f5100898f590067
:1030300003003100a1029000050878000800370065
:103040000881400002087800a10190002301980047
:10305000100178003119140021911c008888be00ed
:10306000100178000000eb000200e00004003200d4
:10307000a20190000300e000010032006400410062
:1030800080f08800e4804000010078004f04be001a
:10309000000006000001be008000eb000200e0001e
:1030a000060034000200780011fe0700800078005e
:1030b000e18f400001003a008000eb000100780041
:1030c0000000060000c0da000000060000c0da00c0
:0c30d0000000060000c0da00000006004e
:020000040000fa
:1030dc000a74000065730000745c000061700000ed
:1030ec00705f000065630000616e00005f7300009c
:1030fc00656e000064650000722e0000632c0000f9
:10310c0020620000756900006c740000206f0000e4
:10311c006e2000004e6f000076200000203700006b
:10312c0020320000303100003620000061740000b5
:10313c0020320000303a0000333300003a310000f6
:08314c00340a0000000000003d
:020000040000fa
:1031540083437800930180009101880000000000ff
:103164001003780093018800000000000600a1000d
:10317400a3018000a101880006087800a30188004b
:103184009301800091018800000000001003780082
:1031940093018800000000000610a100a301800034
:1031a400a101880006087800a3018800f37f2000ad
:1031b40003016100c211dd009201800091018800c9
:1031c4000000000010037800920188000000000055
:1031d40032002e000201630002817100a30180000d
:1031e400a101880002087800a301880096018000ec
:1031f4000002be00040178002400b000040169004c
:103204004260af0004f0a0000281d2000580b0004b
:103214008501780093018800000000000401780013
:1032240092027800960188000000000004002f003c
:1032340084826200a4018000a3018800050978004b
:10324400a4018800940180000001be00820278007d
:103254004200b00082826a004260af0002f0a00027
:103264008582d2000380b000830078009101880039
:1032740000000000020078009001780094018800aa
:1032840000000000f33fb200a2018000a101880009
:1032940003087800a201880093018000910188004e
:1032a4000000000010017800930188000000000075
:1032b4000290a100a3018000a10188000208780007
:1032c400a3018800930180009101880000000000a0
:1032d4001001780093018800000000000280a10022
:1032e400a3018000a101880002087800a3018800de
:1032f4009301800091018800000000001001780013
:1033040093018800000000000240a100a301800096
:10331400a101880002087800a30188006f8163007e
:103324009301800091018800000000009003780060
:10333400930188000000000003ff2f0083836300d3
:1033440087037100a2018000a101880007087800aa
:10335400a201880000000600889fbe008a1f780032
:10336400980180009101880000000000900378001b
:1033740098018800000000000700a000a801800058
:10338400a101880007087800a8018800980180003e
:1033940091018800000000009003780098018800e3
:1033a400000000000710a100a8018000a10188000e
:1033b40007087800a8018800421cde0009002000ec
:1033c400f77f200088836300c23bdd009801800002
:1033d40091018800000000009004780098018800a2
:1033e4000000000038002e00088464000884730084
:1033f400a7018000a101880008087800a7018800bf
:10340400c61bde00ca1add004613de000683720006
:10341400f8ff2000860364009a0180000004be00c7
:10342400880278002800b00088826a004260af00f9
:1034340008f0a0008582d2000980b000090378005a
:103444009601880000000000880278009504780046
:103454009a0188000000000008002f00088464001e
:1034640008847300a7018000a6018800880a7800f8
:10347400a70188004a11dd00950180000003be0009
:10348400860178004600b000868169004260af0082
:1034940006f0a0008381d2000780b0008700780086
:1034a4009101880000000000060078009001780077
:1034b4009501880000000000f33fb2000301710091
:1034c400a3018000a101880002087800a3018800fc
:1034d4009301800091018800000000001001780031
:1034e40093018800000000000290a100a301800065
:1034f400a101880002087800a301880093018000dc
:1035040091018800000000001001780093018800f8
:10351400000000000280a100a3018000a101880036
:1035240002087800a30188009301800091018800bb
:1035340000000000100178009301880000000000e2
:103544000240a100a3018000a101880002087800c4
:10355400a30188006f01620093018000910188003b
:1035640000000000100278009301880000000000b1
:1035740003ff2f000302620004027100a201800015
:10358400a101880004087800a20188004f05780092
:103594004f04be00000006009201800091018800e3
:1035a4000000000010027800920188000000000072
:1035b4004322dd004522de008002eb00c222dd0052
:1035c40004002000970180000001be00020378007f
:1035d4002200b00002036b004260af0002f0a000c2
:1035e4000683d2000380b0000303780096018800ac
:1035f400000000001203780097018800000000001a
:10360400f2ff2000020363008003eb004639dd0073
:10361400ca31de00830171004631dd00020272000e
:103624008382720093018000000178004000b000a2
:10363400000169004260af0000f0a0000281d200e6
:103644000180b000010178009201880000000000b0
:103654001001780093018800000000004a11de0088
:103664000281fb008001eb00020072008380720083
:10367400000006000164a800b05d240090208800ca
:10368400100c200080208800000006007f406000ad
:10369400ef4f500007003600704050000080fb00e0
:1036a400110020000008dd000080ea002224b6009a
:1036b400050037000080fb00110020000008dd0039
:1036c4000080ea002024b600000006007f4060006d
:1036d400ef4f500007003600112180007040500069
:1036e4000080fb00120020000010dd00014060009b
:1036f40005003700012180000080fb00120020003b
:103704000010dd0001406000000006002024ef00ee
:103714002224ef002824ef002a24ef0000000600f2
:1037240067406000e34f50002f00320004003e0069
:10373400e14f5000140032001f003e000600370025
:10374400e54f50004000320033003900e64f50008e
:1037540055003a0048003700e1806000c708dd00ea
:10376400f0f72f003004b60000807000802188003c
:1037740063016100c0ff2f003004b6000000710037
:103784008021880053003700cf08dd00f0ff2700b8
:103794003004b6000080700080218800630161005d
:1037a4004811dd00f0cf2f003004b6000000710096
:1037b4008021880047003700e1806000c708dd00f1
:1037c400f0f72f003204b6000080700090218800ca
:1037d40063016100c0ff2f003204b60000007100d5
:1037e400902188003b003700cf08dd00f0ff270060
:1037f4003204b600008070009021880063016100eb
:103804004811dd00f0cf2f003204b6000000710033
:10381400902188002f003700e1806000c708dd0098
:10382400f0f72f003404b60000807000a021880057
:1038340063016100c0ff2f003404b6000000710072
:10384400a021880023003700cf08dd00f0ff270007
:103854003404b60000807000a02188006301610078
:103864004811dd00f0cf2f003404b60000007100d1
:10387400a021880017003700e1806000c708dd0040
:10388400f0f72f003604b60000807000b0218800e5
:1038940063016100c0ff2f003604b6000000710010
:1038a400b02188000b003700cf08dd00f0ff2700af
:1038b4003604b60000807000b02188006301610006
:1038c4004811dd00f0cf2f003604b600000071006f
:1038d400b02188000000060067406000e34f5000fc
:1038e4001100320004003e00e14f50000a00320093
:1038f4000b003e0006003700e54f50000e0032007a
:103904000b003900e64f50000f003a000c0037005e
:103914003064a8000d0037003164a8000b003700a4
:103924003264a800090037003364a8000700370098
:103934003464a800050037003564a800030037008c
:103944003664a800010037003764a80000000600b0
:1039540067406000e34f50001700320004003e004f
:10396400e14f50000c0032000f003e00060037000b
:10397400e54f50001800320013003900e64f5000a4
:103984001d003a0018003700802180004300de004b
:10399400614060001b003700802180004b00de0086
:1039a4006140600017003700902180004300de0072
:1039b4006140600013003700902180004b00de005e
:1039c400614060000f003700a02180004300de004a
:1039d400614060000b003700a02180004b00de0036
:1039e4006140600007003700b02180004300de0022
:1039f4006140600003003700b02180004b00de000e
:103a04006140600000000600889fbe008a9fbe00df
:103a14008c9fbe006f4060006f426200e7c262008c
:103a24000083fb008604430089844400074420008b
:103a3400878444000985e800c333de00878343009c
:103a440088412000888343004234de000804440097
:103a54000b4220000b0444000004a8000104e00011
:103a640008003200e38561000b30a000421ede0036
:103a74000d002000c560dd00818c7500020d78000a
:103a8400030037004511dd00820c7800000deb00c7
:103a940063416000210020008110dd008180fb0073
:103aa400f20020000111dd000281ea00180161002a
:103ab4000482fb008120dd00010c71000000d000b5
:103ac4006e0060008580fb008008dd00320020006d
:103ad4000010dd000080ea0017006000808b700099
:103ae400100020000600dd001424b7000004a90023
:103af4004f06be004f05be004f04be000000060086
:103b04004200dd00c03fb200054320000500400034
:103b14008082e8000004a8000104e0000f003200e5
:103b2400421bde0007002000f17f20000103630038
:103b3400e38061000404e000040032000130a000ce
:103b44004533dd0006887000020037004533dd0090
:103b540001087300820a78000b003700f17f20000f
:103b6400010161000404e000040032004511dd009d
:103b74000230a00002087800020037004511dd0081
:103b840002087800800aeb000004a9000000060087
:103b94000165a800b05d240090288800100c200066
:103ba40080288800000006007f406000ef4f50002e
:103bb40007003600704050000080fb001100200018
:103bc4000008dd000080ea002225b6000500370069
:103bd4000080fb00110020000008dd000080ea00e6
:103be4002025b600000006007f406000ef4f500023
:103bf4000700360011298000704050000080fb004f
:103c0400120020000010dd000140600005003700b4
:103c1400012980000080fb00120020000010dd005c
:103c240001406000000006002025ef002225ef007f
:103c34002825ef002a25ef000000060067406000f9
:103c4400e34f50002f00320004003e00e14f5000cb
:103c5400140032001f003e0006003700e54f5000fc
:103c64004000320033003900e64f500055003a005e
:103c740048003700e1806000c708dd00f0f72f003e
:103c84003005b6000080700080298800630161005f
:103c9400c0ff2f003005b6000000710080298800a5
:103ca40053003700cf08dd00f0ff27003005b600d1
:103cb4000080700080298800630161004811dd00e4
:103cc400f0cf2f003005b600000071008029880075
:103cd40047003700e1806000c708dd00f0f72f00df
:103ce4003205b600008070009029880063016100ed
:103cf400c0ff2f003205b600000071009029880033
:103d04003b003700cf08dd00f0ff27003205b60086
:103d14000080700090298800630161004811dd0073
:103d2400f0cf2f003205b600000071009029880002
:103d34002f003700e1806000c708dd00f0f72f0096
:103d44003405b60000807000a0298800630161007a
:103d5400c0ff2f003405b60000007100a0298800c0
:103d640023003700cf08dd00f0ff27003405b6003c
:103d740000807000a0298800630161004811dd0003
:103d8400f0cf2f003405b60000007100a029880090
:103d940017003700e1806000c708dd00f0f72f004e
:103da4003605b60000807000b02988006301610008
:103db400c0ff2f003605b60000007100b02988004e
:103dc4000b003700cf08dd00f0ff27003605b600f2
:103dd40000807000b0298800630161004811dd0093
:103de400f0cf2f003605b60000007100b02988001e
:103df4000000060067406000e34f500011003200ed
:103e040004003e00e14f50000a0032000b003e0067
:103e140006003700e54f50000e0032000b00390059
:103e2400e64f50000f003a000c0037003065a80040
:103e34000d0037003165a8000b0037003265a8007b
:103e4400090037003365a800070037003465a8006f
:103e5400050037003565a800030037003665a80063
:103e6400010037003765a8000000060067406000c5
:103e7400e34f50001700320004003e00e14f5000b1
:103e84000c0032000f003e0006003700e54f5000e2
:103e94001800320013003900e64f50001d003a00ac
:103ea40018003700802980004300de006140600074
:103eb4001b003700802980004b00de006140600059
:103ec40017003700902980004300de006140600045
:103ed40013003700902980004b00de006140600031
:103ee4000f003700a02980004300de00614060001d
:103ef4000b003700a02980004b00de006140600009
:103f040007003700b02980004300de0061406000f4
:103f140003003700b02980004b00de0061406000e0
:103f240000000600889fbe008a9fbe008c9fbe00d2
:103f34006f4060006f426200e7c262000083fb00d2
:103f44008604430089844400075420008784440085
:103f54000985e800c333de008783430088512000cd
:103f6400888343004234de00080444000b522000de
:103f74000b0444000005a8000104e000080032001e
:103f8400e38561000b30a000421ede000d0020001e
:103f9400c560dd00818c7500020d780003003700d8
:103fa4004511dd00820c7800000deb0063416000d8
:103fb400210020008110dd008180fb00f200200040
:103fc4000111dd000281ea00180161000482fb0096
:103fd4008120dd00010c71000000d0006e00600043
:103fe4008580fb008008dd00320020000010dd0029
:103ff4000080ea0017006000808b70001000200031
:104004000600dd001425b7000005a9004f06be0018
:104014004f05be004f04be00000006004200dd0054
:10402400c03fb20005532000050040008082e80034
:104034000005a8000104e0000f003200421bde006e
:1040440007002000f17f200001036300e38061008a
:104054000404e000040032000130a0004533dd0018
:1040640006887000020037004533dd000108730044
:10407400820a78000b003700f17f20000101610003
:104084000404e000040032004511dd000230a00009
:1040940002087800020037004511dd0002087800ac
:1040a400800aeb000005a9000000060000002100c2
:1040b400a1cc2100010878008000eb0011009800d9
:1040c40021009800020420003200980080002100a2
:1040d400a3d0210003087800110098002100980063
:1040e40032009800710a0700000006000080fb00ff
:1040f4004400de00e94f5000020036007043b00077
:10410400010037000043b000000006006f4060006b
:10411400e94f5000020036007043b0000100370040
:104124000043b00000000600881f780000047800f7
:10413400284090000074a0002044980018017800e2
:104144000200e0000400320031052000810f51001c
:1041540027003a000c00370081417800b2022100a8
:1041640003497800118080008100e80061818800a3
:1041740002042000828f500001003a002c30ef002e
:1041840031052000010c78000028a300040032004f
:1041940040c0b3002044980030c0b300180037007a
:1041a4006181800022808000810f51000300320071
:1041b4000004a10020449800020037000004a0007d
:1041c40020449800284190000040eb000208a3001e
:1041d4000b003a000000210010814000b3022100ce
:1041e400934178000349780011009800df09070023
:1041f40080c0b30020449800000ceb0030c0b30032
:104204004f04780000000600889fbe000004780078
:1042140081447800284090000074a0002044980055
:10422400180078000000e00004003200a10620001d
:10423400810f50003f003a001900370001c3b3005a
:10424400e0d721000148780081c7b3000000e800ee
:104254000148780009407800a4ff070001d8210034
:104264008048780009407800a8ff070011d8210091
:10427400804878000100e8000048eb002a70ef0055
:104284000210ec004081880001042000810f5000de
:1042940001003a002830ef00a0062000000c78004e
:1042a400284090000028a3000400320040c0b3005e
:1042b4002044980030c0b3002200370041818000c0
:1042c40022808000810f5100030032000004a1000d
:1042d40020449800020037000004a0002044980005
:1042e400284190000040eb000208a30015003a00aa
:1042f4000000210090814000a202210012417800b8
:104304000282fb00e5d72100048242009449780030
:104314000241e80002427800a302210084497800a7
:1043240011009800910907002ad0bf00e34f500004
:10433400d3ff360080c0b30020449800000ceb008b
:1043440030c0b3004f04be0000000600881f780090
:104354000004780081427800284090000074a00096
:1043640020449800180078000000e00004003200a7
:1043740041082000810f500063003a003d003700df
:104384002670ef0030c6b30080cf5200090036001b
:104394000580fb0042062000110009000280d800bd
:1043a40093d7210002c3b3008249400010c0b30078
:1043b40026f0b700e9cf5200130036006602210050
:1043c400164378000681fb0094d7210002024200c4
:1043d4008581fb0042062000110009008281d8007b
:1043e400810178008381fb00a200200011000900f4
:1043f4008281d8000001780003c3b300034a41005e
:104404000640e80026f0b70062022100124178005d
:104414000282fb0096d72100040243008580fb0042
:10442400a3002000110009008380d80003c3b30057
:1044340003ca40008240e80064022100014a780077
:104444008180fb00010043000048eb002770ef006f
:104454002a0037000210ec002081880001042000ab
:10446400810f500001003a002430ef004008200082
:10447400000c7800284090000028a30004003200bb
:1044840040c0b3002044980030c0b300220037007d
:104494002181800022808000810f510003003200be
:1044a4000004a10020449800020037000004a0008a
:1044b40020449800284190000040eb000208a3002b
:1044c40015003a0000002100908140007202210092
:1044d400124178000282fb0095d721000482420039
:1044e400944978000241e8000242780073022100f6
:1044f40084497800110098001c09070027d0bf00e8
:104504002650e300d3ff3e0080c0b300204498004f
:10451400000ceb0030c0b3004f047800000006002c
:10452400889fbe008a9fbe008c1f7800000678001a
:104534000204be002c4090000074a00020469800a5
:104544001c0078000000e00004003200410a200052
:10455400810f50005f003a003900370001c3b300f7
:10456400e0d621000148780081c7b3000000e800cc
:1045740001487800481dde000b0020000a40780046
:10458400dafe070001d72100804878000a4078004d
:10459400defe070011d7210080487800404dde0080
:1045a4000b0020000a407800d0fe070021d721002c
:1045b400804878000a407800d4fe070031d72100f3
:1045c40080487800c84dde004848dd004845de00dc
:1045d4000a0570000a407800c4fe070041d7210094
:1045e400804878000a407800c8fe070051d72100af
:1045f4008048780008407800bcfe070061d721009d
:104604008048780008407800c0fe070071d7210078
:10461400804878000100e8000048eb002270ef00b9
:104624000210ec000081880001042000810f50007a
:1046340001003a002030ef00400a2000000e78000c
:104644002c4090000028a3000400320040c0b300b6
:104654002046980030c0b30022003700018180005a
:1046640022808000810f5100030032000004a10069
:1046740020469800020037000004a000204698005d
:104684002c4190000040eb000208a30015003a0002
:104694000000210090814000220221001241780094
:1046a4000282fb00e5d6210004824200944978008e
:1046b4000241e80002427800230221008449780084
:1046c40011009800a908070022d0bf00e94f50004c
:1046d400d3ff360080c0b30020469800000eeb00e4
:1046e40030c0b3004f0678004f05be004f04be0033
:1046f40000000600881f780000047800284090001d
:104704000074a00020449800180078000000e00025
:1047140004003200910b2000810f500033003a0056
:104724000e00370082417800c00121000348780060
:10473400d18088001d70ef002a0037000210ec00c1
:10474400f080880001042000810f500001003a002d
:104754001e30ef00900b2000000c780028409000e1
:104764000028a3000400320040c0b3002044980095
:1047740030c0b30021003700f18080002480800025
:10478400810f5200030032000004a100204498006d
:10479400020037000004a000204498002841900043
:1047a4000040eb000208a30014003a0002002100bc
:1047b40012824000d3012100934178000380fb0062
:1047c4001a10b400104a78008341e80003427800cc
:1047d400d001210004487800110198006308070003
:1047e4001c70ed001c50e200d4ff3a0080c0b300fe
:1047f40020449800000ceb0030c0b3004f04780054
:1048040000000600a04190000374a000234098001b
:10481400900178000300e00004003200d40c200072
:10482400848f510034003a000700370053012100ff
:1048340082497800b18088001870ef002a003700a0
:10484400d30c200003087800a04190000328a300a3
:104854000400320041c0b3002140980033c0b300cb
:104864002900370084002100940290002402900063
:10487400848f5200030032000304a10023409800f7
:10488400020037000304a000234098002042900057
:104894008041eb000408a3001b003a000c30ec003c
:1048a4000304200065808000838f520001003a00d9
:1048b4000c30ef0083012100934178008400210033
:1048c4009402780024029000848242000382fb0058
:1048d40004824000154a78008341e800834278004e
:1048e40084012100054a7800830121009341780066
:1048f40082cf5100d2ff390081c0b300214098001b
:104904000008eb0033c0b300034078000000060049
:10491400204190000274a000224098001001780009
:104924000200e00004003200e30d2000830f510078
:104934003a003a00030037001470ef00e20d200043
:1049440002087800204190000228a30004003200ed
:1049540041c0b3002140980032c0b3003300370097
:104964008300210013029000a3019000830f5200e2
:10497400030032000204a100224098000200370024
:104984000204a00022409800a04190000041eb00e6
:104994000308a30025003a000c30ec0002042000b8
:1049a40063808000828f510001003a000c30ef00d8
:1049b4004301210093417800820021001202780013
:1049c4002201900002014200124178000382fb00a0
:1049d40004824000024a7800ea4f51000a00320083
:1049e400ed4f5100080032000204e00006003200de
:1049f4008341e80044012100034a7800e2c3b30084
:104a040082cf5100cdff36004201210012417800cf
:104a14000281fb00828040008048eb0081c0b3002b
:104a2400214098000008eb0032c0b3000240780037
:104a340000000600881f78000004780028409000d9
:104a44000074a00020449800180078000000e000e2
:104a540004003200210f2000810f500029003a0089
:104a64000a00370081808800230037000210ec0020
:104a74009080880001042000810f500001003a005a
:104a84001230ef00200f2000000c78002840900026
:104a94000028a3000400320040c0b3002044980062
:104aa40030c0b3001b00370091808000228080005a
:104ab400810f5100030032000004a100204498003b
:104ac400020037000004a000204498002841900010
:104ad4000040eb000208a3000e003a00020021008f
:104ae4009281400080808000b049780080808800f6
:104af400110198009d070700808080001004e000e9
:104b0400daff3a0080c0b30020449800000ceb00a8
:104b140030c0b3004f0478000000060080417800e4
:104b24000210ec0001042000810f500001003a0043
:104b34000000eb000410e300feff3200010021003e
:104b4400110140000349780090009800870707008e
:104b540000000600889fbe008a1f780090407800fd
:104b64000104e00011003200000478000904200070
:104b74000005eb000210ec00890f500001003a0020
:104b84000a0078000410e300feff32000200210056
:104b940092014000814978001001980073070700d2
:104ba400d84078000104e000f2ff3a004f05780095
:104bb4004f04be0000000600800021009000900019
:104bc40020009000808f5000fbff32000c30ec007e
:104bd400000420000c10e30001003a000c30ef0048
:104be40080002100900078002000900000804000a8
:104bf40010407800000006008000780023032100a4
:104c0400934178000000eb00efcf510058003e00c4
:104c140005c18000818f52001400320024832100da
:104c24000043eb00064078000641780017c0b3004b
:104c3400040037009402780072024200818f52000f
:104c44000c0032000604e00004003a000500e00015
:104c540002003a0002407800074378000241e8006d
:104c6400f04f5100f3ff3a00420037000040eb00e0
:104c7400004178008280fb00c4812100f20bb9005e
:104c8400860342008002eb00850b78008483e800f1
:104c940086834300854b780006034200060b900090
:104ca40016037800250398008382fb00c693210035
:104cb40085024300824a78008341e80083427800f9
:104cc40022032100054978000080fb00f201b900ad
:104cd40002024200740190000200e00007003a0062
:104ce400a28180000201e800a2818800f200b900dc
:104cf400a38221000300400002087800f208b900f2
:104d0400c18121000100400019003700c481210045
:104d140022c1b3000440bc0082024200a1029800f8
:104d24008000eb00810a78000483e800020343005a
:104d3400014b7800050990001201780021019800c8
:104d44008380fb00c29321008100410080487800e9
:104d54008341e80083407800200321000148780063
:104d64003410ec00a0818800f0029800050078005f
:104d7400000006000604e000e4ff3a000000eb0037
:104d8400fbff37000003780024032100144278005d
:104d94000040eb000404e00018003200b39321004b
:104da4008000eb00c78121005340780000c1e80077
:104db400e14f51000d00360022c1b3000440bc0095
:104dc4000280430020009000860f500007003a0044
:104dd400c093210081024000e0cfb300804a7800f4
:104de4003010a80010c0b300040037008100e800b0
:104df400814f5200ecff3e000040eb000000060033
:104e04000003780025032100954278000000eb00a0
:104e14000504e00011003200b39321008040eb0050
:104e2400c48121005340780000c1e800e14f5100e3
:104e34000600360022c1b3000440bc000400410057
:104e440020019000860f5100040032008140e800e8
:104e540085cf5000f3ff39000000eb00000006008e
:104e64000003780025032100954278000000eb0040
:104e74000504e00011003200b39321008040eb00f0
:104e8400c48121005340780000c1e800e14f510083
:104e94000600360022c1b3000440bc0004004100f7
:104ea40070019000860f5100040032008140e80038
:104eb40085cf5000f3ff39000000eb00000006002e
:104ec40060ca80000000e00005003200e195210086
:104ed400100020001100e00006003a000100370035
:104ee4000000eb00f200b900c19421000100400071
:104ef400050037000000e800f2804000f00f500089
:104f0400f4ff3a000000eb0000000600d0818800a6
:104f1400e181880000000600d0818000e1818000ea
:104f240092e52b00828ab900661a24008683b900b0
:104f3400060242000201b80083014200400ade007a
:104f440005002000711a240081abb9000120b800cb
:104f540081004300cf0ade00410bdd004f02de007a
:104f640004027300040141008581490000f0a1009e
:104f74008000eb00c002dd000400200002004200bb
:104f840083804a0004003b00120020000300280034
:104f94000000410081804900d0818800e1818800bf
:104fa40000000600889fbe008100400052dc2900fa
:104fb400c3112800810f500020003100c812dd0009
:104fc400040020000204410083844900441bdd00e6
:104fd400cc13de00870373004413dd000804430090
:104fe40089844b000804410089844900471bdd0083
:104ff400c913de00870373004713dd000804430070
:1050040089844b00481bdd00c813de00870373004e
:105014004813dd000801430089814b00020142006e
:1050240083814a003082fb008002eb0004016900a6
:1050340085816900808f5000e0ff3e000281690095
:10504400020078004f04be0000000600810040000a
:10505400810f500026003100a2828000b3828000bc
:105064000203410083834900441add00cc12de00b0
:10507400850272004412dd000602420087824a0063
:105084000402410085824900471bdd00c913de008c
:10509400870373004713dd000402430085824b003d
:1050a400481bdd00c813de00870373004813dd00ce
:1050b4000402430085824b00c811dd000200200079
:1050c4000401410085814900a2828800b3828800de
:1050d4003082fb008002eb000401690085816900d5
:1050e400a2828800b3828800808f5000daff3e00dd
:1050f400a0828000b1828000000006001004e0005d
:1051040026003200a2828000b382800002034100a4
:1051140083834900441add00cc12de00850272004c
:105124004412dd000602420087824a000402410064
:1051340085824900471bdd00c913de008703730025
:105144004713dd000402430085824b00481bdd0049
:10515400c813de00870373004813dd000402430014
:1051640085824b00c811dd000200200004014100cb
:1051740085814900a2828800b38288001082fb00e6
:105184008002eb000401690085816900a282880025
:10519400b38288005004e000daff3a00a082800065
:1051a400b182800000000600008068000000060054
:1051b40000c1b30000000600889fbe008a9fbe00a5
:1051c4000004be000205be004207070008015000ab
:1051d40089815800880f5000898f580002003100df
:1051e40061015100e0815900100020008a0f510034
:1051f4008b8f590001003e000000eb004f05be00fc
:105204004f04be0000000600889fbe008a9fbe00b7
:1052140069032100994478000904e0002100320068
:105224000044eb001b002000caa621000880fb00fc
:105234008058dd00c28180008100610015003200c9
:10524400ea02b900e6004200810045000083eb0059
:105254008083eb0031014300a1814b00040245002f
:105264003202980043029800e00f5100e08f590089
:1052740007003a008400780011019000a101900019
:10528400b2009800c30098001100780000000100eb
:105294008944e9000904e000020032000844e800ff
:1052a400e2ff37004f05be004f04be0000000600b9
:1052b400889fbe008a9fbe000205be0069032100cc
:1052c4009944780080c2eb00efcf540021003e00e7
:1052d400c68180000608a300090032008000eb00ac
:1052e400170020008142e8008100e80001047800f2
:1052f4008139dd000682610013003a0003003700a3
:10530400130020000004eb008042eb00ea44b900e3
:10531400c1a6210008844000880078008018780025
:105324008a88be003a0498004b0498008944e80037
:10533400894078006003210001487800030373006a
:10534400c681880003003700ef8f5000e5ff3a0064
:1053540080c2eb00054078004f05be004f04be003c
:10536400000006008081fb00120020000311dd0014
:10537400c1818000010261000040eb00090032009d
:10538400ea18b900c3a62100808141008009eb001e
:105394003670ed000281ea0001006100c0818800de
:1053a40010c0b3000000060000037800630321006e
:1053b4009341780000c0eb000304e00012003200c7
:1053c400c58180000040eb0014002000c7a6210026
:1053d4008080fb000121dd00050161000500320031
:1053e400ea09b90082804300910f130006003200dd
:1053f4008341e9000304e000020032000040e800b9
:10540400f3ff370000c0eb00000006000202be00fc
:105414008080fb00130020008119dd00c081800022
:10542400830160000040eb0005003200ea08b90087
:10543400e2a62100820040008488be0010c0b300b0
:1054440000000600889fbe008a9fbe008c9fbe009d
:105454008e1f780009822100bd9321000a95210046
:10546400cb052100cc0921000004eb000b077800d8
:105474000000eb00800c780080eeeb00000d78005b
:105484004240dd000e004000e0049800c340dd000f
:10549400c2b02100828d40008c007800d90307003f
:1054a4000804e800f284440072054500e4854500e0
:1054b4008c07b000f00f5400edff3a003830ef00d5
:1054c400c0a62100020a2000000141008000eb0078
:1054d400010878006a004000820f5000fcff3a0087
:1054e4003270ef003370ef003670ef0000012000df
:1054f400d08188003c30ef0067060700780607007b
:10550400eafa0700970307004f0778004f06be002a
:105514004f05be004f04be0000000600889fbe0079
:105524008a9fbe008c9fbe008e1f7800c5ff0700b7
:105534003430ef00be932100c98121008e06e800bb
:105544002c0321001c4678000c04e00011003200fa
:105554008e0578000044eb005b85fb00f250b90037
:105564008080440001007800a10090000100010047
:10557400e34f500004003a00f255b9000a85440094
:105584002a009000fffd07000844e800884f5600f9
:10559400f1ff3e00838180000308a300e8ff32008e
:1055a40022032100124178000280fb0000804600a3
:1055b400e1cfb30090cf10000f003a000240e800a2
:1055c400804f5600070036008080fb008180460033
:1055d40011427800f4f89f000040e800804f560024
:1055e400f9ff3e000c80fb000080460080c0eb0009
:1055f40071f89f000c46e9000204e000020032004a
:105604000241e900e8ff37000c40780032f0b700af
:105614000300a10083818800c9ff3700fe8747008b
:10562400889fbe008a9fbe008c9fbe008e1f78009c
:1056340000047800284090000074a00020449800e2
:105644001800780021082000810f5000d400320097
:10565400e3804000810f5000ed0032000000e000c4
:10566400fe003a0001c8ab00df0032004020800099
:105674007f006000408288004400dd006101b800c2
:1056840001f02d00d1b79f0014002000e4b79f0063
:105694005fb29700efb297000403d0008200d000fd
:1056a400010143004220a80083814a004200a9006e
:1056b4004220ae004200a8000281d3009401800081
:1056c40083007800910188000000000092007800b7
:1056d4009401880000000000c308dd00c508de0056
:1056e40031828800640040006100b80002f02d009f
:1056f400b2b79f00c5b79f003fb29700cfb29700e3
:105704000403d0000001d000020043004220a8009e
:1057140081804a004200a9004220ae004200a80055
:105724000080d300920180008101780093018800f9
:1057340000000000100078009201880000000000c2
:105744006f4060004af0b7003e50e200750032003e
:105754008044eb00cbb821000acc21000a06e80003
:105764006dca21000980fb00c300dd008180450073
:10577400a10090000100e00006003a004301dd00b2
:105784000281e80002814500338280009281610039
:1057940008003a00e18f50005d003a00c300dd00cc
:1057a400818045009100900033828000818f5100f8
:1057b40057003a004300dd000080450030009000af
:1057c400208288008008900091007800a7042100be
:1057d400974378000787fb001102780068015200a4
:1057e400a100900001015100ea004700810f51001f
:1057f40047003900318280004809de00024d7800fc
:10580400014e78000704e000290032004282800043
:105814004411dd0066014100cf11de000201780071
:1058240002f0a10005f02d00f5b79f00160020003e
:1058340086bf9f007fb297008fba97000203d00003
:105844008400d000010143004220a8008581490062
:105854004200a9004220ae004200a8000281d30009
:105864008c0078000742e9000482fb0026cc21006a
:1058740004034300940180009301880000000000a9
:105884009268780094018800000000000202780009
:105894001200b00002026a004260af0002f0a000f1
:1058a4000482d2000380b000868f5000f1ff3a00da
:1058b40011c0b300814e78007803900085ca21009e
:1058c400860a78008580e80087c8e8005a70ef00ef
:1058d4000e87e8008040eb00688242000181fb00f3
:1058e4008201420002014500924978008140e800ab
:1058f4000181fb00820f5700f8ff3e0081417800d0
:10590400a2052100034978008d007800c102070038
:105914008944e800e403210014427800894f5200ce
:1059240090ff3e0040828000c50307002e00370030
:1059340061ca21000800780006030700a0ca2100fc
:105944001042780081e580001182880004c1e900da
:105954004c70ef004b70ef000c0032006700400009
:10596400b3fd2f008f814100634252000482fb008b
:105974008002e80004824200d0697800840f50005d
:10598400fdff3a00b5042100824a780060fd2f0033
:105994000f004000ad03070020082000000c780031
:1059a400284090000028a3000400320040c0b30047
:1059b4002044980030c0b3002c0037003064ab00a2
:1059c40003003a000004a1002044980002003700bc
:1059d4000004a00020449800a84090000040eb0080
:1059e4000108a30021003a00080890001000780084
:1059f400200090000000e000cdff3a002840900015
:105a04000074a1002044980050082000000c780085
:105a1400284090000028a3000400320040c0b300d6
:105a24002044980030c0b300100037000004e000a8
:105a340003003d000004a100204498000200370048
:105a44000004a00020449800a84090000040eb000f
:105a54000108a30003ff32000400370080c0b30034
:105a640020449800000ceb0030c0b3004f077800ce
:105a74004f06be004f05be004f04be00ef01b1004b
:105a840000000600e5032100954278000582fb0032
:105a94004322dd00c6b8210004024300300298000e
:105aa40004007800011878000208780023029800a6
:105ab4008542e80085407800e00321000148780031
:105ac40000000600889fbe008a1f7800e8032100ba
:105ad400184478000804e0002a003200c5b8210008
:105ae4000002eb000445780084047800350390003c
:105af400800f53001f003a00958f10001d003a00dc
:105b040015039000820f53001a003a0025039000f9
:105b1400830f530017003a008881fb008301e900da
:105b2400838f54000e003d00c0b82100c348dd003f
:105b3400810040000901e8004311dd00020140003a
:105b44003202be002203be008498be008690be00ce
:105b54000a45e8008a84fb00898f5100f3ff3c006a
:105b64000844e90008437800e5032100864a7800e8
:105b7400040037000402e800e8824200844f540025
:105b8400d8ff3e004f0578004f04be000000060019
:105b94008001eb00130098002300980002087800ad
:105ba400310098000000060080027800014378006c
:105bb400a501900015017800828f51000b0031007f
:105bc4001502900084814100110009008281d800ef
:105bd40001017800b5019000828141008649780076
:105be400a50090008100e800a102980000000600d2
:105bf4000002780081427800a40190001401900012
:105c04008281410014017800110009008281d800ca
:105c140001017800b4019000028141000549780037
:105c240024019000940f510006003a009400900063
:105c34008100e800110009008280d8001102980058
:105c4400020037000201e80022029800000006006a
:105c54008002780001037800a50190001501780006
:105c6400828f51001a003100150290008481410096
:105c7400110009008281d80001017800b50190006b
:105c84008281410086497800a50190008301e800e3
:105c9400a302980015017800828f51000c00310096
:105ca4001502900084814100110009008281d8000e
:105cb40001017800b501900082814100c830de0006
:105cc40081497800a50090008100e800a1029800b5
:105cd4000000060000037800a60090001602780079
:105ce400848f500038003100960290008580400077
:105cf400110009008480d80036029000810042001f
:105d040082487800a60090008100e80021039800f2
:105d140016027800848f50002b0031009602900008
:105d240085804000110009008480d800360290006c
:105d340081004200c81ade004818dd004812de0067
:105d44000402700084487800a60090008100e800f6
:105d54002103980016027800848f50001a00310045
:105d64009602900085804000110009008480d800cc
:105d74003602900081004200401ade000500200037
:105d840084487800a60090008100e8002103980070
:105d940016027800848f50000b00310096029000a8
:105da40085804000110009008480d80036029000ec
:105db400810042004819de0082487800a600900065
:105dc4008100e8002103980000000600881f780085
:105dd40080037800010478000200e000140032001f
:105de4008001eb00a702900017027800848f520014
:105df4000c00310017039000868242001100090054
:105e04008482d80001027800b702900084824200a4
:105e140003024400944a7800270290000402e80038
:105e2400a40398008301e800830f5100edff3e00b6
:105e34004f047800000006000002780094009000ef
:105e44003401900001014100924178008100e80092
:105e540014017800110009008280d8001102980012
:105e6400a40090008100e90021029800034078001a
:105e740000000600000378003602900096009000af
:105e84000101420092427800160178008100e80086
:105e9400110009008280d80011039800a601900027
:105ea4008301e900230398008582fb00010242007c
:105eb400144278008100e800110009008280d800b3
:105ec400110398008301e900230398004820dd00b2
:105ed4000500400000000600889fbe008a9fbe00a7
:105ee4008c9fbe0000067800bc0690009c019000c8
:105ef40003814600124378001c0178008301e80006
:105f0400110009008281d8008101780013069800ed
:105f14002c0290000402e900240698000683fb008a
:105f24008003eb0083824600154578008301e80076
:105f3400110009008281d8008101780013069800bd
:105f44000402e900240698000a85fb008005eb00a2
:105f5400485cdd00c854de00890474004854dd0048
:105f64000803430089834b0083824600154478006c
:105f74008301e800110009008281d80081017800c2
:105f8400130698000402e900240698008884fb00a4
:105f9400080020000603440087834c0083804600e9
:105fa400914278008301e800110009008281d80041
:105fb40001017800120698000402e9002406980002
:105fc400c829dd0002002000060041008780490046
:105fd4004f06be004f05be004f04be000000060081
:105fe400000378000200e00013003200810378000f
:105ff4008001eb00b6029000160290000482420079
:10600400945b7800960290008502e80016027800fe
:10601400110009008482d80001027800140398005a
:10602400260290000402e900240398008301e8009a
:10603400830f5100efff3e0000000600e700600000
:10604400c808dd00f28f2f000320800003016100e7
:10605400028170000220880001208000c508de0053
:10606400e7806000808f5000fbff3a0000000600cc
:10607400bb030700000006008f02b000881f7800f1
:106084008e1f780000047800284090000074a0005f
:1060940020449800180078000000e000040032005a
:1060a40081062000810f500068003a004d0037003f
:1060b4000100220090708000808060008100e9006f
:1060c400cf08de00e1d79f0000002100120eb600c9
:1060d4000000e9004f00de00f0d79f00c408dd0097
:1060e400f2fe2f00a37280000301610002817000a0
:1060f400a27288004e00dd00f1ff2b00a270800028
:106104008280600081007000a170880000b12200cc
:106114003bfb070080089000910078009101780013
:1061240068815100a100900081005100f38f50005c
:106134001b0036006efd2f000f074700313320008f
:10614400012f7800efd09700214798007fd1970066
:106154003247980011c0b300a1e79f00f8019000f6
:10616400a3b79f0041c0b300e1e79f000fd9970098
:10617400c2ef9f009fd99700d3ef9f002fd99700bc
:10618400e2ef9f00bfd99700f3ef9f0081417800b1
:10619400a205210003497800fe8057009d000700f6
:1061a4005810ec00c0828800813e2000810f50000e
:1061b4000300360010042000fdf107005830ef0002
:1061c400440307003004980041049800a000200014
:1061d400010020005004980061049800800620000b
:1061e400000c7800284090000028a300040032002e
:1061f40040c0b3002044980030c0b30017003700fb
:1062040058019000e801900038009000c800900008
:10621400e9fb07000000e000040032002840900081
:106224000004a10020449800030037002840900097
:106234000004a00020449800a84090000040eb0017
:106244000108a3009aff32000400370080c0b300a5
:1062540020449800000ceb0030c0b3004f077800d6
:106264004f0478008f02b10000000600881f7800f8
:1062740000047800284090000074a0002044980096
:10628400180078000000e00004003200010520003e
:10629400810f50002d003a0012003700a0708000da
:1062a4000080ea004f00de004f00dd00f1ff270010
:1062b400a27080008280600081007000a17088005c
:1062c400040307003004980041049800401f200094
:1062d400010020005004980061049800000520008b
:1062e400000c7800284090000028a300040032002d
:1062f40040c0b3002044980030c0b30017003700fa
:1063040058019000e801900038009000c800900007
:10631400a9fb07000000e0000400320028409000c0
:106324000004a10020449800030037002840900096
:106334000004a00020449800a84090000040eb0016
:106344000108a300d5ff32000400370080c0b30069
:1063540020449800000ceb0030c0b3004f047800d8
:1063640000000600e0862900faf90700fb00070098
:106374000000eb0031ff0700508ea900568ea900e3
:106384005a8ea9005c8ea9001fcea90011cea900c7
:106394001bcea9001dcea9001feea90011eea90075
:1063a4001beea9001deea9001faea90011aea800a6
:1063b4001baea9001daea9001baea800b0032000af
:1063c400010020002aff07001f8ea900118ea800db
:1063d4001b8ea9001d8ea9001b8ea800b0032000ef
:1063e4000100200022ff07008013230002fa0700a7
:1063f40000b1220000fa0700e0032300fef90700c1
:10640400000006008207200010007800e0fd07006d
:1064140000000600889fbe008a1f78008004780070
:1064240001047800484090006f40600018417800f3
:10643400410020008110dd008140400009089000e7
:1064440010007800d8fd070098009000090890001b
:1064540010007800fefd07009e0207000001be0048
:1064640089089000110078001afe07001880fb00cc
:106474000008a3000f003200484090000004e00030
:10648400310032000045eb008a80fb0081004400ab
:1064940009089000a148900010007800c2fd070090
:1064a4000a45e800484090008a4f5000f6ff3e003d
:1064b400250037000018a300110032004840900066
:1064c4000004e000200032000045eb000a80fb00dd
:1064d400650040000000400080004400090890006e
:1064e4009100780010007800d9fd07000a45e80003
:1064f400484090008a4f5000f4ff3e0012003700dd
:106504000028a30010003200484090000004e0007e
:106514000d0032000045eb008a80fb00c208dd005c
:10652400810044000908900051019000e1019000ad
:1065340010007800e7fd07000a45e8004840900095
:106544008a4f5000f4ff3e004f0578004f04be0010
:1065540000000600889fbe008a1f7800800478002f
:1065640001047800090890001000780032fe07004a
:106574008080fb00c408de00014c78006f4060009e
:1065840040449800090890001000780039fe070084
:106594001004980009089000100078004efe0700cf
:1065a40030049800410498001880fb000008a30000
:1065b4000f003200484090000004e0003200320036
:1065c4000045eb0009089000100078001afe07004f
:1065d4008a80fb0081004400a04898000a45e80036
:1065e400484090008a4f5000f6ff3e0026003700d6
:1065f4000018a30011003200484090000004e0009d
:10660400210032000045eb000908900010007800da
:1066140018fe07008a80fb00e5804000818040006e
:1066240081004400800878000a45e8004840900052
:106634008a4f5000f4ff3e00130037000028a300e7
:1066440011003200484090000004e0000e003200c7
:106654000045eb0009089000100078001efe0700ba
:106664000001be008a80fb00c208dd0081004400f6
:10667400d2009800e30098000a45e80048409000e2
:106684008a4f5000f3ff3e001880fb000038a3003f
:106694000700320018009000f1f907000000e00044
:1066a40003003200a04090000154a1002140980052
:1066b4004f0578004f04be0000000600e7006000ac
:1066c400c808dd00f28f2f00032080000301610061
:1066d400028170000220880001208000c508de00cd
:1066e400e7806000808f5000fbff3a000000060046
:1066f400f02bef000088a900204420006058880097
:10670400600420001058880000f02d0020588800f4
:1067140030588800700020007058880000022a0059
:10672400005888000000060001c8a90000442000a9
:10673400e0588800200220009058880000f02d00c6
:10674400a0588800b058880070002000f0588800d5
:10675400000228008058880000000600889fbe00c0
:106764008a9fbe0040002000d4ff0700c1f3070049
:10677400100c200080208800a05d24009020880058
:1067840010002400302088008042eb00f4c0b300e5
:1067940085407800027a200003002000054078003c
:1067a40099f407000042eb00844078006011b800bf
:1067b40004407800d2f40700d4f3070019c0b300f2
:1067c4000004eb003ac0b3008045eb000200370040
:1067d4000804e8008944e800084078000804e00060
:1067e40005003a000a41780011c0b3000b4078005c
:1067f400cbf30700f6ff37000a4178008b4078009e
:10680400c7f30700e7cf5400f1ff3600b8ff0700d5
:10681400c5ff070000fc2f009406b600e000b3009b
:10682400a034880000f82f00d406b6005006b30048
:10683400a03688004f05be004f04be0000000600cd
:1068440092f30700b1f3070000000600881f7800e8
:106854008a9fbe0000047800010278006140b800fd
:10686400824178000401780039f207000000eb004f
:1068740015003700cf01de000001780002f0a1000e
:106884000af02d001b0020008a00d0000202d00074
:10689400048140004220a80083814d004200a900e9
:1068a4004220ae004200a8000281d300000244004e
:1068b400a101800083027800a501880014497800b2
:1068c400a10188000000e800f00f5000e9ff390042
:1068d4000040eb0000f407004f05be004f047800b1
:1068e400000006000001be002062a90020722b00f7
:1068f400113920001ef00700c409de004c0add0037
:106904004401de000201720061015100e08159007e
:10691400421188000000060063006000000040008f
:1069240091ff2f00021180008280600081007000be
:1069340001118800000006000040e90061006000c9
:10694400e1ff2f000211800082806000810070004e
:106954000111880000000600f0cf2f002022b600ad
:1069640021e2a8002342a800000006002188a80014
:10697400000006002188a90000000600809fbe00d8
:10698400000021009000900020009000808f5000b3
:1069940002003a002188a9000c0037000430ec0002
:1069a400000420000410e30001003a000430ef006a
:1069b4000188a900000021009000780020009000c8
:1069c400008040001080fb00201188004f00be00b2
:1069d40000400600809fbe00821f78000168a90065
:1069e400311180000a30ec00000420000a10e3009a
:1069f40001003a000a30ef00800021001001780005
:106a04001000900000004100014878004f01780018
:106a14004f00be00004006001f4ea900114ea80002
:106a24001b4ea9001d4ea90002f82f00233680003a
:106a340003016100a202b30022368800500ea900af
:106a4400560ea9005a0ea9005c0ea90002fc2f00e4
:106a540073348000030161000200a00072348800d6
:106a6400a0ff07000040eb00abff070010c0b3001d
:106a7400b1ff07000168a9002042800000c0a00007
:106a840000d0a10000e0a000204288002168a800f6
:106a94002042800000c0a00000d0a10000e0a000bf
:106aa40020428800acff07000000060000402800d8
:106ab40031002000d8ff07000000060000c4b30026
:106ac4000000060000c4b3000000060010c0b300bc
:106ad40000000600000006000200fa00ff3ffc0070
:106ae400113a8000f1bf9f00670160004811dd008a
:106af400f18f2f00ffb99700818061008100710040
:106b04000100a000f1bf9f00fff997008381fb0003
:106b1400a20920008107200034742000014a780073
:106b2400024a7800034a7800eff897008181fb005d
:106b3400720520006104200024742000014a7800ba
:106b4400024a7800034a78000000fc004207ab00c8
:106b5400feff3a00e14f500002003200e34f5000c4
:106b640004003a0001022000133a8000038160000f
:106b7400fdff32008080fb00103a80004c00de00f4
:106b840067006000810f5000fbff3a000080fa00ac
:106b940000000600000006000040eb00ceff0700e6
:106ba40000fc2f004827b600000006000040eb0060
:106bb400c9ff070000fc2f004827b60000fe2f0085
:106bc4004407b6007000b300203a880000e02f00ac
:106bd4004607b600100cb300303a8800f0f32f00db
:106be4004427b60010c0b300bbff07000000060036
:106bf4000040eb00b8ff070000fc2f004827b60058
:106c040000fe2f004427b60000e02f004607b60020
:106c1400f003b300303a8800f0f32f004427b600a5
:106c240010c0b300acff0700000006000040eb00fa
:106c3400a9ff070000fc2f004827b60000fe2f0024
:106c44004427b60000e02f004607b600a004b300b6
:106c5400303a8800f0f32f004427b60010c0b30088
:106c64009dff0700000006000040eb009aff0700ac
:106c740000fe2f004427b60000e02f004607b600b0
:106c84006002b300303a8800f0f32f004427b600c6
:106c940030c0b30090ff07000000060020c0b3001e
:086ca4008dff0700000006004f
:020000040000fa
:106cac005810000002000000800000005c10000082
:106cbc00300b0000800000005410000004000000a5
:106ccc0082000000c59d1c00810000002e100000f9
:106cdc001000000080000000ca1c0000ba00000078
:106cec0080000000001000002e000000800000005a
:106cfc005a10000002000000800000008c1b0000f5
:106d0c003e010000800000003e100000100000005a
:106d1c008000000000df0000800000008000000008
:106d2c004e1000000600000080000000841d0000d2
:106d3c0088000000820000000100000000aa1d0075
:106d4c00ab1daa001daa1d00aa1daa001d9a1d009c
:106d5c000000000000000000000000000000000027
:106d6c00000000000000000000000000000208000d
:106d7c000101d2001dd31d00d21dd2001dd21d0059
:106d8c00d21dc2001d000000000000000000000029
:106d9c0000000000000000000000000000000000e7
:106dac000000020008020200fa1dfb001dfa1d0083
:106dbc00fa1dfa001dfa1d00ea1d0000000000007b
:106dcc0000000000000000000000000000000000b7
:106ddc000000000000000000841dac001dd41d004c
:106dec000000000000000000000000000000000097
:106dfc00141e000002000000800000000c1e0000a9
:106e0c0004000000820000000600000000000000ea
:106e1c00101e00000400000080000000161e000080
:106e2c00020000008200000001000000181e00009b
:0c6e3c000200000080000000ce37800043
:020000040000fa
:106e48006aff0700000006003600f800809fbe00b9
:106e5800829fbe00849fbe00869fbe007082800015
:106e68008182800061004000e080480070828800d4
:106e7800818288000068a900e2f807004f03be007d
:106e88004f02be004f01be004f00be003600f900a1
:106e980000400600eaff07000002200020088800e2
:106ea800703a2000100888000021ef000068a9004f
:106eb8000042800000c0a00000d0a00000e0a000b8
:106ec800004288002068a80005e1a800000006002c
:106ed80070828000818280000000060005428000e8
:106ee800cc2ade00e7c26200244280004c22de0089
:106ef8006742620033428000e7c161004286200099
:106f0800008420008000eb0001187800820f5000f8
:106f1800fdff3a00cc28dd00f0ff28000542800084
:106f2800050160000281700002428800cc20dd006b
:106f38004408b60000807000204288006780610025
:106f480081ff2f0032428000828060008100700043
:0c6f580031428800000006000000060026
:020000040000fa
:106f6400f03fb1000180b10006003500ee030900d6
:106f740000000000403fb1000180b100fbff3d0074
:106f84001000b000203fb00002003500008009006e
:086f94000000000000000600ef
:020000040000fa
:046f9c0000000000f1
:00000001FF
