:020000040000fa
:080000000013040000000000e1
:020000040000fa
:1000080002100000061000000a1000000e10000088
:1000180012100000161000001a1000001e10000038
:1000280022100000261000002a1000002e100000e8
:1000380032100000361000003a1000003e10000098
:1000480042100000461000004a1000004e10000048
:1000580052100000561000005a1000005e100000f8
:1000680062100000661000006a1000006e100000a8
:1000780072100000761000007a1000007e10000058
:1000880082100000861000008a1000008e10000008
:1000980092100000961000009a1000009e100000b8
:1000a800a2100000a6100000aa100000ae10000068
:1000b800b2100000b6100000ba100000be10000018
:1000c800c2100000c6100000ca100000ce100000c8
:1000d800d2100000d6100000da100000de10000078
:1000e800e2100000e6100000ea100000ee10000028
:1000f800f2100000f6100000fa100000fe100000d8
:1001080002110000061100000a1100000e11000083
:1001180012110000161100001a1100001e11000033
:1001280022110000261100002a1100002e110000e3
:1001380032110000361100003a1100003e11000093
:1001480042110000461100004a1100004e11000043
:1001580052110000561100005a1100005e110000f3
:1001680062110000661100006a1100006e110000a3
:1001780072110000761100007a1100007e11000053
:1001880082110000861100008a1100008e11000003
:1001980092110000961100009a1100009e110000b3
:1001a800a2110000a6110000aa110000ae11000063
:1001b800b2110000b6110000ba110000be11000013
:1001c800c2110000c6110000ca110000ce110000c3
:1001d800d2110000d6110000da110000de11000073
:1001e800e2110000e6110000ea110000ee11000023
:1001f800f2110000f6110000fa110000fe110000d3
:1002080002120000061200000a1200000e1200007e
:1002180012120000161200001a1200001e1200002e
:1002280022120000261200002a1200002e120000de
:1002380032120000361200003a1200003e1200008e
:1002480042120000461200004a1200004e1200003e
:1002580052120000561200005a1200005e120000ee
:020000040000fa
:1020000002000000f813040000000000f8130400b0
:1020100000000000f813040000000000f8130400a2
:1020200000000000f813040000000000f813040092
:1020300000000000f813040000000000f813040082
:1020400000000000f813040000000000f813040072
:1020500000000000f8130400000000002843040002
:1020600000000000f813040000000000f813040052
:1020700000000000f813040000000000f813040042
:1020800000000000f813040000000000f813040032
:1020900000000000f813040000000000ba41040032
:1020a000000000008e41040000000000f81304004e
:1020b00000000000f813040000000000f813040002
:1020c00000000000f813040000000000f8130400f2
:1020d00000000000f813040000000000f8130400e2
:1020e00000000000f813040000000000f8130400d2
:1020f00000000000f813040000000000f8130400c2
:1021000000000000f813040000000000f8130400b1
:1021100000000000f813040000000000f8130400a1
:1021200000000000f813040000000000f813040091
:1021300000000000f813040000000000f813040081
:1021400000000000f813040000000000f813040071
:1021500000000000f813040000000000f813040061
:1021600000000000f813040000000000f813040051
:1021700000000000f813040000000000f813040041
:1021800000000000f813040000000000f813040031
:1021900000000000f813040000000000f813040021
:1021a00000000000f813040000000000f813040011
:1021b00000000000f813040000000000f813040001
:1021c00000000000f813040000000000f8130400f1
:1021d00000000000f813040000000000f8130400e1
:1021e00000000000f813040000000000f8130400d1
:1021f00000000000f813040000000000f8130400c1
:1022000000000000f813040000000000f8130400b0
:1022100000000000f813040000000000f8130400a0
:1022200000000000f813040000000000f813040090
:1022300000000000f813040000000000f813040080
:1022400000000000f813040000000000f813040070
:1022500000000000f813040000000000f813040060
:1022600000000000f813040000000000f813040050
:1022700000000000f813040000000000f813040040
:1022800000000000f813040000000000f813040030
:1022900000000000f813040000000000f813040020
:1022a00000000000f813040000000000f813040010
:1022b00000000000f813040000000000f813040000
:1022c00000000000f813040000000000f8130400f0
:1022d00000000000f813040000000000f8130400e0
:1022e00000000000f813040000000000f8130400d0
:1022f00000000000f813040000000000f8130400c0
:1023000000000000f813040000000000f8130400af
:1023100000000000f813040000000000f81304009f
:1023200000000000f813040000000000f81304008f
:1023300000000000f813040000000000f81304007f
:1023400000000000f813040000000000f81304006f
:1023500000000000f813040000000000f81304005f
:1023600000000000f813040000000000f81304004f
:1023700000000000f813040000000000f81304003f
:1023800000000000f813040000000000f81304002f
:1023900000000000f813040000000000f81304001f
:1023a00000000000f813040000000000f81304000f
:1023b00000000000f813040000000000f8130400ff
:1023c00000000000f813040000000000f8130400ef
:1023d00000000000f813040000000000f8130400df
:1023e00000000000f813040000000000f8130400cf
:1023f00000000000f813040000000000f8130400bf
:1024000000000000f813040000000000f8130400ae
:1024100000000000f813040000000000f81304009e
:1024200000000000f813040000000000f81304008e
:1024300000000000f813040000000000f81304007e
:1024400000000000f813040000000000f81304006e
:1024500000000000f813040000000000f81304005e
:1024600000000000f813040000000000f81304004e
:1024700000000000f813040000000000f81304003e
:1024800000000000f813040000000000f81304002e
:1024900000000000f813040000000000f81304001e
:1024a00000000000f813040000000000f81304000e
:1024b00000000000f813040000000000f8130400fe
:0424c0000000000018
:020000040000fa
:102600000fed21000eff27000e01880000000000e2
:10261000000020000000e000020032000001200065
:10262000200288000c0007000004240001002000a4
:102630000f000700000020000000e0000200320050
:1026400000000200000000008e35020000000000c3
:102650000040da000000fe00a00f20000000e000b3
:1026600002003200002020009001880000000600d7
:10267000a1028800800078000000eb001a003700fb
:10268000e280400054a0b4009101ba00e280400012
:1026900054a0b4009102ba00e280400054a0b400fb
:1026a0000002eb00472bde00f507b200a601880010
:1026b000602ce10008003a000049eb000201e8004c
:1026c000020039003420ec0002f0a0008301e90090
:1026d000f9ff3e00040037006128e10001003200ec
:1026e0000082eb000b00070011c3ba001101ba0011
:1026f0000604e00003003a000200e000e0ff3a00b8
:1027000000000600f607b200a602880082007800ea
:10271000f5ff370004d0a300e20f49001c00390088
:10272000810278003549ba000201e8000200390050
:102730003420ec0002f0a0008301e9000f00320019
:102740002549ba000201e800020039003420ec00fb
:1027500002f0a0008301e900080032000400e0005c
:102760000600320015c9ba000201e8000200390073
:102770003420ec0002f0a0008301e9008180e80031
:1027800054a0b4000300e000e2ff3a00000006009d
:102790009102ba00055978008301e900f7ff320081
:1027a000c82ade00055978008301e900f3ff3200f2
:1027b0000400e000f1ff320011d9ba00eeff37004b
:1027c000ae3a0400000000000e36040000000000d5
:1027d000e638040000000000ec14040000000000d3
:1027e0008a1e040000000000000004000000000039
:1027f0000040da000000fe000a00fa00110020008c
:10280000b1bf9f00c0bf9f006a805700330607001a
:102810004fb897000080fa00000006000a00fa0096
:10282000e20f500020003e0040f38000e10f500016
:1028300006003200802320004523200023232000af
:10284000042320000000e00004003a008022200061
:102850004522200023222000042220000600280018
:102860001403630003003a00060878000000280003
:10287000140a700013a8a30001003a0013a0a000de
:1028800002007800050037001388a300feff320025
:102890003102fb00840a78000000e9000000e0003b
:1028a000f9ff3a000800370033002000b3bf9f0053
:1028b000c0bf9f00d1bf9f00e2bf9f006a8057004a
:1028c000080607006fb99700020078000080fa0040
:1028d000000006000a00fa0051002000b1bf9f006e
:1028e000c0bf9f006a805700000607005fb89700ce
:1028f0000080fa0000000600889fbe008004780077
:1029000050f380000000e00004003a000e000700d1
:102910000084eb000000e0000800350058f3800060
:102920000900e0000500320009004400060007002d
:102930000000e00001003d000084eb00080078008a
:102940004f04be0000000600800078000100e00097
:1029500003003a00c0e6210050f3880000000500a3
:102960000080eb0002ed2100828f500002003e004b
:1029700051f388000000eb00000006006022b80060
:10298000060220000000d0008180d2000482d20024
:102990008582d2000000a0000202520083825a0009
:1029a000030031000202420083824a000000a100bd
:1029b0000603e900f3ff3a000000060080017800fa
:1029c00002003700b15978000201e9000200e0007e
:1029d000fcff3a0000000600889fbe00000478005b
:1029e00001007800820478008801780009017800ed
:1029f00011002000ce010700890f500001003200b5
:102a00000004eb00080078004f04be000000060040
:102a10000000fa00e88157004fb99700a1da2100c1
:102a2000c04e2100020007000080fa0000000600ee
:102a30006200fa00889fbe008a1f780000057800b7
:102a400081047800020478008300780080f92f0068
:102a50000f0040005a0407009a979f00a9979f0013
:102a60000000eb00b09f9f001885fb008a04fb006c
:102a70000a05ea004f55de0050022000808f540006
:102a80000d003200e10f55000b003a000a017800fa
:102a9000880078002f9097009f9197000300010015
:102aa000a0979f000000e0008e0032003f98970042
:102ab0000000e800b09f9f000a044400500220007c
:102ac000808f5400040032000900e000e6ff3a0065
:102ad0003f989700840037000000eb00909f9f0014
:102ae000809f9f00f0979f00e0979f00d0979f00e6
:102af000c0979f0007003700a1e5210001005000aa
:102b000000004000e1e42100808040005f989700d1
:102b100011007000d09f9f0088047800090478009d
:102b2000384578008a00fb00a0e52100de0107009f
:102b30000000e000f0ff3a00a1c2b300814f550051
:102b40000e003a00cf8897000180e900c08f9f00f7
:102b500010007800c09f9f000000e00005003d00cd
:102b60000000ea00c09f9f005f9897000020a0002f
:102b7000d09f9f000904e8000f003700c09f9f000e
:102b80000000eb0005003700f2ff2700820f500025
:102b900002003200ea00b900008040000904780019
:102ba00088047800b900fb000103b100e98f5000f0
:102bb000f5ff3600c09f9f00e0c2b300984f1000a1
:102bc000020032000080eb0019003700a0c2b30001
:102bd000d84f100007003a00cf8897000180e90025
:102be000c08f9f0010007800a09f9f000804e8009d
:102bf000100037000000eb00a09f9f0088007800c5
:102c000005003700f3ff2700830f50000200320059
:102c1000ea00b90000004100010478008800780053
:102c20003101fb000203b100e90f5100f5ff36004e
:102c3000a09f9f00984478008900fb0060e4210079
:102c4000990107000000e000020032000804e800db
:102c5000010037008044eb00c97f9f0080c6b300ad
:102c600080cf540004003a0098cf14000a003a00c4
:102c70006640500006003700c0c6b30080cf540045
:102c800005003a0098cf140003003a006540400068
:102c9000c07f9f000804e8001801fb00e3fb2f0041
:102ca0008f81410081f92f008f804000a0f92f0013
:102cb0000f004000100007000000e00009003a008b
:102cc000e1fb2f008f804000a0f92f000f00400093
:102cd000ff0207000000e000020035000804e800e1
:102ce00061ff37000080eb004f0578004f04be0005
:102cf0000080fa0000000600881f7800e4c6b300d8
:102d0000844f5100bc00320010003c006b42520066
:102d1000844f51001800320005003c0054c2b3003b
:102d2000844f5100f400320084c5b3000f00370017
:102d300044c6b300844f5100150032006542420082
:102d4000844f5100ef003a001100370004c7b30070
:102d5000844f5100db0032005700350065424200cd
:102d6000844f51005400320063424200844f5100ae
:102d7000e4003a00500037001181e9008208780031
:102d8000f00090008181410092497800e300370013
:102d900020629000c5c6b300854f520007003a007c
:102da0009102780064825200840878001402be0008
:102db0004fabde00860378001100370015c7b30063
:102dc000854f520003003200a5c6b300854f520064
:102dd00006003a0091027800688252008408780068
:102de0005403be004402be00050037001182e90012
:102df0008408780014027800cfa2de00612bb900ad
:102e00000498be000690be00a060900088c6b30083
:102e100088cf50000d00320028c6b30088cf500084
:102e200004003a000402fb00cfa2de00612bb900cf
:102e30000800370048c7b30088cf500003003200b5
:102e40006644440088cf500004003a00cfa2de0060
:102e5000612bb9000498be000690be003002be008f
:102e60002003be00f0009000e00f5200e08f5a00f7
:102e7000e00f5b00e08f5b0003003d00018241003a
:102e8000d5c2b3000a003700001290000418a30056
:102e90000300320001824100b5c2b30004003700d4
:102ea0000408a3004f0032000182410005c2b300b4
:102eb000054a78004900370020629000c5c6b3007b
:102ec000854f520006003a00910278006482520059
:102ed000840878001402be006033b8001100370087
:102ee00015c7b300854f520003003200a5c6b300da
:102ef000854f520006003a00910278006882520025
:102f0000840878005403be004402be000500370068
:102f10001182e90084087800140278008002eb0036
:102f20006033b8000498be000690be00a060900018
:102f300088c6b30088cf50000d00320028c6b30009
:102f400088cf500004003a000482fb008002eb00ae
:102f50006033b8000800370048c7b30088cf50007e
:102f6000030032006644440088cf500004003a0059
:102f70008002eb006033b8000498be000690be00eb
:102f8000801090000138a300160032003002be000d
:102f90002003be00e00f5200e08f5a00e00f5b00fc
:102fa000e08f5b000f00320081c7b300814f5100fa
:102fb0000300320081c5b300814f510009003a007f
:102fc000f00090000182410005c3b300054a78007b
:102fd0008100e80001824100024a78008100e80097
:102fe00071009800f000900081814100630098001a
:102ff000824078003e003700a0619000c4c6b30054
:103000001181e90084cf5100220032000a003c0007
:103010006442520084cf51002500320004c2e8000f
:1030200084cf5100130032006842520084cf510017
:103030001e003a000a00370044c7b30084cf510095
:103040001b0032006642420084cf5100180032005b
:103050006942520084cf510014003a000500370045
:1030600082087800920078004058900080487800ec
:103070002c0037008208780092007800600a9000e7
:10308000cfa2de00612bb9008498be008690be00fe
:1030900024003700820878009200780060099000d0
:1030a000cf91de008288be001e0037001181e9004a
:1030b000820878009200780060089000800878000c
:1030c000180037001181e9008208780012027800a8
:1030d000cfa2de00612bb9000498be000690be00ae
:1030e000f0009000818141006300980081c7b30027
:1030f000c00007000b003700f00090008181410004
:1031000005003700f0009000818141000204e000da
:1031100001003a0052c2b300824978008100e80001
:10312000710098000000eb004f04780000000600da
:10313000889fbe008a9fbe008c9fbe008e1f7800b5
:10314000000678000104780002007800830478000b
:103150008881b900020778000e00e00042003200ca
:103160000800e000410032008e057800c9009000a0
:1031700069009000808f5000040039000900780039
:10318000550007000000e000290035000040200045
:10319000190060000a0032000b017800a100200035
:1031a0000c00780036000700800678000d00e00073
:1031b00006003200610516000a854600040037004b
:1031c0000b0578008006eb00010037000b05780046
:1031d00049009000e9009000808050008a8f5000e4
:1031e00002003100010578008006eb000a0178003a
:1031f0008c007800f1fd07008a8555004900900099
:103200000a004000c00498000d00e00004003200f5
:1032100009007800d00207000000e00004003a0036
:103220000b00e000020032000a064600cfff370024
:1032300000802000190060000200320009007800c0
:10324000c502070000c02000190060000200320023
:1032500049009000e00498008b0557001100090018
:103260008885d800010037000000eb004f07780088
:103270004f06be004f05be004f04be000000060012
:1032800003003700b0cf1000050032000201e90052
:10329000800178000200e000faff3a00000005001b
:1032a0000300780000000600020037000304e0007d
:1032b000060032000001780002007800b04178007a
:1032c00081cf5100f9ff3a00010037000001eb0007
:1032d0000200780000000600889fbe008a1f780068
:1032e00000047800c8009000680190000000eb0026
:1032f000828f50003c00390018007800220029001d
:1033000002016000e20f510007003200012024009a
:103310000000e00001003d0001202000008c700052
:103320000080eb0030003700020026000200600041
:10333000820f500009003a0038009000808f500042
:10334000060039000800780083020700800078003a
:103350000080eb000100e00023003a00180578002f
:1033600000c020000000650018003a00a80490008a
:103370006002200008004000808f540013003a00d3
:103380000020200021030700200498000000e00036
:1033900005003a0029049800490498008904e800cf
:1033a00039049800080037000a60a0000a0c780071
:1033b00040049800012020008080400031049800e3
:1033c000400c9800500c9800010207002800900063
:1033d0005004980038009000600498000000260017
:1033e000180c70000000eb004f0578004f04be0081
:1033f00000000600fc874700889fbe008a9fbe0031
:103400008c9fbe008e1f78000006780080c5b30038
:1034100080cf50000a0032007740400080cf50003b
:103420000a0032006940400080cf50000b0032009b
:10343000b0e1210080bf9f00ae0020000a003700ed
:10344000a2e0210082bf9f0006003700b3e1210007
:1034500083bf9f008e00200003003700b4e12100ed
:1034600084bf9f000e0120003c02be002c03be0062
:103470000605be000404be0040c6b30080cf500065
:10348000030032006540400080cf50000b003a003e
:10349000e00f5200e08f5a00e00f5b00e08f5b000e
:1034a00006003d006000b8006011b8000404500040
:1034b000858458000605590087855900e80f570094
:1034c0000400320040002000f00f57003a003a009c
:1034d0000100370030002000e00f5400e08f5c0056
:1034e000e00f5d00e08f5d0004003a00dc08900012
:1034f0008d0120000100e000070032008e00e9008d
:10350000888060008fba97008180420091407800e7
:10351000f1ef9f007d012000800078008100e9002c
:10352000050033008b05d1000a85d3008984d300c0
:103530000884d300f9ff3700089ebe000a96be003b
:10354000130037008d06e9008e00e90084806000da
:103550000fb99700810041001141780083fd2f00d1
:103560008d81410082f77900800178008301e900b4
:10357000050033008783d1000683d3008582d30002
:103580000482d300f9ff3700049ebe000696be00f9
:103590003c02be002c03be00e00f5200e08f5a0038
:1035a000e00f5b00e08f5b00910034000d00e00055
:1035b000e4ff3c008e0037002c60900081c6b30011
:1035c000814f50000b00320006003c000004e00078
:1035d00008003200e6c05000814f500052003a000f
:1035e00004003700c1c6b300814f50004e003a00be
:1035f000230037000800e00004003a005c08900057
:103600008d0120000000e0000700320011000900d9
:103610000e84d8000fba97000100420010407800d5
:10362000f0ef9f007d012000110009000e84d800fa
:103630000b003700110009000e04d8008d06e900c8
:103640008e81b900020454008fb8970008844000ae
:103650009841780082fd2f000d01410083777900a9
:10366000000478000800e000020032000d00e000d5
:10367000f0ff3c00cfc4de00614db90027003700e9
:10368000e00f5400e08f5c0004003a005c089000fa
:103690008d0120000000e000080032006171b900d7
:1036a0000800be00a20207000fba97008000420087
:1036b00091407800f1ef9f007d0120006171b90019
:1036c0000800be00adfc07000c0037006171b900b6
:1036d0000800be00870207008d06e90080f1b900ee
:1036e000020454008fba9700088442009841780081
:1036f00082fd2f000d014100837779000004be0098
:10370000e00f5000e08f5800020032000d00e00092
:10371000eeff3c004fcdde008a057800089ebe001b
:103720000a96be0032003700e00f5400e08f5c00c4
:10373000e00f5d00e08f5d0004003a005c0890003f
:103740008d0120000000e0000a0032006172b90023
:10375000612bb9000800be000a01be001d0307006e
:103760000fba97008000420091407800f1ef9f006f
:103770007d0120006172b900612bb9000800be0014
:103780000a01be000c0307000e0037006172b90089
:10379000612bb9000800be000a01be00110307003a
:1037a0008d06e90080f2b900040454008fba970036
:1037b000088442009842780084fd2f000d024200e8
:1037c00085777a00009ebe000296be003c04be00d3
:1037d0002c05be00e00f5400e08f5c00e00f5d00a0
:1037e000e08f5d00020034000d00e000e7ff3c00c8
:1037f000e80f570010003a000c1090000038a300aa
:103800000d003200f78f560006003e0080fd2f00ad
:103810000d004000ef40780000c3b30080cf50009f
:103820000500320002c3b30071fd2f008d804000ff
:103830008d06e90082f7780078811600120e980054
:103840006c00900083fd2f008f8141008d8041002e
:103850005afc07001c089000dc089000810f500003
:1038600006003d0000805000000e98000c109000f3
:103870000040a100001698000f0037000100e00092
:103880000d003d008c109000f4806000f08f50001f
:1038900009003a007c099000fc0090008100510072
:1038a0000c09900082805000008050004240a90026
:1038b00001003400000e98004f0778004f06be004c
:1038c0004f05be004f04be00cf01b100000006004e
:1038d0000400fa00889fbe008a9fbe008c1f7800fb
:1038e0000004780001067800f80d90007800900040
:1038f00080855500080890008085550018089000c4
:103900008085550028089000808555003808900073
:1039100080855500480890008085550000022200ef
:1039200090bf9f0000032300a0bf9f0008109000dd
:103930000028a30015003a000b00e000130034003b
:103940000b0578008a047800e20f5500010036006c
:1039500029002000c801900009017800ee8057007e
:103960005800900003000100500498000000e0009f
:103970008c0032006808900009004000600c98003c
:10398000090555004240a900eeff3c007801900077
:103990000200e0000c003400c80190008c007800a8
:1039a0005800900003000100500498008080eb0054
:1039b0000000e0007c003200e808900078009000f1
:1039c00000804000600c9800880c90000900e00026
:1039d0001100340009057800e28f54000100360020
:1039e0002a002000c80190000a017800ec805700ee
:1039f0005800900003000100500498000000e0000f
:103a000068003200680890000a004000600c9800ce
:103a10008a845400edff3700180990000200e0008e
:103a20000c003400c8019000e8009000580090009d
:103a300003000100500498008080eb000000e000cb
:103a400059003200e80890001808900000804000fb
:103a5000600c9800a80c90000900e00011003400f0
:103a600009057800e28f5400010036002a0020008a
:103a7000c80190000a017800ec80570058009000bf
:103a800003000100500498000000e00045003200ef
:103a9000680890000a004000600c98008a84540076
:103aa000edff3700380990000200e0000e003400fe
:103ab000e80090001808900080804000c801900045
:103ac0005800900003000100500498008080eb0033
:103ad0000000e00034003200e80890003808900050
:103ae00000804000600c9800c80c90000900e000c5
:103af0001100340009057800e28f540001003600ff
:103b00002a002000c80190000a017800ec805700cc
:103b10005800900003000100500498000000e000ed
:103b200020003200680890000a004000600c9800f5
:103b30008a845400edff3700081090008000eb00ed
:103b40000028a300180032000b00e000160034002b
:103b50008b04780009057800e28f540001003600dc
:103b60002a002000c80190000a017800ee8057006a
:103b70005800900003000100500498000000e0008d
:103b800008003200680890000a004000600c9800ad
:103b90008a8454004240a900eeff3c008000eb0004
:103ba000010037008080eb00010078004f067800ac
:103bb0004f05be004f04be000080fa000000060062
:103bc0000108780000000600a0e821009d003700f1
:103bd000881f780048e621001804e00003003a003e
:103be000f9ff070020c0b300004c78004f047800b4
:103bf00000000600889fbe000004780008007800de
:103c000055000700800478000004200018006000c0
:103c10000200320028009000970007000000eb002f
:103c200020049800384090000004e00005003500b2
:103c30000000fb00f0fa07000000e0000100320085
:103c40008084eb00181090000000e00008003200b3
:103c500020fb07000000e000010032008084eb0040
:103c600018109000840007000000eb00101498006a
:103c70000008200018006000150032000001eb0071
:103c80006000b8000202d000a3df2100030242005e
:103c9000940f140005003a000000400081804800a5
:103ca000008041000008eb00060037006100400082
:103cb000e08048000201e800e80f5000e08f580063
:103cc000f0ff3a00080078006b0007000e00370094
:103cd000000c780000c0eb00304498006002200027
:103ce0000800400020049800400498005004980008
:103cf000400c980060049800500c980070049800e4
:103d000076004400000c9800090078004f04be00c3
:103d100000000600881f78000004eb006140b80036
:103d2000e2ff2f00f3ff2f000401070082e02100d3
:103d300080004100110078000000e0000100320026
:103d4000acff07000804e800e80f5400f3ff3a0056
:103d50004f04780000000600889fbe000004780031
:103d60000800e0000f003a008004eb008800d0005b
:103d7000a0df210000804000100078000000e0007b
:103d800004003200f4ff07000000e00001003d00e5
:103d90008084eb000804e800e80f5400f3ff3a00c9
:103da0002500370000002200180060008004eb00ae
:103db00021003200a80490000f00370009015100d3
:103dc000384090000000fb008900780093fa07005b
:103dd0000000e00007003c0028009000400498002c
:103de00060049800500c98001890a0008084eb00ac
:103df000110037008084440048019000828f5400f5
:103e0000eeff3900280090004004980098007800e8
:103e100002c020000281600001003a0038009000da
:103e200001e8a3000200320060049800010037009e
:103e3000500c98008004eb00090078004f04be008d
:103e400000000600010020000100e000090032002f
:103e5000010080000100e000060032008100e9005e
:103e6000010088008100d0000200800082804000b4
:103e700080087800000006000000e0002f003200fb
:103e8000c0017800e38f51002c0036000308a30026
:103e90002a003a0011f380000100e0000200320025
:103ea000810f5000040031001100980010f38800c9
:103eb0001600370082007800110190000200e00037
:103ec00002003200800f5100faff39001102780021
:103ed00084824000850f500018003900808f520006
:103ee00003003a0083084200010078000700370011
:103ef0000200e0000300320083014000830f510004
:103f00000e00390012009800900098009000900078
:103f10000100e0000900320010014000828f5000d3
:103f200006003a0002e621000009eb0010017800cb
:103f30001108410091009000110098000000060057
:103f4000889fbe000004780001f380000100e000bb
:103f500002003200010078000d00370011f38000ec
:103f600020e6210004003700910f540025003600a0
:103f70000180e800910090000100e000faff3a00a3
:103f800010003700920f54001e0036000280e80037
:103f9000100178000200e000faff3a0011017800f9
:103fa00011f3800020e6210004003700910f540037
:103fb000140036000180e80091009000828f5000cc
:103fc000faff3a0039f38000888f54000100310075
:103fd0008804780009007800360007000000e0003f
:103fe00004003a00888f5400050032008904d10093
:103ff000f5ff3700091878009fff0700d2ff370050
:104000000000eb004f04be0000000600881f78008f
:10401000630440000800a1008000eb00800f540002
:1040200021003600e30f540001003e00480020004c
:1040300008007800c2ff07008000eb000000e000ed
:1040400019003200900078009101780064815100dd
:10405000880f510003003100110190000208780020
:1040600007003700088140000208780091019000a5
:1040700013019800100178001109140088087800d5
:10408000100178000000eb000200e00004003200a4
:10409000920190000300e000010032000280e8007d
:1040a00000f388008180e800010078004f04780068
:1040b00000000600800078000000eb000100e00036
:1040c00005003400010078000bfa0700e10f400002
:1040d00001003a000000eb000000060000c0da001a
:1040e0000000060000c0da000000060000c0da0090
:1040f00000000600839f68000100e00002003d0010
:1041000060001000e08018000300e00002003d00a5
:1041100060011100e081190018fa07004f00e0006b
:1041200002003b0060001000e08018000000060064
:1041300012fa07000400be0000000600020ab900df
:10414000001bb9000200b80081004200810043005a
:1041500000000600889fbe008a9fbe003004420017
:10416000b0844a0030054b0090854b006000b100e0
:104170000898be000a90be000440e10005c8e100b6
:1041800006d0e10007d8e1000200310068004000dd
:104190001008e8004f05be004f04be0000000600f6
:1041a000889fbe008a9fbe003004be002005be006e
:1041b0000418540005985c0006185d0007985d001f
:1041c000110020000440e10005c8e10006d0e10034
:1041d00007d8e100010039008000eb0010881000d2
:1041e0004f05be004f04be00000006001200fa009a
:1041f000889fbe008a9fbe008c9fbe00e0b79f00d4
:10420000f1b79f0082bf9f0093bf9f000605be00cd
:104210000404be000000eb00d0b79f00c0b79f00b1
:10422000b0b79f00a0b79f0090b79f000006eb00bb
:104230005fb19700cfb09700820141003fb0970077
:104240000200e00004003d00370007007e805700b8
:10425000c0ff070003003700330007007e805700cf
:10426000cfff0700dfb697000d00e0000c0035001f
:104270006fb29700ffb297000fbb97009fbb9700ec
:1042800010002000010020006011b8000002720040
:104290008182720002037300838373001b00070096
:1042a0000c06e80001042000810f5600e0ff3a00f0
:1042b0000d00e00004003d000802be000a03be003d
:1042c0007e805700a3ff07005fa897000000e00072
:1042d00005003a001fb29700afb297003fb39700b6
:1042e000cfb39700090007006fb09700ffb09700a9
:1042f0000fb997009fb997004f06be004f05be004b
:104300004f04be000080fa00000006000100070014
:1043100000000600a4b79f00b5b79f00c6b79f0076
:10432000d7b79f00000006004f09de0082817100b0
:10433000b3b79f004f01de00818040008280700093
:10434000a1b79f008fb097004f09de00000040002a
:104350000200700090b79f007fa897004f01de0019
:10436000818040008280700081b79f000d000700af
:104370004f3ade000000400004007000f0af9f00e4
:10438000080007000402420085824a0006034b0031
:1043900087834b00dfff07000802be000a03be0050
:1043a000000006002fb29700bfb297004fb39700ee
:1043b000dfb3970000000600881f78001800200077
:1043c000881f780089ff07008f87e9004f04780075
:1043d00000000600801feb0084ff07008f87e900c4
:1043e00000000600889fbe008a9fbe00e00f5000bc
:1043f000e08f5800e00f5900e08f59000c003d009d
:104400006044b8006055b8000000540081805c0032
:1044100002015d0083815d00180020001500070087
:1044200008003d00180007000004eb0005003700fd
:104430000004eb000f00070002003d00120007001f
:1044400018002000dcff07000800e0000600320032
:104450006022b8006033b8000000520081805a002a
:1044600002015b0083815b004f05be004f04be006c
:1044700000000600e00f5200e08f5a00e00f5b00e2
:10448000e08f5b00000006006044b8006055b80093
:104490000402540085825c0006035d0087835d0092
:1044a00000000600889fbe008a9fbe008c1f780017
:1044b000e00f5000e08f5800e00f5900e08f5900e6
:1044c0000d003d006044b8006055b8000000540085
:1044d00081805c0002015d0083815d001c00200082
:1044e0000820e10009a8e1000ab0e1000bb8e100f2
:1044f0000d003d00080037000006eb00e00f520001
:10450000e08f5a00e00f5b00e08f5b0006003d008b
:104510006044b8006055b8000402540085825c0015
:1045200006035d0087835d00aaff07000c00e00022
:10453000060032006022b8006033b800000052006c
:1045400081805a0002015b0083815b004f06780086
:0c4550004f05be004f04be000000060036
:020000040000fa
:10455c004d4500005353000041470000452000002a
:10456c00753800005f6600006c6100006773000026
:10457c00203d000020200000202000002020000012
:10458c00202000002020000020200000253000000a
:10459c00325800000a0000002020000020200000fb
:1045ac00202000002020000075310000365f000044
:1045bc00467200006f6d000054610000736b0000c8
:1045cc0049440000203d0000202000002020000075
:1045dc0020200000256400000a00000020200000bc
:1045ec002020000020200000202000007538000052
:1045fc005f44000061740000614c0000656e0000b7
:10460c0067740000682000003d200000202000009e
:10461c002020000020200000256400000a0000007b
:10462c00202000002020000020200000202000007e
:10463c0075330000325f0000506f0000737400008f
:10464c004d610000726b0000203d00002020000036
:10465c002020000020200000202000002564000005
:10466c000a00000020200000202000002020000074
:10467c0020200000202000006669000072730000fa
:10468c007420000062790000746500002020000096
:10469c003d200000202000002020000020200000f1
:1046ac00256400000a00000030780000253000006e
:1046bc00327800000a00000030780000253000003d
:1046cc00347800000a0000000a74000065730000d2
:1046dc00745c000061700000705f00006563000096
:1046ec00616e00005f720000656300006569000088
:1046fc0076650000722e0000632c00002062000022
:10470c00756900006c740000206f00006e200000c2
:10471c004e6f000076200000203800002032000090
:10472c0030310000362000006174000020310000a0
:10473c00393a0000343000003a310000350a0000ec
:04474c000000000069
:020000040000fa
:1047500083437800930180009101880000000000ed
:104760001003780093018800000000000600a100fb
:10477000a3018000a101880006087800a301880039
:104780009301800091018800000000001003780070
:1047900093018800000000000610a100a301800022
:1047a000a101880006087800a3018800f37f20009b
:1047b00003016100c211dd009201800091018800b7
:1047c0000000000010037800920188000000000043
:1047d00032002e000201630002817100a3018000fb
:1047e000a101880002087800a301880096018000da
:1047f0000002be00040178002400b000040169003a
:104800004260af0004f0a0000281d2000580b00039
:104810008501780093018800000000000401780001
:1048200092027800960188000000000004002f002a
:1048300084826200a4018000a30188000509780039
:10484000a4018800940180000001be00820278006b
:104850004200b00082826a004260af0002f0a00015
:104860008582d2000380b000830078009101880027
:104870000000000002007800900178009401880098
:1048800000000000f33fb200a2018000a1018800f7
:1048900003087800a201880093018000910188003c
:1048a0000000000010017800930188000000000063
:1048b0000290a100a3018000a101880002087800f5
:1048c000a30188009301800091018800000000008e
:1048d0001001780093018800000000000280a10010
:1048e000a3018000a101880002087800a3018800cc
:1048f0009301800091018800000000001001780001
:1049000093018800000000000240a100a301800084
:10491000a101880002087800a30188006f8163006c
:10492000930180009101880000000000900378004e
:10493000930188000000000003ff2f0083836300c1
:1049400087037100a2018000a10188000708780098
:10495000a201880000000600889fbe008a1f780020
:104960009801800091018800000000009003780009
:1049700098018800000000000700a000a801800046
:10498000a101880007087800a8018800980180002c
:1049900091018800000000009003780098018800d1
:1049a000000000000710a100a8018000a1018800fc
:1049b00007087800a8018800421cde0009002000da
:1049c000f77f200088836300c23bdd0098018000f0
:1049d0009101880000000000900478009801880090
:1049e0000000000038002e00088464000884730072
:1049f000a7018000a101880008087800a7018800ad
:104a0000c61bde00ca1add004613de0006837200f4
:104a1000f8ff2000860364009a0180000004be00b5
:104a2000880278002800b00088826a004260af00e7
:104a300008f0a0008582d2000980b0000903780048
:104a40009601880000000000880278009504780034
:104a50009a0188000000000008002f00088464000c
:104a600008847300a7018000a6018800880a7800e6
:104a7000a70188004a11dd00950180000003be00f7
:104a8000860178004600b000868169004260af0070
:104a900006f0a0008381d2000780b0008700780074
:104aa0009101880000000000060078009001780065
:104ab0009501880000000000f33fb200030171007f
:104ac000a3018000a101880002087800a3018800ea
:104ad000930180009101880000000000100178001f
:104ae00093018800000000000290a100a301800053
:104af000a101880002087800a301880093018000ca
:104b000091018800000000001001780093018800e6
:104b1000000000000280a100a3018000a101880024
:104b200002087800a30188009301800091018800a9
:104b300000000000100178009301880000000000d0
:104b40000240a100a3018000a101880002087800b2
:104b5000a30188006f016200930180009101880029
:104b6000000000001002780093018800000000009f
:104b700003ff2f000302620004027100a201800003
:104b8000a101880004087800a20188004f05780080
:104b90004f04be00000006009201800091018800d1
:104ba0000000000010027800920188000000000060
:104bb0004322dd004522de008002eb00c222dd0040
:104bc00004002000970180000001be00020378006d
:104bd0002200b00002036b004260af0002f0a000b0
:104be0000683d2000380b00003037800960188009a
:104bf0000000000012037800970188000000000008
:104c0000f2ff2000020363008003eb004639dd0061
:104c1000ca31de00830171004631dd0002027200fc
:104c20008382720093018000000178004000b00090
:104c3000000169004260af0000f0a0000281d200d4
:104c40000180b0000101780092018800000000009e
:104c50001001780093018800000000004a11de0076
:104c60000281fb008001eb00020072008380720071
:104c7000000006000164a800b05d240090208800b8
:104c8000100c200080208800000006007f4060009b
:104c9000ef4f500007003600704050000080fb00ce
:104ca000110020000008dd000080ea002224b60088
:104cb000050037000080fb00110020000008dd0027
:104cc0000080ea002024b600000006007f4060005b
:104cd000ef4f500007003600112180007040500057
:104ce0000080fb00120020000010dd000140600089
:104cf00005003700012180000080fb001200200029
:104d00000010dd0001406000000006002024ef00dc
:104d10002224ef002824ef002a24ef0000000600e0
:104d200067406000e34f50002f00320004003e0057
:104d3000e14f5000140032001f003e000600370013
:104d4000e54f50004000320033003900e64f50007c
:104d500055003a0048003700e1806000c708dd00d8
:104d6000f0f72f003004b60000807000802188002a
:104d700063016100c0ff2f003004b6000000710025
:104d80008021880053003700cf08dd00f0ff2700a6
:104d90003004b6000080700080218800630161004b
:104da0004811dd00f0cf2f003004b6000000710084
:104db0008021880047003700e1806000c708dd00df
:104dc000f0f72f003204b6000080700090218800b8
:104dd00063016100c0ff2f003204b60000007100c3
:104de000902188003b003700cf08dd00f0ff27004e
:104df0003204b600008070009021880063016100d9
:104e00004811dd00f0cf2f003204b6000000710021
:104e1000902188002f003700e1806000c708dd0086
:104e2000f0f72f003404b60000807000a021880045
:104e300063016100c0ff2f003404b6000000710060
:104e4000a021880023003700cf08dd00f0ff2700f5
:104e50003404b60000807000a02188006301610066
:104e60004811dd00f0cf2f003404b60000007100bf
:104e7000a021880017003700e1806000c708dd002e
:104e8000f0f72f003604b60000807000b0218800d3
:104e900063016100c0ff2f003604b60000007100fe
:104ea000b02188000b003700cf08dd00f0ff27009d
:104eb0003604b60000807000b021880063016100f4
:104ec0004811dd00f0cf2f003604b600000071005d
:104ed000b02188000000060067406000e34f5000ea
:104ee0001100320004003e00e14f50000a00320081
:104ef0000b003e0006003700e54f50000e00320068
:104f00000b003900e64f50000f003a000c0037004c
:104f10003064a8000d0037003164a8000b00370092
:104f20003264a800090037003364a8000700370086
:104f30003464a800050037003564a800030037007a
:104f40003664a800010037003764a800000006009e
:104f500067406000e34f50001700320004003e003d
:104f6000e14f50000c0032000f003e0006003700f9
:104f7000e54f50001800320013003900e64f500092
:104f80001d003a0018003700802180004300de0039
:104f9000614060001b003700802180004b00de0074
:104fa0006140600017003700902180004300de0060
:104fb0006140600013003700902180004b00de004c
:104fc000614060000f003700a02180004300de0038
:104fd000614060000b003700a02180004b00de0024
:104fe0006140600007003700b02180004300de0010
:104ff0006140600003003700b02180004b00de00fc
:105000006140600000000600889fbe008a9fbe00cd
:105010008c9fbe006f4060006f426200e7c262007a
:105020000083fb0086044300898444000744200079
:10503000878444000985e800c333de00878343008a
:1050400088412000888343004234de000804440085
:105050000b4220000b0444000004a8000104e000ff
:1050600008003200e38561000b30a000421ede0024
:105070000d002000c560dd00818c7500020d7800f8
:10508000030037004511dd00820c7800000deb00b5
:1050900063416000210020008110dd008180fb0061
:1050a000f20020000111dd000281ea001801610018
:1050b0000482fb008120dd00010c71000000d000a3
:1050c0006e0060008580fb008008dd00320020005b
:1050d0000010dd000080ea0017006000808b700087
:1050e000100020000600dd001424b7000004a90011
:1050f0004f06be004f05be004f04be000000060074
:105100004200dd00c03fb200054320000500400022
:105110008082e8000004a8000104e0000f003200d3
:10512000421bde0007002000f17f20000103630026
:10513000e38061000404e000040032000130a000bc
:105140004533dd0006887000020037004533dd007e
:1051500001087300820a78000b003700f17f2000fd
:10516000010161000404e000040032004511dd008b
:105170000230a00002087800020037004511dd006f
:1051800002087800800aeb000004a9000000060075
:105190000165a800b05d240090288800100c200054
:1051a00080288800000006007f406000ef4f50001c
:1051b00007003600704050000080fb001100200006
:1051c0000008dd000080ea002225b6000500370057
:1051d0000080fb00110020000008dd000080ea00d4
:1051e0002025b600000006007f406000ef4f500011
:1051f0000700360011298000704050000080fb003d
:10520000120020000010dd000140600005003700a2
:10521000012980000080fb00120020000010dd004a
:1052200001406000000006002025ef002225ef006d
:105230002825ef002a25ef000000060067406000e7
:10524000e34f50002f00320004003e00e14f5000b9
:10525000140032001f003e0006003700e54f5000ea
:105260004000320033003900e64f500055003a004c
:1052700048003700e1806000c708dd00f0f72f002c
:105280003005b6000080700080298800630161004d
:10529000c0ff2f003005b600000071008029880093
:1052a00053003700cf08dd00f0ff27003005b600bf
:1052b0000080700080298800630161004811dd00d2
:1052c000f0cf2f003005b600000071008029880063
:1052d00047003700e1806000c708dd00f0f72f00cd
:1052e0003205b600008070009029880063016100db
:1052f000c0ff2f003205b600000071009029880021
:105300003b003700cf08dd00f0ff27003205b60074
:105310000080700090298800630161004811dd0061
:10532000f0cf2f003205b6000000710090298800f0
:105330002f003700e1806000c708dd00f0f72f0084
:105340003405b60000807000a02988006301610068
:10535000c0ff2f003405b60000007100a0298800ae
:1053600023003700cf08dd00f0ff27003405b6002a
:1053700000807000a0298800630161004811dd00f1
:10538000f0cf2f003405b60000007100a02988007e
:1053900017003700e1806000c708dd00f0f72f003c
:1053a0003605b60000807000b029880063016100f6
:1053b000c0ff2f003605b60000007100b02988003c
:1053c0000b003700cf08dd00f0ff27003605b600e0
:1053d00000807000b0298800630161004811dd0081
:1053e000f0cf2f003605b60000007100b02988000c
:1053f0000000060067406000e34f500011003200db
:1054000004003e00e14f50000a0032000b003e0055
:1054100006003700e54f50000e0032000b00390047
:10542000e64f50000f003a000c0037003065a8002e
:105430000d0037003165a8000b0037003265a80069
:10544000090037003365a800070037003465a8005d
:10545000050037003565a800030037003665a80051
:10546000010037003765a8000000060067406000b3
:10547000e34f50001700320004003e00e14f50009f
:105480000c0032000f003e0006003700e54f5000d0
:105490001800320013003900e64f50001d003a009a
:1054a00018003700802980004300de006140600062
:1054b0001b003700802980004b00de006140600047
:1054c00017003700902980004300de006140600033
:1054d00013003700902980004b00de00614060001f
:1054e0000f003700a02980004300de00614060000b
:1054f0000b003700a02980004b00de0061406000f7
:1055000007003700b02980004300de0061406000e2
:1055100003003700b02980004b00de0061406000ce
:1055200000000600889fbe008a9fbe008c9fbe00c0
:105530006f4060006f426200e7c262000083fb00c0
:105540008604430089844400075420008784440073
:105550000985e800c333de008783430088512000bb
:10556000888343004234de00080444000b522000cc
:105570000b0444000005a8000104e000080032000c
:10558000e38561000b30a000421ede000d0020000c
:10559000c560dd00818c7500020d780003003700c6
:1055a0004511dd00820c7800000deb0063416000c6
:1055b000210020008110dd008180fb00f20020002e
:1055c0000111dd000281ea00180161000482fb0084
:1055d0008120dd00010c71000000d0006e00600031
:1055e0008580fb008008dd00320020000010dd0017
:1055f0000080ea0017006000808b7000100020001f
:105600000600dd001425b7000005a9004f06be0006
:105610004f05be004f04be00000006004200dd0042
:10562000c03fb20005532000050040008082e80022
:105630000005a8000104e0000f003200421bde005c
:1056400007002000f17f200001036300e380610078
:105650000404e000040032000130a0004533dd0006
:1056600006887000020037004533dd000108730032
:10567000820a78000b003700f17f200001016100f1
:105680000404e000040032004511dd000230a000f7
:1056900002087800020037004511dd00020878009a
:1056a000800aeb000005a9000000060000002100b0
:1056b00081cc2100010878008000eb0011009800e7
:1056c0002100980002042000320098008000210090
:1056d00083d0210003087800110098002100980071
:1056e00032009800590b0700000006000080fb0004
:1056f0004400de00e94f5000020036007043b00065
:10570000010037000043b000000006006f40600059
:10571000e94f5000020036007043b000010037002e
:105720000043b00000000600881f780000047800e5
:10573000284090000074a0002044980018017800d0
:105740000200e0000400320031052000810f51000a
:1057500027003a000c00370081417800b202210096
:1057600003497800118080008100e8006181880091
:1057700002042000828f500001003a002c30ef001c
:1057800031052000010c78000028a300040032003d
:1057900040c0b3002044980030c0b3001800370068
:1057a0006181800022808000810f5100030032005f
:1057b0000004a10020449800020037000004a0006b
:1057c00020449800284190000040eb000208a3000c
:1057d0000b003a000000210010814000b3022100bc
:1057e000934178000349780011009800c70a070028
:1057f00080c0b30020449800000ceb0030c0b30020
:105800004f04780000000600889fbe000004780066
:1058100081447800284090000074a0002044980043
:10582000180078000000e00004003200a10620000b
:10583000810f50003f003a001900370001c3b30048
:10584000c0d721000148780081c7b3000000e800fc
:105850000148780009407800a4ff0700e1d7210043
:105860008048780009407800a8ff0700f1d72100a0
:10587000804878000100e8000048eb002a70ef0043
:105880000210ec004081880001042000810f5000cc
:1058900001003a002830ef00a0062000000c78003c
:1058a000284090000028a3000400320040c0b3004c
:1058b0002044980030c0b3002200370041818000ae
:1058c00022808000810f5100030032000004a100fb
:1058d00020449800020037000004a00020449800f3
:1058e000284190000040eb000208a30015003a0098
:1058f0000000210090814000a202210012417800a6
:105900000282fb00c5d7210004824200944978003e
:105910000241e80002427800a30221008449780095
:1059200011009800790a07002ad0bf00e34f500009
:10593000d3ff360080c0b30020449800000ceb0079
:1059400030c0b3004f04be0000000600881f78007e
:105950000004780081427800284090000074a00084
:1059600020449800180078000000e0000400320095
:1059700041082000810f500063003a003d003700cd
:105980002670ef0030c6b30080cf52000900360009
:105990000580fb0042062000110009000280d800ab
:1059a00073d7210002c3b3008249400010c0b30086
:1059b00026f0b700e9cf520013003600660221003e
:1059c000164378000681fb0074d7210002024200d2
:1059d0008581fb0042062000110009008281d80069
:1059e000810178008381fb00a200200011000900e2
:1059f0008281d8000001780003c3b300034a41004c
:105a00000640e80026f0b70062022100124178004b
:105a10000282fb0076d72100040243008580fb0050
:105a2000a3002000110009008380d80003c3b30045
:105a300003ca40008240e80064022100014a780065
:105a40008180fb00010043000048eb002770ef005d
:105a50002a0037000210ec00208188000104200099
:105a6000810f500001003a002430ef004008200070
:105a7000000c7800284090000028a30004003200a9
:105a800040c0b3002044980030c0b300220037006b
:105a90002181800022808000810f510003003200ac
:105aa0000004a10020449800020037000004a00078
:105ab00020449800284190000040eb000208a30019
:105ac00015003a0000002100908140007202210080
:105ad000124178000282fb0075d721000482420047
:105ae000944978000241e8000242780073022100e4
:105af0008449780011009800040a070027d0bf00ed
:105b00002650e300d3ff3e0080c0b300204498003d
:105b1000000ceb0030c0b3004f047800000006001a
:105b2000889fbe008a9fbe008c1f78000006780008
:105b30000204be002c4090000074a0002046980093
:105b40001c0078000000e00004003200410a200040
:105b5000810f50005f003a003900370001c3b300e5
:105b6000c0d621000148780081c7b3000000e800da
:105b700001487800481dde000b0020000a40780034
:105b8000dafe0700e1d62100804878000a4078005c
:105b9000defe0700f1d6210080487800404dde008f
:105ba0000b0020000a407800d0fe070001d721003a
:105bb000804878000a407800d4fe070011d7210001
:105bc00080487800c84dde004848dd004845de00ca
:105bd0000a0570000a407800c4fe070021d72100a2
:105be000804878000a407800c8fe070031d72100bd
:105bf0008048780008407800bcfe070041d72100ab
:105c00008048780008407800c0fe070051d7210086
:105c1000804878000100e8000048eb002270ef00a7
:105c20000210ec000081880001042000810f500068
:105c300001003a002030ef00400a2000000e7800fa
:105c40002c4090000028a3000400320040c0b300a4
:105c50002046980030c0b300220037000181800048
:105c600022808000810f5100030032000004a10057
:105c700020469800020037000004a000204698004b
:105c80002c4190000040eb000208a30015003a00f0
:105c90000000210090814000220221001241780082
:105ca0000282fb00c5d6210004824200944978009c
:105cb0000241e80002427800230221008449780072
:105cc000110098009109070022d0bf00e94f500051
:105cd000d3ff360080c0b30020469800000eeb00d2
:105ce00030c0b3004f0678004f05be004f04be0021
:105cf00000000600881f780000047800284090000b
:105d00000074a00020449800180078000000e00013
:105d100004003200910b2000810f500033003a0044
:105d20000e00370082417800c0012100034878004e
:105d3000d18088001d70ef002a0037000210ec00af
:105d4000f080880001042000810f500001003a001b
:105d50001e30ef00900b2000000c780028409000cf
:105d60000028a3000400320040c0b3002044980083
:105d700030c0b30021003700f18080002480800013
:105d8000810f5200030032000004a100204498005b
:105d9000020037000004a000204498002841900031
:105da0000040eb000208a30014003a0002002100aa
:105db00012824000d3012100934178000380fb0050
:105dc0001a10b400104a78008341e80003427800ba
:105dd000d001210004487800110198004b09070008
:105de0001c70ed001c50e200d4ff3a0080c0b300ec
:105df00020449800000ceb0030c0b3004f04780042
:105e000000000600a04190000374a0002340980009
:105e1000900178000300e00004003200d40c200060
:105e2000848f510034003a000700370053012100ed
:105e300082497800b18088001870ef002a0037008e
:105e4000d30c200003087800a04190000328a30091
:105e50000400320041c0b3002140980033c0b300b9
:105e60002900370084002100940290002402900051
:105e7000848f5200030032000304a10023409800e5
:105e8000020037000304a000234098002042900045
:105e90008041eb000408a3001b003a000c30ec002a
:105ea0000304200065808000838f520001003a00c7
:105eb0000c30ef0083012100934178008400210021
:105ec0009402780024029000848242000382fb0046
:105ed00004824000154a78008341e800834278003c
:105ee00084012100054a7800830121009341780054
:105ef00082cf5100d2ff390081c0b3002140980009
:105f00000008eb0033c0b300034078000000060037
:105f1000204190000274a0002240980010017800f7
:105f20000200e00004003200e30d2000830f510066
:105f30003a003a00030037001470ef00e20d200031
:105f400002087800204190000228a30004003200db
:105f500041c0b3002140980032c0b3003300370085
:105f60008300210013029000a3019000830f5200d0
:105f7000030032000204a100224098000200370012
:105f80000204a00022409800a04190000041eb00d4
:105f90000308a30025003a000c30ec0002042000a6
:105fa00063808000828f510001003a000c30ef00c6
:105fb0004301210093417800820021001202780001
:105fc0002201900002014200124178000382fb008e
:105fd00004824000024a7800ea4f51000a00320071
:105fe000ed4f5100080032000204e00006003200cc
:105ff0008341e80044012100034a7800e2c3b30072
:1060000082cf5100cdff36004201210012417800bd
:106010000281fb00828040008048eb0081c0b30019
:10602000214098000008eb0032c0b3000240780025
:1060300000000600881f78000004780028409000c7
:106040000074a00020449800180078000000e000d0
:1060500004003200210f2000810f500029003a0077
:106060000a00370081808800230037000210ec000e
:106070009080880001042000810f500001003a0048
:106080001230ef00200f2000000c78002840900014
:106090000028a3000400320040c0b3002044980050
:1060a00030c0b3001b003700918080002280800048
:1060b000810f5100030032000004a1002044980029
:1060c000020037000004a0002044980028419000fe
:1060d0000040eb000208a3000e003a00020021007d
:1060e0009281400080808000b049780080808800e4
:1060f0001101980085080700808080001004e000ee
:10610000daff3a0080c0b30020449800000ceb0096
:1061100030c0b3004f0478000000060080417800d2
:106120000210ec0001042000810f500001003a0031
:106130000000eb000410e300feff3200010021002c
:106140001101400003497800900098006f08070093
:1061500000000600889fbe008a1f780090407800eb
:106160000104e0001100320000047800090420005e
:106170000005eb000210ec00890f500001003a000e
:106180000a0078000410e300feff32000200210044
:106190009201400081497800100198005b080700d7
:1061a000d84078000104e000f2ff3a004f05780083
:1061b0004f04be0000000600800021009000900007
:1061c00020009000808f5000fbff32000c30ec006c
:1061d000000420000c10e30001003a000c30ef0036
:1061e0008000210090007800200090000080400096
:1061f0001040780000000600800078002303210092
:10620000934178000000eb00efcf510058003e00b2
:10621000f5c08000818f52001400320004832100f9
:106220000043eb00064078000641780017c0b30039
:10623000040037009402780072024200818f5200fd
:106240000c0032000604e00004003a000500e00003
:1062500002003a0002407800074378000241e8005b
:10626000f04f5100f3ff3a00420037000040eb00ce
:10627000004178008280fb00a4812100f20bb9006c
:10628000860342008002eb00850b78008483e800df
:1062900086834300854b780006034200060b90007e
:1062a00016037800250398008382fb00a693210043
:1062b00085024300824a78008341e80083427800e7
:1062c00022032100054978000080fb00f201b9009b
:1062d00002024200740190000200e00007003a0050
:1062e000a28180000201e800a2818800f200b900ca
:1062f000838221000300400002087800f208b90000
:10630000a18121000100400019003700a481210073
:1063100022c1b3000440bc0082024200a1029800e6
:106320008000eb00810a78000483e8000203430048
:10633000014b7800050990001201780021019800b6
:106340008380fb00a29321008100410080487800f7
:106350008341e80083407800200321000148780051
:106360003410ec00a0818800f0029800050078004d
:10637000000006000604e000e4ff3a000000eb0025
:10638000fbff37000003780024032100144278004b
:106390000040eb000404e000180032009393210059
:1063a0008000eb00a78121005340780000c1e80085
:1063b000e14f51000d00360022c1b3000440bc0083
:1063c0000280430020009000860f500007003a0032
:1063d000a093210081024000e0cfb300804a780002
:1063e0003010a80010c0b300040037008100e8009e
:1063f000814f5200ecff3e000040eb000000060021
:106400000003780025032100954278000000eb008e
:106410000504e00011003200939321008040eb005e
:10642000a48121005340780000c1e800e14f5100f1
:106430000600360022c1b3000440bc000400410045
:1064400020019000860f5100040032008140e800d6
:1064500085cf5000f3ff39000000eb00000006007c
:106460000003780025032100954278000000eb002e
:106470000504e00011003200939321008040eb00fe
:10648000a48121005340780000c1e800e14f510091
:106490000600360022c1b3000440bc0004004100e5
:1064a00070019000860f5100040032008140e80026
:1064b00085cf5000f3ff39000000eb00000006001c
:1064c00050ca80000000e00005003200c1952100a4
:1064d000100020001100e00006003a000100370023
:1064e0000000eb00f200b900a1942100010040007f
:1064f000050037000000e800f2804000f00f500077
:10650000f4ff3a000000eb0000000600d081880094
:10651000e181880000000600d0818000e1818000d8
:1065200092e52b00828ab900661a24008683b9009e
:10653000060242000201b80083014200400ade0068
:1065400005002000711a240081abb9000120b800b9
:1065500081004300cf0ade00410bdd004f02de0068
:1065600004027300040141008581490000f0a1008c
:106570008000eb00c002dd000400200002004200a9
:1065800083804a0004003b00120020000300280022
:106590000000410081804900d0818800e1818800ad
:1065a00000000600889fbe008100400052dc2900e8
:1065b000c3112800810f500020003100c812dd00f7
:1065c000040020000204410083844900441bdd00d4
:1065d000cc13de00870373004413dd00080443007e
:1065e00089844b000804410089844900471bdd0071
:1065f000c913de00870373004713dd00080443005e
:1066000089844b00481bdd00c813de00870373003c
:106610004813dd000801430089814b00020142005c
:1066200083814a003082fb008002eb000401690094
:1066300085816900808f5000e0ff3e000281690083
:10664000020078004f04be000000060081004000f8
:10665000810f500026003100a2828000b3828000aa
:106660000203410083834900441add00cc12de009e
:10667000850272004412dd000602420087824a0051
:106680000402410085824900471bdd00c913de007a
:10669000870373004713dd000402430085824b002b
:1066a000481bdd00c813de00870373004813dd00bc
:1066b0000402430085824b00c811dd000200200067
:1066c0000401410085814900a2828800b3828800cc
:1066d0003082fb008002eb000401690085816900c3
:1066e000a2828800b3828800808f5000daff3e00cb
:1066f000a0828000b1828000000006001004e0004b
:1067000026003200a2828000b38280000203410092
:1067100083834900441add00cc12de00850272003a
:106720004412dd000602420087824a000402410052
:1067300085824900471bdd00c913de008703730013
:106740004713dd000402430085824b00481bdd0037
:10675000c813de00870373004813dd000402430002
:1067600085824b00c811dd000200200004014100b9
:1067700085814900a2828800b38288001082fb00d4
:106780008002eb000401690085816900a282880013
:10679000b38288005004e000daff3a00a082800053
:1067a000b182800000000600008068000000060042
:1067b00000c1b30000000600889fbe008a9fbe0093
:1067c0000004be000205be00c30707000801500018
:1067d00089815800880f5000898f580002003100cd
:1067e00061015100e0815900100020008a0f510022
:1067f0008b8f590001003e000000eb004f05be00ea
:106800004f04be0000000600889fbe008a9fbe00a5
:1068100069032100994478000904e0002100320056
:106820000044eb001b002000aaa621000880fb000a
:106830008058dd00c28180008100610015003200b7
:10684000ea02b900e6004200810045000083eb0047
:106850008083eb0031014300a1814b00040245001d
:106860003202980043029800e00f5100e08f590077
:1068700007003a008400780011019000a101900007
:10688000b2009800c30098001100780000000100d9
:106890008944e9000904e000020032000844e800ed
:1068a000e2ff37004f05be004f04be0000000600a7
:1068b000889fbe008a9fbe000205be0069032100ba
:1068c0009944780080c2eb00efcf540021003e00d5
:1068d000c68180000608a300090032008000eb009a
:1068e000170020008142e8008100e80001047800e0
:1068f0008139dd000682610013003a000300370091
:10690000130020000004eb008042eb00ea44b900d1
:10691000a1a6210008844000880078008018780033
:106920008a88be003a0498004b0498008944e80025
:106930008940780060032100014878000303730058
:10694000c681880003003700ef8f5000e5ff3a0052
:1069500080c2eb00054078004f05be004f04be002a
:10696000000006008081fb00120020000311dd0002
:10697000c1818000010261000040eb00090032008b
:10698000ea18b900a3a62100808141008009eb002c
:106990003670ed000281ea0001006100c0818800cc
:1069a00010c0b3000000060000037800630321005c
:1069b0009341780000c0eb000304e00012003200b5
:1069c000c58180000040eb0014002000a7a6210034
:1069d0008080fb000121dd0005016100050032001f
:1069e000ea09b90082804300910f130006003200cb
:1069f0008341e9000304e000020032000040e800a7
:106a0000f3ff370000c0eb00000006000202be00ea
:106a10008080fb00130020008119dd00c081800010
:106a2000830160000040eb0005003200ea08b90075
:106a3000c2a62100820040008488be0010c0b300be
:106a400000000600889fbe008a9fbe008c9fbe008b
:106a50008e1f7800e98121009d932100ea94210096
:106a6000ab052100ac0921000004eb000b07780006
:106a70000000eb00800c780080eeeb00000d780049
:106a80004240dd000e004000e0049800c340dd00fd
:106a9000a2b02100828d40008c00780040040700e5
:106aa0000804e800f284440072054500e4854500ce
:106ab0008c07b000f00f5400edff3a003830ef00c3
:106ac000a0a62100020a2000000141008000eb0086
:106ad000010878006a004000820f5000fcff3a0075
:106ae0003270ef003370ef003670ef0000012000cd
:106af000d08188003c30ef00e8060700f906070067
:106b0000eafa0700d30207004f0778004f06be00dd
:106b10004f05be004f04be0000000600889fbe0067
:106b20008a9fbe008c9fbe008e1f7800c5ff0700a5
:106b30003430ef009e932100a98121008e06e800e9
:106b40002c0321001c4678000c04e00011003200e8
:106b50008e0578000044eb005b85fb00f250b90025
:106b60008080440001007800a10090000100010035
:106b7000e34f500004003a00f255b9000a85440082
:106b80002a009000fffd07000844e800884f5600e7
:106b9000f1ff3e00838180000308a300e8ff32007c
:106ba00022032100124178000280fb000080460091
:106bb000e1cfb30090cf10000f003a000240e80090
:106bc000804f5600070036008080fb008180460021
:106bd00011427800f4f89f000040e800804f560012
:106be000f9ff3e000c80fb000080460080c0eb00f7
:106bf00071f89f000c46e9000204e0000200320038
:106c00000241e900e8ff37000c40780032f0b7009d
:106c10000300a10083818800c9ff3700fe87470079
:106c2000889fbe008a9fbe008c9fbe008e1f78008a
:106c300000047800284090000074a00020449800d0
:106c40001800780031082000810f5000d400320075
:106c5000e3804000810f5000ed0032000000e000b2
:106c6000fe003a0001c8ab00df0032004020800087
:106c70007f006000408288004400dd006101b800b0
:106c800001f02d00d1b79f0014002000e4b79f0051
:106c90005fb29700efb297000403d0008200d000eb
:106ca000010143004220a80083814a004200a9005c
:106cb0004220ae004200a8000281d300940180006f
:106cc00083007800910188000000000092007800a5
:106cd0009401880000000000c308dd00c508de0044
:106ce00031828800640040006100b80002f02d008d
:106cf000b2b79f00c5b79f003fb29700cfb29700d1
:106d00000403d0000001d000020043004220a8008c
:106d100081804a004200a9004220ae004200a80043
:106d20000080d300920180008101780093018800e7
:106d300000000000100078009201880000000000b0
:106d40006f4060004af0b7003e50e200750032002c
:106d50008044eb00abb82100eacb21000a06e80032
:106d60004dca21000980fb00c300dd008180450081
:106d7000a10090000100e00006003a004301dd00a0
:106d80000281e80002814500338280009281610027
:106d900008003a00e18f50005d003a00c300dd00ba
:106da000818045009100900033828000818f5100e6
:106db00057003a004300dd0000804500300090009d
:106dc000208288008008900091007800a7042100ac
:106dd000974378000787fb00110278006801520092
:106de000a100900001015100ea004700810f51000d
:106df0004700390031828000014d7800c808de006c
:106e0000014e78000704e000290032004282800031
:106e10004411dd0066014100cf11de00020178005f
:106e200002f0a10005f02d00f5b79f00160020002c
:106e300086bf9f007fb297008fba97000203d000f1
:106e40008400d000010143004220a8008581490050
:106e50004200a9004220ae004200a8000281d300f7
:106e60008c0078000742e9000482fb0006cc210078
:106e70000403430094018000930188000000000097
:106e800092687800940188000000000002027800f7
:106e90001200b00002026a004260af0002f0a000df
:106ea0000482d2000380b000868f5000f1ff3a00c8
:106eb00011c0b300814e78007803900065ca2100ac
:106ec000860a78008580e80087c8e8005870ef00df
:106ed0000e87e8008040eb00688242000181fb00e1
:106ee0008201420002014500924978008140e80099
:106ef0000181fb00820f5700f8ff3e0081417800be
:106f000082052100034978008d00780028030700de
:106f10008944e800e403210014427800894f5200bc
:106f200090ff3e00408280002c0407002e003700b6
:106f300041ca2100080078006d03070080ca2100c3
:106f40001042780071e580001182880004c1e900d8
:106f50004c70ef004b70ef000c00320067004000f7
:106f6000b3fd2f008f814100634252000482fb0079
:106f70008002e80004824200d0697800840f50004b
:106f8000fdff3a00b5042100824a780060fd2f0021
:106f90000f0040001404070030082000000c7800a7
:106fa000284090000028a3000400320040c0b30035
:106fb0002044980030c0b3002c0037003064ab0090
:106fc00003003a000004a1002044980002003700aa
:106fd0000004a00020449800a84090000040eb006e
:106fe0000108a30021003a00080890001000780072
:106ff000200090000000e000cdff3a002840900003
:107000000074a1002044980060082000000c780063
:10701000284090000028a3000400320040c0b300c4
:107020002044980030c0b300100037000004e00096
:1070300003003d000004a100204498000200370036
:107040000004a00020449800a84090000040eb00fd
:107050000108a30003ff32000400370080c0b30022
:1070600020449800000ceb0030c0b3004f077800bc
:107070004f06be004f05be004f04be00ef01b10039
:1070800000000600e5032100954278000582fb0020
:107090004322dd00a6b8210004024300300298001c
:1070a0000400780001187800020878002302980094
:1070b0008542e80085407800e0032100014878001f
:1070c00000000600889fbe008a1f7800e8032100a8
:1070d000184478000804e0002a003200a5b8210016
:1070e0000002eb000445780084047800350390002a
:1070f000800f53001f003a00958f10001d003a00ca
:1071000015039000820f53001a003a0025039000e7
:10711000830f530017003a008881fb008301e900c8
:10712000838f54000e003d00a0b82100c348dd004d
:10713000810040000901e8004311dd000201400028
:107140003202be002203be008498be008690be00bc
:107150000a45e8008a84fb00898f5100f3ff3c0058
:107160000844e90008437800e5032100864a7800d6
:10717000040037000402e800e8824200844f540013
:10718000d8ff3e004f0578004f04be000000060007
:10719000e7006000c808dd00f28f2f0003208000a8
:1071a000030161000281700002208800012080003c
:1071b000c508de00e7806000808f5000fbff3a00ca
:1071c0000000060067050700000006000a00fa003c
:1071d000889fbe008a9fbe008c1f78000004780044
:1071e00074805700030009000018eb00284090004d
:1071f0000074a00020449800180078008106200048
:10720000810f50003500320006003e000000e00013
:107210000b003200e7805000810f5000c6003a009a
:107220000e00370091062000810f5000440032000c
:10723000f3804000810f5000bf003a00ab003700e0
:107240008001eb000081eb00017a2000080078004b
:107250008cff070010062000000c780028409000ea
:107260000028a3000400320040c0b300204498006e
:1072700030c0b300b4003700880890009100780057
:10728000a10090000100e000030032000004a10012
:1072900020449800020037000004a0002044980019
:1072a000a84090000040eb000108a300a6003a00af
:1072b000c1e22100080078008d02070000e32100f0
:1072c00010c5e9000a81fb00e80040007480570007
:1072d000baed070080062000000c780028409000de
:1072e0000028a3000400320040c0b30020449800ee
:1072f00030c0b30094003700818180000138a300c2
:1073000003003a000004a100204498000200370066
:107310000004a00020449800284190000040eb00a9
:107320000208a30088003a000130a0008181880093
:10733000a0d521000008eb0090062000000c78008a
:10734000284090000028a3000400320040c0b30091
:107350002044980030c0b3007b00370012c0b30057
:10736000ec805700a0d52100a6fa0700e24f50009c
:1073700004003600284090000004a100204498003a
:1073800003003700284090000004a000204498002b
:10739000a84090000040eb000108a3006a003a00fa
:1073a0003070a90010c3b300cff0970080cf500019
:1073b00038003a00c0e221001080fb00801f7800f6
:1073c000e02a2a00801f780091ed07002e1ef800a9
:1073d000202d2a00801f78008ded070000e321009a
:1073e0001080fb00801f7800402f2a00801f78004b
:1073f00087ed070090f18000a1f18000809fbe0022
:1074000060312a00801f780081ed070060e32100d1
:107410001080fb00801f780080332a00801f7800d6
:107420007bed0700f68757000a04e0000b003200ee
:107430005be321008044eb00ac352a005b80fb005d
:10744000801f78008c1f780071ed07008944e800e8
:10745000e4875700894f5500f8ff3e0080e3210084
:107460001080fb00801f780029362a00891f7800d1
:1074700067ed070090e321001080fb00801f78007b
:10748000891f780062ed07000040eb00c0ef9f000d
:10749000e8875700cfe8970061c060006100600096
:1074a0004400dd00f1fe2f00a272800082806000a7
:1074b00081007000a17288005fe8970061006000a1
:1074c0004e00dd00f1ff2b00a27080008280600082
:1074d00081007000a1708800284090000074a10015
:1074e00020449800c0072000000c7800284090003d
:1074f0000028a3000400320040c0b30020449800dc
:1075000030c0b300100037000004e00003003d006d
:107510000004a10020449800020037000004a000ed
:1075200020449800a84090000040eb000108a30010
:1075300048ff32000400370080c0b30020449800a8
:10754000000ceb0030c0b3004f0678004f05be00c2
:107550004f04be000080fa0000000600881f78007b
:1075600000047800284090000074a0002044980097
:10757000180078000000e00004003200010520003f
:10758000810f50002d003a0012003700a0708000db
:107590000080ea004f00de004f00dd00f1ff270011
:1075a000a27080008280600081007000a17088005d
:1075b000490407003004980041049800401f20004f
:1075c000010020005004980061049800000520008c
:1075d000000c7800284090000028a300040032002e
:1075e00040c0b3002044980030c0b30017003700fb
:1075f00058019000e801900038009000c800900009
:107600006dfc07000000e0000400320028409000fc
:107610000004a10020449800030037002840900097
:107620000004a00020449800a84090000040eb0017
:107630000108a300d5ff32000400370080c0b3006a
:1076400020449800000ceb0030c0b3004f047800d9
:1076500000000600a0362a00befa07002602070036
:107660000000eb00cafe0700508ea900568ea9004c
:107670005a8ea9005c8ea9001fcea90011cea900c8
:107680001bcea9001dcea9001feea90011eea90076
:107690001beea9001deea9001faea90011aea800a7
:1076a0001baea9001daea9001baea800b0032000b0
:1076b00001002000c3fe07001f8ea900118ea80044
:1076c0001b8ea9001d8ea9001b8ea800b0032000f0
:1076d00001002000bbfe0700e0aa2300c6fa070055
:1076e000e0602300c4fa0700608e2300c2fa07009e
:1076f000000006008001eb001300980023009800b2
:10770000020878003100980000000600800278002e
:1077100001437800a501900015017800828f510087
:107720000b00310015029000848141001100090016
:107730008281d80001017800b5019000828141006a
:1077400086497800a50090008100e800a102980019
:10775000000006000002780081427800a401900039
:107760001401900082814100140178001100090089
:107770008281d80001017800b401900002814100ab
:107780000549780024019000940f510006003a004a
:10779000940090008100e800110009008280d80068
:1077a00011029800020037000201e800220298004e
:1077b000000006008002780001037800a501900017
:1077c00015017800828f51001a00310015029000d7
:1077d00084814100110009008281d80001017800f4
:1077e000b50190008281410086497800a501900092
:1077f0008301e800a302980015017800828f5100f0
:107800000c00310015029000848141001100090034
:107810008281d80001017800b50190008281410089
:10782000c830de0081497800a50090008100e800a2
:10783000a10298000000060000037800a600900056
:1078400016027800848f50003800310096029000b4
:1078500085804000110009008480d8003602900025
:107860008100420082487800a60090008100e80074
:107870002103980016027800848f50002b003100fd
:107880009602900085804000110009008480d80095
:107890003602900081004200c81ade004818dd0060
:1078a0004812de000402700084487800a6009000b0
:1078b0008100e8002103980016027800848f5000b0
:1078c0001a003100960290008580400011000900e6
:1078d0008480d8003602900081004200401ade0009
:1078e0000500200084487800a60090008100e80090
:1078f0002103980016027800848f50000b0031009d
:107900009602900085804000110009008480d80014
:1079100036029000810042004819de00824878005b
:10792000a60090008100e8002103980000000600f6
:10793000881f780080037800010478000200e000ce
:10794000140032008001eb00a702900017027800bb
:10795000848f52000c003100170390008682420091
:10796000110009008482d80001027800b70290005b
:107970008482420003024400944a78002702900067
:107980000402e800a40398008301e800830f51007b
