:020000040000fa
:080000000013040000000000e1
:020000040000fa
:1000080002100000061000000a1000000e10000088
:1000180012100000161000001a1000001e10000038
:1000280022100000261000002a1000002e100000e8
:1000380032100000361000003a1000003e10000098
:1000480042100000461000004a1000004e10000048
:1000580052100000561000005a1000005e100000f8
:1000680062100000661000006a1000006e100000a8
:1000780072100000761000007a1000007e10000058
:1000880082100000861000008a1000008e10000008
:1000980092100000961000009a1000009e100000b8
:1000a800a2100000a6100000aa100000ae10000068
:1000b800b2100000b6100000ba100000be10000018
:1000c800c2100000c6100000ca100000ce100000c8
:1000d800d2100000d6100000da100000de10000078
:1000e800e2100000e6100000ea100000ee10000028
:1000f800f2100000f6100000fa100000fe100000d8
:1001080002110000061100000a1100000e11000083
:1001180012110000161100001a1100001e11000033
:1001280022110000261100002a1100002e110000e3
:1001380032110000361100003a1100003e11000093
:1001480042110000461100004a1100004e11000043
:1001580052110000561100005a1100005e110000f3
:1001680062110000661100006a1100006e110000a3
:1001780072110000761100007a1100007e11000053
:1001880082110000861100008a1100008e11000003
:1001980092110000961100009a1100009e110000b3
:1001a800a2110000a6110000aa110000ae11000063
:1001b800b2110000b6110000ba110000be11000013
:1001c800c2110000c6110000ca110000ce110000c3
:1001d800d2110000d6110000da110000de11000073
:1001e800e2110000e6110000ea110000ee11000023
:1001f800f2110000f6110000fa110000fe110000d3
:1002080002120000061200000a1200000e1200007e
:1002180012120000161200001a1200001e1200002e
:1002280022120000261200002a1200002e120000de
:1002380032120000361200003a1200003e1200008e
:1002480042120000461200004a1200004e1200003e
:1002580052120000561200005a1200005e120000ee
:020000040000fa
:102000000200000034140400000000003414040036
:102010000000000034140400000000003414040028
:102020000000000034140400000000003414040018
:102030000000000034140400000000003414040008
:1020400000000000341404000000000034140400f8
:10205000000000003414040000000000984e04004a
:1020600000000000341404000000000034140400d8
:1020700000000000341404000000000034140400c8
:1020800000000000341404000000000034140400b8
:102090000000000034140400000000002a4d040079
:1020a00000000000fe4c0400000000003414040096
:1020b0000000000034140400000000003414040088
:1020c0000000000034140400000000003414040078
:1020d0000000000034140400000000003414040068
:1020e0000000000034140400000000003414040058
:1020f0000000000034140400000000003414040048
:102100000000000034140400000000003414040037
:102110000000000034140400000000003414040027
:102120000000000034140400000000003414040017
:102130000000000034140400000000003414040007
:1021400000000000341404000000000034140400f7
:1021500000000000341404000000000034140400e7
:1021600000000000341404000000000034140400d7
:1021700000000000341404000000000034140400c7
:1021800000000000341404000000000034140400b7
:1021900000000000341404000000000034140400a7
:1021a0000000000034140400000000003414040097
:1021b0000000000034140400000000003414040087
:1021c0000000000034140400000000003414040077
:1021d0000000000034140400000000003414040067
:1021e0000000000034140400000000003414040057
:1021f0000000000034140400000000003414040047
:102200000000000034140400000000003414040036
:102210000000000034140400000000003414040026
:102220000000000034140400000000003414040016
:102230000000000034140400000000003414040006
:1022400000000000341404000000000034140400f6
:1022500000000000341404000000000034140400e6
:1022600000000000341404000000000034140400d6
:1022700000000000341404000000000034140400c6
:1022800000000000341404000000000034140400b6
:1022900000000000341404000000000034140400a6
:1022a0000000000034140400000000003414040096
:1022b0000000000034140400000000003414040086
:1022c0000000000034140400000000003414040076
:1022d0000000000034140400000000003414040066
:1022e0000000000034140400000000003414040056
:1022f0000000000034140400000000003414040046
:102300000000000034140400000000003414040035
:102310000000000034140400000000003414040025
:102320000000000034140400000000003414040015
:102330000000000034140400000000003414040005
:1023400000000000341404000000000034140400f5
:1023500000000000341404000000000034140400e5
:1023600000000000341404000000000034140400d5
:1023700000000000341404000000000034140400c5
:1023800000000000341404000000000034140400b5
:1023900000000000341404000000000034140400a5
:1023a0000000000034140400000000003414040095
:1023b0000000000034140400000000003414040085
:1023c0000000000034140400000000003414040075
:1023d0000000000034140400000000003414040065
:1023e0000000000034140400000000003414040055
:1023f0000000000034140400000000003414040045
:102400000000000034140400000000003414040034
:102410000000000034140400000000003414040024
:102420000000000034140400000000003414040014
:102430000000000034140400000000003414040004
:1024400000000000341404000000000034140400f4
:1024500000000000341404000000000034140400e4
:1024600000000000341404000000000034140400d4
:1024700000000000341404000000000034140400c4
:1024800000000000341404000000000034140400b4
:1024900000000000341404000000000034140400a4
:1024a0000000000034140400000000003414040094
:1024b0000000000034140400000000003414040084
:0424c0000000000018
:020000040000fa
:102600000ff221000eff27000e01880000000000dd
:10261000000020000000e000020032000001200065
:10262000200288000c0007002097240001002000f1
:102630000f000700000020000000e0000200320050
:1026400000000200000000008442020000000000c0
:102650000040da000000fe00c01020000000e00092
:1026600002003200002020009001880000000600d7
:10267000a1028800800078000000eb001a003700fb
:10268000e280400054a0b4009101ba00e280400012
:1026900054a0b4009102ba00e280400054a0b400fb
:1026a0000002eb00472bde00f507b200a601880010
:1026b000602ce10008003a000049eb000201e8004c
:1026c000020039003420ec0002f0a0008301e90090
:1026d000f9ff3e00040037006128e10001003200ec
:1026e0000082eb000b00070011c3ba001101ba0011
:1026f0000604e00003003a000200e000e0ff3a00b8
:1027000000000600f607b200a602880082007800ea
:10271000f5ff370004d0a300e20f49001c00390088
:10272000810278003549ba000201e8000200390050
:102730003420ec0002f0a0008301e9000f00320019
:102740002549ba000201e800020039003420ec00fb
:1027500002f0a0008301e900080032000400e0005c
:102760000600320015c9ba000201e8000200390073
:102770003420ec0002f0a0008301e9008180e80031
:1027800054a0b4000300e000e2ff3a00000006009d
:102790009102ba00055978008301e900f7ff320081
:1027a000c82ade00055978008301e900f3ff3200f2
:1027b0000400e000f1ff320011d9ba00eeff37004b
:1027c0000443040000000000543204000000000034
:1027d000a42b040000000000ba2b0400000000003d
:1027e000d02b0400000000001c2c0400000000009e
:1027f0002031040000000000f02b04000000000065
:10280000e42b040000000000f42b04000000000092
:10281000e82b040000000000f82b0400000000007a
:10282000ec2b040000000000c24b0400000000007c
:10283000ba4b040000000000b24b0400000000008e
:10284000aa4b040000000000a44b0400000000009c
:102850001a15040000000000c61e0400000000005d
:1028600000000400000000000040da000000fe004c
:102870000a00fa0011002000b1bf9f00c0bf9f00f6
:102880006a805700330607004fb897000080fa00af
:10289000000006000a00fa00e20f500020003e008f
:1028a000c0f58000e10f50000600320080232000b8
:1028b0004523200023232000042320000000e00003
:1028c00004003a008022200045222000232220001c
:1028d00004222000060028001403630003003a00cd
:1028e0000608780000002800140a700013a8a3004e
:1028f00001003a0013a0a000020078000500370094
:102900001388a300feff32003102fb00840a780026
:102910000000e9000000e000f9ff3a00080037007d
:1029200033002000b3bf9f00c0bf9f00d1bf9f00f6
:10293000e2bf9f006a805700080607006fb9970042
:10294000020078000080fa00000006000a00fa0089
:1029500051002000b1bf9f00c0bf9f006a80570098
:10296000000607005fb897000080fa00000006002c
:10297000889fbe0080047800d0f580000000e00051
:1029800004003a000e0007000084eb000000e000a5
:1029900008003500d8f580000900e000050032008d
:1029a00009004400060007000000e00001003d00af
:1029b0000084eb00080078004f04be000000060011
:1029c000800078000100e00003003a00c0eb210025
:1029d000d0f58800000005000080eb0002f2210025
:1029e000828f500002003e00d1f588000000eb000d
:1029f000000006006022b800060220000000d0009f
:102a00008180d2000482d2008582d2000000a00022
:102a10000202520083825a00030031000202420087
:102a200083824a000000a1000603e900f3ff3a0098
:102a300000000600889fbe000004780001007800b6
:102a400082047800880178000901780011002000d4
:102a5000ce010700890f5000010032000004eb0096
:102a6000080078004f04be00000006000000fa00d5
:102a7000e88157004fb9970061dc2100a051210087
:102a8000020007000080fa00000006006200fa0061
:102a9000889fbe008a1f78000005780081047800b6
:102aa000020478008300780080f92f000f004000b6
:102ab000610407009a979f00a9979f000000eb0010
:102ac000b09f9f001885fb008a04fb000a05ea00fe
:102ad0004f55de0050022000808f54000d00320060
:102ae000e10f55000b003a000a01780088007800d9
:102af0002f9097009f91970003000100a0979f00df
:102b00000000e0008e0032003f9897000000e800cf
:102b1000b09f9f000a04440050022000808f5400a0
:102b2000040032000900e000e6ff3a003f989700f9
:102b3000840037000000eb00909f9f00809f9f0063
:102b4000f0979f00e0979f00d0979f00c0979f004d
:102b50000700370061ea210001005000000040003a
:102b6000a1e92100808040005f989700110070006b
:102b7000d09f9f00880478000904780038457800c9
:102b80008a00fb0060ea2100e50107000000e00088
:102b9000f0ff3a00a1c2b300814f55000e003a0089
:102ba000cf8897000180e900c08f9f001000780057
:102bb000c09f9f000000e00005003d000000ea000b
:102bc000c09f9f005f9897000020a000d09f9f00ab
:102bd0000904e8000f003700c09f9f000000eb00d1
:102be00005003700f2ff2700820f5000020032007c
:102bf000ea00b900008040000904780088047800e9
:102c0000b900fb000103b100e98f5000f5ff360069
:102c1000c09f9f00e0c2b300984f10000200320036
:102c20000080eb0019003700a0c2b300d84f10009d
:102c300007003a00cf8897000180e900c08f9f000d
:102c400010007800a09f9f000804e80010003700e3
:102c50000000eb00a09f9f0088007800050037006f
:102c6000f3ff2700830f500002003200ea00b90092
:102c70000000410001047800880078003101fb0069
:102c80000203b100e90f5100f5ff3600a09f9f003d
:102c9000984478008900fb0020e92100a00107008a
:102ca0000000e000020032000804e80001003700e4
:102cb0008044eb00c97f9f0080c6b30080cf5400e2
:102cc00004003a0098cf14000a003a006640500011
:102cd00006003700c0c6b30080cf540005003a009c
:102ce00098cf140003003a0065404000c07f9f0069
:102cf0000804e8001801fb00e3fb2f008f8141006e
:102d000081f92f008f804000a0f92f000f004000b4
:102d1000100007000000e00009003a00e1fb2f006e
:102d20008f804000a0f92f000f004000060307002d
:102d30000000e000020035000804e80061ff3700f1
:102d40000080eb004f0578004f04be000080fa00c1
:102d500000000600881f7800e4c6b300844f5100cd
:102d6000bc00320010003c006b425200844f510006
:102d70001800320005003c0054c2b300844f5100db
:102d8000f400320084c5b3000f00370044c6b3001e
:102d9000844f51001500320065424200844f5100bb
:102da000ef003a001100370004c7b300844f510010
:102db000db0032005700350065424200844f51006d
:102dc0005400320063424200844f5100e4003a0054
:102dd000500037001181e90082087800f00090006f
:102de0008181410092497800e30037002062900021
:102df000c5c6b300854f520007003a009102780023
:102e000064825200840878001402be004fabde00da
:102e1000860378001100370015c7b300854f5200b4
:102e200003003200a5c6b300854f520006003a00e9
:102e30009102780068825200840878005403be0032
:102e40004402be00050037001182e90084087800c2
:102e500014027800cfa2de00612bb9000498be00f6
:102e60000690be00a060900088c6b30088cf5000d6
:102e70000d00320028c6b30088cf500004003a008d
:102e80000402fb00cfa2de00612bb900080037006e
:102e900048c7b30088cf50000300320066444400a6
:102ea00088cf500004003a00cfa2de00612bb900a9
:102eb0000498be000690be003002be002003be0093
:102ec000f0009000e00f5200e08f5a00e00f5b002e
:102ed000e08f5b0003003d0001824100d5c2b300da
:102ee0000a003700001290000418a300030032000b
:102ef00001824100b5c2b300040037000408a300fa
:102f00004f0032000182410005c2b300054a78003b
:102f10004900370020629000c5c6b300854f5200bb
:102f200006003a009102780064825200840878001a
:102f30001402be006033b8001100370015c7b3009b
:102f4000854f520003003200a5c6b300854f5200e2
:102f500006003a00910278006882520084087800e6
:102f60005403be004402be00050037001182e90090
:102f700084087800140278008002eb006033b80007
:102f80000498be000690be00a060900088c6b30002
:102f900088cf50000d00320028c6b30088cf500003
:102fa00004003a000482fb008002eb006033b800aa
:102fb0000800370048c7b30088cf50000300320034
:102fc0006644440088cf500004003a008002eb00c1
:102fd0006033b8000498be000690be0080109000d8
:102fe0000138a300160032003002be002003be00ec
:102ff000e00f5200e08f5a00e00f5b00e08f5b00b3
:103000000f00320081c7b300814f5100030032002e
:1030100081c5b300814f510009003a00f0009000d3
:103020000182410005c3b300054a78008100e80031
:1030300001824100024a78008100e8007100980096
:10304000f000900081814100630098008240780088
:103050003e003700a0619000c4c6b3001181e900b2
:1030600084cf5100220032000a003c00644252002a
:1030700084cf51002500320004c2e80084cf510003
:10308000130032006842520084cf51001e003a0003
:103090000a00370044c7b30084cf51001b00320040
:1030a0006642420084cf510018003200694252004b
:1030b00084cf510014003a000500370082087800e0
:1030c0009200780040589000804878002c0037002b
:1030d0008208780092007800600a9000cfa2de009b
:1030e000612bb9008498be008690be002400370092
:1030f000820878009200780060099000cf91de008d
:103100008288be001e0037001181e9008208780025
:10311000920078006008900080087800180037005e
:103120001181e9008208780012027800cfa2de0047
:10313000612bb9000498be000690be00f00090001c
:10314000818141006300980081c7b300c700070078
:103150000b003700f000900081814100050037002e
:10316000f0009000818141000204e00001003a007b
:1031700052c2b300824978008100e80071009800d3
:103180000000eb004f04780000000600889fbe009e
:103190008a9fbe008c9fbe008e1f780000067800bc
:1031a0000104780002007800830478008881b90067
:1031b000020778000e00e000420032000800e00044
:1031c000410032008e057800c9009000690090002f
:1031d000808f500004003900090078005c0007006f
:1031e0000000e000290035000040200019006000c8
:1031f0000a0032000b017800a10020000c007800ca
:1032000036000700800678000d00e000060032005e
:10321000610516000a854600040037000b0578009a
:103220008006eb00010037000b0578004900900094
:10323000e9009000808050008a8f50000200310029
:10324000010578008006eb000a0178008c00780008
:103250002c0007008a855500490090000a004000b4
:10326000c00498000d00e00004003200090078005e
:10327000d70207000000e00004003a000b00e00065
:10328000020032000a064600cfff3700008020000f
:10329000190060000200320009007800cc0207002b
:1032a00000c02000190060000200320049009000b8
:1032b000e00498008b055700110009008885d800ac
:1032c000010037000000eb004f0778004f06be00fa
:1032d0004f05be004f04be0000000600030037008b
:1032e000b0cf1000050032000201e9008001780033
:1032f0000200e000faff3a00000005000300780039
:10330000000006008001780002003700b159780003
:103310000201e9000200e000fcff3a0000000600a4
:10332000020037000304e0000600320000017800cc
:1033300002007800b041780081cf5100f9ff3a00d7
:10334000010037000001eb000200780000000600d9
:10335000889fbe008a1f780000047800c800900093
:10336000680190000000eb00828f50003c003900a3
:10337000180078002200290002016000e20f5100cd
:1033800007003200012024000000e00001003d00a1
:1033900001202000008c70000080eb00300037001e
:1033a0000200260002006000820f500009003a006f
:1033b00038009000808f5000060039000800780027
:1033c00083020700800078000080eb000100e0002d
:1033d00023003a001805780000c0200000006500b6
:1033e00018003a00a8049000600220000800400085
:1033f000808f540013003a000020200021030700b2
:10340000200498000000e00005003a00290498001c
:10341000490498008904e80039049800080037003e
:103420000a60a0000a0c78004004980001202000e7
:103430008080400031049800400c9800500c9800a7
:103440000102070028009000500498003800900006
:103450006004980000002600180c70000000eb00cb
:103460004f0578004f04be0000000600fc874700af
:10347000889fbe008a9fbe008c9fbe008e1f780072
:103480000006780080c5b30080cf50000a003200eb
:103490007740400080cf50000a0032006940400071
:1034a00080cf50000b00320070e6210080bf9f00eb
:1034b000ae0020000a00370062e5210082bf9f00b5
:1034c0000600370073e6210083bf9f008e002000b6
:1034d0000300370074e6210084bf9f000e01200026
:1034e0003c02be002c03be000605be000404be0064
:1034f00040c6b30080cf500003003200654040005a
:1035000080cf50000b003a00e00f5200e08f5a00cd
:10351000e00f5b00e08f5b0006003d006000b8003c
:103520006011b80004045000858458000605590055
:1035300087855900e80f5700040032004000200042
:10354000f00f57003a003a00010037003000200029
:10355000e00f5400e08f5c00e00f5d00e08f5d0045
:1035600004003a00dc0890008d0120000100e0001a
:10357000070032008e00e900888060008fba970053
:103580008180420091407800f1ef9f007d01200092
:10359000800078008100e900050033008b05d10030
:1035a0000a85d3008984d3000884d300f9ff37004b
:1035b000089ebe000a96be00130037008d06e90083
:1035c0008e00e900848060000fb9970081004100ff
:1035d0001141780083fd2f008d81410082f7790031
:1035e000800178008301e900050033008783d10062
:1035f0000683d3008582d3000482d300f9ff37000d
:10360000049ebe000696be003c02be002c03be0017
:10361000e00f5200e08f5a00e00f5b00e08f5b008c
:10362000910034000d00e000e4ff3c008e00370004
:103630002c60900081c6b300814f50000b00320017
:1036400006003c000004e00008003200e6c0500024
:10365000814f500052003a0004003700c1c6b30049
:10366000814f50004e003a00230037000800e00070
:1036700004003a005c0890008d0120000000e0008a
:1036800007003200110009000e84d8000fba97001d
:103690000100420010407800f0ef9f007d01200003
:1036a000110009000e84d8000b003700110009003a
:1036b0000e04d8008d06e9008e81b9000204540082
:1036c0008fb89700088440009841780082fd2f0051
:1036d0000d01410083777900000478000800e000c4
:1036e000020032000d00e000f0ff3c00cfc4de001d
:1036f000614db90027003700e00f5400e08f5c00f7
:1037000004003a005c0890008d0120000000e000f9
:10371000080032006171b9000800be00a202070073
:103720000fba97008000420091407800f1ef9f00af
:103730007d0120006171b9000800be00adfc0700ea
:103740000c0037006171b9000800be008702070055
:103750008d06e90080f1b900020454008fba970089
:10376000088442009841780082fd2f000d0141003d
:10377000837779000004be00e00f5000e08f58000e
:10378000020032000d00e000eeff3c004fcdde00f5
:103790008a057800089ebe000a96be0032003700f7
:1037a000e00f5400e08f5c00e00f5d00e08f5d00f3
:1037b00004003a005c0890008d0120000000e00049
:1037c0000a0032006172b900612bb9000800be0026
:1037d0000a01be001d0307000fba970080004200d7
:1037e00091407800f1ef9f007d0120006172b900e7
:1037f000612bb9000800be000a01be000c030700df
:103800000e0037006172b900612bb9000800be00dc
:103810000a01be00110307008d06e90080f2b9001d
:10382000040454008fba970008844200984278003c
:1038300084fd2f000d02420085777a00009ebe00b5
:103840000296be003c04be002c05be00e00f5400f2
:10385000e08f5c00e00f5d00e08f5d00020034004f
:103860000d00e000e7ff3c00e80f570010003a00b1
:103870000c1090000038a3000d003200f78f5600a6
:1038800006003e0080fd2f000d004000ef40780054
:1038900000c3b30080cf50000500320002c3b30064
:1038a00071fd2f008d8040008d06e90082f77800c1
:1038b00078811600120e98006c00900083fd2f0096
:1038c0008f8141008d8041008efe07001c08900012
:1038d000dc089000810f500006003d000080500081
:1038e000000e98000c1090000040a10000169800f7
:1038f0000f0037000100e0000d003d008c1090002b
:10390000f4806000f08f500009003a007c099000bc
:10391000fc009000810051000c0990008280500052
:10392000008050004240a90001003400000e9800c1
:103930004f0778004f06be004f05be004f04be0083
:10394000cf01b100000006000400fa00889fbe000d
:103950008a9fbe008c1f7800000478000106780062
:10396000f80d9000780090008085550008089000c0
:103970008085550018089000808555002808900023
:1039800080855500380890008085550048089000d3
:10399000808555000002220090bf9f000003230095
:1039a000a0bf9f00081090000028a30015003a0057
:1039b0000b00e000130034000b0578008a04780047
:1039c000e20f55000100360029002000c8019000d8
:1039d00009017800ee8057005800900003000100b4
:1039e000500498000000e0008c003200680890004d
:1039f00009004000600c9800090555004240a900ec
:103a0000eeff3c00780190000200e0000c00340062
:103a1000c80190008c00780058009000030001005d
:103a2000500498008080eb000000e0007c00320031
:103a3000e80890007800900000804000600c98003a
:103a4000880c90000900e00011003400090578009e
:103a5000e28f5400010036002a002000c8019000c7
:103a60000a017800ec805700580090000300010024
:103a7000500498000000e0006800320068089000e0
:103a80000a004000600c98008a845400edff370063
:103a9000180990000200e0000c003400c8019000fa
:103aa000e8009000580090000300010050049800c6
:103ab0008080eb000000e00059003200e808900030
:103ac0001808900000804000600c9800a80c90003e
:103ad0000900e0001100340009057800e28f54006d
:103ae000010036002a002000c80190000a01780079
:103af000ec8057005800900003000100500498002b
:103b00000000e00045003200680890000a00400014
:103b1000600c98008a845400edff3700380990004b
:103b20000200e0000e003400e80090001808900049
:103b300080804000c8019000580090000300010000
:103b4000500498008080eb000000e0003400320058
:103b5000e80890003808900000804000600c980051
:103b6000c80c90000900e00011003400090578003d
:103b7000e28f5400010036002a002000c8019000a6
:103b80000a017800ec805700580090000300010003
:103b9000500498000000e000200032006808900007
:103ba0000a004000600c98008a845400edff370042
:103bb000081090008000eb000028a30018003200dd
:103bc0000b00e000160034008b0478000905780033
:103bd000e28f5400010036002a002000c801900046
:103be0000a017800ee8057005800900003000100a1
:103bf000500498000000e0000800320068089000bf
:103c00000a004000600c98008a8454004240a900d9
:103c1000eeff3c008000eb00010037008080eb00ed
:103c2000010078004f0678004f05be004f04be002b
:103c30000080fa000000060001087800000006007d
:103c400060ec21009d003700881f780048eb2100c0
:103c50001804e00003003a00f9ff070020c0b30099
:103c6000004c78004f04780000000600889fbe00da
:103c700000047800080078005500070080047800f0
:103c800000042000180060000200320028009000ac
:103c9000970007000000eb002004980038409000d7
:103ca0000004e000050035000000fb00f0fa07000a
:103cb0000000e000010032008084eb00181090004a
:103cc0000000e0000800320020fb07000000e000d8
:103cd000010032008084eb0018109000840007007f
:103ce0000000eb001014980000082000180060008d
:103cf000150032000001eb006000b8000202d000a5
:103d000063e1210003024200940f140005003a0011
:103d10000000400081804800008041000008eb0066
:103d20000600370061004000e08048000201e80022
:103d3000e80f5000e08f5800f0ff3a0008007800cc
:103d40006b0007000e003700000c780000c0eb008d
:103d500030449800600220000800400020049800d1
:103d60004004980050049800400c980060049800ab
:103d7000500c98007004980076004400000c9800e5
:103d8000090078004f04be0000000600881f78007c
:103d90000004eb006140b800e2ff2f00f3ff2f00aa
:103da0000401070042e22100800041001100780078
:103db0000000e00001003200acff07000804e8004a
:103dc000e80f5400f3ff3a004f04780000000600ab
:103dd000889fbe00000478000800e0000f003a0051
:103de0008004eb008800d00060e1210000804000ea
:103df000100078000000e00004003200f4ff07002b
:103e00000000e00001003d008084eb000804e800b1
:103e1000e80f5400f3ff3a002500370000002200ad
:103e2000180060008004eb0021003200a80490001c
:103e30000f00370009015100384090000000fb00de
:103e40008900780093fa07000000e00007003c00ba
:103e5000280090004004980060049800500c9800de
:103e60001890a0008084eb0011003700808444008b
:103e700048019000828f5400eeff39002800900026
:103e8000400498009800780002c020000281600081
:103e900001003a003800900001e8a300020032005f
:103ea0006004980001003700500c98008004eb007b
:103eb000090078004f04be00000006000100200049
:103ec0000100e00009003200010080000100e00074
:103ed000060032008100e900010088008100d00066
:103ee0000200800082804000800878000000060008
:103ef0000000e0002f003200c0017800e38f510085
:103f00002c0036000308a3002a003a0091f5800037
:103f10000100e00002003200810f50000400310077
:103f20001100980090f58800160037008200780094
:103f3000110190000200e00002003200800f5100e9
:103f4000faff39001102780084824000850f50008a
:103f500018003900808f520003003a0083084200a5
:103f600001007800070037000200e0000300320083
:103f700083014000830f51000e00390012009800a9
:103f800090009800900090000100e00009003200cd
:103f900010014000828f500006003a0002eb210021
:103fa0000009eb0010017800110841009100900019
:103fb0001100980000000600889fbe0000047800f1
:103fc00081f580000100e00002003200010078006d
:103fd0000d00370091f5800020eb21000400370030
:103fe000910f5400250036000180e80091009000f8
:103ff0000100e000faff3a0010003700920f540071
:104000001e0036000280e800100178000200e00087
:10401000faff3a001101780091f5800020eb2100b1
:1040200004003700910f5400140036000180e800ae
:1040300091009000828f5000faff3a00b9f580009d
:10404000888f54000100310088047800090078004e
:10405000360007000000e00004003a00888f54009a
:10406000050032008904d100f5ff370009187800f7
:104070009fff0700d2ff37000000eb004f04be0097
:1040800000000600881f7800630440000800a100bb
:104090008000eb00800f540021003600e30f540035
:1040a00001003e004800200008007800c2ff070021
:1040b0008000eb000000e000190032009000780062
:1040c0009101780064815100880f51000300310094
:1040d00011019000020878000700370008814000b5
:1040e00002087800910190001301980010017800f7
:1040f0001109140088087800100178000000eb0016
:104100000200e00004003200920190000300e00091
:10411000010032000280e80080f588008180e8001c
:10412000010078004f04780000000600800078004d
:104130000000eb000100e000050034000100780001
:104140000bfa0700e10f400001003a000000eb000d
:104150000000060000c0da000000060000c0da001f
:104160000000060000c0da0000000600839f68001f
:104170000100e00002003d0060001000e080180037
:104180000300e00002003d0060011100e081190021
:1041900018fa07004f00e00002003b00600010002a
:1041a000e08018000000060012fa07000400be00bc
:1041b00000000600020ab900001bb9000200b800a6
:1041c000810042008100430000000600889fbe007d
:1041d0008a9fbe0030044200b0844a0030054b0084
:1041e00090854b006000b1000898be000a90be00a8
:1041f0000440e10005c8e10006d0e10007d8e10075
:1042000002003100680040001008e8004f05be00c1
:104210004f04be0000000600889fbe008a9fbe00bb
:104220003004be002005be000418540005985c0050
:1042300006185d0007985d00110020000440e100b1
:1042400005c8e10006d0e10007d8e100010039000f
:104250008000eb00108810004f05be004f04be0028
:10426000000006001200fa00889fbe008a9fbe0070
:104270008c9fbe00e0b79f00f1b79f0082bf9f00f8
:1042800093bf9f000605be000404be000000eb00c3
:10429000d0b79f00c0b79f00b0b79f00a0b79f00e6
:1042a00090b79f000006eb005fb19700cfb097007a
:1042b000820141003fb097000200e00004003d0091
:1042c000370007007e805700c0ff0700030037005b
:1042d000330007007e805700cfff0700dfb697004e
:1042e0000d00e0000c0035006fb29700ffb29700a0
:1042f0000fbb97009fbb970010002000010020001b
:104300006011b80000027200818272000203730023
:10431000838373001b0007000c06e80001042000e3
:10432000810f5600e0ff3a000d00e00004003d0060
:104330000802be000a03be007e805700a3ff0700ec
:104340005fa897000000e00005003a001fb2970048
:10435000afb297003fb39700cfb3970009000700b3
:104360006fb09700ffb097000fb997009fb9970003
:104370004f06be004f05be004f04be000080fa008d
:10438000000006000100070000000600a4b79f001f
:10439000b5b79f00c6b79f00d7b79f0000000600c3
:1043a0004f09de0082817100b3b79f004f01de002c
:1043b0008180400082807000a1b79f008fb097007d
:1043c0004f09de00000040000200700090b79f001f
:1043d0007fa897004f01de0081804000828070003e
:1043e00081b79f000d0007004f3ade00000040003b
:1043f00004007000f0af9f000800070004024200b4
:1044000085824a0006034b0087834b00dfff0700cd
:104410000802be000a03be00000006002fb297008b
:10442000bfb297004fb39700dfb3970000000600bc
:10443000881f780018002000881f780089ff070077
:104440008f87e9004f04780000000600801feb0012
:1044500084ff07008f87e90000000600889fbe00e8
:104460008a9fbe00e00f5000e08f5800e00f590017
:10447000e08f59000c003d006044b8006055b80062
:104480000000540081805c0002015d0083815d00ba
:10449000180020001500070008003d001800070064
:1044a0000004eb00050037000004eb000f000700dc
:1044b00002003d001200070018002000dcff07008a
:1044c0000800e000060032006022b8006033b80047
:1044d0000000520081805a0002015b0083815b0072
:1044e0004f05be004f04be0000000600e00f520062
:1044f000e08f5a00e00f5b00e08f5b0000000600d9
:104500006044b8006055b8000402540085825c0025
:1045100006035d0087835d0000000600889fbe00e3
:104520008a9fbe008c1f7800e00f5000e08f58007b
:10453000e00f5900e08f59000d003d006044b800c5
:104540006055b8000000540081805c0002015d00ed
:1045500083815d001c0020000820e10009a8e10023
:104560000ab0e1000bb8e1000d003d000800370083
:104570000006eb00e00f5200e08f5a00e00f5b00f6
:10458000e08f5b0006003d006044b8006055b80055
:104590000402540085825c0006035d0087835d0091
:1045a000aaff07000c00e000060032006022b800fd
:1045b0006033b8000000520081805a0002015b00a5
:1045c00083815b004f0678004f05be004f04be009c
:0445d00000000600e1
:020000040000fa
:1045d400576500006c6300006f6d000065200000eb
:1045e400746f00002074000068650000204500001e
:1045f400434100004e200000536e00006966000035
:1046040066650000722e0000005000007265000014
:10461400737300002028000031290000207400007a
:104624006f2000007265000061640000206d0000ce
:10463400657300007361000067650000732e00005d
:10464400004d000045530000534100004745000061
:1046540020750000385f0000666c00006167000090
:10466400732000003d2000002020000020200000d6
:104674002020000020200000202000002025000031
:1046840030320000580a0000002000002020000002
:10469400202000002020000020750000313600009a
:1046a4005f460000726f00006d54000061730000eb
:1046b4006b490000442000003d2000002020000041
:1046c4002020000020250000640a000000200000d3
:1046d4002020000020200000202000002075000081
:1046e400385f000044610000746100004c65000004
:1046f4006e67000074680000203d00002020000068
:10470400202000002020000020250000640a000072
:1047140000200000202000002020000020200000b5
:1047240020750000333200005f5000006f730000fa
:10473400744d0000617200006b2000003d200000f9
:104744002020000020200000202000002025000060
:10475400640a000000200000202000002020000047
:104764002020000020200000206600006972000064
:10477400737400002062000079740000652000005a
:10478400203d000020200000202000002020000008
:1047940020250000640a000000530000656e00003c
:1047a400646500007220000045430000414e000093
:1047b40020490000443a0000200000004461000049
:1047c40074610000207700006974000068690000cb
:1047d4006e2000006d6500007373000061670000c7
:0847e400653a0000200000000e
:020000040000fa
:1047ec008343780093018000910188000000000051
:1047fc001003780093018800000000000600a1005f
:10480c00a3018000a101880006087800a30188009c
:10481c0093018000910188000000000010037800d3
:10482c0093018800000000000610a100a301800085
:10483c00a101880006087800a3018800f37f2000fe
:10484c0003016100c211dd0092018000910188001a
:10485c0000000000100378009201880000000000a6
:10486c0032002e000201630002817100a30180005e
:10487c00a101880002087800a3018800960180003d
:10488c000002be00040178002400b000040169009d
:10489c004260af0004f0a0000281d2000580b0009d
:1048ac008501780093018800000000000401780065
:1048bc0092027800960188000000000004002f008e
:1048cc0084826200a4018000a3018800050978009d
:1048dc00a4018800940180000001be0082027800cf
:1048ec004200b00082826a004260af0002f0a00079
:1048fc008582d2000380b00083007800910188008b
:10490c0000000000020078009001780094018800fb
:10491c0000000000f33fb200a2018000a10188005a
:10492c0003087800a201880093018000910188009f
:10493c0000000000100178009301880000000000c6
:10494c000290a100a3018000a10188000208780058
:10495c00a3018800930180009101880000000000f1
:10496c001001780093018800000000000280a10073
:10497c00a3018000a101880002087800a30188002f
:10498c009301800091018800000000001001780064
:10499c0093018800000000000240a100a3018000e8
:1049ac00a101880002087800a30188006f816300d0
:1049bc0093018000910188000000000090037800b2
:1049cc00930188000000000003ff2f008383630025
:1049dc0087037100a2018000a101880007087800fc
:1049ec00a201880000000600889fbe008a1f780084
:1049fc00980180009101880000000000900378006d
:104a0c0098018800000000000700a000a8018000a9
:104a1c00a101880007087800a8018800980180008f
:104a2c009101880000000000900378009801880034
:104a3c00000000000710a100a8018000a10188005f
:104a4c0007087800a8018800421cde00090020003d
:104a5c00f77f200088836300c23bdd009801800053
:104a6c0091018800000000009004780098018800f3
:104a7c000000000038002e000884640008847300d5
:104a8c00a7018000a101880008087800a701880010
:104a9c00c61bde00ca1add004613de000683720058
:104aac00f8ff2000860364009a0180000004be0019
:104abc00880278002800b00088826a004260af004b
:104acc0008f0a0008582d2000980b00009037800ac
:104adc009601880000000000880278009504780098
:104aec009a0188000000000008002f000884640070
:104afc0008847300a7018000a6018800880a78004a
:104b0c00a70188004a11dd00950180000003be005a
:104b1c00860178004600b000868169004260af00d3
:104b2c0006f0a0008381d2000780b00087007800d7
:104b3c0091018800000000000600780090017800c8
:104b4c009501880000000000f33fb20003017100e2
:104b5c00a3018000a101880002087800a30188004d
:104b6c009301800091018800000000001001780082
:104b7c0093018800000000000290a100a3018000b6
:104b8c00a101880002087800a3018800930180002d
:104b9c00910188000000000010017800930188004a
:104bac00000000000280a100a3018000a101880088
:104bbc0002087800a301880093018000910188000d
:104bcc000000000010017800930188000000000034
:104bdc000240a100a3018000a10188000208780016
:104bec00a30188006f01620093018000910188008d
:104bfc000000000010027800930188000000000003
:104c0c0003ff2f000302620004027100a201800066
:104c1c00a101880004087800a20188004f057800e3
:104c2c004f04be0000000600920180009101880034
:104c3c0000000000100278009201880000000000c3
:104c4c004322dd004522de008002eb00c222dd00a3
:104c5c0004002000970180000001be0002037800d0
:104c6c002200b00002036b004260af0002f0a00013
:104c7c000683d2000380b0000303780096018800fd
:104c8c00000000001203780097018800000000006b
:104c9c00f2ff2000020363008003eb004639dd00c5
:104cac00ca31de00830171004631dd000202720060
:104cbc008382720093018000000178004000b000f4
:104ccc00000169004260af0000f0a0000281d20038
:104cdc000180b00001017800920188000000000002
:104cec001001780093018800000000004a11de00da
:104cfc000281fb008001eb000200720083807200d5
:104d0c00000006000164a800b05d2400902088001b
:104d1c00100c200080208800000006007f406000fe
:104d2c00ef4f500007003600704050000080fb0031
:104d3c00110020000008dd000080ea002224b600eb
:104d4c00050037000080fb00110020000008dd008a
:104d5c000080ea002024b600000006007f406000be
:104d6c00ef4f5000070036001121800070405000ba
:104d7c000080fb00120020000010dd0001406000ec
:104d8c0005003700012180000080fb00120020008c
:104d9c000010dd0001406000000006002024ef0040
:104dac002224ef002824ef002a24ef000000060044
:104dbc0067406000e34f50002f00320004003e00bb
:104dcc00e14f5000140032001f003e000600370077
:104ddc00e54f50004000320033003900e64f5000e0
:104dec0055003a0048003700e1806000c708dd003c
:104dfc00f0f72f003004b60000807000802188008e
:104e0c0063016100c0ff2f003004b6000000710088
:104e1c008021880053003700cf08dd00f0ff270009
:104e2c003004b600008070008021880063016100ae
:104e3c004811dd00f0cf2f003004b60000007100e7
:104e4c008021880047003700e1806000c708dd0042
:104e5c00f0f72f003204b60000807000902188001b
:104e6c0063016100c0ff2f003204b6000000710026
:104e7c00902188003b003700cf08dd00f0ff2700b1
:104e8c003204b6000080700090218800630161003c
:104e9c004811dd00f0cf2f003204b6000000710085
:104eac00902188002f003700e1806000c708dd00ea
:104ebc00f0f72f003404b60000807000a0218800a9
:104ecc0063016100c0ff2f003404b60000007100c4
:104edc00a021880023003700cf08dd00f0ff270059
:104eec003404b60000807000a021880063016100ca
:104efc004811dd00f0cf2f003404b6000000710023
:104f0c00a021880017003700e1806000c708dd0091
:104f1c00f0f72f003604b60000807000b021880036
:104f2c0063016100c0ff2f003604b6000000710061
:104f3c00b02188000b003700cf08dd00f0ff270000
:104f4c003604b60000807000b02188006301610057
:104f5c004811dd00f0cf2f003604b60000007100c0
:104f6c00b02188000000060067406000e34f50004d
:104f7c001100320004003e00e14f50000a003200e4
:104f8c000b003e0006003700e54f50000e003200cb
:104f9c000b003900e64f50000f003a000c003700b0
:104fac003064a8000d0037003164a8000b003700f6
:104fbc003264a800090037003364a80007003700ea
:104fcc003464a800050037003564a80003003700de
:104fdc003664a800010037003764a8000000060002
:104fec0067406000e34f50001700320004003e00a1
:104ffc00e14f50000c0032000f003e00060037005d
:10500c00e54f50001800320013003900e64f5000f5
:10501c001d003a0018003700802180004300de009c
:10502c00614060001b003700802180004b00de00d7
:10503c006140600017003700902180004300de00c3
:10504c006140600013003700902180004b00de00af
:10505c00614060000f003700a02180004300de009b
:10506c00614060000b003700a02180004b00de0087
:10507c006140600007003700b02180004300de0073
:10508c006140600003003700b02180004b00de005f
:10509c006140600000000600889fbe008a9fbe0031
:1050ac008c9fbe006f4060006f426200e7c26200de
:1050bc000083fb00860443008984440007442000dd
:1050cc00878444000985e800c333de0087834300ee
:1050dc0088412000888343004234de0008044400e9
:1050ec000b4220000b0444000004a8000104e00063
:1050fc0008003200e38561000b30a000421ede0088
:10510c000d002000c560dd00818c7500020d78005b
:10511c00030037004511dd00820c7800000deb0018
:10512c0063416000210020008110dd008180fb00c4
:10513c00f20020000111dd000281ea00180161007b
:10514c000482fb008120dd00010c71000000d00006
:10515c006e0060008580fb008008dd0032002000be
:10516c000010dd000080ea0017006000808b7000ea
:10517c00100020000600dd001424b7000004a90074
:10518c004f06be004f05be004f04be0000000600d7
:10519c004200dd00c03fb200054320000500400086
:1051ac008082e8000004a8000104e0000f00320037
:1051bc00421bde0007002000f17f2000010363008a
:1051cc00e38061000404e000040032000130a00020
:1051dc004533dd0006887000020037004533dd00e2
:1051ec0001087300820a78000b003700f17f200061
:1051fc00010161000404e000040032004511dd00ef
:10520c000230a00002087800020037004511dd00d2
:10521c0002087800800aeb000004a90000000600d8
:10522c000165a800b05d240090288800100c2000b7
:10523c0080288800000006007f406000ef4f50007f
:10524c0007003600704050000080fb001100200069
:10525c000008dd000080ea002225b60005003700ba
:10526c000080fb00110020000008dd000080ea0037
:10527c002025b600000006007f406000ef4f500074
:10528c000700360011298000704050000080fb00a0
:10529c00120020000010dd00014060000500370006
:1052ac00012980000080fb00120020000010dd00ae
:1052bc0001406000000006002025ef002225ef00d1
:1052cc002825ef002a25ef0000000600674060004b
:1052dc00e34f50002f00320004003e00e14f50001d
:1052ec00140032001f003e0006003700e54f50004e
:1052fc004000320033003900e64f500055003a00b0
:10530c0048003700e1806000c708dd00f0f72f008f
:10531c003005b600008070008029880063016100b0
:10532c00c0ff2f003005b6000000710080298800f6
:10533c0053003700cf08dd00f0ff27003005b60022
:10534c000080700080298800630161004811dd0035
:10535c00f0cf2f003005b6000000710080298800c6
:10536c0047003700e1806000c708dd00f0f72f0030
:10537c003205b6000080700090298800630161003e
:10538c00c0ff2f003205b600000071009029880084
:10539c003b003700cf08dd00f0ff27003205b600d8
:1053ac000080700090298800630161004811dd00c5
:1053bc00f0cf2f003205b600000071009029880054
:1053cc002f003700e1806000c708dd00f0f72f00e8
:1053dc003405b60000807000a029880063016100cc
:1053ec00c0ff2f003405b60000007100a029880012
:1053fc0023003700cf08dd00f0ff27003405b6008e
:10540c0000807000a0298800630161004811dd0054
:10541c00f0cf2f003405b60000007100a0298800e1
:10542c0017003700e1806000c708dd00f0f72f009f
:10543c003605b60000807000b02988006301610059
:10544c00c0ff2f003605b60000007100b02988009f
:10545c000b003700cf08dd00f0ff27003605b60043
:10546c0000807000b0298800630161004811dd00e4
:10547c00f0cf2f003605b60000007100b02988006f
:10548c000000060067406000e34f5000110032003e
:10549c0004003e00e14f50000a0032000b003e00b9
:1054ac0006003700e54f50000e0032000b003900ab
:1054bc00e64f50000f003a000c0037003065a80092
:1054cc000d0037003165a8000b0037003265a800cd
:1054dc00090037003365a800070037003465a800c1
:1054ec00050037003565a800030037003665a800b5
:1054fc00010037003765a800000006006740600017
:10550c00e34f50001700320004003e00e14f500002
:10551c000c0032000f003e0006003700e54f500033
:10552c001800320013003900e64f50001d003a00fd
:10553c0018003700802980004300de0061406000c5
:10554c001b003700802980004b00de0061406000aa
:10555c0017003700902980004300de006140600096
:10556c0013003700902980004b00de006140600082
:10557c000f003700a02980004300de00614060006e
:10558c000b003700a02980004b00de00614060005a
:10559c0007003700b02980004300de006140600046
:1055ac0003003700b02980004b00de006140600032
:1055bc0000000600889fbe008a9fbe008c9fbe0024
:1055cc006f4060006f426200e7c262000083fb0024
:1055dc0086044300898444000754200087844400d7
:1055ec000985e800c333de0087834300885120001f
:1055fc00888343004234de00080444000b52200030
:10560c000b0444000005a8000104e000080032006f
:10561c00e38561000b30a000421ede000d0020006f
:10562c00c560dd00818c7500020d78000300370029
:10563c004511dd00820c7800000deb006341600029
:10564c00210020008110dd008180fb00f200200091
:10565c000111dd000281ea00180161000482fb00e7
:10566c008120dd00010c71000000d0006e00600094
:10567c008580fb008008dd00320020000010dd007a
:10568c000080ea0017006000808b70001000200082
:10569c000600dd001425b7000005a9004f06be006a
:1056ac004f05be004f04be00000006004200dd00a6
:1056bc00c03fb20005532000050040008082e80086
:1056cc000005a8000104e0000f003200421bde00c0
:1056dc0007002000f17f200001036300e3806100dc
:1056ec000404e000040032000130a0004533dd006a
:1056fc0006887000020037004533dd000108730096
:10570c00820a78000b003700f17f20000101610054
:10571c000404e000040032004511dd000230a0005a
:10572c0002087800020037004511dd0002087800fd
:10573c00800aeb000005a90000000600a0728000a2
:10574c00700060000000e9004f00de004400dd0046
:10575c00f1fe2f00a2728000828060008100700038
:10576c00a17288000000060000002400140eb60090
:10577c000000e9004f00de004e00dd00f1ff2b00c1
:10578c00a27080008280600081007000a17088008f
:10579c0000000600a07080000080ea004f00de00d0
:1057ac004f00dd00f1ff2700a270800082806000b6
:1057bc0081007000a17088000000060040f1880094
:1057cc000000060060f188000000060080f18800ef
:1057dc000000060090f1800000000600a0f180009f
:1057ec0000000600b0f180000000060070f2880096
:1057fc000000060070f280000000060080f28800b5
:10580c000000060080f2800000000600f0f180002d
:10581c0000000600f0f188000000060000f2800095
:10582c000000060000f2880000000600889fbe0001
:10583c008a9fbe00151007000000a20000f0a70010
:10584c000000ea000000e9004f00de00f1ff070055
:10585c000b1007000000a20000f0a7000000ea00f7
:10586c000000e9004f00de00eeff07004010e200f0
:10587c0052003200e5ff07000000e00027003a006c
:10588c00e6ff07000000e0005400320010828000a8
:10589c0021828000e00f5000e08f580004003a0095
:1058ac0042110700108288002182880019003700fd
:1058bc003e1107000004be001a8280002b8280007b
:1058cc000a0550008b855800803e2000800f550043
:1058dc00e08f5d0003003600188288002982880062
:1058ec000c003700c3ff0700c4ff0700c1ff07000f
:1058fc000000e800bdff07000a01be00803e20004a
:10590c000100200038f4070070818800188288009c
:10591c00298288004030ef003a003700bfff0700b3
:10592c000000e0002b003a001082800021828000f1
:10593c00e00f5000e08f580004003a001b110700e4
:10594c0010828800218288001a0037001711070086
:10595c000004be001a8280002b8280000a055000d1
:10596c008b855800823e2000820f5500e08f5d0031
:10597c000300360010828800218288000d00370059
:10598c009cff07009dff07009aff07000000e9003d
:10599c0096ff07000a01be00803e20000100200097
:1059ac0011f407000000ea0070818800188288005a
:1059bc00298288004030ef001200370093ff070067
:1059cc000000e0000500320094ff07000000e0003a
:1059dc00020032001000200000828800f310070043
:1059ec0012828000238280000200500083805800c5
:1059fc00723e2000820f5000e08f580001003600ec
:105a0c002e30ef004f05be004f04be000000060014
:105a1c00708180000000060030f188000000060054
:105a2c00c0f188000000060090f18800000006001c
:105a3c0050f1880000000600d0f18800000006003c
:105a4c00a0f188000000060070f18800000006003c
:105a5c00e0f1880000000600b0f1880000000600ac
:105a6c00c0f1800000000600d0f1800000000600ac
:105a7c00e0f180000000060060e2210010007800d8
:105a8c000000a20000f0a7000000ea000000e900fe
:105a9c004f00de000000060030f1800000f0a7008f
:105aac000000ea000000e9004f00de0000000600e4
:105abc0081e22100110078008008eb000000060054
:105acc00a0e22100100078000000a20000f0a70066
:105adc000000ea000000e9004f00de0000000600b4
:105aec0050f1800000f0a7000000ea000000e9007f
:105afc004f00de0000000600c1e22100110078001a
:105b0c008008eb0000000600e0e2210010007800a5
:105b1c000000a20000f0a7000000ea000000e9006d
:105b2c004f00de000000060070f1800000f0a700be
:105b3c000000ea000000e9004f00de000000060053
:105b4c0001e32100110078008008eb000000060042
:105b5c0020e42100100078000000a20000f0a70053
:105b6c000000ea000000e9004f00de000000060023
:105b7c0010f2800000f0a7000000ea000000e9002d
:105b8c004f00de000000060020f28000000006003e
:105b9c000001780022f288000200e00007003a00c1
:105bac0040ba2200f8090700e14f4000080032001b
:105bbc0031d0bf00e309070005003700548ea80060
:105bcc008001eb0040ba2200b109070031f0b700a8
:105bdc000000060020e421001000a2000000eb00f1
:105bec00ebff07000000060020e421000008eb009a
:105bfc000000eb00e6ff070000000600100020008c
:105c0c0010f288000000eb00e1ff07000000060026
:105c1c0060e42100100078000000a20000f0a70052
:105c2c000000ea000000e9004f00de000000060062
:105c3c0030f2800000f0a7000000ea000000e9004c
:105c4c004f00de000000060040f28000000006005d
:105c5c000001780042f288000200e00007003a00e0
:105c6c00a0bb2200c8090700e14f40000800320029
:105c7c0032d0bf00b30907000500370015cea800cd
:105c8c008001eb00a0bb22008109070032f0b700b5
:105c9c000000060060e421001000a2000000eb00f0
:105cac00ebff07000000060060e421000008eb0099
:105cbc000000eb00e6ff07000000060010002000cb
:105ccc0030f288000000eb00e1ff07000000060046
:105cdc00a0e42100100078000000a20000f0a70052
:105cec000000ea000000e9004f00de0000000600a2
:105cfc0050f2800000f0a7000000ea000000e9006c
:105d0c004f00de000000060060f28000000006007c
:105d1c000001780062f288000200e00007003a00ff
:105d2c0000bd220098090700e14f40000800320036
:105d3c0033d0bf00830907000500370015eea9001a
:105d4c008001eb0000bd22005109070033f0b700c1
:105d5c0000000600a0e421001000a2000000eb00ef
:105d6c00ebff070000000600a0e421000008eb0098
:105d7c000000eb00e6ff070000000600100020000a
:105d8c0050f288000000eb00e1ff07000000060065
:105d9c009aff07000000060093ff070000000600b2
:105dac00c6ff070000000600bfff0700000006004a
:105dbc00f2ff070000000600ebff070000000600e2
:105dcc0070f280000000060011ff070000f0a70031
:105ddc000000ea000000ea004f00de0000000600b0
:105dec00889fbe000aff0700000478000800e0004e
:105dfc000f003d00f4ff0700800078000000eb006e
:105e0c000100e000170032000804ea00cfc4de00f5
:105e1c0092f280008001eb0010002000820f5400f1
:105e2c00838f5c000f0035000000eb000d00370085
:105e3c00e5ff0700800078000000eb000100e000a7
:105e4c0008003200cfc4de0092f280008001eb002b
:105e5c0010002000820f5400838f5c00010035007d
:105e6c000000eb004f04be0000000600889fbe003f
:105e7c00e7fe0700000478000800e00014003d0075
:105e8c00d1ff07008000eb000000e0000e003200a4
:105e9c000804ea00cfc4de0092f280008001eb001f
:105eac00820f5400838f5c0007003500a2f2800043
:105ebc008001eb0011002000820f5400838f5c00e6
:105ecc00010034008000eb00010078001200370064
:105edc00bdff07008000eb000000e0000d00320069
:105eec00cfc4de0092f280008001eb00820f5400e0
:105efc00838f5c0007003500a2f280008001eb006c
:105f0c0011002000820f5400838f5c0001003400cc
:105f1c008000eb00010078004f04be00000006007a
:105f2c00889fbe00bafe0700000478000800e0005d
:105f3c000f003d00a4ff0700800078000000eb007c
:105f4c000100e000170032000804ea00cfc4de00b4
:105f5c00a2f280008001eb0010002000820f5400a0
:105f6c00838f5c000f003c000000eb000d0037003d
:105f7c0095ff0700800078000000eb000100e000b6
:105f8c0008003200cfc4de00a2f280008001eb00da
:105f9c0010002000820f5400838f5c0001003c0035
:105fac000000eb004f04be000000060098fe070046
:105fbc0080007800100020000100e00001003c008f
:105fcc000000eb000000060091fe07004f00de0011
:105fdc0000000600708180000000060090f2800036
:105fec000000060090f2880000000600a0f280007d
:105ffc0000000600a0f2880000000600508ea900e8
:10600c00568ea9005a8ea9005c8ea9001fcea9003d
:10601c0011cea9001bcea9001dcea9001feea90010
:10602c0011eea9001beea9001deea900ea0d070058
:10603c00e00d0700d60d0700ef0d0700f70d070068
:10604c000000eb00e9fd07000000eb00ebfd070092
:10605c000000eb0072fe07000000eb0076fe07006c
:10606c000000eb007afe0700dffe07000eff0700c2
:10607c003dff0700080e070000f0a7000000ea0033
:10608c000000e9004f00de0063fe0700050e07006c
:10609c0000f0a7000000ea000000e9004f00de005d
:1060ac0063fe0700020e070000f0a7000000ea00e4
:1060bc000000e9004f00de0063fe07000000eb006b
:1060cc00befd07000000eb00befd07000000eb006a
:1060dc00befd0700007d200053fe0700007d200060
:1060ec0057fe0700007d20005bfe0700200020000b
:1060fc00bcff070080002000beff0700320020001c
:10610c0003002000c0c12200610807000012230018
:10611c00b106070000000600889fbe008a9fbe00e3
:10612c008c1f78000005be00020678001f0f0700c8
:10613c000004be000c000100000178000a045400a9
:10614c008b845c008001eb0010002000820f540057
:10615c00838f5c0001003e000000eb004f067800ce
:10616c004f05be004f04be0000000600889fbe0015
:10617c008a9fbe000004be000205be000401780028
:10618c001900be00e4ff0700e10f54000c003200c0
:10619c0005003900e20f540010003200e30f5400e8
:1061ac001f003a00160037000a00e0001d00320004
:1061bc00fe0e0700808cbe0018002000190037006e
:1061cc000a00e00017003a00280020000000e00060
:1061dc00140032000004eb00120037000a00e0004b
:1061ec0010003200380020000000e0000d003200ea
:1061fc00ee0e0700808cbe0018002000090037004e
:10620c000a00e00007003a000004eb000000e00088
:10621c0004003a00100020000b00010001003700c0
:10622c000004eb00080078004f05be004f04be00d0
:10623c0000000600889fbe008a9fbe008c1f78005d
:10624c0000047800284090000074a00020449800be
:10625c00180078000000e00004003200b129200092
:10626c00810f500078003a005d0037008a0d07005e
:10627c0000f0a7000000ea000000e9004f00de007b
:10628c00e5fd0700870d070000f0a7000000ea00fd
:10629c000000e9004f00de00e5fd0700840d07005b
:1062ac0000f0a7000000ea000000e9004f00de004b
:1062bc00e5fd0700eafd070080047800eafd070011
:1062cc0000057800eafd070080057800eafd07006c
:1062dc0004bf220043be220000017800c10321004c
:1062ec0009007800a1ff070000067800f4fd070004
:1062fc0044bf220083be22000001780081032100ec
:10630c000a00780099ff070080047800fefd070062
:10631c0084bf2200c3be220000017800410321008b
:10632c000b00780091ff0700000578000c00780046
:10633c00bbfd070009007800bffd07000a007800cc
:10634c00c3fd070040ba22000f080700e14f4000d0
:10635c0006003a00fefd07000000e00002003200db
:10636c00548ea80001003700548ea900a0bb220057
:10637c0005080700e14f400006003a0024fe070024
:10638c000000e0000200320015cea800010037002a
:10639c0015cea90000bd2200fb070700e14f40000d
:1063ac0006003a004afe07000000e000020032003e
:1063bc0015eea9000100370015eea8007b0e0700b2
:1063cc003004980041049800a00020000100200037
:1063dc005004980061049800b0292000000c78004b
:1063ec00284090000028a3000400320040c0b300f5
:1063fc002044980030c0b3001700370058019000bb
:10640c00e801900038009000c80090006207070077
:10641c000000e00004003200284090000004a100bd
:10642c002044980003003700284090000004a0008e
:10643c0020449800a84090000040eb000108a30005
:10644c008aff32000400370080c0b300204498005b
:10645c00000ceb0030c0b3004f0678004f05be00b7
:10646c004f04be0000000600e7006000c808dd0015
:10647c00f28f2f0003208000030161000281700065
:10648c000220880001208000c508de00e780600043
:10649c00808f5000fbff3a00000006000200fa005b
:1064ac00881f780000047800284090000074a00039
:1064bc0020449800180078008000eb00b205200002
:1064cc00820f5000e08f5800df023e0000060100f2
:1064dc005b003700dc023700db023700da023700e2
:1064ec00d9023700d8023700d7023700d60237005e
:1064fc00d5023700d4023700d3023700d20237005e
:10650c00d1023700d0023700cf023700ce0237005d
:10651c00cd023700cc023700cb023700ca0237005d
:10652c00c9023700c8023700c7023700c60237005d
:10653c00c5023700c4023700c3023700c20237005d
:10654c00c1023700c0023700bf023700be0237005d
:10655c00bd023700bc023700bb023700ba0237005d
:10656c00b9023700b8023700b7023700b60237005d
:10657c00b5023700b4023700b3023700b20237005d
:10658c00b1023700b0023700af023700ae0237005d
:10659c00ad023700ac023700ab023700aa0237005d
:1065ac00a9023700a80237002c003700a6023700da
:1065bc00a5023700a4023700a302370047003700ba
:1065cc005f0037007900370093003700ad003700cb
:1065dc00c7003700e10037009b0237009a023700f2
:1065ec0099023700f70037000f0137009602370089
:1065fc00950237009402370093023700920237005d
:10660c00450137005d0137007701370091013700f4
:10661c00ac013700c6013700e1013700fb01370040
:10662c0015023700880237008702370086023700d0
:10663c00850237002c023700440237006302370012
:10664c008001eb000081eb00017a2000080078004b
:10665c000509070060032000000c7800284090001a
:10666c000028a3000400320040c0b300204498006e
:10667c0030c0b30078023700880890009100780091
:10668c00a10090000100e000030032000004a10012
:10669c0020449800020037000004a0002044980019
:1066ac00a84090000040eb000108a3006a023a00e9
:1066bc0081e7210008007800ad0a070010f4800083
:1066cc0070838800c0e7210010417800d1062100ba
:1066dc0082487800b0032000000c7800284090001d
:1066ec000028a3000400320040c0b30020449800ee
:1066fc0030c0b30058023700418280000128a3004b
:10670c0003003a000004a100204498000200370066
:10671c000004a00020449800284190000040eb00a9
:10672c000208a3004c023a000120a000418288001c
:10673c0040d621000008eb00c0032000000c7800bc
:10674c00284090000028a3000400320040c0b30091
:10675c002044980030c0b3003f023700c1ea21004a
:10676c0040d62100ab040700e24f50000400360075
:10677c00284090000004a10020449800030037003a
:10678c00284090000004a00020449800a8409000ed
:10679c000040eb000108a3002f023a0040d6210074
:1067ac000008eb00d0032000000c7800284090007b
:1067bc000028a3000400320040c0b300204498001d
:1067cc0030c0b30024023700a12e2a0040d621008d
:1067dc0090040700e24f500004003600284090005f
:1067ec000004a100204498000300370028409000ca
:1067fc000004a00020449800a84090000040eb004a
:10680c000108a30014023a0040d621000008eb0056
:10681c00e0032000000c7800284090000028a30022
:10682c000400320040c0b3002044980030c0b300d4
:10683c0009023700c1ea210040d621007504070087
:10684c00e24f500004003600284090000004a100e4
:10685c002044980003003700284090000004a0005a
:10686c0020449800a84090000040eb000108a300d1
:10687c00f9013a0040d621000008eb00f00320009b
:10688c00000c7800284090000028a300040032007f
:10689c0040c0b3002044980030c0b300ee01370074
:1068ac00c1ea210040d621005a040700e24f5000f3
:1068bc0004003600284090000004a10020449800f9
:1068cc0003003700284090000004a00020449800ea
:1068dc00a84090000040eb000108a300de013a0044
:1068ec0040d621000008eb0000042000000c7800ca
:1068fc00284090000028a3000400320040c0b300e0
:10690c002044980030c0b300d301370071302a0006
:10691c0040d621003f040700e24f5000040036002f
:10692c00284090000004a100204498000300370088
:10693c00284090000004a00020449800a84090003b
:10694c000040eb000108a300c3013a0040d621002f
:10695c000008eb0010042000000c78002840900088
:10696c000028a3000400320040c0b300204498006b
:10697c0030c0b300b8013700c1ea210040d6210075
:10698c0024040700e24f5000040036002840900019
:10699c000004a10020449800030037002840900018
:1069ac000004a00020449800a84090000040eb0098
:1069bc000108a300a8013a004850a9005004200087
:1069cc00000c7800284090000028a300040032003e
:1069dc0040c0b3002044980030c0b3009e01370083
:1069ec00418280000138a30003003a000004a1009a
:1069fc0020449800020037000004a00020449800b6
:106a0c00284190000040eb000208a30092013a00dc
:106a1c000130a0004182880060d721000008eb0003
:106a2c0060042000000c7800284090000028a3008f
:106a3c000400320040c0b3002044980030c0b300c2
:106a4c008501370012c0b300e480570060d72100e5
:106a5c0064030700e24f5000040036002840900009
:106a6c000004a10020449800030037002840900047
:106a7c000004a00020449800a84090000040eb00c7
:106a8c000108a30074013a004870a90010c3b300b8
:106a9c00cff8970080cf5000eefe3a0080e721003f
:106aac001080fb00801f780030322a00801f780095
:106abc00ebef07007a1ef80070342a00801f780074
:106acc00e7ef0700c0e721001080fb00801f780073
:106adc0090362a00801f7800e1ef0700f0f3800069
:106aec0001f48000809fbe00b0382a00801f78001f
:106afc00dbef070020e821001080fb00801f7800ee
:106b0c00d03a2a00801f7800d5ef0700c00420007f
:106b1c00000c7800f6875700284090000028a3004e
:106b2c000400320040c0b3002044980030c0b300d1
:106b3c0049013700418280000128a30003003a007c
:106b4c000004a10020449800020037000004a000bb
:106b5c0020449800284190000040eb000208a3005c
:106b6c003d013a000120a0004182880040d621005e
:106b7c000008eb00d0042000000c780028409000a6
:106b8c000028a3000400320040c0b3002044980049
:106b9c0030c0b30030013700f13c2a0040d6210050
:106bac009c030700e24f5000040036002840900080
:106bbc000004a100204498000300370028409000f6
:106bcc000004a00020449800a84090000040eb0076
:106bdc000108a30020013a0040d621000008eb0078
:106bec00e0042000000c7800284090000028a3004e
:106bfc000400320040c0b3002044980030c0b30001
:106c0c0015013700c1ea210040d62100810307009d
:106c1c00e24f500004003600284090000004a10010
:106c2c002044980003003700284090000004a00086
:106c3c0020449800a84090000040eb000108a300fd
:106c4c0005013a0040d621000008eb00f0042000ba
:106c5c00000c7800284090000028a30004003200ab
:106c6c0040c0b3002044980030c0b300fa00370095
:106c7c0030e821009040780040d621005a010700ee
:106c8c00e24f500004003600284090000004a100a0
:106c9c002044980003003700284090000004a00016
:106cac0020449800a84090000040eb000108a3008d
:106cbc00e9003a0040d621000008eb000005200056
:106ccc00000c7800284090000028a300040032003b
:106cdc0040c0b3002044980030c0b300de00370041
:106cec00c1ea210040d621004a030700e24f5000c0
:106cfc0004003600284090000004a10020449800b5
:106d0c0003003700284090000004a00020449800a5
:106d1c00a84090000040eb000108a300ce003a0010
:106d2c0040d621000008eb0010052000000c780074
:106d3c00284090000028a3000400320040c0b3009b
:106d4c002044980030c0b300c300370020e8210075
:106d5c009040780040d6210023010700e24f5000fc
:106d6c0004003600284090000004a1002044980044
:106d7c0003003700284090000004a0002044980035
:106d8c00a84090000040eb000108a300b2003a00bc
:106d9c0040d621000008eb0020052000000c7800f4
:106dac00284090000028a3000400320040c0b3002b
:106dbc002044980030c0b300a7003700c1ea21007e
:106dcc0040d6210013030700e24f500004003600a8
:106ddc00284090000004a1002044980003003700d4
:106dec00284090000004a00020449800a840900087
:106dfc000040eb000108a30097003a0040d62100a8
:106e0c000008eb0030052000000c780028409000b2
:106e1c000028a3000400320040c0b30020449800b6
:106e2c0030c0b3008c003700013e2a0040d6210050
:106e3c00f8020700e24f5000040036002840900092
:106e4c000004a10020449800030037002840900063
:106e5c000004a00020449800a84090000040eb00e3
:106e6c000108a3007c003a0040d621000008eb008a
:106e7c0040052000000c7800284090000028a3005a
:106e8c000400320040c0b3002044980030c0b3006e
:106e9c0071003700c1ea210040d62100dd02070055
:106eac00e24f500004003600284090000004a1007e
:106ebc002044980003003700284090000004a000f4
:106ecc0020449800a84090000040eb000108a3006b
:106edc0061003a004850a9006c70ef005400370074
:106eec0090052000000c7800284090000028a3009a
:106efc000400320040c0b3002044980030c0b300fe
:106f0c0055003700418280000128a30003003a009d
:106f1c000004a10020449800020037000004a000e7
:106f2c0020449800284190000040eb000208a30088
:106f3c0049003a000120a0004182880040d621007f
:106f4c000008eb00a0052000000c78002840900001
:106f5c000028a3000400320040c0b3002044980075
:106f6c0030c0b3003c003700c106210091407800ce
:106f7c008180fb0020e821000080400090407800d8
:106f8c0040d6210098000700e24f50000400360064
:106f9c00284090000004a100204498000300370012
:106fac00284090000004a00020449800a8409000c5
:106fbc000040eb000108a30027003a0040d6210056
:106fcc000008eb00b0052000000c78002840900071
:106fdc000028a3000400320040c0b30020449800f5
:106fec0030c0b3001c003700c1ea210040d621009c
:106ffc0088020700e24f5000040036002840900041
:10700c000004a100204498000300370028409000a1
:10701c000004a00020449800a84090000040eb0021
:10702c000108a3000c003a004850a9006c70ec0059
:10703c006cd0bf006d50e300a9ff3e0000c3b3004d
:10704c00c0ff9f0083fd370080c0b3002044980030
:10705c00000ceb0030c0b3004f0478000080fa0045
:10706c0000000600530907000000eb00fefc0700bf
:10707c00401f200026fb070040302400d6020700ea
:10708c0040252300d4020700000006000000210068
:10709c0041ce2100010878008000eb00110098001f
:1070ac00210098000204200032009800800021008a
:1070bc0043d22100030878001100980021009800a9
:1070cc0032009800960a0700000006000080fb00c2
:1070dc004400de00e94f5000020036007043b0005f
:1070ec00010037000043b000000006006f40600054
:1070fc00e94f5000020036007043b0000100370029
:10710c000043b00000000600881f780000047800df
:10711c00284090000074a0002044980018017800ca
:10712c000200e0000400320031052000810f510004
:10713c0027003a000c00370081417800b202210090
:10714c0003497800118080008100e800618188008b
:10715c0002042000828f500001003a002c30ef0016
:10716c0031052000010c78000028a3000400320037
:10717c0040c0b3002044980030c0b3001800370062
:10718c006181800022808000810f51000300320059
:10719c000004a10020449800020037000004a00065
:1071ac0020449800284190000040eb000208a30006
:1071bc000b003a000000210010814000b3022100b6
:1071cc00934178000349780011009800040a0700e5
:1071dc0080c0b30020449800000ceb0030c0b3001a
:1071ec004f04780000000600889fbe000004780061
:1071fc0081447800284090000074a000204498003e
:10720c00180078000000e00004003200a106200005
:10721c00810f50003f003a001900370001c3b30042
:10722c0080d921000148780081c7b3000000e80034
:10723c000148780009407800a4ff0700a1d921007b
:10724c008048780009407800a8ff0700b1d92100d8
:10725c00804878000100e8000048eb002a70ef003d
:10726c000210ec004081880001042000810f5000c6
:10727c0001003a002830ef00a0062000000c780036
:10728c00284090000028a3000400320040c0b30046
:10729c002044980030c0b3002200370041818000a8
:1072ac0022808000810f5100030032000004a100f5
:1072bc0020449800020037000004a00020449800ed
:1072cc00284190000040eb000208a30015003a0092
:1072dc000000210090814000a202210012417800a0
:1072ec000282fb0085d92100048242009449780077
:1072fc000241e80002427800a30221008449780090
:10730c0011009800b60907002ad0bf00e34f5000c7
:10731c00d3ff360080c0b30020449800000ceb0073
:10732c0030c0b3004f04be0000000600881f780078
:10733c000004780081427800284090000074a0007e
:10734c0020449800180078000000e000040032008f
:10735c0041082000810f500063003a003d003700c7
:10736c002670ef0030c6b30080cf52000900360003
:10737c000580fb0042062000110009000280d800a5
:10738c0033d9210002c3b3008249400010c0b300be
:10739c0026f0b700e9cf5200130036006602210038
:1073ac00164378000681fb0034d92100020242000a
:1073bc008581fb0042062000110009008281d80063
:1073cc00810178008381fb00a200200011000900dc
:1073dc008281d8000001780003c3b300034a410046
:1073ec000640e80026f0b700620221001241780046
:1073fc000282fb0036d92100040243008580fb0089
:10740c00a3002000110009008380d80003c3b3003f
:10741c0003ca40008240e80064022100014a78005f
:10742c008180fb00010043000048eb002770ef0057
:10743c002a0037000210ec00208188000104200093
:10744c00810f500001003a002430ef00400820006a
:10745c00000c7800284090000028a30004003200a3
:10746c0040c0b3002044980030c0b3002200370065
:10747c002181800022808000810f510003003200a6
:10748c000004a10020449800020037000004a00072
:10749c0020449800284190000040eb000208a30013
:1074ac0015003a000000210090814000720221007a
:1074bc00124178000282fb0035d92100048242007f
:1074cc00944978000241e8000242780073022100de
:1074dc0084497800110098004109070027d0bf00ab
:1074ec002650e300d3ff3e0080c0b3002044980038
:1074fc00000ceb0030c0b3004f0478000000060015
:10750c00889fbe008a9fbe008c1f78000006780002
:10751c000204be002c4090000074a000204698008d
:10752c001c0078000000e00004003200410a20003a
:10753c00810f50005f003a003900370001c3b300df
:10754c0080d821000148780081c7b3000000e80012
:10755c0001487800481dde000b0020000a4078002e
:10756c00dafe0700a1d82100804878000a40780094
:10757c00defe0700b1d8210080487800404dde00c7
:10758c000b0020000a407800d0fe0700c1d8210073
:10759c00804878000a407800d4fe0700d1d821003a
:1075ac0080487800c84dde004848dd004845de00c4
:1075bc000a0570000a407800c4fe0700e1d82100db
:1075cc00804878000a407800c8fe0700f1d82100f6
:1075dc008048780008407800bcfe070001d92100e3
:1075ec008048780008407800c0fe070011d92100bf
:1075fc00804878000100e8000048eb002270ef00a2
:10760c000210ec000081880001042000810f500062
:10761c0001003a002030ef00400a2000000e7800f4
:10762c002c4090000028a3000400320040c0b3009e
:10763c002046980030c0b300220037000181800042
:10764c0022808000810f5100030032000004a10051
:10765c0020469800020037000004a0002046980045
:10766c002c4190000040eb000208a30015003a00ea
:10767c00000021009081400022022100124178007c
:10768c000282fb0085d821000482420094497800d4
:10769c000241e8000242780023022100844978006c
:1076ac0011009800ce08070022d0bf00e94f50000f
:1076bc00d3ff360080c0b30020469800000eeb00cc
:1076cc0030c0b3004f0678004f05be004f04be001b
:1076dc0000000600881f7800000478002840900005
:1076ec000074a00020449800180078000000e0000e
:1076fc0004003200910b2000810f500033003a003f
:10770c000e00370082417800c00121000348780048
:10771c00d18088001d70ef002a0037000210ec00a9
:10772c00f080880001042000810f500001003a0015
:10773c001e30ef00900b2000000c780028409000c9
:10774c000028a3000400320040c0b300204498007d
:10775c0030c0b30021003700f1808000248080000d
:10776c00810f5200030032000004a1002044980055
:10777c00020037000004a00020449800284190002b
:10778c000040eb000208a30014003a0002002100a4
:10779c0012824000d3012100934178000380fb004a
:1077ac001a10b400104a78008341e80003427800b4
:1077bc00d0012100044878001101980088080700c6
:1077cc001c70ed001c50e200d4ff3a0080c0b300e6
:1077dc0020449800000ceb0030c0b3004f0478003c
:1077ec0000000600a04190000374a0002340980004
:1077fc00900178000300e00004003200d40c20005b
:10780c00848f510034003a000700370053012100e7
:10781c0082497800b18088001870ef002a00370088
:10782c00d30c200003087800a04190000328a3008b
:10783c000400320041c0b3002140980033c0b300b3
:10784c00290037008400210094029000240290004b
:10785c00848f5200030032000304a10023409800df
:10786c00020037000304a00023409800204290003f
:10787c008041eb000408a3001b003a000c30ec0024
:10788c000304200065808000838f520001003a00c1
:10789c000c30ef008301210093417800840021001b
:1078ac009402780024029000848242000382fb0040
:1078bc0004824000154a78008341e8008342780036
:1078cc0084012100054a780083012100934178004e
:1078dc0082cf5100d2ff390081c0b3002140980003
:1078ec000008eb0033c0b300034078000000060032
:1078fc00204190000274a0002240980010017800f2
:10790c000200e00004003200e30d2000830f510060
:10791c003a003a00030037001470ef00e20d20002b
:10792c0002087800204190000228a30004003200d5
:10793c0041c0b3002140980032c0b300330037007f
:10794c008300210013029000a3019000830f5200ca
:10795c00030032000204a10022409800020037000c
:10796c000204a00022409800a04190000041eb00ce
:10797c000308a30025003a000c30ec0002042000a0
